:0407D90012B000203A
:0407DD00116E000099
:03000000020026D5
:1000260075812778277600D8FC900C37AE83AF828F
:100036009000481200646005E4F0A380F69000C2C8
:1000460012006D9000C612006D9000CA12008B90CF
:1000560000D012008B75D0001222430200D6EF6545
:10006600827003EE658322E493F8740193F97402B7
:1000760093FE740393F5828E83E869700122E493FC
:10008600F6A30880F4E493FC740193FD740293FED6
:10009600740393FF740493F8740593F582888312AE
:1000A6000064700122E493A3A883A9828C838D82C5
:1000B600F0A3AC83AD828883898280E3282807B7C2
:1000C600282807B70C3707D907B70C5907E107E106
:0200D60080FEAA
:06230F000100480108175F
:0307B700010048F6
:1007E100900026120793900001120545EAFDE9C326
:1007F10090002BFEE0CE9EFC90002AE0FEED9ED301
:10080100FDEC9404ED64809480403890002612073A
:10081100A59000011205459000291207A59000231B
:1008210012079CA31207AE90000112071090002935
:100831001207A5E412068D9000231207AE90000165
:1008410012071622900035EDF0A3ECF02404FCE42D
:100851003DFD902313E493FF740193C3900C39FA87
:10086100E0CA9AFE900C38E0FAEF9AFFECD39EEDC5
:100871009F505B900C371207A5740112068D9000F2
:1008810036E02404FA900035E03400C0E0900032F4
:10089100120793D0E0CAFDCAFE900C39E02DF0FD9D
:1008A100900C38E03EF0FE900C37E0FF90003212E1
:1008B10007AE900001120710900C371207A59000A7
:1008C10036E0C3CD9DFD900035E0CE9EFE22902303
:1008D1000F12077890002C12079390002DE0FDA3D2
:1008E100E0FC900C39E0D39C900C38E09D50030261
:1008F100098B90002C1207A5900032120793120465
:100901009C7072900001120545EAFDE9C390002E2A
:10091100FEE0CE9EFC90002DE0FEED9EFDEC24FC61
:10092100FCED34FFFD900036E0D39C900035E09D56
:10093100504390002CE0FFA3E0A3E02404FDEE343B
:1009410000FE9000321207AE740112067F90002F54
:10095100120793900036E02DFD900035E03EFE90A9
:100961000029120793E9FDEAFEEBFF1207E190006F
:100971002F1207A5229000321207A590000112053F
:0F0981004590002C12079C0208DBE4FDFEFF22CC
:1000D800E88BF0A4C98AF0A429F9E88AF0A4F8E525
:0500E800F029F9482297
:1000ED00EBC9FBEAC8FAEB335008E4C39AFAE49B78
:1000FD00FBD392F0E930E709B2F0C3E498F8E49944
:10010D00F912014030F008C3E498F8E499F9482257
:10011D00EBC9FBEAC8FA89F01200F320F706EAF8FA
:0D012D00EBF94822C3E49AF8E49BF948225C
:10013A00EBC9FBEAC8FAE94B7010E8C0F08AF08410
:10014A00F8AAF0D0F079007B0022ECC0E0EDC0E024
:10015A00EEC0E07D007E007C10C3E833F8E933F995
:10016A00ED33FDEE33FEED9AEE9B4005FEED9AFD72
:10017A0008DCE6EDFAEEFBD0E0FED0E0FDD0E0FCD4
:03018A00E849221F
:0F018D00EBC9FBEAC8FA120140EAF8EBF9482285
:10019C0030E01B20E30C08E625F0F6F5F018E63C01
:1001AC00F62209E725F0F7F5F019E73CF72230E2E3
:1001BC0011C083A3E025F0F5F0F01582D083E03C6C
:1001CC00F02220E30C08E225F0F2F5F018E23CF204
:0D01DC002209E325F0F3F5F019E33CF322CE
:1001E900F5F0EDCCFD1205DF800D7D00900001F5E5
:0F01F900F0EDCCFD1205FC12019CCDFCE5F022CF
:1002080030E02720E31208E6C0E025F0F618E6F50E
:10021800F03CF6E5F0D0F02209E7C0E025F0F71948
:10022800E7F5F03CF7E5F0D0F02230E217A3E0C0A4
:10023800E0C08325F0F01582D083E0F5F03CF0E5CE
:10024800F0D0F02220E31208E2C0E025F0F218E234
:10025800F5F03CF2E5F0D0F02209E3C0E025F0F338
:0B02680019E3F5F03CF3E5F0D0F022C4
:10027300F5F0EBCCFB12062D8008F5F0EBCCFB126E
:0A028300064E120208CBFCE5F02243
:10028D0030E03A30E302E9F8E8C0E0E6F908E6F8D4
:10029D0030F0051200D8801B30F1051200F38013E9
:1002AD0030F205120140800B30F30512012380035B
:1002BD00120193D0E0C9F709C8F7C8F92230E2332B
:1002CD00E0F9C083A3E0F830F0051200D8801B30B0
:1002DD00F1051200F3801330F205120140800B304E
:1002ED00F3051201238003120193E8F0D0831582E8
:1002FD00E9F02230E302E9F8E8C0E0E2F908E2F8BB
:10030D0030F0051200D8801B30F1051200F3801378
:10031D0030F205120140800B30F3051201238003EA
:0D032D00120193D0E0C9F309C8F3C8F9220A
:10033A0075F001801275F002800D75F00480087561
:10034A00F008800375F000CACEC0E0EDCBCFC0E064
:10035A00E9FDE8C0E012062D802875F001801275CB
:10036A00F002800D75F004800875F008800375F0BE
:10037A0000CACEC0E0EDCBCFC0E0E9FDE8C0E01294
:10038A00064E12028DD0E0C8FAE9CDF9D0E0CFFBD3
:05039A00D0E0CECA22F4
:10039F0075F001801275F002800D75F004800875FC
:1003AF00F008800375F000CACEC0E0EFCBFFE9CDB7
:1003BF00C0E0E8C0E012062D802875F001801275AC
:1003CF00F002800D75F004800875F008800375F059
:1003DF0000CACEC0E0EFCBFFE9CDC0E0E8C0E0122D
:1003EF00064E12028DD0E0C8FAEDC9CFCBD0E0FD9A
:0503FF00D0E0CECA228F
:10040400E8FCE9FDEAFEEBFF8008ECF8EDF9EEFA12
:10041400EFFBEC28FCED39FDEE3AFEEF3BFF4E4DD1
:020424004C2268
:10042600F5F0E9800DF5F0EB8008F5F0ED8003F5C9
:10043600F0EFD083D082C0E0C3E493A3C5F095F07B
:10044600D0F0C0E0E493A3C5F095F0700302046C0D
:06045600A3D0E0020488BF
:10045C00D083D082F5F0C3E493A3C5F095F0C0E04F
:10046C00C3D0F0E493A395F04012A3A3C3E5F033FB
:10047C00500205832582F58250020583740193C0D6
:06048C00E0E493C0E02251
:100492001205DF800D1205FC800812062D80031262
:1004A200064E30E00720E302E622E72230E1072091
:0E04B200E302E222E32230E202E022E493229F
:1004C0001205FC80031205DFADF0120508CDC5F062
:0204D000CD223B
:1004D2001205FC80031205DFAFF0120508CFC5F04C
:0204E200CF2227
:1004E40012064E800312062DA9F0120508C9C5F0A4
:0204F400C9221B
:1004F60012064E800312062DABF0120508CBC5F08E
:02050600CB2206
:1005080030E01020E306E6F5F008E622E7F5F0090A
:10051800E7192230E11020E306E2F5F008E222E3D1
:10052800F5F009E3192230E206E0F5F0A3E022E451
:0705380093F5F0740193221A
:06053F001205FC02059309
:0605450012064E02054BF8
:10054B0030E01520E309E6FB08E6FA08E6F922E7B6
:10055B00FB09E7FA09E7F92230E11520E309E2FB91
:10056B0008E2FA08E2F922E3FB09E3FA09E3F922CC
:10057B0030E209E0FBA3E0FAA3E0F922E493FB7479
:08058B000193FA740293F922B6
:1005930030E01720E309E6FF08E6FE08E6FD22E760
:1005A300FF09E7FE09E7FD19192230E11720E309E6
:1005B300E2FF08E2FE08E2FD22E3FF09E3FE09E3AE
:1005C300FD19192230E209E0FFA3E0FEA3E0FD22BA
:0C05D300E493FF740193FE740293FD2278
:1005DF00BB0003740922BB010789828A837404223A
:0D05EF00BB020789828A83741022740A22DD
:1005FC00BB0007E92582F8740122BB010DE92582B5
:10060C00F582EA3583F583740422BB020DE9258259
:10061C00F582EA3583F583741022E92582F8740299
:01062C0022AB
:10062D00BF0005EDF8740122BF01078D828E837422
:10063D000422BF02078D828E83741022EDF874029E
:01064D00228A
:10064E00BF0007ED2582F8740122BF010DED258252
:10065E00F582EE3583F583740422BF020DED2582FB
:10066E00F582EE3583F583741022ED2582F874023F
:01067E002259
:10067F00C0E01205DF8013C0E01205FC800CC0E063
:10068F0012062D8005C0E012064E30E00B20E30469
:10069F00D0E0F622D0E0F72230E10B20E304D0E0E7
:0A06AF00F222D0E0F322D0E0F022A6
:0B06B900C0E0EFC0E01205FC0206DA12
:0B06C400C0E0EBC0E012062D0206DAD9
:0B06CF00C0E0EBC0E012064E0206DAAD
:1006DA0030E01420E308D0E0F6D0E008F622D0E0BB
:1006EA00F7D0E009F7192230E11420E308D0E0F24C
:1006FA00D0E008F222D0E0F3D0E009F31922D0E0EA
:06070A00F0D0E0A3F02294
:060710001205FC02073D8A
:0607160012064E02071C52
:10071C0030E009EBF608EAF608E9F62230E109EBDD
:10072C00F208EAF208E9F222EBF0A3EAF0A3E9F00E
:01073C00229A
:10073D0030E01720E309EFF608EEF608EDF622EFAC
:10074D00F709EEF709EDF719192230E11520E30944
:10075D00EFF208EEF208EDF222EFF309EEF309EDF8
:0B076D00F322EFF0A3EEF0A3EDF0226A
:0C077800E493FF740193FE740293FD22D1
:0D078400740193F5F0E493F58385F0822273
:02079100E4730F
:09079300EFF0A3EEF0A3EDF0225B
:09079C00EBF0A3EAF0A3E9F0225E
:0907A500E0FFA3E0FEA3E0FD2249
:0907AE00E0FBA3E0FAA3E0F9224C
:10099000E4900037F0A3F0A3F090003EE0FBA3E06A
:1009A000FA90003AEFF0A3EEF0A3EDF0EA9003F72F
:1009B0001206CFEC9003F512069490003DF09000E3
:1009C00045E09003F4120694E4FB9000061206CF73
:1009D0009000041206CF9000021206CF1206C490B7
:1009E00003F41204A175F00EA4ABF0FCCBFDCB1206
:1009F000084590003AE0FBA3E0FAA3E0F99003F980
:100A00001207107401900008120686900009120661
:100A100086900042E09003F61206869003F51204D9
:100A2000976003020ACBC2AF900042E0640160020B
:100A300074FF04900037FCE02CF0900043E0600B62
:100A4000438780900037E004F0800753877F900051
:100A500037E0900040E0FDA3E01204300000030AFC
:100A6000BC0A690A7B0A900AA6900037E0244BF57D
:100A700082E4340CF583E0F58D8041900037E0048A
:100A8000F0E0244BF582E4340CF583E0F58D802C06
:100A9000900037E02402F0E0244BF582E4340CF5BA
:100AA00083E0F58D8016900037E02403F0E0244BBE
:100AB000F582E4340CF583E0F58D8000759850756F
:100AC0008920D28ED2ACD2BC020CB1900042E0643C
:100AD00002600274FF04600474048001E490003733
:100AE000FCE02CF0900040E0FDA3E0120430000098
:100AF000030B6E0AFB0B150B320B50900037E024F2
:100B000051F582E4340CF583E07D00900038CDF09F
:100B1000A3CDF08059900037E004F0E02451F58235
:100B2000E4340CF583E07D00900038CDF0A3CDF0E7
:100B3000803C900037E02402F0E02451F582E43458
:100B40000CF583E07D00900038CDF0A3CDF0801E41
:100B5000900037E02403F0E02451F582E4340CF5F2
:100B600083E07D00900038CDF0A3CDF080009000B0
:100B700044E04480FC90003AE0FFA3E0FEA3E0FDE7
:100B80009003F71204F62403FAE43BFBEAF8EBF9CE
:100B90007A007B00ECC0E0E4FCFDFF04FE120416CA
:100BA000EEFFEDFEECFDD0E012068D900039E0FC8A
:100BB000A3E0FFA3E0FEA3E0FD9003F71204F6FA22
:100BC000F8EBF97A007B00ECC0E0E4FCFDFF04FEEA
:100BD000120416EEFFEDFEECFDD0E012068D900043
:100BE0003AE0FFA3E0FEA3E0FD9003F71204F60451
:100BF000FA70010BEAF8EBF97A007B00E4FCFDFFE8
:100C000004FE120416EEFFEDFEECFDE412068D90DC
:100C10000044E0547FFC90003AE0FFA3E0FEA3E034
:100C2000FD9003F71204F62403FAE43BFBEAF8EB29
:100C3000F97A007B00ECC0E0E4FCFDFF04FE120446
:100C400016EEFFEDFEECFDD0E012068D90003AE0CE
:100C5000FFA3E0FEA3E0FD9003F71204F604FA7090
:100C6000010BEAF8EBF97A007B00E4FCFDFF04FEDF
:100C7000120416EEFFEDFEECFD740112068D9000DD
:100C80003AE0FFA3E0FEA3E0FD9003F71204F62490
:100C900004FAE43BFBEAFCEBFD7E007F00E4F8F99C
:100CA000FB04FA120416EEFFEDFEECFD740B1206C7
:100CB0008D22900037EFF0A3EEF0A3EDF09003F952
:100CC000120545EC75F00EA4AFF0F5828F83E4FFBA
:100CD0001206B9900037E0FFA3E0A3E09003F912F9
:100CE0000545EC75F00EA4AFF0F5828F83A3A3E465
:100CF000FF1206B9900037E0FFA3E0A3E09003F9EC
:100D0000120545EC75F00EA4AFF029F9EA3FFAE4BC
:100D100090000612068690003BE07F00FE900037B0
:100D2000E0FBA3E0FAA3E0F9EFC0E0EEC0E090033F
:100D3000F912053FEC75F00EA4ABF02DFDEE3BFE75
:100D4000D0E0FBD0E0CB9000041206CFEC90003A4C
:100D5000F0900037E0FFA3E0FEA3E0FD9003F9125E
:100D60000545EC75F00EA4ADF029F9EA3DFA9000C6
:100D7000041204C0FC120845900037E0FBA3E0FA1F
:100D8000A3E0F9EFC0E0EEC0E0EDC0E09003F9129F
:100D9000053F90003AE075F00EA4ABF02DFDEE3B60
:100DA000FED0E0F9D0E0FAD0E0FB90000712071681
:100DB00090003CE0FDA3E0FECDFFCD900037E0FBCE
:100DC000A3E0FAA3E0F9EFC0E0EEC0E09003F9126F
:100DD000053F90003AE075F00EA4ABF02DFDEE3B20
:100DE000FED0E0FBD0E0CB90000A1206CF90003E90
:100DF000E0FDA3E0FECDFFCD900037E0FBA3E0A334
:100E0000E0EFC0E0EEC0E09003F912053F90003A39
:100E1000E075F00EA4ABF02DFDEE3BFED0E0FBD074
:100E2000E0CB90000C1206CF22900027E0FA900051
:100E300023EFF0A3EEF0A3EDF0EAC0E09003F91287
:100E40000545EC900026F075F00EA4ADF029F9EA06
:100E50003DFAD0E090000612068622E4900028F0C9
:100E6000EC90002CF0900029EFF0A3EEF0A3EDF051
:100E7000900029E0FFA3E0FEA3E0FD9003F412043C
:100E8000A1FC900028E0C39C4003020FBD9003F931
:100E9000120545900028E075F00EA4ADF029F9EA9E
:100EA0003DFA900006120497146003020FB49000FC
:100EB0002CE0900027F0900029E0A3E0A3E0FD9053
:100EC0000028E0FC120FBE900029E0FFA3E0FEA383
:100ED000E0FD9003F9120545900028E075F00EA49E
:100EE000ADF029F9EA3DFAE9FDEAFEEBFFA3E0FBEC
:100EF000A3E0FAA3E0F9EFC0E0EEC0E0EDC0E090BF
:100F000003F912053F900028E075F00EA4ABF02D18
:100F1000FDEE3BFE90000A1204F6F5828B83120769
:100F200084D0E0FDD0E0FED0E0FF120791EC70032A
:100F3000020FB4900029E0FFA3E0FEA3E0FD9003C0
:100F4000F9120545900028E075F00EA4ADF029F9DE
:100F5000EA3DFAE9FDEAFEEBFFA3E0FBA3E0FAA31A
:100F6000E0F9EFC0E0EEC0E0EDC0E09003F912055B
:100F70003F900028E075F00EA4ABF02DFDEE3BFE97
:100F800090000C1204F6F5828B83120784D0E0FDEA
:100F9000D0E0FED0E0FF120791EC6018E49000274B
:100FA000F0900029E0FFA3E0FEA3E0FD900028E020
:100FB000FC120E29900028E004F0020E702290002E
:100FC00023EFF0A3EEF0A3EDF09003F9120545EC4A
:100FD00075F00EA4AFF029F9EA3FFAE92402F9EA24
:100FE0003400FA900023E0FFA3E0A3E0EBC0E0EAC6
:100FF000C0E0E9C0E09003F9120545EC75F00EA4DD
:10100000AFF029F9EA3FFA9000041204D2FED0E0D2
:10101000F9D0E0FAD0E0FBEE1203B3EC900026F03A
:10102000900023E0FFA3E0FEA3E09003F912054542
:10103000EC75F00EA4ADF0F5828D83A3A31204C06D
:10104000FC900023E0FBA3E0FAA3E0F9EDC0E0ECA4
:10105000C0E09003F912053F900026E075F00EA461
:10106000ABF0F5828B831204F6FAD0E0FCD0E0FD01
:10107000EA6C7002EB6D60030210FA900023E0FF4F
:10108000A3E0FEA3E0FD9003F9120545900026E0E1
:1010900075F00EA4ADF029F9EA3DFAE4FD04120161
:1010A000E9900023E0A3E0A3E0FD9003F9120545D9
:1010B000900026E075F00EA4ADF029F9EA3DFA9013
:1010C0000023E0A3E0A3E0FDEBC0E0EAC0E0E9C05C
:1010D000E09003F9120545900026E075F00EA4ADEE
:1010E000F029F9EA3DFA9000041204C0FCD0E0F9BE
:1010F000D0E0FAD0E0FBEC12034E900027E0FC9029
:101100000023E0FFA3E0FEA3E0FD9003F9120545F4
:10111000900026E075F00EA4AFF029F9EA3FFA90AE
:10112000000712053F900023E0FBA3E0FAA3E0F9DB
:10113000EFC0E0EEC0E0EDC0E09003F912053F9093
:101140000026E075F00EA4ABF02DFDEE3BFEED2485
:1011500002FDEE3400FEE4FB04120273F5828B8381
:10116000D0E0FDD0E0FED0E0FFEC1206942290002B
:1011700000EFF0A3EEF0A3EDF0900007120545EBB1
:10118000C0E0EAC0E0E9C0E09000041204F6FA1200
:1011900004E9F8EA28FAEB39FBEA24FFFAEB34FF1A
:1011A000FB9000041204E4F812018D88828983D038
:1011B000E0F9D0E0FAD0E0FB12049764FE60037C13
:1011C0000022900007120545EBC0E0EAC0E0E9C04C
:1011D000E09000041204F6FA1204E9F8EA28FAEBA7
:1011E00039FBEA24FEFAEB34FFFB9000041204E41E
:1011F000F812018D88828983D0E0F9D0E0FAD0E03E
:10120000FB1204970460037C00229000071205453E
:10121000EBC0E0EAC0E0E9C0E01204FB2404FAE419
:101220003BFB9000041204E4F812018D888289834C
:10123000D0E0F9D0E0FAD0E0FB120497644D6003EF
:101240007C0022900007120545EBC0E0EAC0E0E90F
:10125000C0E01204FB04FA70010B9000041204E4D5
:10126000F812018D88828983D0E0F9D0E0FAD0E0CD
:10127000FB1204970460037C0022900007120545CE
:10128000EBC0E0EAC0E0E9C0E01204FBFA90000421
:101290001204E4F812018D88828983D0E0F9D0E04D
:1012A000FAD0E0FB1204970460037C00227C012248
:1012B000E490001CF0A3F0A3F0A3F0A3EFF0A3EEE2
:1012C000F0A3EDF0900020E0FFA3E0FEA3E0FD908E
:1012D00000041204F6FA90001FE0C39A90001EE08A
:1012E0009B40030213A4D3A3E0940190001EE0945A
:1012F0000050030213939000041204F624FCFAEB4E
:1013000034FFFB90001FE0C39A90001EE09B400357
:10131000021393900007120545EBC0E0EAC0E0E934
:10132000C0E01204FB90001FFCE02CFA90001EE0CD
:101330003BFB9000041204E4F812018D888289833B
:10134000D0E0F9D0E0FAD0E0FB12049790001CFC4A
:10135000E06CF0900007120545EBC0E0EAC0E0E960
:10136000C0E01204FB90001FFCE02CFA90001EE08D
:101370003BFB9000041204E4F812018D88828983FB
:10138000D0E0F9D0E0FAD0E0FB12049790001DFC09
:10139000E02CF090001FE004F090001E7003E004C9
:1013A000F00212C4900007120545EBC0E0EAC0E06D
:1013B000E9C0E09000041204F6FA1204E9F8EA2801
:1013C000FAEB39FBEA24FCFAEB34FFFB9000041241
:1013D00004E4F812018D88828983D0E0F9D0E0FA24
:1013E000D0E0FB120497FC90001CE06C60037C00D2
:1013F00022900007120545EBC0E0EAC0E0E9C0E03A
:101400009000041204F6FA1204E9F8EA28FAEB391B
:10141000FBEA24FDFAEB34FFFB9000041204E4F82D
:1014200012018D88828983D0E0F9D0E0FAD0E0FB08
:10143000120497FC90001DE06C60037C0022740194
:10144000900C44F012144A7C0022900010E4F0A3A7
:10145000F0A3F0A3F0A3F0A3F0900010F0A3740A9F
:10146000F0900019EFF0A3EEF0A3EDF0C39000119F
:10147000E0948F900010E0940040030218D4900094
:1014800019E0FFA3E0FEA3E0FD900007120545EB85
:10149000C0E0EAC0E0E9C0E01204FB900011FCE00B
:1014A0002CFA900010E03BFB9000041204E4F812C8
:1014B000018D88828983D0E0F9D0E0FAD0E0FB1278
:1014C0000497FC900007120545EBC0E0EAC0E0E994
:1014D000C0E01204FB900011F9E029FA900010E03E
:1014E0003BFBEA2402FAE43BFB9000041204E4F81C
:1014F00012018D88828983D0E0F9D0E0FAD0E0FB38
:10150000120497900018F0900007120545EBC0E018
:10151000EAC0E0E9C0E01204FB900011F9E029FA0A
:10152000900010E03BFBEA2403FAE43BFB9000044C
:101530001204E4F812018D88828983D0E0F9D0E0AA
:10154000FAD0E0FB120497900016F0ECA3F0B44D33
:101550000280030218C3900016E0B4020280030266
:1015600016A4900019E0FFA3E0FEA3E0FD900007A1
:10157000120545EBC0E0EAC0E0E9C0E01204FB90D0
:101580000011FCE02CFA900010E03BFBEA2408FA82
:10159000E43BFB9000041204E4F812018D88828978
:1015A00083D0E0F9D0E0FAD0E0FB1204977B007A18
:1015B00000900014F0A3CAF0CA900007120545EB92
:1015C000C0E0EAC0E0E9C0E01204FB900011FCE0DA
:1015D0002CFA900010E03BFBEA2409FAE43BFB9074
:1015E00000041204E4F812018D88828983D0E0F9A6
:1015F000D0E0FAD0E0FB1204977B00FA900015E0EF
:101600004AF0900014E0F0900007120545EBC0E0AE
:10161000EAC0E0E9C0E01204FB900011FCE02CFA03
:10162000900010E03BFBEA2404FAE43BFB9000044A
:101630001204E4F812018D88828983D0E0F9D0E0A9
:10164000FAD0E0FB1204977B007A00900012F0A31E
:10165000CAF0CA900007120545EBC0E0EAC0E0E915
:10166000C0E01204FB900011FCE02CFA900010E0A6
:101670003BFBEA2405FAE43BFB9000041204E4F887
:1016800012018D88828983D0E0F9D0E0FAD0E0FBA6
:101690001204977B00FA900013E04AF0900012E0E9
:1016A000F00218A4B4030280030217EE900019E0C0
:1016B000FFA3E0FEA3E0FD900007120545EBC0E0AC
:1016C000EAC0E0E9C0E01204FB900011FCE02CFA53
:1016D000900010E03BFBEA2408FAE43BFB90000496
:1016E0001204E4F812018D88828983D0E0F9D0E0F9
:1016F000FAD0E0FB1204977B007A00900014F0A36C
:10170000CAF0CA900007120545EBC0E0EAC0E0E964
:10171000C0E01204FB900011FCE02CFA900010E0F5
:101720003BFBEA2409FAE43BFB9000041204E4F8D2
:1017300012018D88828983D0E0F9D0E0FAD0E0FBF5
:101740001204977B00FA900015E04AF0900014E034
:10175000F0900007120545EBC0E0EAC0E0E9C0E008
:101760001204FB900011FCE02CFA900010E03BFB0F
:10177000EA240AFAE43BFB9000041204E4F81201A4
:101780008D88828983D0E0F9D0E0FAD0E0FB1204A2
:10179000977B007A00900012F0A3CAF0CA9000076D
:1017A000120545EBC0E0EAC0E0E9C0E01204FB909E
:1017B0000011FCE02CFA900010E03BFBEA240BFA4D
:1017C000E43BFB9000041204E4F812018D88828946
:1017D00083D0E0F9D0E0FAD0E0FB1204977B00FA66
:1017E000900013E04AF0900012E0F00218A4C394B5
:1017F000024008B4040280030218A2900019E0FF1E
:10180000A3E0FEA3E0FD900007120545EBC0E0EA6F
:10181000C0E0E9C0E01204FB900011FCE02CFA905B
:101820000010E03BFBEA2404FAE43BFB90000412C6
:1018300004E4F812018D88828983D0E0F9D0E0FABF
:10184000D0E0FB1204977B007A00900012F0A3CA4C
:10185000F0CA900007120545EBC0E0EAC0E0E9C01D
:10186000E01204FB900011FCE02CFA900010E03B29
:10187000FBEA2405FAE43BFB9000041204E4F812AE
:10188000018D88828983D0E0F9D0E0FAD0E0FB12A4
:1018900004977B00FA900013E04AF0900012E0F009
:1018A00080028000900014E0FDA3E090000ECDF0D7
:1018B000A3CDF0900012E0FFA3E0FE900016E0FC44
:1018C0001218D5900011E0240CF0900010E03400C4
:1018D000F002146C2290000CEFF0A3EEF0EC9000FC
:1018E0000BF0B402028003021963D3EE94E8EF9484
:1018F00003400FEE2418FEEF34FCA3F0A3CEF0CE8D
:10190000801B7401900C49F07D0374E8C39EFCEDCC
:101910009FCCFECCFF90000CEFF0A3EEF0D3A3A37E
:10192000E094E890000EE094034015E0FFA3E0FE91
:101930002418FEEF34FC90000EF0A3CEF0CE8023EE
:101940007401900C4AF090000EE0FFA3E0FE7D03CE
:1019500074E8C39EFCED9FCCFECCFF90000EEFF030
:10196000A3EEF090000CE0FDA3E0FC7A107B27F8DA
:10197000EDF9120140E8900000F07A107B2790000A
:101980000CE0F9A3E0F812019390000CE9F0A3E851
:10199000F07B037AE8120140E8900001F07B037AC3
:1019A000E890000CE0F9A3E0F812019390000CE934
:1019B000F0A3E8F0E4FB7A64120140E8900002F042
:1019C000E4FB7A6490000CE0F9A3E0F81201939034
:1019D000000CE9F0A3E8F0E4FB7A0A120140E89079
:1019E0000003F090000CE0FDA3E0FCE4FB7A0AECBD
:1019F000F8EDF9120193E8900004F090000EE0FD7C
:101A0000A3E0FC7A107B27F8EDF9120140E8900082
:101A100005F07A107B2790000EE0F9A3E0F81201A0
:101A20009390000EE9F0A3E8F07B037AE8120140FE
:101A3000E8900006F07B037AE890000EE0F9A3E05E
:101A4000F812019390000EE9F0A3E8F0E4FB7A6449
:101A5000120140E8900007F0E4FB7A6490000EE089
:101A6000F9A3E0F812019390000EE9F0A3E8F0E486
:101A7000FB7A0A120140E8900008F090000EE0FDA9
:101A8000A3E0FCE4FB7A0AECF8EDF9120193E8908C
:101A90000009F0A3A3E07032E490000AF090000A7D
:101AA000E0C394055021E0FF2400F582E43400F502
:101AB00083E0FCEF2418F582E43408F583ECF00FA2
:101AC000EF90000AF080D6021BF5B40132E49000DA
:101AD0000AF090000AE0C394055021E0FF2400F5CD
:101AE00082E43400F583E0FCEF241DF582E4340841
:101AF000F583ECF00FEF90000AF080D6021BF5B4EE
:101B0000025EE490000AF090000AE0C394055021C0
:101B1000E0FF2400F582E43400F583E0FCEF2422AA
:101B2000F582E43408F583ECF00FEF90000AF080C2
:101B3000D6E4F090000AE0C394055021E0FF2405AC
:101B4000F582E43400F583E0FCEF2427F582E434E9
:101B500008F583ECF00FEF90000AF080D6021BF539
:101B6000B4035DE490000AF090000AE0C3940550CD
:101B700021E0FF2400F582E43400F583E0FCEF244B
:101B80002CF582E43408F583ECF00FEF90000AF0B6
:101B900080D6E4F090000AE0C394055021E0FF24D1
:101BA00005F582E43400F583E0FCEF2431F582E4AE
:101BB0003408F583ECF00FEF90000AF080D6803502
:101BC000B40631E490000AF090000AE0C394055096
:101BD00021E0FF2400F582E43400F583E0FCEF24EB
:101BE00036F582E43408F583ECF00FEF90000AF04C
:101BF00080D6800122227401900045F014900044A8
:101C0000F0900043F0900042F0900040F0A3740286
:101C1000F090003EE4F0A3F0FC7D3B7E087F0112D3
:101C2000099074D97D0790003ECDF0A3CDF074DD0E
:101C30007D0790003CCDF0A3CDF0749290003BF076
:101C40007C007D3B7E087F01120CB274019000275E
:101C5000F07C007D3B7E087F01120E292243890122
:101C6000D288D2A8D2AF22E490002BF090002BE0D3
:101C7000C394044003021D86900C42E0FC90002BAC
:101C8000E0F879007A007B00ECC0E0E4FCFF04FEA1
:101C90007D80120416EEFFEDFEECFDD0E012068D05
:101CA000FC90002BE0F879007A007B00ECC0E0E4C7
:101CB000FF04FE7C047D80120416EEFFEDFEECFDB9
:101CC000D0E012068DFC90002BE0F879007A007BC2
:101CD00000ECC0E0E4FF04FE7C087D80120416EEF8
:101CE000FFEDFEECFDD0E012068DFC90002BE0F83D
:101CF00079007A007B00ECC0E0E4FF04FE7C0C7D00
:101D000080120416EEFFEDFEECFDD0E012068DFC15
:101D100090002BE0F879007A007B00ECC0E0E4FC56
:101D2000FF04FE7D90120416EEFFEDFEECFDD0E008
:101D300012068DFC90002BE0F879007A007B00EC15
:101D4000C0E0E4FF04FE7C047D90120416EEFFED7B
:101D5000FEECFDD0E012068DFC90002BE0F879003F
:101D60007A007B00ECC0E0E4FF04FE7C087D90126A
:101D70000416EEFFEDFEECFDD0E012068D90002B78
:101D8000E004F0021C6C1221EFE490002BF09000B4
:101D90002BE0C39405506EE02418F582E43408F576
:101DA00083E4F090002BE0241DF582E43408F583F1
:101DB000E4F090002BE02422F582E43408F583E47B
:101DC000F090002BE02427F582E43408F583E4F05A
:101DD00090002BE0242CF582E43408F583E4F090A5
:101DE000002BE02431F582E43408F583E4F0900020
:101DF0002BE02436F582E43408F583E4F090002BE0
:101E0000E004F080897D187E087F01900028EFF0C3
:101E1000A3EEF0A3EDF0E4FC7D80121FD67D1D7EC5
:101E2000087F01900028EFF0A3EEF0A3EDF07C0412
:101E30007D80121FD67D227E087F01900028EFF062
:101E4000A3EEF0A3EDF07C087D80121FD67D277EE7
:101E5000087F01900028EFF0A3EEF0A3EDF07C0CDA
:101E60007D80121FD67D2C7E087F01900028EFF028
:101E7000A3EEF0A3EDF0E4FC7D90121FD67D317E41
:101E8000087F01900028EFF0A3EEF0A3EDF07C04B2
:101E90007D90121FD67D367E087F01900028EFF0DE
:101EA000A3EEF0A3EDF07C087D90121FD6229008DF
:101EB0003BE0FDA3E0FCA3A3E06C700790083DE0CD
:101EC0006D603CECFEEDFFCC2401CCCD3400CD9018
:101ED000083BEDF0A3ECF0EE2447F582EF3408F573
:101EE00083E0FC7D3B7E087F01120E5BC390083CC3
:101EF000E094E890083BE094034004E4F0A3F0226F
:101F0000C0E0C082C083C0D0ECC0E0EDC0E0C2AF92
:101F1000900C45E0FDA3E0FCE004F0900C4570035C
:101F2000E004F0D3EC9488ED94134029E4F0A3F09E
:101F3000900C47E0FDA3E0FCE004F0900C47700338
:101F4000E004F0D3EC9488ED94134009E4F0A3F09E
:101F500004900C44F0758C00758A00C28DD2AFD00D
:101F6000E0FDD0E0FCD0D0D083D082D0E032C0E021
:101F7000C082C083C0D0ECC0E0EDC0E0EEC0E0C2E3
:101F8000AF309839C298E59990083DFEE0FDA3E096
:101F9000FCE004F090083D7003E004F0EC2447F509
:101FA00082ED3408F583EEF0C390083EE094E890AB
:101FB000083DE094034004E4F0A3F080053099026A
:101FC000C299D2AFD0E0FED0E0FDD0E0FCD0D0D0BE
:101FD00083D082D0E032900024E4F0A3F09000237C
:101FE000F0900026EDF0A3ECF0900023E0C3940401
:101FF000502FE07D00900027FEE02EFC900026E0B0
:102000003DFD7E007F00E4F8F9FB04FA120416EEB1
:10201000FFEDFEECFDE412068D900023E004F0805D
:10202000C8900028E0FFA3E0FEA3E0FD90000112AD
:1020300004A1607B9000011204A1243AF582E434EB
:102040000CF583E0900026FCE0FBA3E0FAF8EBF946
:102050007A007B00ECC0E0E4FCFDFF04FE120416F5
:10206000EEFFEDFEECFDD0E012068D900028E0FFC3
:10207000A3E0FEA3E0FD9000021204A1243AF58241
:10208000E4340CF583E0900026FEE0FDA3E0FCF8CC
:10209000EDF97A007B00EEC0E0E4FDFF04FEFC12E7
:1020A0000416EEFFEDFEECFDD0E012068D803F90B1
:1020B00000021204A160379000021204A1243AF534
:1020C00082E4340CF583E0900026FEE0FDA3E0FC02
:1020D000F8EDF97A007B00EEC0E0E4FDFF04FEFCC1
:1020E000120416EEFFEDFEECFDD0E012068D90001E
:1020F00028E0FFA3E0FEA3E0FD9000031204A1246A
:102100003AF582E4340CF583E02480900026FCE06C
:10211000FBA3E0FAF8EBF97A007B00ECC0E0E4FD09
:10212000FF04FE04FC120416EEFFEDFEECFDD0E011
:1021300012068D900028E0FFA3E0FEA3E0FD9000D2
:10214000041204A1243AF582E4340CF583E09000F3
:1021500026FEE0FDA3E0FCF8EDF97A007B00EEC07E
:10216000E0E4FDFF04FE7C03120416EEFFEDFEEC3E
:10217000FDD0E012068D900027E064087006900004
:1021800026E06480702D900C49E06025900026E0E8
:10219000FDA3E0FC7E007F00E4F8F9FB04FA1204E2
:1021A00016EEFFEDFEECFD744012068DE4900C4936
:1021B000F0803B900027E0640C7006900026E064FD
:1021C00080702B900C4AE06025900026E0FDA3E093
:1021D000FC7E007F00E4F8F9FB04FA120416EEFF1F
:1021E000EDFEECFD744012068DE4900C4AF0229056
:1021F0000023E4F0A3F0A3F0A3F0900023F0A3F0F9
:10220000C3900024E09464900023E094005033A332
:10221000A3E4F0A3F0C3900026E094F4900025E03E
:102220009401500EA3E004F09000257003E004F048
:1022300080E3900024E004F09000237003E004F0B9
:1022400080BE22E4900046F0A3F0121C67121BF639
:10225000121C5D121EAE900C44E0700302230C7D34
:10226000187E087F01900028EFF0A3EEF0A3EDF0B8
:10227000E4FC7D80121FD67D1D7E087F0190002822
:10228000EFF0A3EEF0A3EDF07C047D80121FD67D6D
:10229000227E087F01900028EFF0A3EEF0A3EDF07E
:1022A0007C087D80121FD67D277E087F0190002844
:1022B000EFF0A3EEF0A3EDF07C0C7D80121FD67D35
:1022C0002C7E087F01900028EFF0A3EEF0A3EDF044
:1022D000E4FC7D90121FD67D317E087F019000289E
:1022E000EFF0A3EEF0A3EDF07C047D90121FD67DFD
:1022F000367E087F01900028EFF0A3EEF0A3EDF00A
:0F2300007C087D90121FD6E4900C44F00222530B
:102315005B2A5D2D2D2D2D2D2D2D2D2D2D2D2D2D8D
:102325002D2D2D2D2D2D2D2D2D2D2D2D2D2D2D2DD8
:102335002D2D2D2D2D2D2D2D2D2D2D2D2D2D2D2DC8
:102345002D2D2D2D2D2D2D2D5B2A5D005B2A5D203C
:10235500204A494E2D59414E472020494E44555358
:10236500545249414C2E2C434F204C54442020209C
:102375002020202020202020202020202020202058
:10238500202020205B2A5D005B2A5D202050726F93
:102395006772616D203A205041524B2E204A6F6E74
:1023A500674B696C20202044617465203A203139DF
:1023B50039382E20322E2032337E20202020202036
:1023C5005B2A5D005B2A5D2D2D2D2D2D2D2D2D2DAF
:1023D5002D2D2D2D2D2D2D2D2D2D2D2D2D2D2D2D28
:1023E5002D2D2D2D2D2D2D2D2D2D2D2D2D2D2D2D18
:1023F5002D2D2D2D2D2D2D2D2D2D2D2D5B2A5D00DA
:102405005B2A5D202050726F6A656374204E414DD2
:1024150045203A204B57414E472059414E47204CC5
:102425004544283936272920202020202020202017
:1024350020202020202020205B2A5D005B2A5D2DA6
:102445002D2D2D2D2D2D2D2D2D2D2D2D2D2D2D2DB7
:102455002D2D2D2D2D2D2D2D2D2D2D2D2D2D2D2DA7
:102465002D2D2D2D2D2D2D2D2D2D2D2D2D2D2D2D97
:102475002D2D2D2D5B2A5D005B2A5D2020424F41CD
:102485005244203A204F4C44204C454420424F4171
:10249500524428393627292020202020202020209A
:1024A5002020202020202020202020202020202027
:1024B5005B2A5D005B2A5D2D2D2D2D2D2D2D2D2DBE
:1024C5002D2D2D2D2D2D2D2D2D2D2D2D2D2D2D2D37
:1024D5002D2D2D2D2D2D2D2D2D2D2D2D2D2D2D2D27
:1024E5002D2D2D2D2D2D2D2D2D2D2D2D5B2A5D00E9
:1024F5005B2A5D202057696E6420446972656374A8
:10250500696F6E2C2057696E642053706565642C65
:102515002054656D70657261747572652C204875FF
:102525006D696475747920205B2A5D005B2A5D20E6
:102535002050726563697069746174696F6E2C20CF
:102545005965737465722050726563697069746149
:1025550074696F6E2020202020202020202020203C
:10256500202020205B2A5D005B2A5D2D2D2D2D2D41
:102575002D2D2D2D2D2D2D2D2D2D2D2D2D2D2D2D86
:102585002D2D2D2D2D2D2D2D2D2D2D2D2D2D2D2D76
:102595002D2D2D2D2D2D2D2D2D2D2D2D2D2D2D2D66
:1025A5005B2A5D005B2A5D202056455253494F4EFC
:1025B500203A20312E78782020202020202020202D
:1025C5002020202020202020202020202020202006
:1025D5002020202020202020202020205B2A5D0094
:1025E5005B2A5D2D2D2D2D2D2D2D2D2D2D2D2D2DBB
:1025F5002D2D2D2D2D2D2D2D2D2D2D2D2D2D2D2D06
:102605002D2D2D2D2D2D2D2D2D2D2D2D2D2D2D2DF5
:102615002D2D2D2D2D2D2D2D5B2A5D00000000006B
:1026250000000000000000000000000000000000A5
:102635000000000000000000000000000000000095
:102645000000000000000000000000000000000085
:102655000000000000000000000000000000000075
:102665000000000000000000000000000000000065
:102675000000000000000000000000000000000055
:102685000000000000000000000000000000000045
:102695000000000000000000000000000000000035
:1026A5000000000000000000000000000000000025
:1026B5000000000000000000000000000000000015
:1026C5000000000000000000000000000000000005
:1026D50000000000000000000000000000000000F5
:1026E50000000000000000000000000000000000E5
:1026F50000000000000000000000000000000000D5
:1027050000000000000000000000000000000000C4
:1027150000000000000000000000000000000000B4
:1027250000000000000000000000000000000000A4
:102735000000000000000000000000000000000094
:102745000000000000000000000000000000000084
:102755000000000000000000000000000000000074
:102765000000000000000000000000000000000064
:102775000000000000000000000000000000000054
:102785000000000000000000000000000000000044
:102795000000000000000000000000000000000034
:1027A5000000000000000000000000000000000024
:1027B5000000000000000000000000000000000014
:03000B00021F00D1
:03002300021F6E4B
:1007BA003F065B4F666D7D077F6F000000000000FB
:0F07CA0000FDFAF4E8D0A00C183060142850A0FD
:00000001FF
:00000001FF
