:0416F20072E202B3EB
:0416F60068DB02C4E7
:0416FA006DA702D501
:0416FE00568602E822
:04170200733C02EB47
:04170600611102EF7C
:04170A002C830174B7
:04170E00724F02F222
:041712006F940307C6
:041716005CCC030C98
:04171A003F320174E5
:04171E003F40031530
:041722004606019BDB
:0417260048FD017DFC
:04172A004AAC017450
:04172E003B380174CF
:041732005F30031B06
:0B17420012142602DF000700035AC942
:0417360056CB031E6D
:04173A006B41032FCD
:04173E0062D303323D
:03000000020026D5
:1000260075812F782F7600D8FC904AEDAE83AF828B
:1000360090034A1200646005E4F0A380F69000C2C3
:1000460012006D9000C612006D9000CA12008B90CF
:1000560000D012008B75D0001276460200D6EF65EE
:10006600827003EE658322E493F8740193F97402B7
:1000760093FE740393F5828E83E869700122E493FC
:10008600F6A30880F4E493FC740193FD740293FED6
:10009600740393FF740493F8740593F582888312AE
:1000A6000064700122E493A3A883A9828C838D82C5
:1000B600F0A3AC83AD828883898280E33030157EDD
:1000C6003030157E000016F2157E017419B119B193
:0200D60080FEAA
:1019B1009001A21213A59001A21213CF120F8490CD
:1019C100777D9330E30D0DED70010E9001A212139E
:1019D100A580E3120F84B42D139001A074FFF0A32E
:1019E100F00DED70010EA31213A580199001A0E472
:1019F100F0A304F0120F84B42B0B0DED70010E90C7
:101A010001A21213A590019EE4F0A3F09001A2128D
:101A110013CF120F8490777D9330E23E90019EE0C8
:101A2100FFA3E0FE9001A2121348120F847D00FC77
:101A310090019EE0FFA3E0FEE4FB7A0AEEF8EFF9E5
:101A4100120153EC28FCED39FDEC24D0FCED34FF00
:101A510090019EF0A3CCF0CC80B29001A0E0FDA358
:101A6100E090019EFCE0FBA3E0FAECF8EDF9120135
:061A710053E8FCE9FD2230
:101A77009001B21213D89001A11213AE9001AAE4FB
:101A8700F0A3F0A31213B7E4F8F97B3F7A8074034D
:101A9700120C60706C9001AC1213E179437B5178A2
:101AA700B77ABA7403120C60702179027A157B50E9
:101AB70078F912099F9001AC1213B79001ABE0249B
:101AC7000AF09001AAE03400F080CA9001AC12132A
:101AD700E1E4F8F97A207B417403120C607020E48A
:101AE700F8F97A207B4112099F9001AC1213B79045
:101AF70001ABE004F09001AA7003E004F080CC8011
:101B07006EEE4F606A9001AC1213E17B2E7ADB799F
:101B1700E678FF740F120C60702179027A157B50FA
:101B270078F91208239001AC1213B79001ABE024A7
:101B3700F6F09001AAE034FFF080CA9001AC1213CE
:101B4700E1E4F8F97B3F7A80740B120C607020E4B3
:101B5700F8F97A207B411208239001AC1213B79051
:101B670001ABE024FFF09001AAE034FFF080CC90B5
:101B770001B6E060619001AAE0FDA3E0FC9001B12D
:101B8700E0D39C9001B0E06480CD6480CD9D402877
:101B9700C3EC94FC9001AAE06480947F401AE4901F
:101BA70001B5F09001AAE0FDA3E0FC9001B1C3E00C
:101BB7009CF09001B0E09DF09001B1E024FFF0901F
:101BC70001B0E034FFF09001B7E06007E49001B6A0
:101BD700F080037401F09001B5E0600A9001A8E479
:101BE700F0A3F0021CBF9001AAE0334003021CAB34
:101BF7009001A112134874301211E89001B0E0FD72
:101C0700A3E09001A4CDF0A3CDF04D70069001B7ED
:101C1700E0600B9001A1121348742E1211E8900195
:101C2700A6E4F0A3F09001A7E024FFF09001A6E05E
:101C370034FFF0E0FDA3E0FC9001ABE0C39C900112
:101C4700AAE06480CD6480CD9D50259001B0E0FD71
:101C5700A3E04D601B9001A112134874301211E8E4
:101C67009001B1E024FFF09001B0E034FFF080B5BF
:101C770074FFFDC39001A5FEE0CE9EFC9001A4E099
:101C8700FEED9EFD9001ABE0C39C9001AAE064804D
:101C9700CD6480CD9D5003021EA69001A8E4F0A359
:101CA70004F08014E0FDA3E0FCC3E49CFCE49DFD8C
:101CB7009001A8EDF0A3ECF09001A8E0FDA3E0905F
:101CC70001A6CDF0A3CDF09001A6E0FDA3E0FC9026
:101CD70001B1E0C39C9001B0E06480CD6480CD9DEC
:101CE7005003021D629001AC1213E1120BD7900151
:101CF700A4EDF0A3ECF0ED3395E0FEFF120C199084
:101D070001AC120CB5E4F8F97A207B411208239054
:101D170001AC1213B79001A5E02430FC9001A11289
:101D27001348EC1211E89001A6E0FDA3E0FCE004E3
:101D3700F09001A67003E004F0EC4D701B9001B029
:101D4700E0FDA3E04D70069001B7E0600B9001A1A4
:101D5700121348742E1211E8021CCE9001AC121314
:101D6700E1E4F8F97B407AA07403120C6060030287
:101D77001EA69001A4E4F0A304F09001A1E0FFA344
:101D8700E0FEA3E024FFFDEE34FFFE90019E121358
:101D9700A590019E1213CF120F84642E602090012C
:101DA700A5E01200D8B43A0F74301211E89001A4DC
:101DB700E4F0A304F080079001A4E4F0A3F0121369
:101DC7005E90019E1213A5EAFDE9FC9001B4E0C301
:101DD7009C9001B3E09D40B99001A4E0FDA3E04DC4
:101DE7007003021EA69001B5E0606C9001A112136A
:101DF700CF90019E1213A590019FE0FDA3E0FC90F8
:101E070001B4E0C39C9001B3E09D503B90019E124A
:101E170013CF90FFFF120F89B42E1690FFFE120FFB
:101E2700891211E8ED1D70011E90019E1213A58005
:101E37000990FFFF120F891211E8ED1D70011E9026
:101E4700019E1213A580B09001ABE004F09001AAA7
:101E57007003E004F0803D9001A11213F990019EF8
:101E67001213A590019FE0FDA3E0FC9001B4E0C32D
:101E77009C9001B3E09D501C90019E1213CF90FFE0
:101E8700FF120F891211E8ED1D70011E90019E12BD
:101E970013A580CF9001B21213CF74311211E890BD
:101EA70001B6E060309001A11213CF90FFFF120F2F
:101EB70089B4300DED1D70011E9001A11213A5808C
:101EC700E490FFFF120F89B42E0BED1D70011E90D9
:101ED70001A11213A59001B5E0700302200BE0FCED
:101EE7009001A1121348EC1211E89001AAE03350B7
:101EF7001E9001A1121348742D1211E89001ABC373
:101F0700E0FCE49CF09001AAE0FCE49CF0800B90DC
:101F170001A1121348742B1211E89001A4E4F0A355
:101F2700F09001A3E0240AF09001A2E03400F090C1
:101F370001A5E004F09001A47003E004F09001AA69
:101F4700E0FDA3E0FCE4FB7A0AECF8EDF912019E50
:101F5700E82430FC9001A1121348EC1211E8E4FBCD
:101F67007A0A9001AAE0F9A3E0F812016E9001AA9B
:101F7700E9F0A3E8F04970B7C39001A5E094029097
:101F870001A4E06480948040A6E0FDA3E0A3CDF027
:101F9700A3CDF0D39001A5E094009001A4E0648064
:101FA700948040529001A11213CFA3A3E0C3CD9D0B
:101FB700FD9001A4E0CE9EFE120F84FC9001A112B9
:101FC70013CFA3E0FBA3E0C3A3A3F9E0C999FA9059
:101FD70001A6E0F9EB99FBEA24F5FAEB34FF8A82D4
:101FE700F583EC1211EF9001A5E024FFF09001A416
:101FF700E034FFF0809D9001A3E024F6F09001A269
:10200700E034FFF09001A11213CF229001BFE4F05A
:10201700A3F09002621213A5900262121348120FE6
:10202700849001B8F064256038E070099001BFE042
:10203700FDA3E0FC229002671213CF9001B8E0FCE9
:10204700900265E0FBA3E0F5828B831213961213CF
:10205700A39001C0E004F09001BF7003E004F0809A
:10206700B79002621213CF120F84B425350DED70AD
:10207700010E9002621213A59002671213CF90020D
:1020870065E0FCA3E0F5828C831213967C2512137E
:10209700A39001C0E004F09001BF7003E004F002D8
:1020A700201FE49001DBF09001C5F09001C2F09091
:1020B70001C1F07DDC7E017F019001D21213A57E64
:1020C70001A31213A57D4D7E170FA31213A590022E
:1020D700621213CF120F84B42B02800BB420179017
:1020E70001C1E0600280329002621213CF120F84A6
:1020F7009001C1F08023B42D089001C2E004F08064
:1021070018B423089001C5E004F0800DB43008909E
:1021170001DBE004F080028010900264E004F0909C
:1021270002637003E004F080A59002621213CF12DD
:102137000F84B42A4990026A1213CF121033E9C0F0
:10214700E0740212026ED0E0F9120FAD9001BDCD1E
:10215700F0A3CDF0FCED335015C3E49CFCE49DFDEA
:102167009001BDEDF0A3ECF09001C2E004F0900205
:1021770064E004F09002637003E004F0805990017A
:10218700BDE4F0A3F09002621213CF120F84C39440
:10219700304044120F84C3943A503C9001BDE0FF95
:1021A700A3E0FE900262121348120F847D0024D030
:1021B700FCED34FFFD9001BDE0FFA3E0FEE4FB7AF8
:1021C7000AEEF8EFF9120153EC28FCED399001BD46
:1021D700F0A3CCF0CC80AE9002621213CF120F8422
:1021E700B42E02800302228C0DED70010E120F84B3
:1021F700FC9002621213A5ECB42A2F90026A121304
:10220700CF121033E9C0E0740212026ED0E0F91267
:102217000FAD9001B9CDF0A3CDF0900264E004F0CA
:102227009002637003E004F080599001B9E4F0A3D1
:10223700F09002621213CF120F84C39430404412FD
:102247000F84C3943A503C9001B9E0FFA3E0FE909D
:102257000262121348120F847D0024D0FCED34FF74
:10226700FD9001B9E0FFA3E0FEE4FB7A0AEEF8EF88
:10227700F9120153EC28FCED399001B9F0A3CCF029
:10228700CC80AE80089001B974FFF0A3F0E4900110
:10229700C4F09001C3F09002621213CF120F84B4FE
:1022A7004C028003B46C169001C3E004F090026402
:1022B700E004F09002637003E004F08019B468163C
:1022C7009001C4E004F0900264E004F090026370AF
:1022D70003E004F08000900262121348120F84900A
:1022E70001B8F0120E1327C10026B545268F4724E3
:1022F7007058239463250E6426B56526B066268F2D
:1023070067250E6923216E24706F24707023C873AC
:10231700247075246478000027CF9001C3E0603CE7
:102327009001BFE0FDA3E0FCED3395E0FEFF9002D6
:102337006A1213D8121369121027EDC0E074031242
:10234700028DD0E0FD121033D0E0FFFDD0E0CDFECE
:10235700D0E0CED0E0CFFC1212DE802E9001BFE09D
:10236700FDA3E0FC90026A1213D8EDC0E0ECC0E0D8
:10237700121027EDC0E0740312028DD0E0FD121099
:1023870033D0E0FDD0E0CD12121402201F90026A74
:102397001213CF121033E9C0E0740212026ED0E0BC
:1023A700F9C92401C9CA3400CA120F7A9001DCF0B6
:1023B7009001D7E004F09001D67003E004F0022703
:1023C700EC90026A1213CF121033E9C0E0740312C3
:1023D700026ED0E0F91210279001D21213A5ED4E2C
:1023E700700C7D5E7E177F029001D21213A59001BB
:1023F700B9E03350077427F0A37410F09001BBE4E1
:10240700F0A3F09001D2121348120F84602B9001B1
:10241700BBE0FDA3E0FC9001BAE0D39C9001B9E0DA
:102427006480CD6480CD9D40109001BCE004F090A5
:1024370001BB7003E004F080CA9001D212140F9020
:1024470001D51213A59001BBE0FDA3E0FC9001D4D8
:10245700C3E09CF09001D3E09DF00227EC7D6D7EF8
:10246700177F029001D81213A59001B8E0B4702726
:1024770090026A1213CF121033E9C0E074031202FC
:102487006ED0E0F9121027EDFCEEFDEFFE7F009015
:1024970001C61213B780419001C3E0601990026A28
:1024A7001213CF121033E9C0E0740412026ED0E0A9
:1024B700F91210D3801C90026A1213CF121033E95D
:1024C700C0E0740212026ED0E0F9120FADFC7E007C
:1024D7007F009001C61213B79001B8E0FFB46F08F0
:1024E700E4F9FAFB78088017FC6475600274FF044E
:1024F7006004740A80027410F879007A007B0090F7
:1025070001CA1213C380739001C3E0601990026A75
:102517001213CF121033E9C0E0740412026ED0E038
:10252700F91210D3801E90026A1213CF121033E9EA
:10253700C0E0740212026ED0E0F9120FADFCED3369
:1025470095E0FEFF9001C61213B7E4F8F9FAFB74A1
:102557000A1205CF7019742D9001C1F0C3E49CFCD9
:10256700E49DFDE49EFEE49FFF9001C61213B7A30E
:10257700E4F0A3F0A3F0A3740AF07D617E027F016B
:102587009001D21213A57E02A31213A59001D812AF
:1025970013CF12137B9001C61213E1A31213ED128E
:1025A700055F8C828D83D0E0FDD0E0FED0E0FF1286
:1025B7000F89FC9001D212140FEC1211E89001CA96
:1025C7001213E19001C612079970C19001B9E03367
:1025D700502B9001DBE060259001C1E0600274019F
:1025E7007D00FCC3E49CFCE49DFD9001BEE02CFC57
:1025F7009001BDE03D9001B9F0A3CCF0CC9001D69D
:10260700E0FDA3E0C39001D4FEE0CE9EFC9001D391
:10261700E0FEED9EFD9001BAE0D39C9001B9E06425
:1026270080CD6480CD9D400D9001D212140F74307F
:102637001211E880C89001C5E0604A9001D21213D8
:10264700CF120F846430603D9001B8E06478600475
:10265700E0B4581DE0FCED1D70011EEC1211E8ED11
:102667001D70011E74301211E89001D21213A5805B
:1026770014E0B46F10ED1D70011E74301211E89054
:1026870001D21213A50227EC9001BBE4F0A304F0DA
:102697009001B8E024FEF0A3E0FDA3E04D700890A0
:1026A70001B9E4F0A304F0800CE49001B8F09001C4
:1026B700BBE4F0A3F09001B9E0335006E4F0A37453
:1026C70006F090026A1213CF121033E9C0E07404C7
:1026D70012026ED0E0F91210D39001CE1213B7EFA9
:1026E7004E6003EF5480B2E77014742D9001C1F06F
:1026F700EE4F6004EF6480FF9001CE1213B7900194
:10270700C5E09001B7F09001BCE09001B6F09001F0
:10271700B8E09001B5F09001BDE0FEA3E0FD9001A7
:10272700D4E02DF0FD9001D3E03EF0FE9001D2E021
:10273700FF9001B21213A59001B9E0FDA3E090014B
:10274700B0CDF0A3CDF09001CE1213E1121A77901D
:1027570001D51213A59001DBE0605D9001C1E06037
:102767000274017D00FCC3E49CFCE49DFD9001BE66
:10277700E02CFC9001BDE03D9001B9F0A3CCF0CC7A
:102787009001D6E0FDA3E0C39001D4FEE0CE9EFC0D
:102797009001D3E0FEED9EFD9001BAE0D39C90013D
:1027A700B9E06480CD6480CD9D400D9001D21214B4
:1027B7000F74301211E880C8802B900264E024FF68
:1027C700F0900263E034FFF07D7E7E177F02900178
:1027D700D21213A5A31213A5E02403F09001D6E0AB
:1027E7003400F080009001D6E0FDA3E0C39001D44F
:1027F700FEE0CE9EFC9001D3E0FEED9E9001B9F085
:10280700A3CCF0CCFD9001BEE0C39C9001BDE06479
:1028170080CD6480CD9D50099001BBE4F0A3F0808A
:10282700359001C1E0600274017D00FCC3E49CFCAB
:10283700E49DFD9001BEE02CFC9001BDE03DC3FD91
:102847009001BAE0FEEC9EFC9001B9E0FEED9EA37C
:10285700A3F0A3CCF0CC9001C2E070409001BCE0A3
:1028670024FFF09001BBE034FFF0E0FDA3E0FCEDB6
:102877003340299002671213CF900265E0FCA3E072
:10288700F5828C831213967C201213A39001C0E06B
:1028970004F09001BF7003E004F080C09001C1E034
:1028A700602A9002671213CF9001C1E0FC90026585
:1028B700E0FBA3E0F5828B831213961213A390011A
:1028C700C0E004F09001BF7003E004F09001BAE0AB
:1028D70024FFF09001B9E034FFF0E0FDA3E0FCED48
:1028E7003340319002671213CF9001D21213321284
:1028F7000F7AFC900265E0FBA3E0F5828B8312134D
:10290700961213A39001C0E004F09001BF7003E09A
:1029170004F080B89001C2E060409001BCE024FF61
:10292700F09001BBE034FFF0E0FDA3E0FCED3340A5
:10293700299002671213CF900265E0FCA3E0F582AD
:102947008C831213967C201213A39001C0E004F02D
:0D2957009001BF7003E004F080C002201F5B
:10174D0030313233343536373839414243444546EA
:10175D0000286E756C6C20706F696E74657229004F
:10176D00303132333435363738396162636465660A
:05177D00003F3F3F00AA
:0677760001034A010B199A
:03157E0001034A1C
:102964009001771213A5900001121039EAFDE9C312
:1029740090017CFEE0CE9EFC90017BE0FEED9ED3B8
:10298400FDEC9404ED648094804038900177121338
:10299400CF90000112103990017A1213CF90017474
:1029A4001213AEA31213D890000112127690017A7A
:1029B4001213CFE41211E89001741213D89000019D
:1029C40012127C22900186EDF0A3ECF02404FCE4C6
:1029D4003DFD90777AE493FF740193C3900002FA6B
:1029E400E0CA9AFE900001E0FAEF9AFFECD39EED64
:1029F4009F505B9000001213CF74011211E89001F4
:102A040087E02404FA900186E03400C0E09001835A
:102A14001213A5D0E0CAFDCAFE900002E02DF0FD1D
:102A2400900001E03EF0FE900000E0FF9001831270
:102A340013D89000011212769000001213CF900167
:102A440087E0C3CD9DFD900186E0CE9EFE22907767
:102A54007612138A90017D1213A590017EE0FDA3E6
:102A6400E0FC900002E0D39C900001E09D50030242
:102A74002B0E90017D1213CF9001831213A5120F18
:102A8400847072900001121039EAFDE9C390017F4D
:102A9400FEE0CE9EFC90017EE0FEED9EFDEC24FC6B
:102AA400FCED34FFFD900187E0D39C900186E09D0E
:102AB400504390017DE0FFA3E0A3E02404FDEE3445
:102AC40000FE9001831213D874011211DA90018070
:102AD4001213A5900187E02DFD900186E03EFE9043
:102AE400017A1213A5E9FDEAFEEBFF1229649001B5
:102AF400801213CF229001831213CF900001121081
:0F2B04003990017D1213AE022A5EE4FDFEFF221E
:10777C0000202020202020202020282828282820F5
:10778C0020202020202020202020202020202020ED
:10779C002088101010101010101010101010101055
:1077AC001004040404040404040404101010101045
:1077BC00101041414141414101010101010101010F
:1077CC000101010101010101010101011010101061
:1077DC0010104242424242420202020202020202E1
:1077EC000202020202020202020202021010101035
:0177FC00206C
:0A00D800CCC0E012010F2C0200EE74
:0A00E200CCC0E012012C2C0200EE4D
:1000EC00D0F030F00920F303F68010F7800D30F1DA
:1000FC000920F303F28004F38001F020F404FCD017
:03010C00E0CC2222
:10010F00BF000775F001EDF8E622BF010975F00495
:0D011F008D828E83E02275F002EDF8E22261
:10012C00BF000975F001ED2582F8E622BF010FED45
:10013C002582F582EE3583F58375F004E02275F0A7
:07014C0002ED2582F8E2221A
:10015300E88BF0A4C98AF0A429F9E88AF0A4F8E5A9
:05016300F029F948221B
:10016800EBC9FBEAC8FAEB335008E4C39AFAE49BFC
:10017800FBD392F0E930E709B2F0C3E498F8E499C8
:10018800F91201BB30F008C3E498F8E499F9482261
:10019800EBC9FBEAC8FA89F012016E20F706EAF803
:0D01A800EBF94822C3E49AF8E49BF94822E1
:1001B500EBC9FBEAC8FAE94B7010E8C0F08AF08495
:1001C500F8AAF0D0F079007B0022ECC0E0EDC0E0A9
:1001D500EEC0E07D007E007C10C3E833F8E933F91A
:1001E500ED33FDEE33FEED9AEE9B4005FEED9AFDF7
:1001F50008DCE6EDFAEEFBD0E0FED0E0FDD0E0FC59
:03020500E84922A3
:0F020800EBC9FBEAC8FA1201BBEAF8EBF948228E
:1002170030E01B20E30C08E625F0F6F5F018E63C85
:10022700F62209E725F0F7F5F019E73CF72230E267
:1002370011C083A3E025F0F5F0F01582D083E03CF0
:10024700F02220E30C08E225F0F2F5F018E23CF288
:0D0257002209E325F0F3F5F019E33CF32252
:10026400F5F0E9CCF9121188800D7900900001F5C0
:0F027400F0E9CCF91211A9120217C9FCE5F0222A
:10028300F5F0EDCCFD12113A800D7D00900001F5E3
:0F029300F0EDCCFD121157120217CDFCE5F02251
:1002A20030E02720E31208E6C0E025F0F618E6F574
:1002B200F03CF6E5F0D0F02209E7C0E025F0F719AE
:1002C200E7F5F03CF7E5F0D0F02230E217A3E0C00A
:1002D200E0C08325F0F01582D083E0F5F03CF0E534
:1002E200F0D0F02220E31208E2C0E025F0F218E29A
:1002F200F5F03CF2E5F0D0F02209E3C0E025F0F39E
:0B03020019E3F5F03CF3E5F0D0F02229
:10030D00F5F0EBCCFB1211888008F5F0EBCCFB126D
:0A031D0011A91202A2CBFCE5F022A8
:1003270030E03A30E302E9F8E8C0E0E6F908E6F839
:1003370030F005120153801B30F10512016E801356
:1003470030F2051201BB800B30F30512019E8003CA
:1003570012020ED0E0C9F709C8F7C8F92230E23314
:10036700E0F9C083A3E0F830F005120153801B3099
:10037700F10512016E801330F2051201BB800B30BC
:10038700F30512019E800312020EE8F0D083158256
:10039700E9F02230E302E9F8E8C0E0E2F908E2F820
:1003A70030F005120153801B30F10512016E8013E6
:1003B70030F2051201BB800B30F30512019E80035A
:0D03C70012020ED0E0C9F309C8F3C8F922F4
:1003D40075F001801275F002800D75F004800875C7
:1003E400F008800375F000CACEC0E0EDCBCFC0E0CA
:1003F400E9FDE8C0E0121188802875F001801275CB
:10040400F002800D75F004800875F008800375F023
:1004140000CACEC0E0EDCBCFC0E0E9FDE8C0E012F9
:1004240011A9120327D0E0C8FAE9CDF9D0E0CFFB37
:05043400D0E0CECA2259
:10043900E8FCE9FDEAFEEBFF8008ECF8EDF9EEFADD
:10044900EFFBEF4E4D4B4A49700DE88CF0A4FCAD23
:10045900F07E007F004D22C082ECF58288F0A4C0B6
:10046900E0E8C5F0CDC0E0A42DFDE435F0CEFC8573
:1004790082F0E9A42DFDEE35F0FEE433CF88F0A437
:100489002FFFE98CF0A42FFFEAD0F0C0F0A42FFFD2
:10049900EB8582F0A42FFFD0F0E9A42EFEEF35F012
:1004A900FFEA8582F0A42EFEEF35F0FF8CF0E8A478
:0F04B9002EFEEF35F0FFD0E0D082FC4E4D4F22EB
:0D04C800EFCBFFEECAFEEDC9FDECC8FC2233
:1004D5001204C8EB4A4E4F7017ECFAEDFB1201B54A
:1004E500F5F0E8FCE9FDEAF8EBF9E4FAFBE5F022C2
:1004F500C082C08375F0208B828883E4FBCFC0E087
:10050500E4CACEC0E0E4C9CDC0E0C3EC33FCA881A9
:10051500E633F618E633F618E633F6EB33FBE93344
:10052500F9EA33FAEF33FFEB9583E99DEA9EEF9500
:1005350082400CFFEB9583FBE99DF9EA9EFA0CD509
:10054500F0C8D0E0FDD0E0FEEBF8D0E0CFFBECD07A
:1005550083D0824D4E4F221204C81204D8EBFFEA15
:07056500FEE9FDE8FC80EC5B
:10056C001204C8EB33500EE4C398F8E499F9E49AFA
:10057C00FAE49BFBD3EF30E708B3C0D01205AE8092
:10058C0002C0D01204D8D0F020F70122F5F01205E9
:10059C00AEE5F0221204C8EFC0E012056F1205623E
:0205AC0080E4E9
:1005AE00E4C39CFCE49DFDE49EFEE49FFF4E4D4C97
:0105BE00221A
:1005BF00ECF4FCEDF4FDEEF4FEEFF4FF4E4D4C22A7
:1005CF00C083F5F0C3EC98F583ED994283EE9A4220
:1005DF008320F010C082EB6480F582EF64809582F7
:1005EF00D0828002EF9B82F130F20545837001D3F8
:0905FF00D08330F301B3E4332290
:1006080088F005F0800EEFA2E713FFEE13FEED135E
:0C061800FDEC13FCD5F0EFEF4E4D4C2232
:1006240088F005F0800DC3EF13FFEE13FEED13FD0C
:0B063400EC13FCD5F0F0EF4E4D4C2213
:10063F0088F005F0800DC3EC33FCED33FDEE33FE97
:0B064F00EF33FFD5F0F0EF4E4D4C22D2
:10065A00E8FCE9FDEAFEEBFF8008ECF8EDF9EEFABA
:10066A00EFFBEC28FCED39FDEE3AFEEF3BFF4E4D79
:02067A004C2210
:10067C00C3EC98FCED99FDEE9AFEEF9BFF4E4D4CB2
:01068C00224B
:10068D00EC58FCED59FDEE5AFEEF5BFF4E4D4C2242
:10069D00EC48FCED49FDEE4AFEEF4BFF4E4D4C2272
:1006AD00EC68FCED69FDEE6AFEEF6BFF4E4D4C22E2
:0B06BD00E814600104F9FAFB02066C6F
:1006C800C0F0E5F0C4540F75F005A49006D7731276
:1006D800066C804912067C804412044B803F120548
:1006E8006F803A1204D880351205A3803012055F56
:1006F800802B1206088026120624802112063F80CD
:100708001C12068D801712069D80121206AD800DF0
:100718001206BD80081205AE80031205BFD0F0FB9B
:1007280030F010D0E0F8ECF618EDF618EEF618EF09
:10073800F6802E30F21DD083D082EFF0A3EEF0A326
:10074800EDF0A3ECF0E58224FDF582E58334FFF5B6
:1007580083800ED0E0F8ECF218EDF218EEF218EF04
:10076800F230F30CD0E0FFD0E0FED0E0FDD0E0FCAA
:0D077800D0E0F8D0E0F9D0E0FAD0E0CB22DC
:1007850075F004804A75F014804575F02480407535
:10079500F034803B75F044803675F054803175F047
:1007A50064802C75F074802775F084802275F09430
:1007B500801D75F0A4801875F0B4801375F0C480A1
:1007C5000EFC75F0DC800875F0E4800375F0F4EB41
:1007D500C0E0EAC0E0E9C0E0E8C0E0ECF8EDF9EE21
:1007E500FAEFFBE0FFA3E0FEA3E0FDA3E0FC30F39E
:1007F5000CECC0E0EDC0E0EEC0E0EFC0E0E5822427
:0C080500FDC0E0E58334FFC0E00206C83F
:10081100E8FCE9FDEAFEEBFF8008ECF8EDF9EEFA01
:10082100EFFBEF4E700122EB4A7005FFFCFDFE224B
:10083100120A8C947F40092B500C7F7F74FF80EC4F
:100841002B4003E480E5C0E0C0F0E849704EBA8077
:1008510009D0E0F9D0E0F802094CEC4D7018BE80E7
:1008610008E8FCE9FDEAFE80E8E4FBFFEA8EF0A47B
:10087100F8E5F0020917EA8CF0A4FFABF0EA8DF07D
:10088100A42BFBE435F0F8EA8EF0A428F8E435F067
:10089100020917EACEFAE9FDE8FC80DAEC4D7005B1
:1008A100BE80F080BCEAC0E0EC88F0A4FFABF0EDC4
:1008B10088F0A42BFBE435F0FAEC89F0A42B4FFF70
:1008C100E5F03AFAE433FB88F0EEA42AFAE5F03BCE
:1008D100FBED89F0A42AFAE5F03BFBE433F88CF058
:1008E100D0E0FCA42AC5F03BFBE438F8EF6002D26B
:1008F100F0AFF0ED8CF0A42BFBE5F038F8E433FA1F
:10090100EE89F0A42BFBE5F038F8E43AFAEC8EF02E
:10091100A428F8E5F03AF5F0FEE8FDEBFCD0E0F9AB
:10092100D0E0F830F70708B8000602095912096546
:10093100EF3350178CF020F00260100CBC000C0D4E
:10094100BD00080EBE000408E8600DE933E813FF9E
:10095100EE2313FE4F4D4C227F7F74FF8002E4FF94
:10096100FEFDFC22C3EF33FFEC33FCED33FDEE3330
:10097100FE22C3EE13FEED13FDEC13FCEF13500248
:10098100D2E0FF22C3E49CFCE49DFDE49EFEE49FD3
:02099100FF2243
:10099300EFCBFFEECAFEEDC9FDECC8FCEF4E7003D2
:1009A30002095FEB4A7003020959120A8CEB947F28
:1009B300CF40069F500A02095FC39F4003020959B3
:1009C300FBE849700CEA94807007EBF8A9F0020980
:1009D3004CC0F07F00120A7D501EEB6002DB05D095
:1009E300F002095FC3120969EF33FFEC28FCED390C
:1009F300FDEE3AFEE43FFFD3EBC0E075F00874036D
:100A0300C0E07B00501CC3EC98FCED99FDEE9AFE10
:100A1300EF9400FF500CEC28FCED39FDEE3AFEE4B8
:100A23003FFFEB33FBEC33FCED33FDEE33FEEF33F3
:100A3300FFD5F012D0F0EBC0E0E5F0146012C0E097
:100A430075F0087B00EF20E0BDEED330E7D480B62D
:100A5300120A7D4E4D4CFBD0E0F4FCD0E0F4FDD007
:100A6300E0F4FED0E0F8D0E0F9EB500302094C606B
:100A73000302093CEC540102093AC3EC98FCED99DA
:090A8300FDEE9AFEEF9400FF2243
:100A8C00EAA2E7D2E7FAEB33FB13F5F0EEA2E7D2DA
:100A9C00E7FEEF33FFC5F013A2E730E601B313C551
:030AAC00F0C32272
:100AAF00EFCBFFEECAFEEDC9FDECC8FCEB4A7003BD
:100ABF00EF4E22EB6480FB8019E8FCE9FDEAFEEBC8
:100ACF00FF8008ECF8EDF9EEFAEFFBEB4A7003EF5D
:100ADF004E22EF4E700BEBFFEAFEE9FDE8FC7401CE
:100AEF0022C3EC98ED99EE9AEBC2E7F5F0EFC2E76F
:100AFF0095F0500E600CEBCFFBEACEFAE9CDF9E89A
:100B0F00CCF8120A8CC0E0C0F07F00C39BFB605B87
:100B1F009418600C401AD0E023F9D0E0F802094C89
:100B2F008AF0E9486003D2F0E4AFF0FAF9F8803BBD
:100B3F00EB30E40D89F0EA6003D2F0E4AFF0F9CACC
:100B4F00F8EB30E30D88F0EF6002D2F0AFF0E4CABB
:100B5F00C9F8EB54076014FBC3EA13FAE913F9E879
:100B6F0013F8EF135002D2E0FFDBEDD0E0C0E0301E
:100B7F00E734C3E49FFFF5F0EC98FC42F0ED99FDEC
:100B8F0042F0EE9AFE42F0D0E0F9D0E0F8E5F070D6
:100B9F000122E923F9EE30E703020931D8030209F4
:100BAF005F12096580F0EC28FCED39FDEE3AFED0BE
:100BBF00E023F9D0E0F8400302093112097408B8B4
:080BCF0000030209590209317B
:100BD700EF4E7003FDFC22EEA2E7D2E7FEE4CF332F
:100BE70092D5C3947F500302095FF5F0941F400527
:100BF7006011020959F404F5F0EF54FEFF1209736E
:100C0700D5F0F6EFCCCDCECF30D503120985EE0265
:020C170009557D
:100C1900EF30E707D2D51209858002C2D5EF4E4DD4
:100C29004C70012275F096EF700EEE20E71C15F05E
:100C390012096530E7F88012EF05F0C313FFEE13D0
:100C4900FEED13FDEC13FCEF70EFA2D5E5F013FFF9
:070C5900EE92E7FE440122C8
:100C6000F5F0C3EF20E706EB30E7148034EB20E724
:100C700004F4D3802C30F10363F00CEB547FFBEFD2
:100C80004E7002FCFDEB4A7002F8F9EC98A8F0F502
:100C9000F0ED9942F0EE9A42F0EF547F9B45F088D8
:100CA000F082F130F2037001D330F301B3E4332268
:100CB00075F004801875F014801375F024800E759B
:100CC000F034800975F04CFC800375F054EBC0E003
:100CD000EAC0E0E9C0E0E8C0E0ECF8EDF9EEFAEFD8
:100CE000FBE0FFA3E0FEA3E0FDA3E0FC30F30CEC8F
:100CF000C0E0EDC0E0EEC0E0EFC0E0E58224FDC062
:0A0D0000E0E58334FFC0E0020D14AB
:0A0D0A00E8FB7A80E4F9F8020ADA47
:100D1400C0F0E5F0C4540F75F005A4758226758300
:100D24000D73120ADA801C120ABB80171208238082
:100D34001212099F800D120D0A8008EF4E6004EF15
:100D4400B2E7FFD0F0FB30F010D0E0F8ECF618ED8D
:100D5400F618EEF618EFF6802E30F21DD083D0820E
:100D6400EFF0A3EEF0A3EDF0A3ECF0E58224FDF5A3
:100D740082E58334FFF583800ED0E0F8ECF218EDC1
:100D8400F218EEF218EFF230F30CD0E0FFD0E0FEF0
:100D9400D0E0FDD0E0FCD0E0F8D0E0F9D0E0FAD02B
:030DA400E0CB227F
:100DA700F5F0E9800DF5F0EB8008F5F0ED8003F53F
:100DB700F0EFD083D082C0E0C3E493A3C5F095F0F1
:100DC700D0F0C0E0E493A3C5F095F07003020DEDF9
:060DD700A3D0E0020E09AA
:100DDD00D083D082F5F0C3E493A3C5F095F0C0E0C5
:100DED00C3D0F0E493A395F04012A3A3C3E5F03371
:100DFD00500205832582F58250020583740193C04C
:060E0D00E0E493C0E022C6
:100E1300D083D082F5F0E49370097401937004A336
:100E2300A3800C74029365F06005A3A3A380E77409
:090E33000193C0E0E493C0E02249
:100E3C00C9CDC9CACECACBCFCB120E4FEDF9EEFA43
:030E4C00EFFB2297
:100E4F0030F10678FF7CFF8005E84C700122BB0073
:100E5F0038BF0010E8FCEDF8E7F630F00260040848
:100E6F0009DCF522BF01128D828E83800209A3E770
:100E7F00F030F0026002D8F522E8FCEDF8E7F2302E
:100E8F00F00260040809DCF522BB014FBF00148992
:100E9F00828A83EDF9800209A3E0F730F002600245
:100EAF00D8F522BF01238D828E830CC9C582C9CA92
:100EBF00C583CAE0A3C9C582C9CAC583CAF030F0C9
:100ECF00026005A3D8E5DCE3228D828E83EDF9E085
:100EDF00F230F002600409A3D8F522BB0255BF001F
:100EEF001589828A83EDF9800209A3E493F730F024
:100EFF00026002D8F422BB023ABF01248D828E8396
:100F0F000CC9C582C9CAC583CAE493A3C9C582C91E
:100F1F00CAC583CAF030F0026005A3D8E4DCE22230
:100F2F0089828A83EDF9E493F330F002600409A318
:100F3F00D8F422BF0010E8FCEDF8E3F630F00260C1
:100F4F00040809DCF522BF01128D828E838002090D
:100F5F00A3E3F030F0026002D8F522E8FCEDF8E3ED
:0B0F6F00F230F00260040809DCF522FB
:100F7A0012113A800D12115780081211888003123B
:100F8A0011A930E00720E302E622E72230E1072038
:0E0F9A00E302E222E32230E202E022E49322AC
:100FA800121157800312113AADF0120FF0CDC5F0AF
:020FB800CD2248
:100FBA00121157800312113AAFF0120FF0CFC5F099
:020FCA00CF2234
:100FCC001211A98003121188A9F0120FF0C9C5F0F3
:020FDC00C92228
:100FDE001211A98003121188ABF0120FF0CBC5F0DD
:020FEE00CB2214
:100FF00030E01020E306E6F5F008E622E7F5F00918
:10100000E7192230E11020E306E2F5F008E222E3DE
:10101000F5F009E3192230E206E0F5F0A3E022E45E
:0710200093F5F07401932227
:0610270012113A021087CD
:06102D00121157021087AA
:0610330012118802103FBB
:061039001211A902103F94
:10103F0030E01520E309E6FB08E6FA08E6F922E7B7
:10104F00FB09E7FA09E7F92230E11520E309E2FB92
:10105F0008E2FA08E2F922E3FB09E3FA09E3F922CD
:10106F0030E209E0FBA3E0FAA3E0F922E493FB747A
:08107F000193FA740293F922B7
:1010870030E01720E309E6FF08E6FE08E6FD22E761
:10109700FF09E7FE09E7FD19192230E11720E309E7
:1010A700E2FF08E2FE08E2FD22E3FF09E3FE09E3AF
:1010B700FD19192230E209E0FFA3E0FEA3E0FD22BB
:0C10C700E493FF740193FE740293FD2279
:0610D30012113A0210D9CF
:1010D90030E01E20E30CE6FF08E6FE08E6FD08E620
:1010E900FC22E7FF09E7FE09E7FD09E7FC191919E1
:1010F9002230E11E20E30CE2FF08E2FE08E2FD08CF
:10110900E2FC22E3FF09E3FE09E3FD09E3FC191907
:10111900192230E20CE0FFA3E0FEA3E0FDA3E0FC0E
:1011290022E493FF740193FE740293FD740393FC0C
:011139002293
:10113A00BB0003740922BB010789828A83740422D3
:0D114A00BB020789828A83741022740A2276
:10115700BB0007E92582F8740122BB010DE925824E
:10116700F582EA3583F583740422BB020DE92582F3
:10117700F582EA3583F583741022E92582F8740233
:011187002245
:10118800BF0005EDF8740122BF01078D828E8374BC
:101198000422BF02078D828E83741022EDF8740238
:0111A8002224
:1011A900BF0007ED2582F8740122BF010DED2582EC
:1011B900F582EE3583F583740422BF020DED258295
:1011C900F582EE3583F583741022ED2582F87402D9
:0111D90022F3
:1011DA00C0E012113A8013C0E0121157800CC0E02F
:1011EA001211888005C0E01211A930E00B20E30437
:1011FA00D0E0F622D0E0F72230E10B20E304D0E081
:0A120A00F222D0E0F322D0E0F0223F
:0B121400C0E0EDC0E012113A021240F1
:0B121F00C0E0EDC0E0121157021240C9
:0B122A00C0E0EBC0E01211880212408F
:0B123500C0E0EBC0E01211A902124063
:1012400030E01420E308D0E0F6D0E008F622D0E049
:10125000F7D0E009F7192230E11420E308D0E0F2DA
:10126000D0E008F222D0E0F3D0E009F31922D0E078
:06127000F0D0E0A3F02223
:061276001211570212A341
:06127C001211A90212820A
:1012820030E009EBF608EAF608E9F62230E109EB6C
:10129200F208EAF208E9F222EBF0A3EAF0A3E9F09D
:0112A2002229
:1012A30030E01720E309EFF608EEF608EDF622EF3B
:1012B300F709EEF709EDF719192230E11520E309D3
:1012C300EFF208EEF208EDF222EFF309EEF309ED87
:0B12D300F322EFF0A3EEF0A3EDF022F9
:0612DE0012113A0212E4B5
:1012E40030E01E20E30CEFF608EEF608EDF608EC0D
:1012F400F622EFF709EEF709EDF709ECF7191919DA
:101304002230E11E20E30CEFF208EEF208EDF208C1
:10131400ECF222EFF309EEF309EDF309ECF31919FA
:0E1324001922EFF0A3EEF0A3EDF0A3ECF022FF
:10133200E0FBA3E0FAC083A3E0F904F01582D083B6
:061342007003E004F0223C
:10134800E0FFA3E0FEC083A3E0FD04F01582D08394
:061358007003E004F02226
:0B135E00EEFAEDF91D70011EEFFB22FE
:10136900D083D082EFC0E0EEC0E0EDC0E0ECC0E099
:02137900E4731B
:0F137B00D083D082EFC0E0EEC0E0EDC0E0E473BD
:0C138A00E493FF740193FE740293FD22B3
:0D139600740193F5F0E493F58385F0822255
:0213A300E473F1
:0913A500EFF0A3EEF0A3EDF0223D
:0913AE00EBF0A3EAF0A3E9F02240
:0C13B700EFF0A3EEF0A3EDF0A3ECF022A9
:0C13C300EBF0A3EAF0A3E9F0A3E8F022AD
:0913CF00E0FFA3E0FEA3E0FD2213
:0913D800E0FBA3E0FAA3E0F92216
:0C13E100E0FFA3E0FEA3E0FDA3E0FC227F
:0C13ED00E0FBA3E0FAA3E0F9A3E0F82283
:1013F900E0FFA3E0FEC083A3E004F0FD1582D083E3
:0614090070030EEEF0225C
:10140F00E0FFA3E0FEC083A3E014F0FD1582D083BC
:07141F000470031EEEF02231
:021581004AED31
:10142600D083D082740293FA740393FB4A7003024A
:101436001534D0E0F8D0E0C9ECC0E0EDC0E0E8FC3F
:10144600E9FDE493F8740193F9C0E0E8C0E0C082D6
:10145600C083EBC0E0EAC0E0121541ECF0A3EDF06A
:10146600A3AC83AD8289828883E0A3A982A8838CFA
:10147600838D82F0A3AC83AD821BBB00E81ABAFF52
:10148600E4E8F0A3E9F0A3D0E0F0A3D0E0F0A312E3
:101496001553D083D082D0E0FAD0E0FB740493FCDD
:1014A600740593FD4C6028C082C0838B828A8312A8
:1014B6001572E0AB82AA8389828883121572F0A91D
:1014C60082A8831DBD00E41CBCFFE0D083D082D07F
:1014D600E0FDD0E0FC121534121541121565F91223
:1014E6001565F8121565FB121565FAECC0E0EDC03E
:1014F600E0AC83AD828D828C83121565AD82AC83A0
:101506008B828A83121572F0AB82AA8319B900E521
:1015160018B8FFE18D828C83D0E0FDD0E0FC121577
:1015260065F8121565F9121553888202153D740681
:1015360093F9740793F5828983E473900003E8C0F6
:10154600E0E0F8A3E0F5828883D0E0F822E8C0E086
:10155600A882E583900003F0A3E8F0D0E0F8221516
:1015660082C582B4FF021583C582E0221582C58238
:08157600B4FF021583C58222B7
:102B1300900338D0E0F0A3D0E0F0122B637C0C12CA
:102B23002BAE122BD97C06122BFE7C0C122BAE1271
:102B33002C33E4FD7C0512761D748090C000F0E414
:102B4300FD7C0312761D748090C000F0E4FD7C03CD
:102B530012761D900338E0F8A3E0C0E0E8C0E0225D
:102B6300900335D0E0F0A3D0E0F0743C90C000F0C7
:102B7300E4FD7C0312761D743C90C000F0E4FD7C00
:102B83000312761D743C90C000F0E4FD7C031276C2
:102B93001D743C90C000F0E4FD7C0312761D90038D
:102BA30035E0F8A3E0C0E0E8C0E022900335D0E0D0
:102BB300F0A3D0E0F0ECA3F0540F90C000F0EC547D
:102BC3000FF0E4FD7C0512761D900335E0F8A3E0D9
:102BD300C0E0E8C0E022900335D0E0F0A3D0E0F0FD
:102BE300740190C000F0F0E4FD7C0512761D9003A3
:102BF30035E0F8A3E0C0E0E8C0E022900335D0E080
:102C0300F0A3D0E0F0ECA3F0540790C000F0EC5434
:102C130007F0900337E0540790C000F0E4FD7C0216
:102C230012761D900335E0F8A3E0C0E0E8C0E0228F
:102C33009002D9D0E0F0A3D0E0F0740190C000F08E
:102C4300F0F0E5829002D8F09002D8E0C3941050DF
:102C530015E02408F582E4340CF5837420F0900227
:102C6300D8E004F080E27401900165F0E4FD7C0299
:102C730012761D9002D9E0F8A3E0C0E0E8C0E0229C
:102C8300121033E9C0E0740112026ED0E0F9900132
:102C930075EFF0A3EEF0A3EDF0EC1211DA900174EE
:102CA300F02290028AD0E0F0A3D0E0F079737A02A8
:102CB3007B01900287EBF0A3EAF0A3E9F079927A23
:102CC3000290026DEBF0A3EAF0A3E9F0EE90028E1E
:102CD300F0ED90028DF0EC90028CF0796D7A029019
:102CE300026AEBF0A3EAF0A3E9F079877A02900293
:102CF30067EBF0A3EAF0A3E9F0740A7B179002658F
:102D0300CBF0A3CBF090028FE0FFA3E0FEA3E0FDA6
:102D1300122012900271EDF0A3ECF090028EE060AD
:102D230023E4900270F0900270E0C394105015E019
:102D33002408F582E4340CF5837420F0900270E0EB
:102D430004F080E2E4900270F0900270E07D00FCF9
:102D5300A3A3E0D39C900271E06480CD6480CD9DF9
:102D63004029EC2473F582E43402F583E0FC9002FD
:102D73008CE02408F582E4340CF583ECF0900270C7
:102D8300E004F090028CE004F080BE7401900165D1
:102D9300F090028AE0F8A3E0C0E0E8C0E022EC9003
:102DA3000334F0B47031E4900333F0900333E0C3A1
:102DB30094105021E0FF2408F582E4340CF583E0FD
:102DC300FCEF241CF582E4340CF583ECF00FEF9058
:102DD3000333F080D6803AB46737E4900333F0903E
:102DE3000333E0C394105021E0FF241CF582E43444
:102DF3000CF583E0FCEF2408F582E4340CF583EC56
:102E0300F00FEF900333F080D67401900165F080EA
:102E13000022C0E0C0F0C082C083C0D0ECC0E0EDAF
:102E2300C0E0EEC0E0EFC0E0C2AF900165E06047F4
:102E3300900014E0C394104002E4F0E02408F5820B
:102E4300E4340CF583E090C001F0900013E004F04B
:102E5300900014E004F0900013E0C394104002E4E7
:102E6300F0E07006748090C000F0900013E0B408A6
:102E73000674C090C000F0900020E0FDA3E0FCE0E9
:102E830004F09000207003E004F0D3EC9414ED649C
:102E93008094804002D29690001DE004F090001CC4
:102EA3007003E004F090001FE004F090001E700334
:102EB300E004F0900009E004F09000227C017D0022
:102EC3007E007F00120785758CEA758A00D2AFD029
:102ED300E0FFD0E0FED0E0FDD0E0FCD0D0D083D046
:102EE30082D0F0D0E032C0E0C082C083C0D0ECC05A
:102EF300E0EDC0E0EEC0E0EFC0E0C2AF309839C211
:102F030098E599900C32FEE0FDA3E0FCE004F0901C
:102F13000C327003E004F0EC2409F582ED3414F56F
:102F230083EEF0C3900C33E094D0900C32E094071E
:102F33004004E4F0A3F08056309953C299900C34C6
:102F4300E0FDA3E0FCA3A3E06C7007900C36E06DFA
:102F53006037ECFEEDFFCC2401CCCD3400CD900CDA
:102F630034EDF0A3ECF0EE2439F582EF340CF58365
:102F7300E0F599C3EC94D0ED9407400BE4FCFD908D
:102F83000C34EDF0A3ECF08005E4900C38F0D2AFF4
:102F9300D0E0FFD0E0FED0E0FDD0E0FCD0D0D08385
:102FA300D082D0E032C0E0C082C083C0D0E8C0E0AD
:102FB300E9C0E0EAC0E0EBC0E0ECC0E0EDC0E0EE69
:102FC300C0E0EFC0E0C2AF903B39E02402FC903B8D
:102FD30038E03400FD7E007F00E4F8F9FB04FA12C8
:102FE300066CEEFFEDFEECFD120F8430E254903BD5
:102FF30038E0FDA3E0FC7E007F00E4F8F9FB04FA6F
:1030030012066CEEFFEDFEECFD120F84902B90FE8A
:10301300E0FDA3E0FCE004F0902B907003E004F0EB
:10302300EC2467F582ED3433F583EEF0C3902B91F6
:10303300E094D0902B90E094074004E4F0A3F002D6
:1030430030BD904AE8E02402FC904AE7E03400FDFA
:103053007E007F00E4F8F9FB04FA12066CEEFFED44
:10306300FEECFD120F8430E251904AE7E0FDA3E04D
:10307300FC7E007F00E4F8F9FB04FA12066CEEFF15
:10308300EDFEECFD120F84903B3FFEE0FDA3E0FC60
:10309300E004F0903B3F7003E004F0EC2416F5826B
:1030A300ED3443F583EEF0C3903B40E094D0903B86
:1030B3003FE094074004E4F0A3F0D2AFD0E0FFD0A8
:1030C300E0FED0E0FDD0E0FCD0E0FBD0E0FAD0E0C1
:1030D300F9D0E0F8D0D0D083D082D0E032C0E0C0C5
:1030E30082C083C0D0E8C0E0E9C0E0EAC0E0EBC042
:1030F300E0ECC0E0EDC0E0EEC0E0EFC0E0C2AF90B6
:103103002B8AE02402FC902B89E03400FD7E007FB3
:1031130000E4F8F9FB04FA12066CEEFFEDFEECFD99
:10312300120F8430E253902B89E0FDA3E0FC7E0074
:103133007F00E4F8F9FB04FA12066CEEFFEDFEECF7
:10314300FD120F84901BE1FEE0FDA3E0FCE004F020
:10315300901BE17003E004F0EC24B8F582ED342316
:10316300F583EEF0C3901BE2E094D0901BE1E09472
:10317300074004E4F0A3F0805B900009E0C39414DB
:10318300405290B000E0540F900005FEE0FDA3E034
:10319300FCE004F09000057003E004F0EC2492F5E9
:1031A30082E4340BF583EEF0C3900006E0940A90BA
:1031B3000005E094004004E4F0A3F0C296900020E0
:1031C300E4F0A3F0C297900022F0A3F0A3F0A3F0E1
:1031D300900009F0D2AFD0E0FFD0E0FED0E0FDD008
:1031E300E0FCD0E0FBD0E0FAD0E0F9D0E0F8D0D0BA
:1031F300D083D082D0E032900338D0E0F0A3D0E087
:10320300F0E4900335F0A3F0A3F090033EE0FBA3BA
:10321300E0FA90033AEFF0A3EEF0A3EDF0EA900F9B
:10322300AA121235900345E0900FA91211EFE49012
:1032330000081211EFFB12122A90000412123590AB
:103243000002121235900006121235EC90033DF085
:10325300900FA9120F89FA7A0425E0CB33CBDAF960
:10326300FCCBFDCB1229C890033AE0FBA3E0FAA301
:10327300E0F9900FAC121276C2AF90033DE0600309
:1032830002333B900342E06401600274FF04900345
:1032930035FCE02CF0900343E0600B438780900300
:1032A30035E004F0800753877F900335E0900340B7
:1032B300E0FDA3E0120DB1000003331A32C732D987
:1032C30032EE3304900335E02466F582E43401F5ED
:1032D30083E0F58D8041900335E004F0E02466F54A
:1032E30082E43401F583E0F58D802C900335E024EE
:1032F30002F0E02466F582E43401F583E0F58D8085
:1033030016900335E02403F0E02466F582E43401EB
:10331300F583E0F58D8000438921439852758CDC59
:10332300758A00D2ACC2ABD2A9D2AAD2A8D28ED20D
:103333008CC28AC2880234E4900342E064026002D1
:1033430074FF04600474048001E4900335FCE02CF2
:10335300F0900340E0FDA3E0120DB100000333DE63
:10336300336B338533A233C0900335E0246CF5828D
:10337300E43401F583E07D00900336CDF0A3CDF076
:103383008059900335E004F0E0246CF582E43401C5
:10339300F583E07D00900336CDF0A3CDF0803C9023
:1033A3000335E02402F0E0246CF582E43401F58374
:1033B300E07D00900336CDF0A3CDF0801E90033561
:1033C300E02403F0E0246CF582E43401F583E07D2E
:1033D30000900336CDF0A3CDF08000900344E04489
:1033E30080FE90033FE02403FC90033EE03400FDA5
:1033F300ECF8EDF97A007B00EEC0E0E4FCFDFF049D
:10340300FE12066CEEFFEDFEECFDD0E01211E8902B
:103413000337E090033EFEE0FDA3E0FCF8EDF97A0C
:10342300007B00EEC0E0E4FCFDFF04FE12066CEE40
:10343300FFEDFEECFDD0E01211E890033FE004FC49
:1034430090033EFDE0CD70010D7E007F00E4F8F9AE
:10345300FB04FA12066CEEFFEDFEECFDE41211E83C
:10346300900344E0547FFE90033FE02403FC900369
:103473003EE03400FDECF8EDF97A007B00EEC0E0AD
:10348300E4FCFDFF04FE12066CEEFFEDFEECFDD046
:10349300E01211E890033FE004FC90033EFDE0CD11
:1034A30070010D7E007F00E4F8F9FB04FA12066C4C
:1034B300EEFFEDFEECFD74011211E890033FE024F2
:1034C30004FC90033EE03400FD7E007F00E4F8F945
:1034D300FB04FA12066CEEFFEDFEECFD740B121109
:1034E300E8900338E0F8A3E0C0E0E8C0E0229001F0
:1034F30088D0E0F0A3D0E0F0A3EFF0A3EEF0A3EDCB
:10350300F0900FAC121039EC90018DF07D007C042B
:1035130025E0CD33CDDCF9F5828D83ECCCFDCC12E7
:10352300121F90018AE0A3E0A3E0FD900FAC1210FC
:103533003990018DE07D007C0425E0CD33CDDCF9AD
:10354300F5828D83A3A3ECCCFDCC12121F90018ACC
:10355300E0A3E0A3E0FD900FAC12103990018DE0E1
:103563007D007C0425E0CD33CDDCF929F9EA3DFA71
:10357300EC9000081211E190018AE0A3E0A3E0FDC2
:10358300900FAC12103990018DE07D007C0425E092
:10359300CD33CDDCF929F9EA3DFAECCCFDCC900032
:1035A3000612121F90018EE0FC90018AE0FBA3E05B
:1035B300FAA3E0F9EDC0E0ECC0E0900FAC12102DDF
:1035C30090018DE07B007A0425E0CB33CBDAF92D33
:1035D300FDEE3BFED0E0FBD0E0CB900004121235B1
:1035E30090018AE0FFA3E0FEA3E0FD900FAC121070
:1035F3003990018DE07D007C0425E0CD33CDDCF9ED
:1036030029F9EA3DFA900004120FA8FC1229C89088
:10361300018AE0FBA3E0FAA3E0F9EFC0E0EEC0E02B
:10362300EDC0E0900FAC12102D90018DE07B007A7D
:103633000425E0CB33CBDAF92DFDEE3BFED0E0F9E8
:10364300D0E0FAD0E0FB90000912127C90018FE0E9
:10365300FDA3E0FECDFFCD90018AE0FBA3E0FAA33A
:10366300E0F9EFC0E0EEC0E0900FAC12102D900136
:103673008DE07B007A0425E0CB33CBDAF92DFDEE28
:103683003BFED0E0FBD0E0CB90000C121235900152
:1036930091E0FDA3E0FECDFFCD90018AE0FBA3E026
:1036A300FAA3E0EFC0E0EEC0E0900FAC12102D9053
:1036B300018DE07B007A0425E0CB33CBDAF92DFDD5
:1036C300EE3BFED0E0FBD0E0CB90000E1212359023
:1036D3000188E0F8A3E0C0E0E8C0E0229001A4D0B4
:1036E300E0F0A3D0E0F0E49001A3F0EC9001A9F0A6
:1036F3009001A6EFF0A3EEF0A3EDF09001A6E0FF9A
:10370300A3E0FEA3E0FD900FA9120F89FC9001A393
:10371300E0C39C4003023889900FAC12103990012A
:10372300A3E07D007C0425E0CD33CDDCF929F9EA63
:103733003DFA900008120F7F70030238809001A9B0
:10374300E09001A2F09001A6E0A3E0A3E0FD9001C8
:10375300A3E0FC1238969001A6E0FFA3E0FEA3E0ED
:10376300FD900FAC1210399001A3E07D007C04257D
:10377300E0CD33CDDCF929F9EA3DFAE9FDEAFEEBC8
:10378300FF9001A6E0FBA3E0FAA3E0F9EFC0E0EEAF
:10379300C0E0EDC0E0900FAC12102D9001A3E07BD0
:1037A300007A0425E0CB33CBDAF92DFDEE3BFE9016
:1037B300000C120FDEF5828B83121396D0E0FDD03E
:1037C300E0FED0E0FF1213A3EC70030238809001F7
:1037D300A6E0FFA3E0FEA3E0FD900FAA120FDE70A8
:1037E30004FAEB64A070097E007D017C02124F068F
:1037F3009001A6E0FFA3E0FEA3E0FD900FAC121042
:10380300399001A3E07D007C0425E0CD33CDDCF9C4
:1038130029F9EA3DFAE9FDEAFEEBFF9001A6E0FB98
:10382300A3E0FAA3E0F9EFC0E0EEC0E0EDC0E09062
:103833000FAC12102D9001A3E07B007A0425E0CB9E
:1038430033CBDAF92DFDEE3BFE90000E120FDEF5C1
:10385300828B83121396D0E0FDD0E0FED0E0FF12FE
:1038630013A3EC6018E4900178F09001A6E0FFA3A5
:10387300E0FEA3E0FD9001A3E0FC123AA89001A3AF
:10388300E004F00236FE9001A4E0F8A3E0C0E0E813
:10389300C0E02290019EEFF0A3EEF0A3EDF0900FB5
:1038A300AC121039EC9001A1F07D007C0425E0CD31
:1038B30033CDDCF929F9EA3DFAE92406F9EA3400C3
:1038C300FAE4FD0412028390019EE0A3E0A3E0FD6D
:1038D300900FAC1210399001A1E07D007C0425E02B
:1038E300CD33CDDCF929F9EA3DFAE92402F9EA34CA
:1038F30000FA90019EE0A3E0A3E0FDEBC0E0EAC084
:10390300E0E9C0E0900FAC1210399001A1E07D0016
:103913007C0425E0CD33CDDCF929F9EA3DFA9000AA
:1039230004120FA8FCD0E0F9D0E0FAD0E0FBEC12CF
:1039330003E890019EE0A3E0A3E0FD900FAC12101A
:10394300399001A1E07D007C0425E0CD33CDDCF985
:10395300F5828D83A3A3120FA8FC90019EE0FBA325
:10396300E0FAA3E0F9EDC0E0ECC0E0900FAC121078
:103973002D9001A1E07B007A0425E0CB33CBDAF96B
:10398300F5828B83120FDEFAD0E0FCD0E0FDEA6C07
:103993007002EB6D6003023A2A90019EE0FFA3E000
:1039A300FEA3E0FD900FAC1210399001A1E07D0061
:1039B3007C0425E0CD33CDDCF929F9EA3DFAE4FDB9
:1039C3000412028390019EE0A3E0A3E0FD900FACFC
:1039D3001210399001A1E07D007C0425E0CD33CDA8
:1039E300DCF929F9EA3DFA90019EE0A3E0A3E0FDAA
:1039F300EBC0E0EAC0E0E9C0E0900FAC12103990F0
:103A030001A1E07D007C0425E0CD33CDDCF929F96B
:103A1300EA3DFA900004120FA8FCD0E0F9D0E0FAD6
:103A2300D0E0FBEC1203E89001A2E0FC90019EE0E1
:103A3300FFA3E0FEA3E0FD900FAC1210399001A1AB
:103A4300E07F007E0425E0CF33CFDEF929F9EA3F9A
:103A5300FA90000912102D90019EE0FBA3E0FAA357
:103A6300E0F9EFC0E0EEC0E0EDC0E0900FAC121063
:103A73002D9001A1E07B007A0425E0CB33CBDAF96A
:103A83002DFDEE3BFEED2402FDEE3400FEE4FB04CF
:103A930012030DF5828B83D0E0FDD0E0FED0E0FF72
:103AA300EC1211EF22900178E0FA900174EFF0A389
:103AB300EEF0A3EDF0EAC0E0900FAC121039EC90F9
:103AC3000177F07D007C0425E0CD33CDDCF929F9C5
:103AD300EA3DFAD0E09000081211E1900174E0A3EE
:103AE300E0A3E0FD900FAC121039900177E07D0068
:103AF3007C0425E0CD33CDDCF929F9EA3DFA9000C9
:103B030008120F7F14702D900174E0A3E0A3E0FD71
:103B1300900FAC121039900177E07D007C0425E012
:103B2300CD33CDDCF929F9EA3DFAECCCFDCC90009C
:103B33000612121F22900174EFF0A3EEF0A3EDF032
:103B4300900009121039EBC0E0EAC0E0E9C0E09050
:103B53000004120FDEFA120FD1F8EA28FAEB39FB50
:103B6300EA24FFFAEB34FFFB900004120FCCF812A7
:103B7300020888828983D0E0F9D0E0FAD0E0FB1212
:103B83000F7F64FE60037C0022900009121039EB62
:103B9300C0E0EAC0E0E9C0E0900004120FDEFA12D0
:103BA3000FD1F8EA28FAEB39FBEA24FEFAEB34FFEB
:103BB300FB900004120FCCF812020888828983D08C
:103BC300E0F9D0E0FAD0E0FB120F7F64FE60037CE3
:103BD3000022900009121039EBC0E0EAC0E0E9C00E
:103BE300E0900004120FDEFA120FD1F8EA28FAEB84
:103BF30039FBEA24FDFAEB34FFFB900004120FCCEF
:103C0300F812020888828983D0E0F9D0E0FAD0E084
:103C1300FB120F7F64FE60037C00229000091210E8
:103C230039EBC0E0EAC0E0E9C0E0900004120FDE27
:103C3300FA120FD1F8EA28FAEB39FBEA24FCFAEB83
:103C430034FFFB900004120FCCF81202088882891B
:103C530083D0E0F9D0E0FAD0E0FB120F7F64FE607E
:103C6300037C0022900009121039EBC0E0EAC0E0A7
:103C7300E9C0E0120FE32403FAE43BFB90000412D3
:103C83000FCCF812020888828983D0E0F9D0E0FAD9
:103C9300D0E0FB120F7F0460037C00229000091226
:103CA3001039EBC0E0EAC0E0E9C0E0120FE3240200
:103CB300FAE43BFB900004120FCCF812020888824E
:103CC3008983D0E0F9D0E0FAD0E0FB120F7F0460E3
:103CD300037C0022900009121039EBC0E0EAC0E037
:103CE300E9C0E0120FE304FA70010B900004120F15
:103CF300CCF812020888828983D0E0F9D0E0FAD0A8
:103D0300E0FB120F7F0460037C0022900009121075
:103D130039EBC0E0EAC0E0E9C0E0120FE3FA90003B
:103D230004120FCCF812020888828983D0E0F9D0FC
:103D3300E0FAD0E0FB120F7F0460037C00227C01D9
:103D4300229001AAD0E0F0A3D0E0F0900C30E0FD87
:103D5300A3E0FCA3A3E06C7007900C32E06D606FEE
:103D63007E017D017C01124F06900C30E0FDA3E043
:103D7300FCE004F0900C307003E004F0EC2409F54F
:103D830082ED3414F583E0902B94FEE0FDA3E0FC78
:103D9300E004F0902B947003E004F0EC2497F58298
:103DA300ED342BF583EEF0C3900C31E094D0900CFE
:103DB30030E094074004E4F0A3F0C3902B95E09423
:103DC300D0902B94E094074004E4F0A3F080097EA4
:103DD300007D017C01124F06902B8EE0FDA3E0FCD9
:103DE300A3A3E06C7007902B90E06D606F7E017D64
:103DF300017C03124F06902B8EE0FDA3E0FCE00450
:103E0300F0902B8E7003E004F0EC2467F582ED3420
:103E130033F583E0900C36FEE0FDA3E0FCE004F014
:103E2300900C367003E004F0EC2439F582ED340C89
:103E3300F583EEF0C3902B8FE094D0902B8EE0941B
:103E4300074004E4F0A3F0C3900C37E094D0900C47
:103E530036E094074004E4F0A3F080097E007D017E
:103E63007C03124F06901BDFE0FDA3E0FCA3A3E05D
:103E73006C7007901BE1E06D60447E017D017C0264
:103E8300124F06901BDFE0FDA3E0FCE004F0901B63
:103E9300DF7003E004F0EC24B8F582ED3423F583FE
:103EA300E0FC7DDF7E1B7F011236DFC3901BE0E069
:103EB30094D0901BDFE094074004E4F0A3F0903B20
:103EC3003DE0FDA3E0FCA3A3E06C7007903B3FE063
:103ED3006D60467E017D017C04124F06903B3DE000
:103EE300FDA3E0FCE004F0903B3D7003E004F0EC44
:103EF3002416F582ED3443F583E0FC7D3D7E3B7F64
:103F0300011236DFC3903B3EE094D0903B3DE094FA
:103F1300074004E4F0A3F080097E007D017C0412D5
:103F23004F069001AAE0F8A3E0C0E0E8C0E0227CDD
:103F330001900174EFF0A3EEF0A3EDF022900313D0
:103F4300D0E0F0A3D0E0F079167A007B0190030D66
:103F5300EBF0A3EAF0A3E9F0E4A3F0A3F0A3740465
:103F6300F0900315EFF0A3EEF0A3EDF0900315E04E
:103F7300FFA3E0FEA3E0FD900004120FDE24FBFA92
:103F8300EB34FFFB900312E0C39A900311E09B50C4
:103F93004F900009121039EBC0E0EAC0E0E9C0E03D
:103FA300120FE3900312FCE02CFA900311E03BFBA9
:103FB300900004120FCCF812020888828983D0E0A3
:103FC300F9D0E0FAD0E0FB120F7F900310FCE06C15
:103FD300F0A3A3E004F09003117003E004F0808CDD
:103FE300900009121039EBC0E0EAC0E0E9C0E090AC
:103FF3000004120FDEFA120FD1F8EA28FAEB39FBAC
:10400300EA24FBFAEB34FFFB900004120FCCF81206
:10401300020888828983D0E0F9D0E0FAD0E0FB126D
:104023000F7FFC900310E06C60057C000245F99063
:104033000009121039EBC0E0EAC0E0E9C0E0120F5A
:10404300E32404FAE43BFB900004120FCCF81202C1
:104053000888828983D0E0F9D0E0FAD0E0FB120F20
:104063007F646C60057C000245F9900009121039E9
:10407300EBC0E0EAC0E0E9C0E0120FE32405FAE494
:104083003BFB900004120FCCF8120208888289834C
:10409300D0E0F9D0E0FAD0E0FB120F7F120E13420A
:1040A300210040C10140C10242620341530442F373
:1040B3000541534145C14245D152000045F79003A4
:1040C30011E4F0A3F0C3900312E09408900311E00D
:1040D3009400506B900315E0FFA3E0FEA3E0FD9076
:1040E3000009121039EBC0E0EAC0E0E9C0E0120FAA
:1040F300E3900312FCE02CFA900311E03BFBEA246B
:1041030009FAE43BFB900004120FCCF81202088872
:10411300828983D0E0F9D0E0FAD0E0FB120F7FFC74
:10412300900312E0247EF582E4340BF583ECF090E7
:104133000312E004F09003117003E004F08086A3FF
:10414300E0247EF582E4340BF583E4F0FC0245F9C8
:10415300900311E4F0A3F0C3900312E094109003D2
:1041630011E0940040030241E5900315E0FFA3E052
:10417300FEA3E0FD900009121039EBC0E0EAC0E0B5
:10418300E9C0E0120FE3900312FCE02CFA90031154
:10419300E03BFBEA2409FAE43BFB900004120FCC5A
:1041A300F812020888828983D0E0F9D0E0FAD0E0DF
:1041B300FB120F7FFC900312E0247EF582E4340BA4
:1041C300F583ECF0900B7EE0644D6005E490000B0A
:1041D300F0900312E004F09003117003E004F00286
:1041E300415AA3E0247EF582E4340BF583E4F07DA9
:1041F3007E7E0B7F01900292EFF0A3EEF0A3EDF031
:104203007D827E170F90028FEFF0A3EEF0A3EDF007
:104213007E017D007C00122CA57C000245F99003F1
:1042230015E0FFA3E0FEA3E0FD900009121039EBB7
:10423300C0E0EAC0E0E9C0E0120FE32407FAE43B80
:10424300FB900004120FCCF812020888828983D0F5
:10425300E0F9D0E0FAD0E0FB120F7F900B9EF090D4
:104263000311E4F0A3F0C3900312E094049003114C
:10427300E094005076900315E0FFA3E0FEA3E0FD79
:10428300900009121039EBC0E0EAC0E0E9C0E01287
:104293000FE3900312FCE02CFA900311E03BFBEADE
:1042A3002409FAE43BFB900004120FCCF812020835
:1042B30088828983D0E0F9D0E0FAD0E0FB120F7F47
:1042C300FC90030DE0FBA3E0FAA3E0F9A3A3E0F85D
:1042D300A3E0F5828883EC1211E1900312E004F06D
:1042E3009003117003E004F00242697C000245F977
:1042F300900315E0FFA3E0FEA3E0FD900009121078
:1043030039EBC0E0EAC0E0E9C0E0120FE32406FAAB
:10431300E43BFB900004120FCCF812020888828958
:1043230083D0E0F9D0E0FAD0E0FB120F7FC3940210
:1043330040030243DF900009121039EBC0E0EAC0EA
:10434300E0E9C0E0120FE32409FAE43BFB90000428
:10435300120FCCF812020888828983D0E0F9D0E0EA
:10436300FAD0E0FB120F7F900BFCF09000091210C3
:1043730039EBC0E0EAC0E0E9C0E0120FE3240AFA37
:10438300E43BFB900004120FCCF8120208888289E8
:1043930083D0E0F9D0E0FAD0E0FB120F7F900BFD61
:1043A300F0900009121039EBC0E0EAC0E0E9C0E088
:1043B300120FE3240BFAE43BFB900004120FCCF83A
:1043C30012020888828983D0E0F9D0E0FAD0E0FBBA
:1043D300120F7F900BFEF07C000245F9600302444C
:1043E30086900311E4F0A3F0C3900312E0940490C9
:1043F3000311E094005076900315E0FFA3E0FEA3C1
:10440300E0FD900009121039EBC0E0EAC0E0E9C01A
:10441300E0120FE3900312FCE02CFA900311E03B4F
:10442300FBEA2409FAE43BFB900004120FCCF812D8
:10443300020888828983D0E0F9D0E0FAD0E0FB1249
:104443000F7FFC90030DE0FBA3E0FAA3E0F9A3A325
:10445300E0F8A3E0F5828883EC1211E1900312E007
:1044630004F09003117003E004F00243EB90001694
:104473001213E1120BD7900BA0EDF0A3ECF07C002C
:104483000245F9B401028003024530900311E4F0C0
:10449300A3F0C3900312E09404900311E09400503E
:1044A30076900315E0FFA3E0FEA3E0FD9000091260
:1044B3001039EBC0E0EAC0E0E9C0E0120FE390037B
:1044C30012FCE02CFA900311E03BFBEA2409FAE426
:1044D3003BFB900004120FCCF812020888828983F8
:1044E300D0E0F9D0E0FAD0E0FB120F7FFC90030D8F
:1044F300E0FBA3E0FAA3E0F9A3A3E0F8A3E0F582CD
:104503008883EC1211E1900312E004F09003117020
:1045130003E004F00244959000161213E1120BD746
:10452300900BA2EDF0A3ECF07C000245F99003118F
:10453300E4F0A3F0C3900312E09410900311E0940D
:1045430000506B900315E0FFA3E0FEA3E0FD900095
:1045530009121039EBC0E0EAC0E0E9C0E0120FE352
:10456300900312FCE02CFA900311E03BFBEA2409D0
:10457300FAE43BFB900004120FCCF8120208888285
:104583008983D0E0F9D0E0FAD0E0FB120F7FFC90F2
:104593000312E0247EF582E4340BF583ECF0900300
:1045A30012E004F09003117003E004F08086A3E0AE
:1045B300247EF582E4340BF583E4F0FC8038C29664
:1045C30090002074FFF0A374B0F07C008028C296A2
:1045D30090002074FFF0A3747EF07D857E177F0228
:1045E30090028FEFF0A3EEF0A3EDF07E017D007C4F
:1045F30000122CA57C00900313E0F8A3E0C0E0E8D0
:10460300C0E022900199D0E0F0A3D0E0F0E4900163
:1046130093F0A3F090019BEFF0A3EEF0A3EDF090E5
:104623000009121039EBC0E0EAC0E0E9C0E0120F64
:10463300E32404FAE43BFB900004120FCCF81202CB
:104643000888828983D0E0F9D0E0FAD0E0FB120F2A
:104653007F644360057C000248F0900195E4F0A379
:104663007404F090019BE0FFA3E0FEA3E0FD900043
:1046730004120FDE24FAFAEB34FFFB900196E0C339
:104683009A900195E09B400302471E900009121087
:1046930039EBC0E0EAC0E0E9C0E0120FE390019615
:1046A300FCE02CFA900195E03BFB900004120FCC48
:1046B300F812020888828983D0E0F9D0E0FAD0E0CA
:1046C300FB120F7F900193FCE06CF0900009121035
:1046D30039EBC0E0EAC0E0E9C0E0120FE3900196D5
:1046E300FCE02CFA900195E03BFB900004120FCC08
:1046F300F812020888828983D0E0F9D0E0FAD0E08A
:10470300FB120F7F900194FCE02CF0A3A3E004F0D4
:104713009001957003E004F00246669000091210C0
:1047230039EBC0E0EAC0E0E9C0E0900004120FDE1C
:10473300FA120FD1F8EA28FAEB39FBEA24FAFAEB7A
:1047430034FFFB900004120FCCF812020888828910
:1047530083D0E0F9D0E0FAD0E0FB120F7FFC9001A8
:1047630093E06C60057C000248F090000912103958
:10477300EBC0E0EAC0E0E9C0E0900004120FDEFA0B
:10478300120FD1F8EA28FAEB39FBEA24FBFAEB34EF
:10479300FFFB900004120FCCF81202088882898371
:1047A300D0E0F9D0E0FAD0E0FB120F7FFC90019447
:1047B300E06C60057C000248F0900009121039EBB0
:1047C300C0E0EAC0E0E9C0E0120FE32405FAE43BED
:1047D300FB900004120FCCF812020888828983D060
:1047E300E0F9D0E0FAD0E0FB120F7F90000FF090D9
:1047F3000197E4F0A37407F0900195E4F0A3F0901F
:10480300000FE07D00FC900196E0C39C900195E0D1
:104813009D507390019BE0FFA3E0FEA3E0FD900099
:1048230009121039EBC0E0EAC0E0E9C0E0120FE37F
:10483300900198FCE02CFA900197E03BFB90000478
:10484300120FCCF812020888828983D0E0F9D0E0F5
:10485300FAD0E0FB120F7FFC900196E0241AF58258
:10486300E4340BF583ECF0900196E004F0900195AD
:104873007003E004F0900198E02402F0900197E0C7
:104883003400F0024802EC2402FCE43DFDEC75F038
:1048930011A4FCE5F0CD75F011A42DFDEC240AFC68
:1048A300E43D90001AF0A3CCF0CC74267D17900160
:1048B30091CDF0A3CDF0742E7D1790018FCDF0A391
:1048C300CDF090001BE090018EF07C027DDF7E1B1B
:1048D3007F011234F17401900178F07C027DDF7E58
:1048E3001B7F01123AA8E490000AF07C0190019921
:1048F300E0F8A3E0C0E0E8C0E02290017BD0E0F064
:10490300A3D0E0F0E4900178F090017DEFF0A3EE06
:10491300F0A3EDF0900009121039EBC0E0EAC0E01B
:10492300E9C0E0120FE32404FAE43BFB9000041215
:104933000FCCF812020888828983D0E0F9D0E0FA1C
:10494300D0E0FB120F7F644C60057C00024A9F900D
:104953000179E4F0A37404F090017DE0FFA3E0FE8D
:10496300A3E0FD900004120FDE24FBFAEB34FFFBFF
:1049730090017AE0C39A900179E09B504F9000092F
:10498300121039EBC0E0EAC0E0E9C0E0120FE39097
:10499300017AFCE02CFA900179E03BFB90000412D1
:1049A3000FCCF812020888828983D0E0F9D0E0FAAC
:1049B300D0E0FB120F7F900178FCE06CF0A3A3E042
:1049C30004F09001797003E004F0808C90000912E8
:1049D3001039EBC0E0EAC0E0E9C0E0900004120F38
:1049E300DEFA120FD1F8EA28FAEB39FBEA24FBFAD4
:1049F300EB34FFFB900004120FCCF81202088882FC
:104A03008983D0E0F9D0E0FAD0E0FB120F7FFC906D
:104A13000178E06C60057C00024A9FA3E4F0A37474
:104A230005F090017DE0FFA3E0FEA3E0FD9000040C
:104A3300120FDE24FBFAEB34FFFB90017AE0C39AFA
:104A4300900179E09B5053900009121039EBC0E0BC
:104A5300EAC0E0E9C0E0120FE390017AFCE02CFA2F
:104A6300900179E03BFB900004120FCCF81202088E
:104A730088828983D0E0F9D0E0FAD0E0FB120F7F7F
:104A8300FC7D3D7E3B7F0112753390017AE004F09B
:104A93009001797003E004F080887C0090017BE052
:104AA300F8A3E0C0E0E8C0E0227C01900174EFF0DD
:104AB300A3EEF0A3EDF022900346D0E0F0A3D0E004
:104AC300F07401900345F014900344F0900343F015
:104AD300900342F0900340F0A3F090033EF0A3F064
:104AE300FC7D307E0C7F011231FA741A7D17900120
:104AF30091CDF0A3CDF0742E7D1790018FCDF0A34F
:104B0300CDF0740A90018EF07C007D307E0C7F0125
:104B13001234F1E4900178F0FC7D307E0C7F0112B9
:104B23003AA87403900345F0900344F0E4900343E0
:104B3300F07403900342F0900340E4F0A3F0900379
:104B43003E74A0F0A3E4F07C017DDF7E1B7F0112A5
:104B530031FA741E7D17900191CDF0A3CDF0742E20
:104B63007D1790018FCDF0A3CDF0741E90018EF0D0
:104B73007C007DDF7E1B7F011234F174227D179050
:104B83000191CDF0A3CDF0742E7D1790018FCDF060
:104B9300A3CDF074D490018EF07C017DDF7E1B7F6A
:104BA300011234F17401900178F07C007DDF7E1BEB
:104BB3007F01123AA87401900178F0FC7DDF7E1B1F
:104BC3007F01123AA87401900345F07403900344E3
:104BD300F0E4900343F07403900342F0900340E445
:104BE300F0A37402F090033E7480F0A3E4F07C0120
:104BF3007D8E7E2B7F011231FA742A7D17900191ED
:104C0300CDF0A3CDF0742E7D1790018FCDF0A3CD01
:104C1300F0740A90018EF07C007D8E7E2B7F011252
:104C230034F1E4900178F0FC7D8E7E2B7F01123A03
:104C3300A8E4900345F07403900344F0E490034325
:104C4300F07403900342F0900340E4F0A37402F085
:104C530090033E7490F0A3E4F07C017D3D7E3B7FA6
:104C6300011231FAD2AF900346E0F8A3E0C0E0E8C6
:104C7300C0E0229001A3D0E0F0A3D0E0F0900C3488
:104C8300E0FDA3E0FCA3A3E06C7007900C36E06D9D
:104C9300604E900C38E070467E017D007C01124F1F
:104CA30006C2AF900C34E0FDA3E0FCE004F0900CEE
:104CB300347003E004F0EC2439F582ED340CF58311
:104CC300E0F599C3900C35E094D0900C34E0940750
:104CD3004004E4F0A3F07401900C38F0D2AF8009E3
:104CE3007E007D007C01124F06901BE3E0FDA3E0F4
:104CF300FCA3A3E06C700A901BE5E06D7003024D0A
:104D030092902B8AE02405FC902B89E03400FD7EF1
:104D1300007F00E4F8F9FB04FA12066CEEFFEDFEE7
:104D2300ECFD120F8430E5657E017D007C02124F9D
:104D330006C2AF901BE3E0FDA3E0FCE004F0901B90
:104D4300E37003E004F0EC24E8F582ED341BF58313
:104D5300E0902B89FEE0FDA3E0FCF8EDF97A007BFF
:104D630000EEC0E0E4FCFDFF04FE12066CEEFFED76
:104D7300FEECFDD0E01211E8C3901BE4E094D09068
:104D83001BE3E094074004E4F0A3F0D2AF80097E74
:104D9300007D007C02124F06902B92E0FDA3E0FC05
:104DA300A3A3E06C700A902B94E06D7003024E4154
:104DB300903B39E02405FC903B38E03400FD7E0055
:104DC3007F00E4F8F9FB04FA12066CEEFFEDFEEC4B
:104DD300FD120F8430E5657E017D007C03124F06D2
:104DE300C2AF902B92E0FDA3E0FCE004F0902B9285
:104DF3007003E004F0EC2497F582ED342BF583E0A7
:104E0300903B38FEE0FDA3E0FCF8EDF97A007B006F
:104E1300EEC0E0E4FCFDFF04FE12066CEEFFEDFEC7
:104E2300ECFDD0E01211E8C3902B93E094D0902BCB
:104E330092E094074004E4F0A3F0D2AF80097E002F
:104E43007D007C03124F06903B41E0FDA3E0FCA3F1
:104E5300A3E06C700A903B43E06D7003024EF09048
:104E63004AE8E02405FC904AE7E03400FD7E007F39
:104E730000E4F8F9FB04FA12066CEEFFEDFEECFD1C
:104E8300120F8430E5657E017D007C04124F06C25B
:104E9300AF903B41E0FDA3E0FCE004F0903B4170A8
:104EA30003E004F0EC2446F582ED343BF583E09017
:104EB3004AE7FEE0FDA3E0FCF8EDF97A007B00EEA3
:104EC300C0E0E4FCFDFF04FE12066CEEFFEDFEEC19
:104ED300FDD0E01211E8C3903B42E094D0903B41F7
:104EE300E094074004E4F0A3F0D2AF80097E007D94
:104EF300007C04124F069001A3E0F8A3E0C0E0E8B1
:104F0300C0E022EE9001A2F0ED9001A1F0EC90013F
:104F1300A0F0ED703DEC14700B748090019EF014C2
:104F2300A3F0802CECB4020C742090019EF074DF8B
:104F3300A3F0801CB4030C740890019EF074F7A3D3
:104F4300F0800DB4040A740290019EF074FDA3F086
:104F5300803CEC14700C744090019EF074BFA3F07D
:104F6300802CECB4020C741090019EF074EFA3F04B
:104F7300801CB4030C740490019EF074FBA3F080B6
:104F83000DB4040A740190019EF074FEA3F0900026
:104F930010E0FFEE6009E0FF90019EE04F8007E024
:104FA300FF90019FE05F90D000F0900010F022E4AA
:104FB300900308F0ECA3F0900308E075F00BA42431
:104FC30026F582E5F03400F583E00470077D967ED4
:104FD300177F0222900308E075F00BA42426F582C4
:104FE300E5F03400F583E0FC900309E06C70169063
:104FF3000308E075F00BA42427FCE5F03400FDFE64
:10500300ECFD7F0122900308E004F080AAE4900302
:1050130035F0ECA3F0900335E075F00BA4242EF5E6
:1050230082E43401F583E00470077D967E177F02E6
:1050330022900335E075F00BA4242EF582E43401AD
:10504300F583E0FC900336E06C7015900335E07552
:10505300F00BA4242FFCE43401FDFEECFD7F0122C0
:10506300900335E004F080ADEC900308F0241AF5CA
:1050730082E4340BF583E0120DDD001E511C50BF9A
:1050830050C250C550C850CB50CE50D150D450D739
:1050930050DA50DD50E050E350E650E950EC50EF69
:1050A30050F250F550F850FB50FE51015104510796
:1050B300510A510D51105113511651197C00227C84
:1050C30001227C02227C03227C04227C05227C06B2
:1050D300227C07227C08227C09227C0A227C0B2268
:1050E3007C0C227C0D227C0E227C0F227C10227CE5
:1050F30011227C12227C13227C14227C15227C1622
:10510300227C17227C18227C19227C1A227C1B22E7
:105113007C1C227C1D227C1E227CFF22900342D019
:10512300E0F0A3D0E0F0E490033EF090033DF00400
:1051330090033CF0740390033BF07C017DA47E0B51
:105143007F0112571074FE7D1690033FCDF0A3CD5F
:10515300F07D977E177F0290033CEFF0A3EEF0A360
:10516300EDF090033AE4F0A3F07DA47E0B1F1257F9
:105173008F74FE7D1690033FCDF0A3CDF07DA87E06
:10518300177F0290033CEFF0A3EEF0A3EDF0900342
:105193003AE4F0A304F07DA47E0B1F12578F74FE34
:1051A3007D1690033FCDF0A3CDF07DB97E177F022E
:1051B30090033CEFF0A3EEF0A3EDF090033AE4F09C
:1051C300A37402F07DA47E0B1F12578FE490033E5D
:1051D300F090033DF00490033CF0740490033BF023
:1051E3007C007DC87E0B7F0112571074367D1790AB
:1051F300033FCDF0A3CDF07DCA7E177F0290033C21
:10520300EFF0A3EEF0A3EDF090033AE4F0A3F07D0A
:10521300C87E0B1F12578F74367D1790033FCDF056
:10522300A3CDF07DDB7E177F0290033CEFF0A3EE6E
:10523300F0A3EDF090033AE4F0A304F07DC87E0BF5
:105243001F12578F74367D1790033FCDF0A3CDF017
:105253007DEC7E177F0290033CEFF0A3EEF0A3ED0D
:10526300F090033AE4F0A37402F07DC87E0B1F12A2
:10527300578F74027D1790033FCDF0A3CDF07DFDD2
:105283007E177F0290033CEFF0A3EEF0A3EDF090C6
:10529300033AE4F0A37403F07DC87E0B1F12578F0B
:1052A300E490033EF090033DF00490033CF0740659
:1052B30090033BF07C007DD17E0B7F01125710746D
:1052C300F67D1690033FCDF0A3CDF07D0E7E187FC3
:1052D3000290033CEFF0A3EEF0A3EDF090033AE469
:1052E300F0A3F07DD17E0B1F12578F743A7D179078
:1052F300033FCDF0A3CDF07D1F7E187F0290033CCA
:10530300EFF0A3EEF0A3EDF090033AE4F0A304F082
:105313007DD17E0B1F12578F74FA7D1690033FCDFC
:10532300F0A3CDF07D307E187F0290033CEFF0A315
:10533300EEF0A3EDF090033AE4F0A37402F07DD114
:105343007E0B1F12578F74127D1790033FCDF0A36E
:10535300CDF07D417E187F0290033CEFF0A3EEF089
:10536300A3EDF090033AE4F0A37403F07DD17E0B38
:105373001F12578F740E7D1790033FCDF0A3CDF00E
:105383007D527E187F0290033CEFF0A3EEF0A3ED75
:10539300F090033AE4F0A37404F07DD17E0B1F1266
:1053A300578F74F27D1690033FCDF0A3CDF07D634C
:1053B3007E187F0290033CEFF0A3EEF0A3EDF09094
:1053C300033AE4F0A37405F07DD17E0B1F12578FCF
:1053D300E490033EF090033DF00490033CF0740529
:1053E30090033BF07C007DDA7E0B7F011257107433
:1053F3003E7D1790033FCDF0A3CDF07D747E187FE3
:105403000290033CEFF0A3EEF0A3EDF090033AE437
:10541300F0A3F07DDA7E0B1F12578F743E7D179039
:10542300033FCDF0A3CDF07D857E187F0290033C32
:10543300EFF0A3EEF0A3EDF090033AE4F0A304F051
:105443007DDA7E0B1F12578F743E7D1790033FCD7D
:10545300F0A3CDF07D967E187F0290033CEFF0A37E
:10546300EEF0A3EDF090033AE4F0A37402F07DDADA
:105473007E0B1F12578F743E7D1790033FCDF0A311
:10548300CDF07DA77E187F0290033CEFF0A3EEF0F2
:10549300A3EDF090033AE4F0A37403F07DDA7E0BFE
:1054A3001F12578F743E7D1790033FCDF0A3CDF0AD
:1054B3007DB87E187F0290033CEFF0A3EEF0A3EDDE
:1054C300F090033AE4F0A37404F07DDA7E0B1F122C
:1054D300578FE490033EF090033DF00490033CF0BB
:1054E30090000FE090033BF07C007DAD7E0B7F01CD
:1054F300125710E4900341F0900341E0FC90000F39
:10550300E0D39C403C74167D1790033FCDF0A3CDB0
:10551300F012506B124FB290033CEFF0A3EEF0A3E6
:10552300EDF0900341E07D0090033ACDF0A3CDF080
:105533007DAD7E0B7F0112578F900341E004F08015
:10554300B7E490033EF090033DF00490033CF090E9
:10555300000FE090033BF07C007DB67E0B7F0112D1
:105563005710E4900341F0900341E0FC90000FE0FA
:10557300D39C403C74327D1790033FCDF0A3CDF014
:1055830012506B124FB290033CEFF0A3EEF0A3ED79
:10559300F0900341E07D0090033ACDF0A3CDF07D80
:1055A300B67E0B7F0112578F900341E004F080B762
:1055B300E490033EF090033DF00490033CF0900030
:1055C3000FE0240490033BF07C007DBF7E0B7F0142
:1055D300125710E4900341F090000FE07D00240483
:1055E300FCE43DFD900341E07F00FEECD39EEF64BD
:1055F30080CD64809D5003025679EEC394045035E8
:1056030074067D1790033FCDF0A3CDF0EEFC12504E
:105613001090033CEFF0A3EEF0A3EDF0900341E014
:105623007D0090033ACDF0A3CDF07DBF7E0B7F01CB
:1056330012578F803874067D1790033FCDF0A3CDAA
:10564300F0EE24FCFC12506B124FB290033CEFF0CF
:10565300A3EEF0A3EDF0900341E07D0090033ACD7B
:10566300F0A3CDF07DBF7E0B7F0112578F900341D6
:10567300E004F00255DB900342E0F8A3E0C0E0E869
:10568300C0E0229002E6D0E0F0A3D0E0F0ECA3F07B
:10569300122C339002E8E0700B7DAD7E0B7F01127C
:1056A3001742801714700B7DC87E0B7F01121742BF
:1056B30080097DD17E0B7F011217429002E6E0F84C
:1056C300A3E0C0E0E8C0E02290031CD0E0F0A3D048
:1056D300E0F0ECA3F070097DB67E0B7F0112174258
:1056E30090031EE01470097DBF7E0B7F01121742E9
:1056F30090031EE0B402097DDA7E0B7F011217428C
:1057030090031CE0F8A3E0C0E0E8C0E0229003357A
:10571300D0E0F0A3D0E0F090033DE0FA900337EF40
:10572300F0A3EEF0A3EDF0EA9000041211EF900362
:105733003EE09000051211EF90033CE0900003124D
:1057430011EFE49000011211EF90033BE09000028F
:105753001211EFEC1211E890033AF0900002120FCD
:105763008975F013A4ABF0FCCBFDCB1229C89003D1
:1057730037E0FBA3E0FAA3E0F9900006121276905B
:105783000335E0F8A3E0C0E0E8C0E022900335D0A1
:10579300E0F0A3D0E0F090033FE0FBA3E0F8CBF907
:1057A300CB900337EFF0A3EEF0A3EDF0E8FAE9C0F6
:1057B300E0EAC0E090000612103990033AE0FDA33E
:1057C300E0FC75F013A4FCE5F0CD75F013A42DFDFA
:1057D300E92CF9EA3DFAD0E0FDD0E0CD90001112BA
:1057E300121F900337E0A3E0A3E0FD900006121020
:1057F3003990033AE0FDA3E0FC75F013A4FCE5F057
:10580300CD75F013A42DFDE92CF9EA3DFAA3E0FFD1
:10581300A3E0FEA3E0FD75F003120E3C900335E018
:10582300F8A3E0C0E0E8C0E0229002D7D0E0F0A304
:10583300D0E0F0A3EFF0A3EEF0A3EDF0900004129C
:105843000F899002D6F09002D9E0FFA3E0FEA3E017
:10585300FD900003120F89FA3395E0FB90000412C8
:105863000F89F83395E0F9EA28FAEB39FB9002D671
:10587300E07900F8EAD398E96480CB64809B4031F7
:105883009000061210399002D6E075F013A4ADF023
:1058930029F9EA3DFA90028FEBF0A3EAF0A3E9F0CD
:1058A3007E017D007C00122CA59002D6E004F080DE
:1058B300959002D7E0F8A3E0C0E0E8C0E0229003AF
:1058C30037D0E0F0A3D0E0F074FF900335F004A3E9
:1058D300F0900339EFF0A3EEF0A3EDF0E4900001B4
:1058E3001211EF900339E0FFA3E0FEA3E0FD900067
:1058F30001120F896003025ABC900004120F89FC45
:10590300900335E06C601812582C900339E0FFA324
:10591300E0FEA3E0FD900004120F89900335F090A0
:105923000005120F89FC900336E06C600A900005B5
:10593300120F89900336F0127410ECB40E3B9003EF
:1059430039E0FFA3E0FEA3E0FD74FF900005120021
:10595300E2900005120F8933501CE49000051211E8
:10596300EF900004120F896480C39481400874FF90
:105973009000041200E2025AB9B40F028003025AE3
:105983000C900339E0FFA3E0FEA3E0FD7401900057
:10599300051200E2900005120F89FA3395E0FB909F
:1059A3000002120F89790004F8700109EAC398E92B
:1059B3006480CB64809B400C900002120F8990009E
:1059C300051211EF900005120F896480C394814082
:1059D30035E49000051211EF900004120F89FA3399
:1059E30095E0FB900002120F89790024FFF8E93457
:1059F300FFF9EAC398E96480CB64809B5008740183
:105A03009000041200E2025AB9B40B028003025A56
:105A13009C900339E0FFA3E0FEA3E0FD9000051294
:105A23000F89FC900004120F892CFC9000061210C1
:105A330039900005120F89FE3395E0F8EBC0E0EAD8
:105A4300C0E0E9C0E0E8FF900339E0FBA3E0FAA37C
:105A5300E0F9900004120F7FFA3395E0FBEE2AFE83
:105A6300EF3BFFEE75F013A4FEE5F0CF75F013A442
:105A73002FFFD0E0F9D0E0FAD0E0FBE92EF9EA3FBE
:105A8300FA900011120FBAF5828F83121396121334
:105A9300A374FF900335F0801DB40A1A900339E014
:105AA300FFA3E0FEA3E0FD120F84700874019000D1
:105AB300011211EF80000258E6900337E0F8A3E0EB
:105AC300C0E0E8C0E0229002E1D0E0F0A3D0E0F033
:105AD30074FF9002DFF004A3F09002E3EFF0A3EE73
:105AE300F0A3EDF0E49000011211EF9002E3E0FF68
:105AF300A3E0FEA3E0FD900001120F896003025CA6
:105B0300BF900004120F89FC9002DFE06C60181252
:105B1300582C9002E3E0FFA3E0FEA3E0FD90000415
:105B2300120F899002DFF0900005120F89FC90029A
:105B3300E0E06C600A900005120F899002E0F01219
:105B43007410ECB40E3B9002E3E0FFA3E0FEA3E08D
:105B5300FD74FF9000051200E2900005120F8933D7
:105B6300501CE49000051211EF900004120F896499
:105B730080C39481400874FF9000041200E2025C29
:105B8300BCB40F028003025C0F9002E3E0FFA3E0CA
:105B9300FEA3E0FD74019000051200E290000512DF
:105BA3000F89FA3395E0FB900002120F897900F810
:105BB300EAC398E96480CB64809B400D9000021295
:105BC3000F89149000051211EF900005120F8964DC
:105BD30080C394814033E99000051211EF900004D3
:105BE300120F89FA3395E0FB900002120F8924FF0C
:105BF300F8E934FFF9EAC398E96480CB64809B50E9
:105C03000874019000041200E2025CBCB40B028031
:105C130003025C9F9002E3E0FFA3E0FEA3E0FD909C
:105C23000005120F89FC900004120F892CFC9000D0
:105C330006121039900005120F89FE3395E0F8EB38
:105C4300C0E0EAC0E0E9C0E0E8FF9002E3E0FBA3C4
:105C5300E0FAA3E0F9900004120F7FFA3395E0FB1A
:105C6300EE2AFEEF3BFFEE75F013A4FEE5F0CF75D1
:105C7300F013A42FFFD0E0F9D0E0FAD0E0FBE92E37
:105C8300F9EA3FFA900011120FBAF5828F831213CB
:105C9300961213A374FF9002DFF0801DB40A1A90CA
:105CA30002E3E0FFA3E0FEA3E0FD120F847008749B
:105CB300019000011211EF8000025AEE9002E1E020
:105CC300F8A3E0C0E0E8C0E02290030AD0E0F0A32C
:105CD300D0E0F090001CE4F0A3F0900022F0A3F0D9
:105CE300A3F0A3F0EC90030CF012506B124FB290A0
