:0407BE00114D000ECB
:0407C2000F330002EF
:1007F9007401909000F0E4FD7C641217F6227402F3
:10080900909000F0E4FD7C641217F622EC909000C1
:10081900F0900015F0E4FD7C641217F622EC9000CC
:1008290015F0540F909000F0E4FD7C641217F62245
:10083900EC909000F0900015F07D017C2C1217F6D9
:10084900900015E0909000F0E4FD7CC81217F69036
:100859000015E0909000F0E4FD7C641217F622ED9B
:10086900900012F0EC900011F0EDC39404400122C5
:10087900900016E0C3940A400122E0900039F090FC
:100889000013E0FFA3E0FEA3E0FD120491605612FD
:10089900076D900013EFF0A3EEF0A3EDF0120487BB
:1008A900900011FCE0FD04F0ED75F028A4AFF0FE16
:1008B900A3E075F00AA4ABF0FAEE2AFEEF3BFF9035
:1008C9000016E07B00FAEE2AFEEF3BFFEE243CF532
:1008D90082EF3400F583ECF0900011E0C3941440EA
:1008E90002EBF0809A22E4A29792E0F40404A2E0D9
:1008F9009297EC900015F0C39409400122900011E1
:10090900E4F0A3F0C3900012E09404900011E09485
:1009190000400302099EA3A3E4F0A3F0C3900014CE
:10092900E09414900013E094005059E0FDA3E0FC1A
:1009390075F028A4FCE5F0CD75F028A42DFD9000F4
:1009490011E0FFA3E0FE75F00AA4FEE5F0CF75F013
:100959000AA42FFFEC2EFCED3FFD900015E07F006F
:10096900FEEC2EFCED3FFDEC243CF582ED3400F568
:10097900837420F0900014E004F09000137003E0F9
:1009890004F08098900012E004F09000117003E0E8
:1009990004F002090D22ED900001F0EC900000F046
:1009A900ED147009EC24C0909000F08020EDB402A1
:1009B90009EC2494909000F08013B40309EC24D43A
:1009C900909000F08007EC2480909000F022EC9049
:1009D9009001F0900000F0227430900018F0E4A229
:1009E9009792E0F40404A2E092977C381208397CCB
:1009F9000C1208261208077C061208151207F9E4DA
:100A0900900039F0A3F0900037F0A3F00490003B78
:100A1900F0900016E4F0A3F0C3900017E0940A9058
:100A29000016E094005016A3E0FC1208EF9000179E
:100A3900E004F09000167003E004F080DB22C0E0CF
:100A4900C0F0C082C083C0D0E8C0E0E9C0E0EAC01D
:100A5900E0EBC0E0ECC0E0EDC0E0EEC0E0EFC0E0EC
:100A6900C28CC28D90003BE06011E4F0900038E048
:100A7900FD900037E0FC12099F806D7401F0900031
:100A890038E075F00AA4ADF0FC900037E075F02865
:100A9900A4AFF02CFEEF3DFFA3A3E07D00FCEE2CFC
:100AA900FEEF3DFFEE243CF582EF3400F583E0FCD8
:100AB9001209D7900037E0FC04F0ECC394134028E6
:100AC900E4F0A3E0FC04F0ECC39403401BE4F0A3BE
:100AD900A3E06014900039E004F0E4A3F090003939
:100AE900E0C3940A4002E4F0758CFF758A00D28C49
:100AF900D0E0FFD0E0FED0E0FDD0E0FCD0E0FBD0BC
:100B0900E0FAD0E0F9D0E0F8D0D0D083D082D0F0AC
:100B1900D0E032900362E4F0A3F0900360F0A3F018
:100B290090035EF0A3F090035CF0A3F004900365DA
:100B3900F0A3F0900027EFF0A3EEF0900025EDF080
:100B4900A3ECF0E4FD7C0F1219A8901307EFF0A3B2
:100B5900EEF0A3EDF0759850758920438780758B69
:100B6900F4758DF47401900364F0E4FB1206B990F6
:100B790000021206C49000061206C4900025E0FD8A
:100B8900A3E0FC901307E0FBA3E0FAA3E0F9EC90E3
:100B990000041206AE900027E0FDA3E090000B12BE
:100BA90006AE900029E0FDA3E090000D1206AE907C
:100BB9000025E0FDA3E0FC1219A8901307E0FBA3B0
:100BC900E0FAA3E0F9900008120705E4FD0490009B
:100BD900061206AED28ED2ACD2BC22900015E07BB2
:100BE90000FA900011EFF0A3EEF0A3EDF0EBC0E0F6
:100BF900EAC0E0900FAB12053AEC900014F075F0E2
:100C09000FA4ADF029F9EA3DFAD0E0FDD0E0CD908E
:100C190000061206AE22E4900016F0EC90001AF0DD
:100C2900900017EFF0A3EEF0A3EDF0900017E0FFAE
:100C3900A3E0FEA3E0FD900008120496FC900016C4
:100C4900E0C39C4003020D82900FAB12053A90005D
:100C590016E075F00FA4ADF029F9EA3DFA90000607
:100C69001204B5144D6003020D7990001AE090004A
:100C790015F0900017E0A3E0A3E0FD900016E0FC5A
:100C8900120D83900017E0FFA3E0FEA3E0FD900F93
:100C9900AB12053A900016E075F00FA4ADF029F9F2
:100CA900EA3DFAE9FDEAFEEBFFA3E0FBA3E0FAA3C4
:100CB900E0F9EFC0E0EEC0E0EDC0E0900FAB120547
:100CC90034900016E075F00FA4ABF02DFDEE3BFE5D
:100CD90090000B1204EBF5828B83120785D0E0FD9F
:100CE900D0E0FED0E0FF120792EC7003020D79907C
:100CF9000017E0FFA3E0FEA3E0FD900FAB12053A59
:100D0900900016E075F00FA4ADF029F9EA3DFAE973
:100D1900FDEAFEEBFFA3E0FBA3E0FAA3E0F9EFC0D5
:100D2900E0EEC0E0EDC0E0900FAB12053490001684
:100D3900E075F00FA4ABF02DFDEE3BFE90000D1217
:100D490004EBF5828B83120785D0E0FDD0E0FED05D
:100D5900E0FF120792EC6018E4900015F09000177C
:100D6900E0FFA3E0FEA3E0FD900016E0FC120BE417
:100D7900900016E004F0020C3422900011EFF0A369
:100D8900EEF0A3EDF0900FAB12053AEC75F00FA45D
:100D9900AFF029F9EA3FFAE92402F9EA3400FA90B6
:100DA9000011E0FFA3E0A3E0EBC0E0EAC0E0E9C086
:100DB900E0900FAB12053AEC75F00FA4AFF029F9EA
:100DC900EA3FFA9000041204C7FED0E0F9D0E0FA35
:100DD900D0E0FBEE12040DEC900014F0900011E04D
:100DE900FFA3E0FEA3E0900FAB12053AEC75F00FFC
:100DF900A4ADF0F5828D83A3A31204B5FC90001174
:100E0900E0FBA3E0FAA3E0F9EDC0E0ECC0E0900F4D
:100E1900AB120534900014E075F00FA4ABF0F58225
:100E29008B831204EBFAD0E0FCD0E0FDEA6C70028F
:100E3900EB6D6003020EBF900011E0FFA3E0FEA37B
:100E4900E0FD900FAB12053A900014E075F00FA485
:100E5900ADF029F9EA3DFAE4FD04120243900011CC
:100E6900E0A3E0A3E0FD900FAB12053A900014E077
:100E790075F00FA4ADF029F9EA3DFA900011E0A34D
:100E8900E0A3E0FDEBC0E0EAC0E0E9C0E0900FAB11
:100E990012053A900014E075F00FA4ADF029F9EAB3
:100EA9003DFA9000041204B5FCD0E0F9D0E0FAD084
:100EB900E0FBEC1203A8900015E0FC900011E0FFA4
:100EC900A3E0FEA3E0FD900FAB12053A900014E0F9
:100ED90075F00FA4AFF029F9EA3FFA90000812055E
:100EE90034900011E0FBA3E0FAA3E0F9EFC0E0EED3
:100EF900C0E0EDC0E0900FAB120534900014E0752E
:100F0900F00FA4ABF02DFDEE3BFEED2402FDEE3417
:100F190000FEE4FB041202CDF5828B83D0E0FDD004
:100F2900E0FED0E0FFEC12068922E4A29792E0F4F9
:100F39000404A2E09297900002EFF0A3EEF0A3ED73
:100F4900F090000812053AEBC0E0EAC0E0E9C0E021
:100F59009000041204EBFA1204DEF8EA28FAEB39DD
:100F6900FBEA24FFFAEB34FFFB9000041204D9F8E2
:100F79001201E788828983D0E0F9D0E0FAD0E0FB5A
:100F890012048C64FE60037C002290000812053A6A
:100F9900EBC0E0EAC0E0E9C0E09000041204EBFA1B
:100FA9001204DEF8EA28FAEB39FBEA24FEFAEB34FC
:100FB900FFFB9000041204D9F81201E788828983A3
:100FC900D0E0F9D0E0FAD0E0FB12048C64FE6003B3
:100FD9007C002290000812053AEBC0E0EAC0E0E983
:100FE900C0E09000041204EBFA1204DEF8EA28FAD1
:100FF900EB39FBEA24FDFAEB34FFFB900004120401
:10100900D9F81201E788828983D0E0F9D0E0FAD0D3
:10101900E0FB12048C64FE60037C0022900008123D
:10102900053AEBC0E0EAC0E0E9C0E0900004120430
:10103900EBFA1204DEF8EA28FAEB39FBEA24FCFAA7
:10104900EB34FFFB9000041204D9F81201E78882FF
:101059008983D0E0F9D0E0FAD0E0FB12048C64FE79
:1010690060037C0022D29590000812053AEBC0E09B
:10107900EAC0E0E9C0E01204F02403FAE43BFB9083
:1010890000041204D9F81201E788828983D0E0F9B3
:10109900D0E0FAD0E0FB12048C0460037C002290BB
:1010A900000812053AEBC0E0EAC0E0E9C0E012042A
:1010B900F02402FAE43BFB9000041204D9F812016F
:1010C900E788828983D0E0F9D0E0FAD0E0FB120406
:1010D9008C0460037C002290000812053AEBC0E002
:1010E900EAC0E0E9C0E01204F004FA70010B9000D4
:1010F900041204D9F81201E788828983D0E0F9D073
:10110900E0FAD0E0FB12048C0460037C002290001A
:101119000812053AEBC0E0EAC0E0E9C0E01204F0C9
:10112900FA9000041204D9F81201E788828983D061
:10113900E0F9D0E0FAD0E0FB12048C0460037C00F3
:10114900227C0122E4900008F0A3F0A3F0A3F0A30D
:10115900F0A3F0A29792E0F40404A2E09297900021
:101169000AE4F0A37404F0A3E4F0A3F0A3EFF0A35E
:10117900EEF0A3EDF090000EE0FFA3E0FEA3E0FD8A
:101189009000041204EB24FAFAEB34FFFB90000BF5
:10119900E0C39A90000AE09B40030212A69000085F
:1011A90012053AEBC0E0EAC0E0E9C0E01204F090B1
:1011B900000BFCE02CFA90000AE03BFB90000412C3
:1011C90004D9F81201E788828983D0E0F9D0E0FADE
:1011D900D0E0FB12048C900008FCE06CF090000851
:1011E90012053AEBC0E0EAC0E0E9C0E01204F09071
:1011F900000BFCE02CFA90000AE03BFB9000041283
:1012090004D9F81201E788828983D0E0F9D0E0FA9D
:10121900D0E0FB12048C900009FCE02CF090000C4B
:10122900E0FFA3E0FEA3E0FBA3E0FAA3E0F9EFC02F
:10123900E0EEC0E0900008120534EFC0E0EEC0E037
:10124900EDC0E01204BA90000BFEE02EFC90000AFB
:10125900E03DFD9000041204C7FEFAEFFBECF8ED47
:10126900F91201ED88828983D0E0FDD0E0FED0E05B
:10127900FF120496FCD0E0FED0E0FF1213D59000D7
:101289000BE004F090000A7003E004F090000DE018
:1012990004F090000C7003E004F002117E90000845
:1012A90012053AEBC0E0EAC0E0E9C0E090000412A0
:1012B90004EBFA1204DEF8EA28FAEB39FBEA24FA1D
:1012C900FAEB34FFFB9000041204D9F81201E78805
:1012D900828983D0E0F9D0E0FAD0E0FB12048CFCDB
:1012E900900009E06C60037C002290000812053A26
:1012F900EBC0E0EAC0E0E9C0E09000041204EBFAB8
:101309001204DEF8EA28FAEB39FBEA24FBFAEB349B
:10131900FFFB9000041204D9F81201E7888289833F
:10132900D0E0F9D0E0FAD0E0FB12048CFC90000880
:10133900E06C60037C0022740190003AF090000890
:1013490012053AEBC0E0EAC0E0E9C0E090000412FF
:1013590004EBFA1204DEF8EA28FAEB39FBEA24F87E
:10136900FAEB34FFFB9000041204D9F81201E78864
:10137900828983D0E0F9D0E0FAD0E0FB12048C90A6
:10138900C000F090000812053AEBC0E0EAC0E0E9BD
:10139900C0E09000041204EBFA1204DEF8EA28FA1D
:1013A900EB39FBEA24F9FAEB34FFFB900004120451
:1013B900D9F81201E788828983D0E0F9D0E0FAD020
:1013C900E0FB12048C90C001F07C0022E4A2979209
:1013D900E0F40404A2E09297900006EFF0A3EEF087
:1013E900EC900005F0C3EE9450EF9400400122EE1A
:1013F9004F7009E4900002F0A3F08022EFFDEEFCAB
:10140900E4FB7A14ECF8EDF91201EDE8900002F032
:10141900E4FB7A14EEF8EFF912019AE8A3F09000D0
:1014290039E004900004F0C3940A4002E4F0A3E018
:10143900FC900002E075F028A4AFF0FEA3E075F07F
:101449000AA4ABF0FAEE2AFEEF3BFFA3E07B00FA19
:10145900EE2AFEEF3BFFEE243CF582EF3400F583E4
:10146900ECF022E4A29792E0F40404A2E0929790AF
:10147900002C74FFF0A3F0A3F0A3F090003314F054
:10148900A3F0A3F0A3F0E4900032F0900031F0EC67
:10149900900030F0900017F0900030E0A3A3FCE03A
:1014A9006CF0EC900031FDE02DF0900015E4F0A314
:1014B900F0C3900016E0940B900015E094005026BC
:1014C900A3E0242CF582E43400F583E0FC7D5C7E06
:1014D900037F011214F0900016E004F090001570DB
:1014E90003E004F080CB22E4A29792E0F40404A282
:1014F900E09297E4FB049000061202D7FA900011DB
:10150900EFF0A3EEF0A3EDF02AFDEE3BFEEC900028
:101519000B120689900014F0900011E0A3E0FEA3DD
:10152900E0FD9000061204EBC3FA94D0EB94074057
:1015390008E4FB9000061206C422E4A29792E0F4A4
:101549000404A2E09297900360E0FDA3E0FCA3A34A
:10155900E06C7007900362E06D6046900365E0609F
:101569003EC2AFECFEEDFFCC2401CCCD3400CD90D2
:101579000360EDF0A3ECF0EE2467F582EF3403F598
:1015890083E0F599D2AFC3EC94D0ED9407400BE416
:10159900FCFD900360EDF0A3ECF0E4900365F080AE
:1015A900067401900366F022E4A29792E0F4040421
:1015B900A2E0929790035CE0FDA3E0FCA3A3E06C9A
:1015C900700790035EE06D6043900366E07001224E
:1015D900ECFEEDFFCC2401CCCD3400CD90035CEDC5
:1015E900F0A3ECF0EE2437F582EF340BF583E0FC41
:1015F9007D5C7E037F01120C1FC390035DE094D0D4
:1016090090035CE094074004E4F0A3F022C0E0C03A
:1016190082C083C0D0ECC0E0EDC0E0EEC0E0EFC016
:10162900E0C2AF30983BC298C295E59990035EFE3F
:10163900E0FDA3E0FCE004F090035E7003E004F039
:10164900EC2437F582ED340BF583EEF0C390035F9C
:10165900E094D090035EE094074004E4F0A3F080A6
:101669005B309958C299C296900360E0FDA3E0FCF3
:10167900A3A3E06C7007900362E06D6037ECFEEDA8
:10168900FFCC2401CCCD3400CD900360EDF0A3EC68
:10169900F0EE2467F582EF3403F583E0F599C3ECA6
:1016A90094D0ED9407400BE4FCFD900360EDF0A3AA
:1016B900ECF080087401900365F0D296D2AFD0E0C7
:1016C900FFD0E0FED0E0FDD0E0FCD0D0D083D082C6
:1016D900D0E032C294C295C2967D137C881217F667
:1016E9007D137C881217F67D137C881217F67D13FB
:1016F9007C881217F6E4A29792E0F40404A2E0921F
:1017090097D294D295D2967D137C881217F67D13C1
:101719007C881217F67D137C881217F67D137C8856
:101729001217F6E4900016F07DC67E077F0290003E
:1017390013EFF0A3EEF0A3EDF07D007C0012086832
:10174900E4900016F07DCE7E077F02900013EFF043
:10175900A3EEF0A3EDF07D017C00120868E490008F
:1017690016F07DD67E077F02900013EFF0A3EEF00E
:10177900A3EDF07D027C00120868E4900016F07D6C
:10178900DE7E077F02900013EFF0A3EEF0A3EDF0E9
:101799007D037C001208687D137C881217F67D137F
:1017A9007C881217F67D137C881217F67D137C88C6
:1017B9001217F6E4900016F07DE67E077F0290008E
:1017C90013EFF0A3EEF0A3EDF07D037C001208689F
:1017D9007D137C881217F67D137C881217F67D130A
:1017E9007C881217F67D137C881217F62290001157
:1017F900E4F0A3F0A3EDF0A3ECF0900011E0FDA359
:10180900E0FCA3A3E0D39C900013E09D401BE4A25D
:101819009792E0F40404A2E092970CEC70010D9009
:101829000011EDF0A3ECF080D122438901758CFF02
:10183900758A00D2A9D28CD2AF22E4A29792E0F4A1
:101849000404A2E09297E490002BF090A000E090AD
:10185900002BF0901ADAE060012290002BE033337C
:1018690054015401700122E0547FF0E0540F120436
:101879005E18960018B201189D0418B90518A40835
:1018890018C00918AB0C18C70D000018CE7C5512EA
:10189900146C80337C4412146C802C7C4C12146CB4
:1018A90080257C5212146C801E7C4512146C8017A2
:1018B9007C4312146C80107C4D12146C80097C4698
:1018C90012146C800280007401901ADAF022E4A2EA
:1018D9009792E0F40404A2E092971209E174BE7DA4
:1018E90007900029CDF0A3CDF07EC27F07E4FD7CEF
:1018F9005C120B1C1218331216DCE4A29792E0F466
:101909000404A2E092971215B112154312184390DC
:101919001ADAE06024901ADBE0FDA3E0FCE004F0B1
:10192900901ADB7003E004F0D3EC9488ED94134033
:0B19390008E4F0A3F0901ADAF080BF81
:1007C60073616D706C65310073616D706C653200BC
:1007D60073616D706C65330073616D706C653400A8
:1007E60042617564203936303020426974732F5364
:0307F60065630038
:03000B00020A479F
:03002300021616AC
:0307B8000000003E
:030000000200807B
:1000800075812F782F7600D8FC901ADAAE83AF8274
:1000900090002B1200BE6005E4F0A380F690011CD6
:1000A0001200C79001201200C79001241200E590B1
:1000B000012A1200E575D0001218D7020130EF6551
:1000C000827003EE658322E493F8740193F974025D
:1000D00093FE740393F5828E83E869700122E493A2
:1000E000F6A30880F4E493FC740193FD740293FE7C
:1000F000740393FF740493F8740593F58288831254
:1001000000BE700122E493A3A883A9828C838D8210
:10011000F0A3AC83AD828883898280E3303007B856
:10012000303007B81ADA07BE07B81AE007F907F93E
:0201300080FE4F
:061AF30001130A011AD9DB
:0307BB0001130A1D
:1019440090001412079490000112053AEAFDE9C3CD
:10195400900019FEE0CE9EFC900018E0FEED9ED3B0
:10196400FDEC9404ED6480948040389000141207D8
:10197400A690000112053A9000171207A6900011D4
:1019840012079DA31207AF900001120705900017DC
:101994001207A6E41206829000111207AF9000010C
:1019A40012070B22900023EDF0A3ECF02404FCE4D6
:1019B4003DFD901AF7E493FF740193C3901ADFFA84
:1019C400E0CA9AFE901ADEE0FAEF9AFFECD39EED9D
:1019D4009F505B901ADD1207A674011206829000D4
:1019E40024E02404FA900023E03400C0E0900020B6
:1019F400120794D0E0CAFDCAFE901ADFE02DF0FD74
:101A0400901ADEE03EF0FE901ADDE0FF9000201216
:101A140007AF900001120705901ADD1207A6900087
:101A240024E0C3CD9DFD900023E0CE9EFE22901ABB
:101A3400F312077990001A12079490001BE0FDA39B
:101A4400E0FC901ADFE0D39C901ADEE09D50030284
:101A54001AEE90001A1207A690002012079412049E
:101A640091707290000112053AEAFDE9C390001CDE
:101A7400FEE0CE9EFC90001BE0FEED9EFDEC24FCFF
:101A8400FCED34FFFD900024E0D39C900023E09D06
:101A9400504390001AE0FFA3E0A3E02404FDEE34D9
:101AA40000FE9000201207AF740112067490001D0E
:101AB400120794900024E02DFD900023E03EFE9058
:101AC4000017120794E9FDEAFEEBFF121944900097
:101AD4001D1207A6229000201207A69000011205ED
:0F1AE4003A90001A12079D021A3EE4FDFEFF22FF
:10013200E88BF0A4C98AF0A429F9E88AF0A4F8E5CA
:05014200F029F948223C
:10014700EBC9FBEAC8FAEB335008E4C39AFAE49B1D
:10015700FBD392F0E930E709B2F0C3E498F8E499E9
:10016700F912019A30F008C3E498F8E499F94822A3
:10017700EBC9FBEAC8FA89F012014D20F706EAF845
:0D018700EBF94822C3E49AF8E49BF9482202
:10019400EBC9FBEAC8FAE94B7010E8C0F08AF084B6
:1001A400F8AAF0D0F079007B0022ECC0E0EDC0E0CA
:1001B400EEC0E07D007E007C10C3E833F8E933F93B
:1001C400ED33FDEE33FEED9AEE9B4005FEED9AFD18
:1001D40008DCE6EDFAEEFBD0E0FED0E0FDD0E0FC7A
:0301E400E84922C5
:0F01E700EBC9FBEAC8FA12019AEAF8EBF94822D1
:1001F60030E01B20E30C08E625F0F6F5F018E63CA7
:10020600F62209E725F0F7F5F019E73CF72230E288
:1002160011C083A3E025F0F5F0F01582D083E03C11
:10022600F02220E30C08E225F0F2F5F018E23CF2A9
:0D0236002209E325F0F3F5F019E33CF32273
:10024300F5F0EDCCFD1205D4800D7D00900001F595
:0F025300F0EDCCFD1205F11201F6CDFCE5F02225
:1002620030E02720E31208E6C0E025F0F618E6F5B4
:10027200F03CF6E5F0D0F02209E7C0E025F0F719EE
:10028200E7F5F03CF7E5F0D0F02230E217A3E0C04A
:10029200E0C08325F0F01582D083E0F5F03CF0E574
:1002A200F0D0F02220E31208E2C0E025F0F218E2DA
:1002B200F5F03CF2E5F0D0F02209E3C0E025F0F3DE
:0B02C20019E3F5F03CF3E5F0D0F0226A
:1002CD00F5F0EBCCFB1206228008F5F0EBCCFB121F
:0A02DD000643120262CBFCE5F0229A
:1002E70030E03A30E302E9F8E8C0E0E6F908E6F87A
:1002F70030F005120132801B30F10512014D8013D9
:1003070030F20512019A800B30F30512017D80034C
:100317001201EDD0E0C9F709C8F7C8F92230E23376
:10032700E0F9C083A3E0F830F005120132801B30FA
:10033700F10512014D801330F20512019A800B303E
:10034700F30512017D80031201EDE8F0D0831582D9
:10035700E9F02230E302E9F8E8C0E0E2F908E2F860
:1003670030F005120132801B30F10512014D801368
:1003770030F20512019A800B30F30512017D8003DC
:0D0387001201EDD0E0C9F309C8F3C8F92256
:1003940075F001801275F002800D75F00480087507
:1003A400F008800375F000CACEC0E0EDCBCFC0E00A
:1003B400E9FDE8C0E0120622802875F0018012757C
:1003C400F002800D75F004800875F008800375F064
:1003D40000CACEC0E0EDCBCFC0E0E9FDE8C0E0123A
:1003E40006431202E7D0E0C8FAE9CDF9D0E0CFFB2A
:0503F400D0E0CECA229A
:1003F90075F001801275F002800D75F004800875A2
:10040900F008800375F000CACEC0E0EFCBFFE9CD5C
:10041900C0E0E8C0E0120622802875F0018012755C
:10042900F002800D75F004800875F008800375F0FE
:1004390000CACEC0E0EFCBFFE9CDC0E0E8C0E012D2
:1004490006431202E7D0E0C8FAEDC9CFCBD0E0FDF0
:05045900D0E0CECA2234
:10045E00D083D082F5F0E49370097401937004A3F5
:10046E00A3800C74029365F06005A3A3A380E774C8
:09047E000193C0E0E493C0E02208
:100487001205D4800D1205F180081206228003128E
:10049700064330E00720E302E622E72230E10720A7
:0E04A700E302E222E32230E202E022E49322AA
:1004B5001205F180031205D4ADF01204FDCDC5F08F
:0204C500CD2246
:1004C7001205F180031205D4AFF01204FDCFC5F079
:0204D700CF2232
:1004D9001206438003120622A9F01204FDC9C5F0D1
:0204E900C92226
:1004EB001206438003120622ABF01204FDCBC5F0BB
:0204FB00CB2212
:1004FD0030E01020E306E6F5F008E622E7F5F00916
:10050D00E7192230E11020E306E2F5F008E222E3DC
:10051D00F5F009E3192230E206E0F5F0A3E022E45C
:07052D0093F5F07401932225
:060534001205F10205882A
:06053A0012064302054019
:1005400030E01520E309E6FB08E6FA08E6F922E7C1
:10055000FB09E7FA09E7F92230E11520E309E2FB9C
:1005600008E2FA08E2F922E3FB09E3FA09E3F922D7
:1005700030E209E0FBA3E0FAA3E0F922E493FB7484
:080580000193FA740293F922C1
:1005880030E01720E309E6FF08E6FE08E6FD22E76B
:10059800FF09E7FE09E7FD19192230E11720E309F1
:1005A800E2FF08E2FE08E2FD22E3FF09E3FE09E3B9
:1005B800FD19192230E209E0FFA3E0FEA3E0FD22C5
:0C05C800E493FF740193FE740293FD2283
:1005D400BB0003740922BB010789828A8374042245
:0D05E400BB020789828A83741022740A22E8
:1005F100BB0007E92582F8740122BB010DE92582C0
:10060100F582EA3583F583740422BB020DE9258264
:10061100F582EA3583F583741022E92582F87402A4
:0106210022B6
:10062200BF0005EDF8740122BF01078D828E83742D
:100632000422BF02078D828E83741022EDF87402A9
:010642002295
:10064300BF0007ED2582F8740122BF010DED25825D
:10065300F582EE3583F583740422BF020DED258206
:10066300F582EE3583F583741022ED2582F874024A
:010673002264
:10067400C0E01205D48013C0E01205F1800CC0E084
:100684001206228005C0E012064330E00B20E3048A
:10069400D0E0F622D0E0F72230E10B20E304D0E0F2
:0A06A400F222D0E0F322D0E0F022B1
:0B06AE00C0E0EDC0E01205F10206CF35
:0B06B900C0E0EBC0E01206220206CFFA
:0B06C400C0E0EBC0E01206430206CFCE
:1006CF0030E01420E308D0E0F6D0E008F622D0E0C6
:1006DF00F7D0E009F7192230E11420E308D0E0F257
:1006EF00D0E008F222D0E0F3D0E009F31922D0E0F5
:0606FF00F0D0E0A3F022A0
:060705001205F1020732AB
:06070B0012064302071173
:1007110030E009EBF608EAF608E9F62230E109EBE8
:10072100F208EAF208E9F222EBF0A3EAF0A3E9F019
:0107310022A5
:1007320030E01720E309EFF608EEF608EDF622EFB7
:10074200F709EEF709EDF719192230E11520E3094F
:10075200EFF208EEF208EDF222EFF309EEF309ED03
:0B076200F322EFF0A3EEF0A3EDF02275
:0C076D00EEFAEDF904FD70010EEFFB2226
:0C077900E493FF740193FE740293FD22D0
:0D078500740193F5F0E493F58385F0822272
:02079200E4730E
:09079400EFF0A3EEF0A3EDF0225A
:09079D00EBF0A3EAF0A3E9F0225D
:0907A600E0FFA3E0FEA3E0FD2248
:0907AF00E0FBA3E0FAA3E0F9224B
:00000001FF
:00000001FF
