:10022E00C0E0C0F0C082C083C0D0E8C0E0E9C0E04A
:10023E00EAC0E0EBC0E0ECC0E0EDC0E0EEC0E0EF05
:10024E00C0E0C2AF900008E0FD900007E0FC120392
:10025E00CB900008E0C454F0FC900007E02C240979
:10026E00F582E43400F583E0FC120403900007E00D
:10027E00FC04F0ECC39410400FE4F0A3E0FC04F097
:10028E00ECC394024002E4F0758CF0758A00D2AF94
:10029E00D0E0FFD0E0FED0E0FDD0E0FCD0E0FBD01F
:1002AE00E0FAD0E0F9D0E0F8D0D0D083D082D0F010
:1002BE00D0E032EC90C000F0900006F07D017C2C76
:1002CE0012040D900006E090C000F0E4FD7CC81210
:1002DE00040D900006E090C000F0E4FD7C64120472
:1002EE000D22EC900006F0540F90C000F0E4FD7C5F
:1002FE006412040D22740290C000F0E4FD7C6412BE
:10030E00040D22EC90C000F0900006F0E4FD7C6439
:10031E0012040D22C2AF740190C000F0E58290006D
:10032E0007F0A3F0900002F0A3F0C3900003E09456
:10033E0020900002E09400501EA3E02409F582E410
:10034E003400F5837420F0900003E004F090000276
:10035E007003E004F080D3D2AF22ED900003F0ECF6
:10036E00900002F0900004E0FFA3E0FEA3E0FD1277
:10037E00013C6048120200900004EFF0A3EEF0A3DF
:10038E00EDF0120132FC900003E0C454F0FD900039
:10039E0002E02D2409F582E43400F583ECF09000A0
:1003AE0002E0FC04F0ECC39410400FE4F0A3E0FC78
:1003BE0004F0ECC394024002E4F080A822ED900019
:1003CE0001F0EC900000F0ED147009EC24C090C028
:1003DE0000F08020EDB40209EC249090C000F08073
:1003EE0013B40309EC24D090C000F08007EC2480F5
:1003FE0090C000F022EC90C001F0900000F022902E
:10040E000002E4F0A3F0A3EDF0A3ECF0900002E004
:10041E00FDA3E0FCA3A3E0D39C900004E09D401C50
:10042E000CEC70010DEC24FFFCED34FFFD0CEC70B8
:0D043E00010D900002EDF0A3ECF080D02243
:03000B0002022EC0
:10044B007C381202C17C0C1202F01203037C0612E0
:10045B00031112032222758921758CF0758A0075A0
:10046B009852D2A9D2AF2212044B1204617D0C7E9A
:10047B00027F02900004EFF0A3EEF0A3EDF07D00FD
:10048B007C001203687D077CD012040D7D1D7E025B
:10049B007F02900004EFF0A3EEF0A3EDF07D017C62
:0D04AB00001203687D077CD012040D80C094
:10020C0053544152542050524F4752414D2E2E219F
:10021C0000454E4420202050524F4752414D2E2E27
:02022C002100AF
:030000000200807B
:1000800075812F782F7600D8FC900029AE83AF823F
:100090009000071200BE6005E4F0A380F690011CFA
:1000A0001200C79001201200C79001241200E590B1
:1000B000012A1200E575D000120472020130EF65CA
:1000C000827003EE658322E493F8740193F974025D
:1000D00093FE740393F5828E83E869700122E493A2
:1000E000F6A30880F4E493FC740193FD740293FE7C
:1000F000740393FF740493F8740593F58288831254
:1001000000BE700122E493A3A883A9828C838D8210
:10011000F0A3AC83AD828883898280E33030020C07
:100120003030020C0029020C020C0029022E022E93
:0201300080FE4F
:10013200120160800D12017D80081201AE8003124F
:1001420001CF30E00720E302E622E72230E1072078
:0E015200E302E222E32230E202E022E4932202
:10016000BB0003740922BB010789828A83740422BD
:0D017000BB020789828A83741022740A2260
:10017D00BB0007E92582F8740122BB010DE9258238
:10018D00F582EA3583F583740422BB020DE92582DD
:10019D00F582EA3583F583741022E92582F874021D
:0101AD00222F
:1001AE00BF0005EDF8740122BF01078D828E8374A6
:1001BE000422BF02078D828E83741022EDF8740222
:0101CE00220E
:1001CF00BF0007ED2582F8740122BF010DED2582D6
:1001DF00F582EE3583F583740422BF020DED25827F
:1001EF00F582EE3583F583741022ED2582F87402C3
:0101FF0022DD
:0C020000EEFAEDF904FD70010EEFFB2298
:00000001FF
:00000001FF
