:0410ED0034AC008C93
:0410F100382E003461
:0410F5002D1700179C
:0410F9003041000F73
:0410FD00442B001769
:04110100431400088B
:0411050029C40017E2
:041109001FA30054CC
:04110D00257B001E20
:04111100317C000F1E
:03000000020026D5
:1000260075812778277600D8FC9014E7AE83AF82D7
:100036009000B61200646005E4F0A380F69000C25A
:1000460012006D9000C612006D9000CA12008B90CF
:1000560000D012008B75D0001258CF0200D6EF6583
:10006600827003EE658322E493F8740193F97402B7
:1000760093FE740393F5828E83E869700122E493FC
:10008600F6A30880F4E493FC740193FD740293FED6
:10009600740393FF740493F8740593F582888312AE
:1000A6000064700122E493A3A883A9828C838D82C5
:1000B600F0A3AC83AD828883898280E3282810026E
:1000C6002828100214E710ED100215D2111511158B
:0200D60080FEAA
:10111500900018120FC0EF4E6005EF5480B2E7B291
:10112500E7700412192522EE4F6004EF6480FF1268
:0B1135001925EE4F6004EF6480FF22DC
:1011400090003B120FC0EF4E6003EF5480B2E77087
:101150000EEE4F6004EF6480FF90003B120FC090D2
:0B1160000039E4F0A304F01219B122E2
:10116B00900031120FC0EE4F7008E4FCFD7F3F7E04
:10117B008022E4F87A1C79407BC6740B1208EB7062
:10118B0004E4FEFF22783B7B3F79AA7AB812045322
:10119B00900031120FC012128C12080790002FED25
:1011AB00F0A3ECF0ED3395E0FEFF120849A3120F0C
:1011BB00F61206DFE4F8F9FA7BBF12070A90001F5C
:1011CB00120FC012044B90002B120FC07B427A728D
:1011DB007975789C1204537B46799D7AEC78F212E0
:1011EB00070A90002B120FF612045378037B4979F0
:1011FB00F47AFD12070A90001F120FF6120453A384
:10120B00120FC090002B120FEA78357B4479A97A24
:10121B00DA12070A90002B120FF612045379057B92
:10122B00487AA078A512070A90002B120FF6120429
:10123B0053793078417B4A7AB712070A900027120C
:10124B000FC090002FE0FBA3E090000CCBF0A3CBE2
:10125B00F0900023120FF612070A79047B3F7AB540
:10126B0078F3120453120F6F900027120FEA9000BD
:10127B0023120FF61206EB120F811205C31213DDA8
:01128B002240
:10128C0090001B120FC0EF4E6003EF5480B2E7705A
:10129C0037EE4F6004EF6480FF90001B120FC07993
:1012AC001B7A007B01900014120FB712177BEE4FC4
:1012BC00600E90001B7C007D007E807F3F12093BFE
:1012CC0090001B12095580157D1B7E007F0190003C
:1012DC0014120FAE90001B120FEA12177B90001B1A
:0412EC00120FEA22D1
:1012F00090000AE4F0A3F0A3120FC0EE4F700EA30B
:10130000120FD8E4FB120D42FCFDFEFF22EF4E60EF
:1013100003EF5480B2E77018EE4F6004EF6480FF73
:1013200090000C120FC0900008E4F0A304F08007B6
:10133000900008E4F0A3F0E4F8F97B3F7A807407AA
:101340001208EB703490000C120FEAE4F8F97B3FBE
:101350007A8074071208EB701E90000BE004F09086
:10136000000A7003E004F0E4F8F9FA7B401205CFBC
:10137000A3A3120FC080CE803190000C120FEAE4BC
:10138000F8F9FA7B3F740B1208EB701E90000BE02B
:1013900024FFF090000AE034FFF0E4F8F9FA7B4013
:1013A000120453A3A3120FC080CF90000AE0FDA344
:1013B000E0FC900010120FE1EC120D2C900008E000
:1013C000FDA3E04D601090000C120FEAEE4F600498
:0D13D000EF6480FF800690000C120FEA22EF
:0659D8000100B601088584
:031002000100B634
:1013DD00900008120FC0A3E033403290000CE0FDE6
:1013ED00A3E0FCE024FFF090000CE034FFF0EC4DA6
:1013FD006019900008120FEAECF8EDF9EEFAEFFB28
:10140D0012070A900008120FC080D0802790000CA0
:10141D00E0FDA3E0FCE004F090000C7003E004F0AC
:10142D00EC4D60109000087C007D007E007F401226
:0B143D00094A80D9900008120FEA2233
:10144800900021120FC0EF4E6005EF5480B2E77094
:1014580004E4FEFF227D1F7E007F01900010120F22
:10146800AE900021120FEA1212F0900013120FC072
:10147800900013120FEAE4F8F9FA7B3F740B120894
:10148800EB701FE4F8F9FA7B401204539000131232
:101498000FC0900020E024FFF090001FE034FFF020
:1014A80080CE79047A357B3F78F3740B1208EB70A1
:1014B8001DE4F8F9FA7B40120453900013120FC090
:1014C800900020E024FFF090001FE034FFF0E4F8E3
:1014D800F97A807BBF12070A120F6F900013120F60
:1014E800EAE4F8F97B3F7A8012070A120F811205A5
:1014F800C3900017120FC012044BA3120FC07B3EFB
:10150800799878C47AD71204537A1A79337BC178D8
:10151800FB12070A90001B120FF61204537B417846
:101528008979A87AF712070A90001B120FF612049D
:1015380053791C788174C0FA04FB12070A120F6FE2
:1015480090001B120FEA7A0E79937BC178E7120795
:101558000A90001B120FF612045378057B417A9B00
:1015680079D912070A90001B120FF6120453791C3E
:101578007A4078817BC112070A120F811205C39045
:101588000017120FF612045390001FE0FBA3E0F8B7
:10159800EBF93395E0FAFB120890120F6F7C187E76
:0F15A800317F3F7D72120453120F8112070A2206
:1015B700900025120FC01214487A137B40795D788A
:0515C7008E1205CF2289
:1015CC00900090120FAE900001120B51EAFDE9C38E
:1015DC00900095FEE0CE9EFC900094E0FEED9ED334
:1015EC00FDEC9404ED648094804038900090120FD0
:1015FC00D8900001120B51900093120FD890008DCF
:10160C00120FB7A3120FE1900001120D8E900093F0
:10161C00120FD8E4120D0090008D120FE190000112
:10162C00120D942290009FEDF0A3ECF02404FCE446
:10163C003DFD9059DCE493FF740193C39014E9FAD7
:10164C00E0CA9AFE9014E8E0FAEF9AFFECD39EED14
:10165C009F505B9014E7120FD87401120D0090008C
:10166C00A0E02404FA90009FE03400C0E090009CBD
:10167C00120FAED0E0CAFDCAFE9014E9E02DF0FDC9
:10168C009014E8E03EF0FE9014E7E0FF90009C120E
:10169C000FE1900001120D8E9014E7120FD89000FC
:1016AC00A0E0C3CD9DFD90009FE0CE9EFE22905900
:1016BC00D8120F93900096120FAE900097E0FDA3F6
:1016CC00E0FC9014E9E0D39C9014E8E09D500302F8
:1016DC001776900096120FD890009C120FAE120A3B
:1016EC00A87072900001120B51EAFDE9C3900098AA
:1016FC00FEE0CE9EFC900097E0FEED9EFDEC24FCFF
:10170C00FCED34FFFD9000A0E0D39C90009FE09D89
:10171C005043900096E0FFA3E0A3E02404FDEE34D8
:10172C0000FE90009C120FE17401120CF2900099D3
:10173C00120FAE9000A0E02DFD90009FE03EFE90B9
:10174C000093120FAEE9FDEAFEEBFF1215CC9000F0
:10175C0099120FD82290009C120FD8900001120BF6
:0F176C0051900096120FB70216C6E4FDFEFF2241
:10177B00900008120FC0900010120FC0EF4E6003C4
:10178B00EF5480B2E77006900008120955900008DC
:10179B00120FEA7A187B4B7880799674031208EB58
:1017AB007011900010120FEAA3120FE1120DF6E464
:1017BB00FEFF22900010120FEA120807120849A32D
:1017CB00120FE1120DF6120BEBEE4F6004EF64807B
:0B17DB00FF900010120FF612070A2208
:1017E60090003D120FC0EF4E6005EF5480B2E770D7
:1017F6004AEE4F7004E4FEFF22A3120FEA12080716
:10180600900039120FC0A3120FF6EA4B6004EB6486
:1018160080FBEAFEEBFFE8FCE9FD1214489000416C
:10182600120FF612045312116B90003CE030E00ADE
:10183600EE4F6004EF6480FF80002212144890008F
:0B18460041120FF612045312116B2226
:10185100900010120FC012044B900008120FC079B3
:101861003A7B417A8178A812045379367B437876A2
:101871007A8612070A900008120FF6120453792093
:101881007B447A9078F012070A900008120FF61242
:10189100045378017B44798D7ADE12070A9000089F
:1018A100120FF612045379327B44784D7A60120795
:1018B1000AA3120FC0900008120FEA7B427A6B79DB
:1018C100D378F012070A900008120FF61204537A27
:1018D1000679107B4478FC12070A900008120FF673
:1018E10012045378157B4479597AD012070A900073
:1018F10008120FF61204537A017B45785C79F512D0
:10190100070A900008120FF612045379327B4478CB
:101911004D7A6012070AA312094A900010120FF6BD
:1019210012045322900014120FC079137B3E78CD1C
:101931007AD4740B1208EB7004121851227A1A7BB4
:1019410040787A798274071208EB7021E4F8F97B08
:101951003F7A801205C3121851EE4F6004EF648084
:10196100FF790F7B3F7AC978DB12070A22E4F8F985
:101971007A807BBF12070A120F6F900014120FEAD0
:10198100E4F8F97B3F7A8012070A120F811205C32E
:0F199100121851790F7B3F7A4978DB12070A222F
:1019A00090003B120FC0900039E4F0A3F01219B17F
:0119B0002214
:1019B100900023120FC0EF4E6003EF5480B2E77026
:1019C1001CEE4F6004EF6480FF900023120FC09063
:1019D100003AE02402F0900039E03400F07A227BF2
:1019E1003F788379F9120453900023120FC0E4F871
:1019F1007B4679F87AFF74071208EB6003021A80BC
:101A01007D177E007F01900014120FAE900023120B
:101A11000FEA12177B900027120FC0900039E0FDEA
:101A2100A3E0FCED3395E0FEFF1208499000171288
:101A3100093B7D1B7E007F01900014120FAE9000C8
:101A410017120FEAE4F8F97B3E7A80120453121759
:101A51007B90001B120FEAE4F8F97B407A801204B4
:101A610053EE4F6004EF6480FF900017120FF612DF
:101A7100070A120807900039EDF0A3ECF080471235
:101A8100080790002BEDF0A3ECF0ED3395E0FEFF9D
:101A9100120849900023120FF61206DFA3120FC09D
:101AA100900039E0FFA3E0FEEFFDEE90002CFAE09C
:101AB1002AFC90002BE03DFDEC5403FE7F009000DA
:101AC10039EFF0A3EEF030E016900027120FEAE4B0
:101AD100F8F97B3F7A801206DF900027120FC0D3FE
:101AE10090003AE09401900039E0648094804006CF
:101AF100900027120955900027120FEA12044B900B
:101B0100001F120FC078067A117B4379F812045333
:101B110078177A58795D7BC612070A90001F120F59
:101B2100F61204537B487AD678E279E412070A90D8
:101B3100001F120FF612045378787A967BCA79D86F
:101B410012070A90001F120FF612045379327B4BD1
:101B51007A4F785912070A900027120FF612045390
:101B610090002D120FC090001F120FEA7A047B43E0
:101B7100784B79A712070A90001F120FF61204532F
:101B81007A137B46786279DC12070A90001F120FE4
:101B9100F61204537B48794E78677AC712070A9088
:101BA100001F120FF61204537A037B4B78CF79E7AB
:101BB10012070A900031120FC090002D120FF61279
:031BC10005C32237
:101BC40090001F120FC0EF4E6005EF5480B2E77013
:101BD40004E4FEFF227D1B7E007F01900010120FA3
:101BE400AE90001F120FEA1212F0900013120FC0F1
:101BF400900013120FEAE4F8F9FA7B3F740B120811
:101C0400EB701FE4F8F9FA7B4012045390001312AE
:101C14000FC090001CE024FFF090001BE034FFF0A4
:101C240080CE90001CE030E01DE4F8F9FA7B40120D
:101C34000453900013120FC090001CE024FFF09096
:101C4400001BE034FFF0E4F8F97B3F7A8012070AC6
:101C5400E4F8F9FA7B3F120453900017120FC0D333
:101C640090001CE0943C90001BE064809480401E33
:101C74009000177C007D007E807F4E120945900005
:101C84001CE024C4F090001BE034FFF080D1C3902A
:101C9400001CE094C490001BE06480947F501E906C
:101CA40000177C007D007E807F4E12094A90001C44
:101CB400E0243CF090001BE03400F080D1E033409D
:101CC4002FE0FDA3E0FCE4FB7A02ECF8EDF912004E
:101CD400F3E8E93395E0FAFBE87C017D007E007FC0
:101CE40000F81204041208499000171209458034C0
:101CF400E0FDA3E0FCC3E49CFCE49DFDE4FB7A026C
:101D0400ECF8EDF91200F3E8E93395E0FAFBE87C2E
:101D1400017D007E007F00F812040412084990003F
:101D24001712094A90001DE4F0A3F0D390001EE0BE
:101D3400940490001DE0648094805036A3A3120F95
:101D4400EA900017120FF61205CF900017120FF643
:101D540012070AE4F8F9FA7B3F12045390001EE0DC
:101D640004F090001D7003E004F0900017120FC0FF
:091D740080B9900017120FEA2259
:1000D800E88BF0A4C98AF0A429F9E88AF0A4F8E525
:0500E800F029F9482297
:1000ED00EBC9FBEAC8FAEB335008E4C39AFAE49B78
:1000FD00FBD392F0E930E709B2F0C3E498F8E49944
:10010D00F912014030F008C3E498F8E499F9482257
:10011D00EBC9FBEAC8FA89F01200F320F706EAF8FA
:0D012D00EBF94822C3E49AF8E49BF948225C
:10013A00EBC9FBEAC8FAE94B7010E8C0F08AF08410
:10014A00F8AAF0D0F079007B0022ECC0E0EDC0E024
:10015A00EEC0E07D007E007C10C3E833F8E933F995
:10016A00ED33FDEE33FEED9AEE9B4005FEED9AFD72
:10017A0008DCE6EDFAEEFBD0E0FED0E0FDD0E0FCD4
:03018A00E849221F
:0F018D00EBC9FBEAC8FA120140EAF8EBF9482285
:10019C0030E01B20E30C08E625F0F6F5F018E63C01
:1001AC00F62209E725F0F7F5F019E73CF72230E2E3
:1001BC0011C083A3E025F0F5F0F01582D083E03C6C
:1001CC00F02220E30C08E225F0F2F5F018E23CF204
:0D01DC002209E325F0F3F5F019E33CF322CE
:1001E900F5F0EDCCFD120C52800D7D00900001F56B
:0F01F900F0EDCCFD120C6F12019CCDFCE5F02255
:1002080030E02720E31208E6C0E025F0F618E6F50E
:10021800F03CF6E5F0D0F02209E7C0E025F0F71948
:10022800E7F5F03CF7E5F0D0F02230E217A3E0C0A4
:10023800E0C08325F0F01582D083E0F5F03CF0E5CE
:10024800F0D0F02220E31208E2C0E025F0F218E234
:10025800F5F03CF2E5F0D0F02209E3C0E025F0F338
:0B02680019E3F5F03CF3E5F0D0F022C4
:10027300F5F0EBCCFB120CA08008F5F0EBCCFB12F5
:0A0283000CC1120208CBFCE5F022CA
:10028D0030E03A30E302E9F8E8C0E0E6F908E6F8D4
:10029D0030F0051200D8801B30F1051200F38013E9
:1002AD0030F205120140800B30F30512012380035B
:1002BD00120193D0E0C9F709C8F7C8F92230E2332B
:1002CD00E0F9C083A3E0F830F0051200D8801B30B0
:1002DD00F1051200F3801330F205120140800B304E
:1002ED00F3051201238003120193E8F0D0831582E8
:1002FD00E9F02230E302E9F8E8C0E0E2F908E2F8BB
:10030D0030F0051200D8801B30F1051200F3801378
:10031D0030F205120140800B30F3051201238003EA
:0D032D00120193D0E0C9F309C8F3C8F9220A
:10033A0075F001801275F002800D75F00480087561
:10034A00F008800375F000CACEC0E0EDCBCFC0E064
:10035A00E9FDE8C0E0120CA0802875F00180127552
:10036A00F002800D75F004800875F008800375F0BE
:10037A0000CACEC0E0EDCBCFC0E0E9FDE8C0E01294
:10038A000CC112028DD0E0C8FAE9CDF9D0E0CFFB5A
:05039A00D0E0CECA22F4
:10039F0075F001801275F002800D75F004800875FC
:1003AF00F008800375F000CACEC0E0EFCBFFE9CDB7
:1003BF00C0E0E8C0E0120CA0802875F00180127533
:1003CF00F002800D75F004800875F008800375F059
:1003DF0000CACEC0E0EFCBFFE9CDC0E0E8C0E0122D
:1003EF000CC112028DD0E0C8FAEDC9CFCBD0E0FD21
:0503FF00D0E0CECA228F
:1004040088F005F0800DC3EC33FCED33FDEE33FED4
:0B041400EF33FFD5F0F0EF4E4D4C220F
:10041F00E8FCE9FDEAFEEBFF8008ECF8EDF9EEFAF7
:10042F00EFFBEC28FCED39FDEE3AFEEF3BFF4E4DB6
:02043F004C224D
:10044100E8FCE9FDEAFEEBFF8008ECF8EDF9EEFAD5
:10045100EFFBEF4E700122EB4A7005FFFCFDFE221F
:100461001206BC947F40092B500C7F7F74FF80ECF7
:100471002B4003E480E5C0E0C0F0E849704EBA804B
:1004810009D0E0F9D0E0F802057CEC4D7018BE808F
:1004910008E8FCE9FDEAFE80E8E4FBFFEA8EF0A44F
:1004A100F8E5F0020547EA8CF0A4FFABF0EA8DF025
:1004B100A42BFBE435F0F8EA8EF0A428F8E435F03B
:1004C100020547EACEFAE9FDE8FC80DAEC4D700559
:1004D100BE80F080BCEAC0E0EC88F0A4FFABF0ED98
:1004E10088F0A42BFBE435F0FAEC89F0A42B4FFF44
:1004F100E5F03AFAE433FB88F0EEA42AFAE5F03BA2
:10050100FBED89F0A42AFAE5F03BFBE433F88CF02B
:10051100D0E0FCA42AC5F03BFBE438F8EF6002D23E
:10052100F0AFF0ED8CF0A42BFBE5F038F8E433FAF2
:10053100EE89F0A42BFBE5F038F8E43AFAEC8EF002
:10054100A428F8E5F03AF5F0FEE8FDEBFCD0E0F97F
:10055100D0E0F830F70708B80006020589120595C2
:10056100EF3350178CF020F00260100CBC000C0D22
:10057100BD00080EBE000408E8600DE933E813FF72
:10058100EE2313FE4F4D4C227F7F74FF8002E4FF68
:10059100FEFDFC22C3EF33FFEC33FCED33FDEE3304
:1005A100FE22C3EE13FEED13FDEC13FCEF1350021C
:1005B100D2E0FF22C3E49CFCE49DFDE49EFEE49FA7
:0205C100FF2217
:1005C300EFCBFFEECAFEEDC9FDECC8FCEF4E7003A6
:1005D30002058FEB4A70030205891206BCEB947F78
:1005E300CF40069F500A02058FC39F40030205892F
:1005F300FBE849700CEA94807007EBF8A9F0020558
:100603007CC0F07F001206AD501EEB6002DB05D00C
:10061300F002058FC3120599EF33FFEC28FCED3987
:10062300FDEE3AFEE43FFFD3EBC0E075F008740340
:10063300C0E07B00501CC3EC98FCED99FDEE9AFEE4
:10064300EF9400FF500CEC28FCED39FDEE3AFEE48C
:100653003FFFEB33FBEC33FCED33FDEE33FEEF33C7
:10066300FFD5F012D0F0EBC0E0E5F0146012C0E06B
:1006730075F0087B00EF20E0BDEED330E7D480B601
:100683001206AD4E4D4CFBD0E0F4FCD0E0F4FDD0AF
:10069300E0F4FED0E0F8D0E0F9EB500302057C6013
:1006A3000302056CEC540102056AC3EC98FCED9956
:0906B300FDEE9AFEEF9400FF2217
:1006BC00EAA2E7D2E7FAEB33FB13F5F0EEA2E7D2AE
:1006CC00E7FEEF33FFC5F013A2E730E601B313C525
:0306DC00F0C32246
:1006DF00EFCBFFEECAFEEDC9FDECC8FCEB4A700391
:1006EF00EF4E22EB6480FB8019E8FCE9FDEAFEEB9C
:1006FF00FF8008ECF8EDF9EEFAEFFBEB4A7003EF31
:10070F004E22EF4E700BEBFFEAFEE9FDE8FC7401A1
:10071F0022C3EC98ED99EE9AEBC2E7F5F0EFC2E742
:10072F0095F0500E600CEBCFFBEACEFAE9CDF9E86D
:10073F00CCF81206BCC0E0C0F07F00C39BFB605B2F
:10074F009418600C401AD0E023F9D0E0F802057C31
:10075F008AF0E9486003D2F0E4AFF0FAF9F8803B91
:10076F00EB30E40D89F0EA6003D2F0E4AFF0F9CAA0
:10077F00F8EB30E30D88F0EF6002D2F0AFF0E4CA8F
:10078F00C9F8EB54076014FBC3EA13FAE913F9E84D
:10079F0013F8EF135002D2E0FFDBEDD0E0C0E030F2
:1007AF00E734C3E49FFFF5F0EC98FC42F0ED99FDC0
:1007BF0042F0EE9AFE42F0D0E0F9D0E0F8E5F070AA
:1007CF000122E923F9EE30E703020561D8030205A0
:1007DF008F12059580F0EC28FCED39FDEE3AFED036
:1007EF00E023F9D0E0F840030205611205A408B830
:0807FF000003020589020561F7
:10080700EF4E7003FDFC22EEA2E7D2E7FEE4CF3302
:1008170092D5C3947F500302058FF5F0941F4005CE
:100827006011020589F404F5F0EF54FEFF1205A3E9
:10083700D5F0F6EFCCCDCECF30D5031205B5EE020D
:02084700058525
:10084900EF30E707D2D51205B58002C2D5EF4E4D7C
:100859004C70012275F096EF700EEE20E71C15F032
:1008690012059530E7F88012EF05F0C313FFEE1378
:10087900FEED13FDEC13FCEF70EFA2D5E5F013FFCD
:07088900EE92E7FE4401229C
:10089000EB30E711D2D5C3E498F8E499F9E49AFA79
:1008A000E49BFB8002C2D5EB4A494870012275F0F7
:1008B00096EB7018EA20E72615F0C3EB33FBE8331C
:1008C000F8E933F9EA33FA30E7EE8012EB05F0C3CA
:1008D00013FBEA13FAE913F9E813F8EB70EFA2D56A
:0B08E000E5F013FBEA92E7FA44012266
:1008EB00F5F0C3EF20E706EB30E7148034EB20E79D
:1008FB0004F4D3802C30F10363F00CEB547FFBEF4B
:10090B004E7002FCFDEB4A7002F8F9EC98A8F0F57A
:10091B00F0ED9942F0EE9A42F0EF547F9B45F08850
:10092B00F082F130F2037001D330F301B3E43322E0
:10093B0075F004801875F014801375F024800E7513
:10094B00F034800975F04CFC800375F054EBC0E07B
:10095B00EAC0E0E9C0E0E8C0E0ECF8EDF9EEFAEF50
:10096B00FBE0FFA3E0FEA3E0FDA3E0FC30F30CEC07
:10097B00C0E0EDC0E0EEC0E0EFC0E0E58224FDC0DA
:0A098B00E0E58334FFC0E002099F9D
:0A099500E8FB7A80E4F9F802070A93
:10099F00C0F0E5F0C4540F75F005A47582B17583EE
:1009AF00097312070A801C1206EB8017120453807A
:1009BF00121205CF800D1209958008EF4E6004EFDB
:1009CF00B2E7FFD0F0FB30F010D0E0F8ECF618ED06
:1009DF00F618EEF618EFF6802E30F21DD083D08287
:1009EF00EFF0A3EEF0A3EDF0A3ECF0E58224FDF51C
:1009FF0082E58334FFF583800ED0E0F8ECF218ED3A
:100A0F00F218EEF218EFF230F30CD0E0FFD0E0FE68
:100A1F00D0E0FDD0E0FCD0E0F8D0E0F9D0E0FAD0A3
:030A2F00E0CB22F7
:100A3200F5F0E9800DF5F0EB8008F5F0ED8003F5B7
:100A4200F0EFD083D082C0E0C3E493A3C5F095F069
:100A5200D0F0C0E0E493A3C5F095F07003020A78E9
:060A6200A3D0E0020A949B
:100A6800D083D082F5F0C3E493A3C5F095F0C0E03D
:100A7800C3D0F0E493A395F04012A3A3C3E5F033E9
:100A8800500205832582F58250020583740193C0C4
:060A9800E0E493C0E0223F
:100A9E00120C52800D120C6F8008120CA0800312E3
:100AAE000CC130E00720E302E622E72230E1072006
:0E0ABE00E302E222E32230E202E022E493228D
:100ACC00120C6F8003120C52ADF0120B14CDC5F04A
:020ADC00CD2229
:100ADE00120C6F8003120C52AFF0120B14CFC5F034
:020AEE00CF2215
:100AF000120CC18003120CA0A9F0120B14C9C5F08E
:020B0000C92208
:100B0200120CC18003120CA0ABF0120B14CBC5F077
:020B1200CB22F4
:100B140030E01020E306E6F5F008E622E7F5F009F8
:100B2400E7192230E11020E306E2F5F008E222E3BF
:100B3400F5F009E3192230E206E0F5F0A3E022E43F
:070B440093F5F07401932208
:060B4B00120C6F020B9F6B
:060B5100120CC1020B575B
:100B570030E01520E309E6FB08E6FA08E6F922E7A4
:100B6700FB09E7FA09E7F92230E11520E309E2FB7F
:100B770008E2FA08E2F922E3FB09E3FA09E3F922BA
:100B870030E209E0FBA3E0FAA3E0F922E493FB7467
:080B97000193FA740293F922A4
:100B9F0030E01720E309E6FF08E6FE08E6FD22E74E
:100BAF00FF09E7FE09E7FD19192230E11720E309D4
:100BBF00E2FF08E2FE08E2FD22E3FF09E3FE09E39C
:100BCF00FD19192230E209E0FFA3E0FEA3E0FD22A8
:0C0BDF00E493FF740193FE740293FD2266
:060BEB00120C52020BF196
:100BF10030E01E20E30CE6FF08E6FE08E6FD08E60D
:100C0100FC22E7FF09E7FE09E7FD09E7FC191919CD
:100C11002230E11E20E30CE2FF08E2FE08E2FD08BB
:100C2100E2FC22E3FF09E3FE09E3FD09E3FC1919F4
:100C3100192230E20CE0FFA3E0FEA3E0FDA3E0FCFB
:100C410022E493FF740193FE740293FD740393FCF9
:010C51002280
:100C5200BB0003740922BB010789828A83740422C0
:0D0C6200BB020789828A83741022740A2263
:100C6F00BB0007E92582F8740122BB010DE925823B
:100C7F00F582EA3583F583740422BB020DE92582E0
:100C8F00F582EA3583F583741022E92582F8740220
:010C9F002232
:100CA000BF0005EDF8740122BF01078D828E8374A9
:100CB0000422BF02078D828E83741022EDF8740225
:010CC0002211
:100CC100BF0007ED2582F8740122BF010DED2582D9
:100CD100F582EE3583F583740422BF020DED258282
:100CE100F582EE3583F583741022ED2582F87402C6
:010CF10022E0
:100CF200C0E0120C528013C0E0120C6F800CC0E0F6
:100D0200120CA08005C0E0120CC130E00B20E304FD
:100D1200D0E0F622D0E0F72230E10B20E304D0E06D
:0A0D2200F222D0E0F322D0E0F0222C
:0B0D2C00C0E0EDC0E0120C52020D58B8
:0B0D3700C0E0EFC0E0120C6F020D588E
:0B0D4200C0E0EBC0E0120CA0020D5856
:0B0D4D00C0E0EBC0E0120CC1020D582A
:100D580030E01420E308D0E0F6D0E008F622D0E036
:100D6800F7D0E009F7192230E11420E308D0E0F2C7
:100D7800D0E008F222D0E0F3D0E009F31922D0E065
:060D8800F0D0E0A3F02210
:060D8E00120C6F020DBB08
:060D9400120CC1020D9AD1
:100D9A0030E009EBF608EAF608E9F62230E109EB59
:100DAA00F208EAF208E9F222EBF0A3EAF0A3E9F08A
:010DBA002216
:100DBB0030E01720E309EFF608EEF608EDF622EF28
:100DCB00F709EEF709EDF719192230E11520E309C0
:100DDB00EFF208EEF208EDF222EFF309EEF309ED74
:0B0DEB00F322EFF0A3EEF0A3EDF022E6
:060DF600120C52020E0671
:0A0DFC00C0F088F0120CC1020E5482
:100E060030E01E20E30CEFF608EEF608EDF608ECEF
:100E1600F622EFF709EEF709EDF709ECF7191919BC
:100E26002230E11E20E30CEFF208EEF208EDF208A4
:100E3600ECF222EFF309EEF309EDF309ECF31919DD
:0E0E46001922EFF0A3EEF0A3EDF0A3ECF022E2
:100E540030E010EBF608EAF608E9F608E5F0F6F8F3
:100E6400D0F02230E110EBF208EAF208E9F208E5EA
:100E7400F0F2F8D0F022EBF0A3EAF0A3E9F0A3E556
:060E8400F0F0F8D0F022AE
:100E8A00BB0028BF000AFAEDF8E7F60809DAFA22E9
:100E9A00BF010E8D828E83F8800209A3E7F0D8FA8B
:100EAA0022FAEDF8E7F20809DAFA22BB0143BF0099
:100EBA001089828A83F9EDF8800208A3E0F6D9FA4C
:100ECA0022BF011F8D828E83FB08C9C582C9CAC58C
:100EDA0083CAE0A3C9C582C9CAC583CAF0A3DBEA2B
:100EEA00D8E8228D828E83F9EDF8E0F208A3D9FAC8
:100EFA0022BB0249BF001189828A83F9EDF8800278
:100F0A0008A3E493F6D9F922BB0232BF01208D82ED
:100F1A008E83FB08C9C582C9CAC583CAE493A3C91B
:100F2A00C582C9CAC583CAF0A3DBE9D8E722898288
:100F3A008A83F9EDF8E493F208A3D9F922BF000AEB
:100F4A00FAEDF8E3F60809DAFA22BF010E8D828E6D
:100F5A0083F8800209A3E3F0D8FA22FAEDF8E3F263
:050F6A000809DAFA227B
:100F6F00D083D082EFC0E0EEC0E0EDC0E0ECC0E097
:020F7F00E47319
:100F8100D083D082D0E0F8D0E0F9D0E0FAD0E0FB15
:020F9100E47307
:0C0F9300E493FF740193FE740293FD22AE
:0D0F9F00740193F5F0E493F58385F0822250
:020FAC00E473EC
:090FAE00EFF0A3EEF0A3EDF02238
:090FB700EBF0A3EAF0A3E9F0223B
:0C0FC000EFF0A3EEF0A3EDF0A3ECF022A4
:0C0FCC00EBF0A3EAF0A3E9F0A3E8F022A8
:090FD800E0FFA3E0FEA3E0FD220E
:090FE100E0FBA3E0FAA3E0F92211
:0C0FEA00E0FFA3E0FEA3E0FDA3E0FC227A
:0C0FF600E0FBA3E0FAA3E0F9A3E0F8227E
:101D7D00E4A29392E0F40404A2E09293900009EFA0
:101D8D00F0A3EEF0EF7F00FDEC900008F0F8790085
:101D9D007A007B00EDC0E0E4FC04FE7D7F1204318F
:101DAD00EEFFEDFEECFDD0E0120D0090000AE0FC20
:101DBD00900008E0F879007A007B00ECC0E0E4FFC9
:101DCD0004FEFC7D7F120431EEFFEDFEECFDD0E054
:101DDD00120D0090000BE0FDA3E0ED7D00FC9000E6
:101DED0008E0F879007A007B00ECC0E0E4FF04FE27
:101DFD0004FC7D7F120431EEFFEDFEECFDD0E01210
:101E0D000D0090000CE0FC900008E0F879007A00DD
:101E1D007B00ECC0E0E4FF04FE7C037D7F12043107
:101E2D00EEFFEDFEECFDD0E0120D0022900008E477
:101E3D00F0A3F0A29392E0F40404A2E09293EDA338
:101E4D00A3F0EC90000AF0ED7055ECF879007A00F3
:101E5D007B00E4FCFF04FE7D7F120431EEFFEDFEFE
:101E6D00ECFD120AA87D007C00900008F0A3CCF0D8
:101E7D00CCA3E0FC7E007F00E4FB04FAF8797F122E
:101E8D000431EEFFEDFEECFD120AA87D00FC900082
:101E9D0009E04CF0900008E0F0E0FDA3E0FC221416
:101EAD007057ECF879007A007B00E4FF04FE04FC27
:101EBD007D7F120431EEFFEDFEECFD120AA87D00D0
:101ECD007C00900008F0A3CCF0CCA3E0FC7E007F5A
:101EDD0000E4FB04FA7803797F120431EEFFEDFE86
:101EED00ECFD120AA87D00FC900009E04CF090007A
:101EFD0008E0F0E0FDA3E0FC22E4FCFD22900010E0
:101F0D00D0E0F0A3D0E0F090000CE4F0A3F0A3F04B
:101F1D00A3F0A29392E0F40404A2E09293E4FD7C7A
:101F2D0096124F0074FF909000F0E4FD7C0A124F62
:101F3D000030922090000CE0FDA3E0FCE004F09056
:101F4D00000C7003E004F0D3EC9464ED94004002B7
:101F5D00800280DDC2AF909000E07D007C0425E022
:101F6D00CD33CDDCF990000ECDF0A3CDF0909001E6
:101F7D00E0C4540F7D00FC90000FE04CF090000E7B
:101F8D00E0F0D2AFE0FDA3E0FC900010E0F8A3E09C
:101F9D00C0E0E8C0E022900052D0E0F0A3D0E0F025
:101FAD0090003FE4F0A3F0A3F0A3F0A3F0A3F0A3FF
:101FBD00F0A3F0A3F090004AF0A3F090004EF0A330
:101FCD00F0A29392E0F40404A2E09293EC900054FA
:101FDD00F06003022353D295C296C297121F0A9046
:101FED000AFCEDF0A3ECF0C295C296C297C3FC9427
:101FFD00A5ED940F400C7D0F7CA5900AFCEDF0A390
:10200D00ECF0EC4D700A900AF6E4F0A3F00221A476
:10201D00900043E4F0A3F0C3900044E094109000CE
:10202D0043E09400400302219690004A7C007D001D
:10203D007EB47F4112093B900044E025E02450F529
:10204D0082E43415F583A3E024A6FAC58270021547
:10205D008314C582E034FF90003FF0A3CAF0CAA3F9
:10206D00E0FBA3E0FA900AFDE0D39A900AFCE09B16
:10207D005003022178E0FBA3E0FA900040E0C39A00
:10208D0090003FE09B50030221787401900045F0D1
:10209D00E4F8F97AB47BC112070AEE4F6004EF64DD
:1020AD0080FF90004A120FF612070A90003FE0FBE6
:1020BD00A3E0C3A3A3F9E0C999FA900041E0F9EBBD
:1020CD0099FBEAF8CBF9CBEBE4FAFB1208A5120564
:1020DD00CF900AFCE0FBA3E0F8CBF9CBEBE4FAFBE5
:1020ED001208A5900046120FC0120453EFC0E0EE87
:1020FD00C0E0EDC0E0ECC0E0A3120FEAE4F8F97A1D
:10210D00B47BC112070AD0E0F8D0E0F9D0E0FAD0E4
:10211D00E0FB12070A900041E0FBA3E0F8CBF9CBFE
:10212D00EBE4FAFB1208A5EFC0E0EEC0E0EDC0E075
:10213D00ECC0E0900046120FEA120453D0E0F8D044
:10214D00E0F9D0E0FAD0E0FB1206DFE4F8F97A20EE
:10215D007B41120453120807900AF6EDF0A3ECF040
:10216D009000437401F0A3E4F0800D90003FE0FD7A
:10217D00A3E0A3CDF0A3CDF0900044E004F09000D7
:10218D00437003E004F0022024A3A3E07009900A39
:10219D00F6740EF0A304F0900AF6E0FDA3E0FCED5A
:1021AD00E4FEFF120854E4F8F97A207B411205CFC2
:1021BD0078337B3C7A8E79FA12045390004E120FCD
:1021CD00C01219A0900AFE120FC090004E120FEA15
:1021DD00121140900B02120FC0900AFE120FEA90DE
:1021ED000BAE12093B900B02120FEA900BB21209C3
:1021FD003B900AFE120FEA900C5E12093B900B0207
:10220D00120FEA900C6212093B900AFE120FEAA31C
:10221D00120FF61205CF121115792E7B427A6578C1
:10222D00E412045390004E120FC0900AFE120FEAF2
:10223D00EF4E6003EF5480B2E77021A3120FEAEF67
:10224D004E6005EF5480B2E7B2E7701090004E7CFF
:10225D00007D007EB47F4312093B8060900AFE1220
:10226D000FEAEF4E6005EF5480B2E7B2E7701FA39F
:10227D00120FEAEF4E6003EF5480B2E7701090003A
:10228D004E7C007D007E347F4312093B802E900AE8
:10229D00FE120FEAEF4E6003EF5480B2E7701DA3FC
:1022AD00120FEAEF4E6003EF5480B2E7700E90000C
:1022BD004E7C007D007E347F4312093B90004E1210
:1022CD000FEAE4F8F97A207B4112045312080790C3
:1022DD000AF6EDF0A3ECF0900886E054016037E0CB
:1022ED0054FEF09009ECEDF0A3ECF0900AF6E0FD51
:1022FD00A3E0900A74CDF0A3CDF0900AF6E0FDA313
:10230D00E0900AFACDF0A3CDF0900AF6E0FDA3E03F
:10231D00A3CDF0A3CDF0900AF6E0FDA3E090096403
:10232D00CDF0A3CDF0900AFAE0FDA3E090096ACDBF
:10233D00F0A3CDF0900AF8E0FDA3E0900968CDF090
:10234D00A3CDF002256EB401028003022460E4A245
:10235D009392E0F40404A2E09293900BAE120FEA74
:10236D00A3120FF61205CF121115792E7B427A6545
:10237D0078E412045390004E120FC0900BAE120F62
:10238D00EAEF4E6003EF5480B2E77021A3120FEA1B
:10239D00EF4E6005EF5480B2E7B2E7701090004E3B
:1023AD007C007D007EB47F4312093B8060900BAEB4
:1023BD00120FEAEF4E6005EF5480B2E7B2E7701FDF
:1023CD00A3120FEAEF4E6003EF5480B2E770109046
:1023DD00004E7C007D007E347F4312093B802E90A1
:1023ED000BAE120FEAEF4E6003EF5480B2E7701D93
:1023FD00A3120FEAEF4E6003EF5480B2E7700E9018
:10240D00004E7C007D007E347F4312093B900BAE65
:10241D00E4F0A3F0900BB2F0A3F090004E120FEA8F
:10242D00E4F8F97A207B41120453120807900BA6A9
:10243D00EDF0A3ECF090004E120FEAE4F8F97A20DB
:10244D007B411204531208079009ECEDF0A3ECF058
:10245D0002256EB40202800302256CE4A29392E081
:10246D00F40404A2E09293900C5E120FEAA3120FF3
:10247D00F61205CF121115792E7B427A6578E4128A
:10248D00045390004E120FC0900C5E120FEAEF4EE7
:10249D006003EF5480B2E77021A3120FEAEF4E6094
:1024AD0005EF5480B2E7B2E7701090004E7C007DCE
:1024BD00007EB47F4312093B8060900C5E120FEAE0
:1024CD00EF4E6005EF5480B2E7B2E7701FA3120F15
:1024DD00EAEF4E6003EF5480B2E7701090004E7C2F
:1024ED00007D007E347F4312093B802E900C5E12DE
:1024FD000FEAEF4E6003EF5480B2E7701DA3120F89
:10250D00EAEF4E6003EF5480B2E7700E90004E7C00
:10251D00007D007E347F4312093B900C5EE4F0A3F6
:10252D00F0900C62F0A3F090004E120FEAE4F8F96F
:10253D007A207B41120453120807900C56EDF0A33C
:10254D00ECF090004E120FEAE4F8F97A207B41127C
:10255D000453120807900A74EDF0A3ECF08002808A
:10256D0000900052E0F8A3E0C0E0E8C0E022900047
:10257D001CD0E0F0A3D0E0F090000DE4F0A3F0A3A8
:10258D00F0A3F0A3F0A3F0A3F0A3F0A3F0A3F00445
:10259D00A3F0A3E4F0A3F0A29392E0F40404A2E06C
:1025AD009293EC90001EF060030228DBC28CE58C48
:1025BD007D007C00900B12F0A3CCF0CCE58AFCE002
:1025CD004CF0900B12E0F08D8C8D8AD28CE0FDA337
:1025DD00E04D700A900B0CE4F0A3F0022760900020
:1025ED0015E4F0A3F0C3900016E09410900015E0F0
:1025FD00940040030227609014F3E0601D900016D4
:10260D00E025E02492F582E43415F583E0FDA3E0A6
:10261D0090000FCDF0A3CDF0801B900016E025E0CB
:10262D0024B2F582E43415F583E0FDA3E090000FAC
:10263D00CDF0A3CDF0900016E025E02472F582E4F4
:10264D003415F583E0FDA3E090000DCDF0A3CDF0A2
:10265D00C3900012FEE0CE9EFC900011E0FEED9EB8
:10266D00FDECEDE4FEFF12085490000FE0FBA3E03B
:10267D00C3900014F9E0C999FA900013E0F9EB99B1
:10268D00FBEAF8CBF9CBEBE4FAFB1208A51205CF68
:10269D00900018120FC0900013E0FDA3E0FC900B0A
:1026AD0013E0C39C900B12E09D407490000FE0FD71
:1026BD00A3E0FC900B13E0C39C900B12E09D505FC8
:1026CD00E0FDA3E0C3900014FEE0CE9EFC9000134D
:1026DD00E0FEED9EFDECEDE4FEFF120854900018B7
:1026ED00120FF6120453900011E0FBA3E0F8CBF9A2
:1026FD00CBEBE4FAFB1208A512070AE4F8F97A20ED
:10270D007B41120453120807900B0CEDF0A3ECF073
:10271D007401900017F0900015F0A3E4F08023E40D
:10272D00900017F090000FE0FDA3E0900013CDF0A6
:10273D00A3CDF090000DE0FDA3E0900011CDF0A32E
:10274D00CDF0900016E004F09000157003E004F059
:10275D000225F2900886E0C3135401603EE054FD5B
:10276D00F0900B0CE0FDA3E09009FDCDF0A3CDF0B2
:10277D00900B0CE0FDA3E0900A85CDF0A3CDF09079
:10278D000B0CE0FDA3E0900B10CDF0A3CDF0900B62
:10279D000CE0FDA3E0A3CDF0A3CDF0900017E07009
:1027AD00030228AB900B10E0FDA3E0FC900B0DE0B5
:1027BD00D39C900B0CE09D401DE0FDA3E0900B1011
:1027CD00CDF0A3CDF0900AF6E0FDA3E0900AFACD8E
:1027DD00F0A3CDF0802BA3A3E0FDA3E0FC900B0DA7
:1027ED00E0C39C900B0CE09D5017E0FDA3E0A3CD42
:1027FD00F0A3CDF0900AF6E0FDA3E0A3CDF0A3CDBC
:10280D00F0900AF8E0FDA3E090000BCDF0A3CDF021
:10281D00900AFAE0FFA3E0FE7C00121D7D900B0EE6
:10282D00E0FDA3E090000BCDF0A3CDF0900B10E0F8
:10283D00FFA3E0FE7C04121D7D900BD1E004F0900F
:10284D000BD07003E004F0900C81E004F0900C804C
:10285D007003E004F0900B0CE0FDA3E0FC7E007F24
:10286D0000120849900BCC12093B900B0CE0FDA314
:10287D00E0FC7E007F00120849900C7C12093B9011
:10288D000B0CE0FDA3E0FCEDE4FEFF120854E4F8B0
:10289D00F97A207B411205CF9014FA120FC0900BDC
:1028AD000CE0FDA3E0900975CDF0A3CDF0900B10D9
:1028BD00E0FDA3E090097BCDF0A3CDF0900B0EE0F1
:1028CD00FDA3E0900979CDF0A3CDF00229B7B401B5
:1028DD006AE4A29392E0F40404A2E09293900BD0E8
:1028ED00E0FDA3E04D6052900BD0E0A3E0FCEDE4E1
:1028FD00FEFF120854900BCC120FF61205C31208EE
:10290D0007900BBCEDF0A3ECF0900BD0E0FDA3E035
:10291D00FCEDE4FEFF120854900BCC120FF61205DD
:10292D00C31208079009FDEDF0A3ECF0900BD0E475
:10293D00F0A3F0900BCCF0A3F0806FB4026AE4A288
:10294D009392E0F40404A2E09293900C80E0FDA336
:10295D00E04D6052900C80E0A3E0FCEDE4FEFF1230
:10296D000854900C7C120FF61205C3120807900C38
:10297D006CEDF0A3ECF0900C80E0FDA3E0FCEDE439
:10298D00FEFF120854900C7C120FF61205C31208AC
:10299D0007900A85EDF0A3ECF0900C80E4F0A3F025
:1029AD00900C7CF0A3F08002800090001CE0F8A356
:1029BD00E0C0E0E8C0E022900015D0E0F0A3D0E048
:1029CD00F07401900012F0A3E4F0A3F0A29392E052
:1029DD00F40404A2E09293EC900017F06003022C33
:1029ED002EC295C296C297121F0AC295D296C29751
:1029FD00900013EDF0A3ECF0FCEDE4FEFF12085493
:102A0D00790A783D7B407A831205CFE4F8F97B4350
:102A1D007AFA12070A120807900B28EDF0A3ECF0D2
:102A2D0064E87004FCED6403700F9014F6E4F0A3F9
:102A3D00F09014FEF0A3F08033900B28E0A3E0FC9F
:102A4D00EDE4FEFF120854E4F8F97A7A7BC412071C
:102A5D000AE4F8F97A207B411205CF9014FE120F8B
:102A6D00C01208079014F6EDF0A3ECF0900B28E0DF
:102A7D00FDA3E04D7009900B22E4F0A3F08044908B
:102A8D000B28E0A3E0900B22CDF0A3CDF0D3FC9466
:102A9D00DBED940540137D057CDC900B22EDF0A35E
:102AAD00ECF0E4900012F0801AC3EC94F5ED940173
:102ABD0050117D017CF4900B22EDF0A3ECF0E4902D
:102ACD000012F0900886E0C313C3135401603EE07A
:102ADD0054FBF0900B22E0FDA3E0900A0ECDF0A385
:102AED00CDF0900B22E0FDA3E0900A96CDF0A3CDA2
:102AFD00F0900B22E0FDA3E0900B26CDF0A3CDF0DE
:102B0D00900B22E0FDA3E0A3CDF0A3CDF0C3900B7D
:102B1D0027E094DC900B26E09405400F900B22E00B
:102B2D00FDA3E0900B26CDF0A3CDF0D3900B25E0C7
:102B3D0094F4900B24E09401500D900B22E0FDA332
:102B4D00E0A3CDF0A3CDF0900012E07003022BFEB8
:102B5D00900BE7E004F0900BE67003E004F0900CAE
:102B6D0097E004F0900C967003E004F0900B22E0D7
:102B7D00FDA3E0FC7E007F00120849900BE21209D4
:102B8D003B900B22E0FDA3E0FC7E007F0012084984
:102B9D00900C9212093B900B26E0FDA3E0FC900BEC
:102BAD0023E0D39C900B22E09D400CE0FDA3E09030
:102BBD000B26CDF0A3CDF0900B24E0FDA3E0FC900F
:102BCD000B23E0C39C900B22E09D500AE0FDA3E097
:102BDD00A3CDF0A3CDF0900B24E0A3E090000BCD9E
:102BED00F0A3CDF0900B26E0FFA3E0FE7C08121DB4
:102BFD007D900B22E0FDA3E0900986CDF0A3CDF0F2
:102C0D00900B26E0FDA3E090098CCDF0A3CDF090C4
:102C1D000B24E0FDA3E090098ACDF0A3CDF0022DA9
:102C2D000AB4016AE4A29392E0F40404A2E0929340
:102C3D00900BE6E0FDA3E04D6052900BE6E0A3E0C3
:102C4D00FCEDE4FEFF120854900BE2120FF6120594
:102C5D00C3120807900BD2EDF0A3ECF0900BE6E059
:102C6D00FDA3E0FCEDE4FEFF120854900BE2120F01
:102C7D00F61205C3120807900A0EEDF0A3ECF090C2
:102C8D000BE6E4F0A3F0900BE2F0A3F0806FB4023A
:102C9D006AE4A29392E0F40404A2E09293900C965D
:102CAD00E0FDA3E04D6052900C96E0A3E0FCEDE456
:102CBD00FEFF120854900C92120FF61205C3120863
:102CCD0007900C82EDF0A3ECF0900C96E0FDA3E0E4
:102CDD00FCEDE4FEFF120854900C92120FF6120553
:102CED00C3120807900A96EDF0A3ECF0900C96E451
:102CFD00F0A3F0900C92F0A3F080028000900015EC
:102D0D00E0F8A3E0C0E0E8C0E022900015D0E0F0CC
:102D1D00A3D0E0F07401900012F0A3E4F0A3F0A2B0
:102D2D009392E0F40404A2E09293EC900017F0600B
:102D3D0003022F58C295D296C297121F0AD295C27E
:102D4D0096C297900013EDF0A3ECF0FCEDE4FEFFBE
:102D5D00120854790A783D7B407A831205CF120808
:102D6D0007900B3EEDF0A3ECF04D70099014F8E4D4
:102D7D00F0A3F08023900B3EE0A3E0FCEDE4FEFF1A
:102D8D00120854E4F8F97A207B411205CF12080796
:102D9D009014F8EDF0A3ECF0900B3EE0FDA3E04DA8
:102DAD007009900B38E4F0A3F08042900B3EE0A345
:102DBD00E0900B38CDF0A3CDF0C3FC94E8ED940377
:102DCD0040137D037CE7900B38EDF0A3ECF0E4901D
:102DDD000012F08018C3EC9414ED9400500FE4FC35
:102DED00FD900B38EDF0A3ECF0900012F0900886FA
:102DFD00E0C313C313C3135401603EE054F7F090C6
:102E0D000B38E0FDA3E0900A1FCDF0A3CDF0900BA1
:102E1D0038E0FDA3E0900AA7CDF0A3CDF0900B38DC
:102E2D00E0FDA3E0900B3CCDF0A3CDF0900B38E08E
:102E3D00FDA3E0A3CDF0A3CDF0C3900B3DE094E84E
:102E4D00900B3CE09403400F900B38E0FDA3E09015
:102E5D000B3CCDF0A3CDF0900B3BE07004900B3A02
:102E6D00E0700D900B38E0FDA3E0A3CDF0A3CDF005
:102E7D00900012E07003022F28900B3CE0FDA3E0C0
:102E8D00FC900B39E0D39C900B38E09D400CE0FD9D
:102E9D00A3E0900B3CCDF0A3CDF0900B3AE0FDA359
:102EAD00E0FC900B39E0C39C900B38E09D500AE09C
:102EBD00FDA3E0A3CDF0A3CDF0900BFDE004F090C9
:102ECD000BFC7003E004F0900CADE004F0900CAC42
:102EDD007003E004F0900B38E0FDA3E0FC7E007F72
:102EED0000120849900BF812093B900B38E0FDA336
:102EFD00E0FC7E007F00120849900CA812093B905F
:102F0D000B3AE0FDA3E090000BCDF0A3CDF0900BBC
:102F1D003CE0FFA3E0FE7C0C121D7D900B38E0FD24
:102F2D00A3E0900997CDF0A3CDF0900B3CE0FDA36D
:102F3D00E090099DCDF0A3CDF0900B3AE0FDA3E01C
:102F4D0090099BCDF0A3CDF0023034B4016AE4A218
:102F5D009392E0F40404A2E09293900BFCE0FDA3A5
:102F6D00E04D6052900BFCE0A3E0FCEDE4FEFF129F
:102F7D000854900BF8120FF61205C3120807900BA8
:102F8D00E8EDF0A3ECF0900BFCE0FDA3E0FCEDE42C
:102F9D00FEFF120854900BF8120FF61205C312081B
:102FAD0007900A1FEDF0A3ECF0900BFCE4F0A3F0FA
:102FBD00900BF8F0A3F0806FB4026AE4A29392E054
:102FCD00F40404A2E09293900CACE0FDA3E04D60FC
:102FDD0052900CACE0A3E0FCEDE4FEFF120854901F
:102FED000CA8120FF61205C3120807900C98EDF0FD
:102FFD00A3ECF0900CACE0FDA3E0FCEDE4FEFF12C1
:10300D000854900CA8120FF61205C3120807900A67
:10301D00A7EDF0A3ECF0900CACE4F0A3F0900CA8AD
:10302D00F0A3F080028000900015E0F8A3E0C0E06E
:10303D00E8C0E02290000DD0E0F0A3D0E0F0E4A2D3
:10304D009392E0F40404A2E09293ECA3F0600302E7
:10305D00311190E000E0602A900B4FE02405F090D4
:10306D000B4EE03400F0900C0E7C007D007EA07FB6
:10307D004012093B900CBE7C007D007EA07F40126B
:10308D00093B900B4EE0FDA3E0900B52CDF0A3CD8C
:10309D00F0900B50CDF0A3CDF090000BCDF0A3CD63
:1030AD00F0900B52E0FFA3E0FE7C10121D7DD29438
:1030BD00E4FD7C64124F00C294900886E0C4540F66
:1030CD0054016011E054EFF0900A30E4F0A3F09059
:1030DD000AB8F0A3F0900B4EE0FDA3E09009A8CD47
:1030ED00F0A3CDF0900B52E0FDA3E09009AECDF032
:1030FD00A3CDF0900B50E0FDA3E09009ACCDF0A373
:10310D00CDF0805EB4012B900C0E120FEA12080761
:10311D00900BFEEDF0A3ECF0900C0E120FEA1208DE
:10312D0007900A30EDF0A3ECF0900C0EE4F0A3F054
:10313D008030B4022B900CBE120FEA120807900CCF
:10314D00AEEDF0A3ECF0900CBE120FEA1208079052
:10315D000AB8EDF0A3ECF0900CBEE4F0A3F0800201
:10316D00800090000DE0F8A3E0C0E0E8C0E0229000
:10317D00000DD0E0F0A3D0E0F0E4A29392E0F404CF
:10318D0004A2E09293ECA3F0C394034003023258DF
:10319D00900886E0C403540754016004E054DFF046
:1031AD007D007C14121E39900B64EDF0A3ECF090B1
:1031BD000B68CDF0A3CDF0900B64E0FDA3E0A3CDA3
:1031CD00F0A3CDF0900B64E0FDA3E0900C14CDF0D6
:1031DD00A3CDF0900B64E0FDA3E0900CC4CDF0A363
:1031ED00CDF0900B64E0FDA3E09009B9CDF0A3CD37
:1031FD00F0900B64E0FDA3E09009BFCDF0A3CDF0FE
:10320D00900B64E0FDA3E09009BDCDF0A3CDF0904F
:10321D000B64E0FDA3E0900A41CDF0A3CDF0900B3F
:10322D0064E0FDA3E0900AC9CDF0A3CDF0900B664C
:10323D00E0FDA3E090000BCDF0A3CDF0900B68E086
:10324D00FFA3E0FE7C14121D7D8002800090000D16
:10325D00E0F8A3E0C0E0E8C0E02290004DD0E0F03F
:10326D00A3D0E0F0A3120FC0E4F8F97B407AF0127E
:10327D000453EFC0E0EEC0E0EDC0E0ECC0E0900024
:10328D004F120FEA7B43794C7A6D78CD12070AD035
:10329D00E0F8D0E0F9D0E0FAD0E0FB1205C39000E1
:1032AD0041120FC0E4FCFD7E207F411217E6EFC0F6
:1032BD00E0EEC0E0EDC0E0ECC0E0900053120FEA8C
:1032CD007B3D79437A7A78FE120453D0E0F8D0E052
:1032DD00F9D0E0FAD0E0FB120453900045120FC074
:1032ED001215B77B43794C7A6D78CD1204537A3A27
:1032FD0079867BC378E912070AEFC0E0EEC0E0EDF6
:10330D00C0E0ECC0E0900045120FEA1215B7EE4F89
:10331D006004EF6480FF7A047B417875799312071E
:10332D000AD0E0F8D0E0F9D0E0FAD0E0FB1205C306
:10333D00900049120FC090004DE0F8A3E0C0E0E806
:10334D00C0E02290007FD0E0F0A3D0E0F0A3120FF8
:10335D00C0900057120FC0900085120FF6900053C9
:10336D00120FCC900081120FEA12326790005B129F
:10337D000FC0900057120FEA7B3F7466F9F87AE69A
:10338D00120453E4F8F9FA7B4212070A90005F1217
:10339D000FC0900057120FEA78337B437A887993E8
:1033AD0012070A900063120FC090005B120FEA78AB
:1033BD00337B437A88799312070A900067120FC006
:1033CD00900063120FF61206DF90006B120FC09083
:1033DD000063120FEAA3120FF612045390006F123E
:1033ED000FC090004174C0F0A37480F0A3E4F0A36B
:1033FD00F0FCFD7E207F411217E6E4F8F97B407A60
:10340D0088120453900073120FC090006F120FF6C4
:10341D0012045390006B120FF6EA4B6004EB6480BC
:10342D00FB1205C3900041120FC0E4FCFD7E207F0E
:10343D00411217E6900077120FC0E4F8F97B3F7A3E
:10344D00801206DF7A0C7B3F74CCF904F81204531A
:10345D00EFC0E0EEC0E0EDC0E0ECC0E090005F1228
:10346D000FEAE4F8F97A687BC212070AD0E0F8D0C7
:10347D00E0F9D0E0FAD0E0FB120453EE4F6004EF18
:10348D006480FF90005F120FF612070A90007B1206
:10349D000FC090007FE0F8A3E0C0E0E8C0E022900C
:1034AD00008AD0E0F0A3D0E0F07401900089F0E440
:1034BD00A29392E0F40404A2E09293EC90008CF0BD
:1034CD0060030236989014F8E0FDA3E0FCEDE4FEF5
:1034DD00FF120854900085120FC09014F6E0FDA362
:1034ED00E0FCEDE4FEFF120854123350E4F8F97AD3
:1034FD00207B41120453120807900B7AEDF0A3ECD8
:10350D00F0C3FC94E8ED940340137D037CE7900B2E
:10351D007AEDF0A3ECF0E4900089F08018C3EC9400
:10352D0014ED9400500FE4FCFD900B7AEDF0A3EC3C
:10353D00F0900089F0900886E0C403035403540111
:10354D006037E054BFF0900A52EDF0A3ECF0900B11
:10355D007AE0FDA3E0900ADACDF0A3CDF0900B7ADE
:10356D00E0FDA3E0900B7ECDF0A3CDF0900B7AE0C3
:10357D00FDA3E0A3CDF0A3CDF0C3900B7FE094E8C5
:10358D00900B7EE09403400F900B7AE0FDA3E0904A
:10359D000B7ECDF0A3CDF0900B7FE07004900B7EF1
:1035AD00E0700D900B7AE0FDA3E0A3CDF0A3CDF07C
:1035BD00900089E07003023668900B7EE0FDA3E079
:1035CD00FC900B7BE0D39C900B7AE09D400CE0FDD2
:1035DD00A3E0900B7ECDF0A3CDF0900B7CE0FDA38E
:1035ED00E0FC900B7BE0C39C900B7AE09D500AE0D1
:1035FD00FDA3E0A3CDF0A3CDF0900C3FE004F0903F
:10360D000C3E7003E004F0900CEFE004F0900CEE33
:10361D007003E004F0900B7AE0FDA3E0FC7E007FE8
:10362D0000120849900C3A12093B900B7AE0FDA369
:10363D00E0FC7E007F00120849900CEA12093B90D5
:10364D000B7CE0FDA3E090000BCDF0A3CDF0900B33
:10365D007EE0FFA3E0FE7C18121D7D900B7AE0FD4D
:10366D00A3E09009CACDF0A3CDF0900B7EE0FDA3B1
:10367D00E09009D0CDF0A3CDF0900B7CE0FDA3E060
:10368D009009CECDF0A3CDF0023774B4016AE4A257
:10369D009392E0F40404A2E09293900C3EE0FDA31B
:1036AD00E04D6052900C3EE0A3E0FCEDE4FEFF1215
:1036BD000854900C3A120FF61205C3120807900C1D
:1036CD002AEDF0A3ECF0900C3EE0FDA3E0FCEDE460
:1036DD00FEFF120854900C3A120FF61205C3120891
:1036ED0007900A52EDF0A3ECF0900C3EE4F0A3F03D
:1036FD00900C3AF0A3F0806FB4026AE4A29392E0CA
:10370D00F40404A2E09293900CEEE0FDA3E04D6072
:10371D0052900CEEE0A3E0FCEDE4FEFF1208549095
:10372D000CEA120FF61205C3120807900CDAEDF031
:10373D00A3ECF0900CEEE0FDA3E0FCEDE4FEFF1237
:10374D000854900CEA120FF61205C3120807900ADE
:10375D00DAEDF0A3ECF0900CEEE4F0A3F0900CEAAF
:10376D00F0A3F08002800090008AE0F8A3E0C0E0B2
:10377D00E8C0E022900027D0E0F0A3D0E0F0A31243
:10378D000FC0121BC4740AF904FA783D7B41120470
:10379D0053EFC0E0EEC0E0EDC0E0ECC0E0900029DA
:1037AD00120FEA7B3F7A41794778AE120453D0E08D
:1037BD00F8D0E0F9D0E0FAD0E0FB1206DF7A2774FA
:1037CD0033F9F87B4112070AEFC0E0EEC0E0EDC01F
:1037DD00E0ECC0E0A3120FEAE4F8F97A047B4212A0
:1037ED0006DF78127B3D7A407983120453D0E0F8DE
:1037FD00D0E0F9D0E0FAD0E0FB120453EE4F6004B4
:10380D00EF6480FFE4F8F97A047B4212070A900016
:10381D0023120FC0900027E0F8A3E0C0E0E8C0E05D
:10382D0022900032D0E0F0A3D0E0F074019000318E
:10383D00F0E4A29392E0F40404A2E09293EC9000E1
:10384D0034F060030239DC9014FE120FEA90002D63
:10385D00120FC09014FA120FEA123781E4F8F97BB7
:10386D00427AC812070AE4F8F97A207B4112045310
:10387D00120807900B90EDF0A3ECF0C3FC94DCED77
:10388D00940540137D057CDC900B90EDF0A3ECF0DE
:10389D00E4900031F0801AD3EC94F4ED94015011C2
:1038AD007D017CF4900B90EDF0A3ECF0E4900031F1
:1038BD00F0900886E03333540154016037E0547FB3
:1038CD00F0900A63EDF0A3ECF0900B90E0FDA3E017
:1038DD00900AEBCDF0A3CDF0900B90E0FDA3E0901E
:1038ED000B94CDF0A3CDF0900B90E0FDA3E0A3CD14
:1038FD00F0A3CDF0900031E070030239AC900B9441
:10390D00E0FDA3E0FC900B91E0D39C900B90E09D2B
:10391D00400CE0FDA3E0900B94CDF0A3CDF0900B07
:10392D0092E0FDA3E0FC900B91E0C39C900B90E026
:10393D009D500AE0FDA3E0A3CDF0A3CDF0900C5572
:10394D00E004F0900C547003E004F0900D05E004D9
:10395D00F0900D047003E004F0900B90E0FDA3E0F7
:10396D00FC7E007F00120849900C5012093B900B11
:10397D0090E0FDA3E0FC7E007F00120849900D0051
:10398D0012093B900B92E0FDA3E090000BCDF0A34C
:10399D00CDF0900B94E0FFA3E0FE7C1C121D7D90FA
:1039AD000B90E0FDA3E09009DBCDF0A3CDF0900BE3
:1039BD0094E0FDA3E09009E1CDF0A3CDF0900B9242
:1039CD00E0FDA3E09009DFCDF0A3CDF0023AB8B44D
:1039DD00016AE4A29392E0F40404A2E09293900CA5
:1039ED0054E0FDA3E04D6052900C54E0A3E0FCEDDB
:1039FD00E4FEFF120854900C50120FF61205C3127C
:103A0D000807900C40EDF0A3ECF0900C54E0FDA3F2
:103A1D00E0FCEDE4FEFF120854900C50120FF6126C
:103A2D0005C3120807900A63EDF0A3ECF0900C5457
:103A3D00E4F0A3F0900C50F0A3F0806FB4026AE4B0
:103A4D00A29392E0F40404A2E09293900D04E0FDA1
:103A5D00A3E04D6052900D04E0A3E0FCEDE4FEFF09
:103A6D00120854900D00120FF61205C3120807909C
:103A7D000CF0EDF0A3ECF0900D04E0FDA3E0FCEDF7
:103A8D00E4FEFF120854900D00120FF61205C3123A
:103A9D000807900AEBEDF0A3ECF0900D04E4F0A311
:103AAD00F0900D00F0A3F080028000900032E0F85D
:103ABD00A3E0C0E0E8C0E0229000A4D0E0F0A3D0E5
:103ACD00E0F0E49000A1F0A3F0A3F0A29392E0F453
:103ADD000404A2E092939000AAE0FBA3E0FA900008
:103AED00A6EFF0A3EEF0A3EDF0EA9007DC120D4D7A
:103AFD00EC9007DB120D079000A9F09000B1E0905B
:103B0D0007DA120D07E4FB900006120D4D9000042C
:103B1D00120D4D900002120D4D120D429007DA124A
:103B2D000AAD75F00EA4ABF0FCCBFDCB12163090A8
:103B3D0000A6E0FBA3E0FAA3E0F99007DE120D8EDC
:103B4D0074019007D8120CF99007DB120AA36003D9
:103B5D00023C05C2AF9000AEE06401600274FF0448
:103B6D009000A1FCE02CF09000AFE0600B4387804B
:103B7D009000A1E004F0800753877F9000A1E090B2
:103B8D0000ACE0FDA3E0120A3C0000033BF63BA3B2
:103B9D003BB53BCA3BE09000A1E02402F582E43442
:103BAD0015F583E0F58D80419000A1E004F0E0244F
:103BBD0002F582E43415F583E0F58D802C9000A19B
:103BCD00E02402F0E02402F582E43415F583E0F5FB
:103BDD008D80169000A1E02403F0E02402F582E42C
:103BED003415F583E0F58D8000439850438920D23C
:103BFD008ED2ACD2BC023DED9000AEE0640260020C
:103C0D0074FF04600474048001E49000A1FCE02CB6
:103C1D00F09000ACE0FDA3E0120A3C0000033CA8CC
:103C2D003C353C4F3C6C3C8A9000A1E02408F58269
:103C3D00E43415F583E07D009000A2CDF0A3CDF026
:103C4D0080599000A1E004F0E02408F582E43415D9
:103C5D00F583E07D009000A2CDF0A3CDF0803C90E7
:103C6D0000A1E02402F0E02408F582E43415F58388
:103C7D00E07D009000A2CDF0A3CDF0801E9000A1BC
:103C8D00E02403F0E02408F582E43415F583E07DAB
:103C9D00009000A2CDF0A3CDF080009000B0E044E4
:103CAD0080FC9000A6E0FFA3E0FEA3E0FD9007DC02
:103CBD00120B022403FAE43BFBEAF8EBF97A007BE2
:103CCD0000ECC0E0E4FCFDFF04FE120431EEFFED5C
:103CDD00FEECFDD0E0120D009000A3E0FC9000A6DC
:103CED00E0FFA3E0FEA3E0FD9007DC120B02FAF863
:103CFD00EBF97A007B00ECC0E0E4FCFDFF04FE1262
:103D0D000431EEFFEDFEECFDD0E0120D009000A6AB
:103D1D00E0FFA3E0FEA3E0FD9007DC120B0204FA26
:103D2D0070010BEAF8EBF97A007B00E4FCFDFF046F
:103D3D00FE120431EEFFEDFEECFDE4120D009000DD
:103D4D00B0E0547FFC9000A6E0FFA3E0FEA3E0FDF1
:103D5D009007DC120B022403FAE43BFBEAF8EBF9C3
:103D6D007A007B00ECC0E0E4FCFDFF04FE120431A0
:103D7D00EEFFEDFEECFDD0E0120D009000A6E0FF91
:103D8D00A3E0FEA3E0FD9007DC120B0204FA700124
:103D9D000BEAF8EBF97A007B00E4FCFDFF04FE1260
:103DAD000431EEFFEDFEECFD7401120D009000A646
:103DBD00E0FFA3E0FEA3E0FD9007DC120B0224045C
:103DCD00FAE43BFBEAFCEBFD7E007F00E4F8F9FB37
:103DDD0004FA120431EEFFEDFEECFD740B120D0032
:103DED009000A4E0F8A3E0C0E0E8C0E0229000A1BC
:103DFD00D0E0F0A3D0E0F0E4A29392E0F40404A2AA
:103E0D00E09293A3EFF0A3EEF0A3EDF09007DE1296
:103E1D000B51EC75F00EA4AFF0F5828F83E4FF1219
:103E2D000D379000A3E0FFA3E0A3E09007DE120B97
:103E3D0051EC75F00EA4AFF0F5828F83A3A3E4FFD0
:103E4D00120D379000A3E0FFA3E0A3E09007DE1270
:103E5D000B51EC75F00EA4AFF029F9EA3FFAE4909E
:103E6D000006120CF99000A7E07F00FE9000A3E081
:103E7D00FBA3E0FAA3E0F9EFC0E0EEC0E09007DEAF
:103E8D00120B4BEC75F00EA4ABF02DFDEE3BFED0FE
:103E9D00E0FBD0E0CB900004120D4DEC9000A6F0AD
:103EAD009000A3E0FFA3E0FEA3E0FD9007DE120B60
:103EBD0051EC75F00EA4ADF029F9EA3DFA9000042D
:103ECD00120ACCFC1216309000A3E0FBA3E0FAA37B
:103EDD00E0F9EFC0E0EEC0E0EDC0E09007DE120BC0
:103EED004B9000A6E075F00EA4ABF02DFDEE3BFE61
:103EFD00D0E0F9D0E0FAD0E0FB900007120D9490DD
:103F0D0000A8E0FDA3E0FECDFFCD9000A3E0FBA354
:103F1D00E0FAA3E0F9EFC0E0EEC0E09007DE120B8F
:103F2D004B9000A6E075F00EA4ABF02DFDEE3BFE20
:103F3D00D0E0FBD0E0CB90000A120D4D9000AAE02E
:103F4D00FDA3E0FECDFFCD9000A3E0FBA3E0A3E039
:103F5D00EFC0E0EEC0E09007DE120B4B9000A6E044
:103F6D0075F00EA4ABF02DFDEE3BFED0E0FBD0E0E6
:103F7D00CB90000C120D4D9000A1E0F8A3E0C0E035
:103F8D00E8C0E022E4A29392E0F40404A2E092934C
:103F9D00900091E0FA90008DEFF0A3EEF0A3EDF01C
:103FAD00EAC0E09007DE120B51EC900090F075F036
:103FBD000EA4ADF029F9EA3DFAD0E0900006120CFE
:103FCD00F922900093D0E0F0A3D0E0F0E4A2939218
:103FDD00E0F40404A2E09293E4900092F0EC9000DF
:103FED0098F0900095EFF0A3EEF0A3EDF090009512
:103FFD00E0FFA3E0FEA3E0FD9007DA120AADFC900E
:10400D000092E0C39C400302414B9007DE120B511E
:10401D00900092E075F00EA4ADF029F9EA3DFA900A
:10402D000006120AA3146003024142900098E0902A
:10403D000091F0900095E0A3E0A3E0FD900092E0E8
:10404D00FC124158900095E0FFA3E0FEA3E0FD9027
:10405D0007DE120B51900092E075F00EA4ADF02921
:10406D00F9EA3DFAE9FDEAFEEBFF900095E0FBA3CE
:10407D00E0FAA3E0F9EFC0E0EEC0E0EDC0E090079C
:10408D00DE120B4B900092E075F00EA4ABF02DFDFF
:10409D00EE3BFE90000A120B02F5828B83120F9FEE
:1040AD00D0E0FDD0E0FED0E0FF120FACEC700302CB
:1040BD004142900095E0FFA3E0FEA3E0FD9007DEF6
:1040CD00120B51900092E075F00EA4ADF029F9EAB3
:1040DD003DFAE9FDEAFEEBFF900095E0FBA3E0FA67
:1040ED00A3E0F9EFC0E0EEC0E0EDC0E09007DE1216
:1040FD000B4B900092E075F00EA4ABF02DFDEE3B56
:10410D00FE90000C120B02F5828B83120F9FD0E0F4
:10411D00FDD0E0FED0E0FF120FACEC6018E4900093
:10412D0091F0900095E0FFA3E0FEA3E0FD900092DA
:10413D00E0FC123F91900092E004F0023FFA9000F3
:10414D0093E0F8A3E0C0E0E8C0E022E4A29392E09F
:10415D00F40404A2E0929390008DEFF0A3EEF0A38F
:10416D00EDF09007DE120B51EC75F00EA4AFF029B7
:10417D00F9EA3FFAE92402F9EA3400FA90008DE0F9
:10418D00FFA3E0A3E0EBC0E0EAC0E0E9C0E09007E8
:10419D00DE120B51EC75F00EA4AFF029F9EA3FFADF
:1041AD00900004120ADEFED0E0F9D0E0FAD0E0FB78
:1041BD00EE1203B3EC900090F090008DE0FFA3E0C1
:1041CD00FEA3E09007DE120B51EC75F00EA4ADF0DE
:1041DD00F5828D83A3A3120ACCFC90008DE0FBA386
:1041ED00E0FAA3E0F9EDC0E0ECC0E09007DE120BC1
:1041FD004B900090E075F00EA4ABF0F5828B83121E
:10420D000B02FAD0E0FCD0E0FDEA6C7002EB6D60C1
:10421D00030242A090008DE0FFA3E0FEA3E0FD901D
:10422D0007DE120B51900090E075F00EA4ADF02951
:10423D00F9EA3DFAE4FD041201E990008DE0A3E0F6
:10424D00A3E0FD9007DE120B51900090E075F00E8B
:10425D00A4ADF029F9EA3DFA90008DE0A3E0A3E0CA
:10426D00FDEBC0E0EAC0E0E9C0E09007DE120B51C3
:10427D00900090E075F00EA4ADF029F9EA3DFA90AA
:10428D000004120ACCFCD0E0F9D0E0FAD0E0FBEC4F
:10429D0012034E900091E0FC90008DE0FFA3E0FE34
:1042AD00A3E0FD9007DE120B51900090E075F00E2B
:1042BD00A4AFF029F9EA3FFA900007120B4B9000DA
:1042CD008DE0FBA3E0FAA3E0F9EFC0E0EEC0E0ED76
:1042DD00C0E09007DE120B4B900090E075F00EA43D
:1042ED00ABF02DFDEE3BFEED2402FDEE3400FEE4C1
:1042FD00FB04120273F5828B83D0E0FDD0E0FED07B
:10430D00E0FFEC120D0722E4A29392E0F40404A264
:10431D00E09293900008EFF0A3EEF0A3EDF0900083
:10432D0007120B51EBC0E0EAC0E0E9C0E0900004D9
:10433D00120B02FA120AF5F8EA28FAEB39FBEA2415
:10434D00FFFAEB34FFFB900004120AF0F812018D16
:10435D0088828983D0E0F9D0E0FAD0E0FB120AA37D
:10436D0064FE60037C0022900007120B51EBC0E04D
:10437D00EAC0E0E9C0E0900004120B02FA120AF55F
:10438D00F8EA28FAEB39FBEA24FEFAEB34FFFB904E
:10439D000004120AF0F812018D88828983D0E0F9A9
:1043AD00D0E0FAD0E0FB120AA30460037C0022C225
:1043BD0090900007120B51EBC0E0EAC0E0E9C0E0BD
:1043CD00120B0704FA70010B900004120AF0F81298
:1043DD00018D88828983D0E0F9D0E0FAD0E0FB121C
:1043ED000AA30460037C0022900007120B51EBC05E
:1043FD00E0EAC0E0E9C0E0120B07FA900004120AEF
:10440D00F0F812018D88828983D0E0F9D0E0FAD0DE
:10441D00E0FB120AA30460037C00227C01229000C1
:10442D0015D0E0F0A3D0E0F0E490000CF0A3F0A3E1
:10443D00F0A29392E0F40404A2E0929390000DE4B4
:10444D00F0A37402F0900017EFF0A3EEF0A3EDF0DF
:10445D00C390000EE0940E90000DE09400505A9021
:10446D000017E0FFA3E0FEA3E0FD900007120B5143
:10447D00EBC0E0EAC0E0E9C0E0120B0790000EFCD3
:10448D00E02CFA90000DE03BFB900004120AF0F8CE
:10449D0012018D88828983D0E0F9D0E0FAD0E0FB5B
:1044AD00120AA390000CFCE06CF0A3A3E004F090C2
:1044BD00000D7003E004F08097900017E0FFA3E07B
:1044CD00FEA3E0FD900007120B51EBC0E0EAC0E047
:1044DD00E9C0E0900004120B02FA120AF5F8EA287E
:1044ED00FAEB39FBEA24FDFAEB34FFFB90000412E2
:1044FD000AF0F812018D88828983D0E0F9D0E0FAB4
:10450D00D0E0FB120AA3FC90000CE06C60057C006F
:10451D00024653900007120B51EBC0E0EAC0E0E9F0
:10452D00C0E0120B072402FAE43BFB900004120AD0
:10453D00F0F812018D88828983D0E0F9D0E0FAD0AD
:10454D00E0FB120AA3B44B028003B46B4490001736
:10455D00E0FFA3E0FEA3E0FD900007120B51EBC0BE
:10456D00E0EAC0E0E9C0E0120B072404FAE43BFBEB
:10457D00900004120AF0F812018D88828983D0E030
:10458D00F9D0E0FAD0E0FB120AA39014F5F0024640
:10459D004BB453028008B473028003024647746221
:1045AD0090000FF07408A3F0741CA3F0900017E0B6
:1045BD00FFA3E0FEA3E0FD900007120B51EBC0E05E
:1045CD00EAC0E0E9C0E0120B072407FAE43BFB90D8
:1045DD000004120AF0F812018D88828983D0E0F967
:1045ED00D0E0FAD0E0FB120AA3900012F090000781
:1045FD00120B51EBC0E0EAC0E0E9C0E0120B07245A
:10460D0009FAE43BFB900004120AF0F812018D88C0
:10461D00828983D0E0F9D0E0FAD0E0FB120AA390B2
:10462D000013F0E4A3F07C017D0F7E007F011247A3
:10463D0054EC600280F07C00800C7C0080087401DA
:10464D009014F4F07C00900015E0F8A3E0C0E0E8D1
:10465D00C0E02290008ED0E0F0A3D0E0F074019085
:10466D00008DF0E4A29392E0F40404A2E09293741E
:10467D000E90800AF0741EA3F0A3A3E05480900066
:10468D008DF070307461900887F0740BA3F023A344
:10469D00F003A3F07432A3F07407A3F07C027D87BE
:1046AD007E087F01124754EC600280F090088AE08A
:1046BD009014F1F0908009E0900887F0908008E068
:1046CD00900888F0908007E0900889F0908004E0D1
:1046DD0090088AF0908002E090088BF0908000E0C6
:1046ED0090088CF0900887E0C394645023A3E0C336
:1046FD00940D501CA3E0C394205015A3E0C394184F
:10470D00500EA3E0C3943C5007A3E0C3943C402259
:10471D007463900887F07409A3F0A3F0A3F0A3F0DD
:10472D00A3F07C027D877E087F01124754EC600266
:10473D0080F090088AE09014F1F090008EE0F8A3DC
:10474D00E0C0E0E8C0E022E4A29392E0F40404A209
:10475D00E09293EC90000BF0900008EFF0A3EEF0D8
:10476D00A3EDF0120AA8C394645037900001120A09
:10477D00ADC3940D502C900002120AADC39420507D
:10478D0021900003120AADC3941850169000041224
:10479D000AADC3943C500B900005120AADC3943C76
:1047AD0040037C0122EC6003B4021B120AA8908026
:1047BD0009F0900001120AAD908008F090000212ED
:1047CD000AAD908007F0EC146004ECB4021E90006A
:1047DD0003120AAD908004F0900004120AAD90808F
:1047ED0002F0900005120AAD908000F0908009E073
:1047FD00120D00908008E0900001120D07908007C7
:10480D00E0900002120D07908004E0900003120D5D
:10481D0007908002E0900004120D07908000E09058
:10482D000005120D07120AA8C394645037900001B9
:10483D00120AADC3940D502C900002120AADC39410
:10484D00205021900003120AADC394185016900009
:10485D0004120AADC3943C500B900005120AADC36F
:10486D00943C40037C01227C0022908009E0900062
:10487D0000F0908008E0900001F0908007E090003B
:10488D0002F0908004E0900003F0908002E0900030
:10489D0004F0908000E0900005F0900001E06004CD
:1048AD00A3E0700122900000E0C39464500EA3E0D9
:1048BD00C3940D5007A3E0C39420400122A3E0C38D
:1048CD009418500EA3E0C3943C5007A3E0C3943C4E
:1048DD00400122900000E0900887F0900001E090E8
:1048ED000888F0900002E0900889F0900003E090B5
:1048FD00088AF0900004E090088BF0900005E0909D
:10490D00088CF022E490008DF0A3F0A3F0A2939216
:10491D00E0F40404A2E0929390A000E090008FF0E8
:10492D0090A000E090008EF0FCA3E06C7008900069
:10493D008DE004F0800890A000E090008FF09000D2
:10494D008DE0C3940B4002800280D5A3A3E0FFF459
:10495D00F0600874019014F3F08005E49014F3F006
:10496D0074097D11900893CDF0A3CDF0740D7D11D8
:10497D00A3CDF0A3CDF074057D11A3CDF0A3CDF0A3
:10498D0074F57D10A3CDF0A3CDF074F97D10A3CDFA
:10499D00F0A3CDF074117D11A3CDF0A3CDF074ED86
:1049AD007D10A3CDF0A3CDF074F17D10A3CDF0A3B8
:1049BD00CDF022900093D0E0F0A3D0E0F0E4A293EC
:1049CD0092E0F40404A2E09293900091E4F0A3F03D
:1049DD00C3900092E0940B900091E094004003028C
:1049ED004B2DA3E0FC75F011A424A3FEE43408FFC5
:1049FD00ECFDEEFDEFFE7F01124B46C3900092E001
:104A0D009408900091E094004003024B1CE0FDA33C
:104A1D00E0FC75F016A4FCE5F0CD75F016A42DFDA7
:104A2D00EC24F6FCED340AFDFEECFD7F01124BABE0
:104A3D00900091E0FDA3E0FC75F016A4FCE5F0CD2F
:104A4D0075F016A42DFDEC24A6FCED340BFDFEEC4B
:104A5D00FD7F01124BAB900091E0FDA3E0FC75F0E2
:104A6D0016A4FCE5F0CD75F016A42DFDEC2456FC36
:104A7D00ED340CFDFEECFD7F01124BAB900092E08E
:104A8D002403FC900091E0FFA3E0FE75F011A4FE5D
:104A9D00E5F0CF75F011A42FFFEE245EFEEF340983
:104AAD00FFECFDFCEEFDEFFE7F01124B46900092F8
:104ABD00E02403FC900091E0FFA3E0FE75F011A44B
:104ACD00FEE5F0CF75F011A42FFFEE24E6FEEF34D6
:104ADD0009FFECFDFCEEFDEFFE7F01124B46900051
:104AED0092E02403FC900091E0FFA3E0FE75F0112D
:104AFD00A4FEE5F0CF75F011A42FFFEE246EFEEFAE
:104B0D00340AFFECFDFCEEFDEFFE7F01124B4690EB
:104B1D000092E004F09000917003E004F00249DD92
:104B2D00744E9008B6F074539008C7F0900093E05F
:104B3D00F8A3E0C0E0E8C0E022E4A29392E0F40420
:104B4D0004A2E0929374FFFB120D4290008DEFF0E2
:104B5D00A3EEF0A3EDF0E4900002120D0790000318
:104B6D00120D07900004120D07EC900005120D07B1
:104B7D00900090F0E40B900006120D4D900008127D
:104B8D000D4D90000A120D4D90000C120D4D900020
:104B9D000E120D07141B1490000F120D4D22E4A2DE
:104BAD009392E0F40404A2E09293E4FB120D429080
:104BBD00008DEFF0A3EEF0A3EDF0EB900002120DDF
:104BCD004D900004120D4D900006120D4DF9F8FA9E
:104BDD00900008120DFC90000C120DFC90001012AC
:104BED000DFCE8900014120D4D22900090D0E0F0D5
:104BFD00A3D0E0F0E490008FF0A29392E0F40404CF
:104C0D00A2E09293900887E090088DF0900888E0DC
:104C1D0090088EF0900889E090088FF090088AE057
:104C2D00900890F090088BE0900891F090088CE03F
:104C3D00900892F0907F20E090008FF0FC90088912
:104C4D00E06C6005124C998036907F21E090008FCA
:104C5D00F064556005124C998025907F22E09000FC
:104C6D008FF064AA6005124C998014907F23E09018
:104C7D00008FF064776005124C998003124CEB9015
:104C8D000090E0F8A3E0C0E0E8C0E022E4A2939237
:104C9D00E0F40404A2E09293E490008DF090008D76
:104CAD00E0C394245024E0FC7D007E007F00E4F8F6
:104CBD00FB04FA797F120431EEFFEDFEECFDE412F8
:104CCD000D0090008DE004F080D3900889E0907F76
:104CDD0020F07455A3F023A3F07477A3F022900075
:104CED008DD0E0F0A3D0E0F0E4A29392E0F40404C0
:104CFD00A2E092937D007C00121E39900AFAEDF02D
:104D0D00A3ECF07D017C00121E39900AF8EDF0A3A2
:104D1D00ECF07D007C04121E39900B10EDF0A3EC2D
:104D2D00F07D017C04121E39900B0EEDF0A3ECF01A
:104D3D007D007C08121E39900B26EDF0A3ECF07D62
:104D4D00017C08121E39900B24EDF0A3ECF07D00D0
:104D5D007C0C121E39900B3CEDF0A3ECF07D017C28
:104D6D000C121E39900B3AEDF0A3ECF07D007C1087
:104D7D00121E39900B52EDF0A3ECF07D017C101258
:104D8D001E39900B50EDF0A3ECF0A3E0FDA3E090E5
:104D9D000B4ECDF0A3CDF07D007C14121E39900B7F
:104DAD0068EDF0A3ECF07D017C14121E39900B66BA
:104DBD00EDF0A3ECF0A3E0FDA3E0900B64CDF0A328
:104DCD00CDF07D007C18121E39900B7EEDF0A3EC1A
:104DDD00F07D017C18121E39900B7CEDF0A3ECF0E8
:104DED007D007C1C121E39900B94EDF0A3ECF07D30
:104DFD00017C1C121E39900B92EDF0A3ECF090008B
:104E0D008DE0F8A3E0C0E0E8C0E0229000B2D0E071
:104E1D00F0A3D0E0F0E4A29392E0F40404A2E092B7
:104E2D0093E49014EAF09014EBF09014ECF09014DD
:104E3D00EDF09014EEF09014EFF09014F0F090145B
:104E4D00F1F0C290C291049014F5F0E49014F4F0D6
:104E5D0014900886F0D294E4FD7C64124F00C29445
:104E6D0074019000B1F0149000B0F0049000AFF018
:104E7D009000AEF09000ACE4F0A37402F09000AAA4
:104E8D00E4F0A3F0FC7D067E0D7F01123AC574FDA2
:104E9D007D109000AACDF0A3CDF074017D1190008E
:104EAD00A8CDF0A3CDF074119000A7F07C007D0685
:104EBD007E0D7F01123DFA7401900091F07C007D12
:104ECD00067E0D7F01123F91438905758C00758A11
:104EDD000075C80075CD0075CC00C2ADC2CAD28CAC
:104EED00D2A8C2AAD2AF9000B2E0F8A3E0C0E0E829
:104EFD00C0E022900008E4F0A3F0A3EDF0A3ECF0E5
:104F0D00900008E0FDA3E0FCA3A3E0D39C90000A71
:104F1D00E09D40280CEC70010DEC24FFFCED34FFFE
:104F2D00FDE4A29392E0F40404A2E092930CEC70E1
:104F3D00010D900008EDF0A3ECF080C42290008DDF
:104F4D00D0E0F0A3D0E0F0E4A29392E0F40404A248
:104F5D00E09293900AF6E0FDA3E0900AFACDF0A35B
:104F6D00CDF0900AF8CDF0A3CDF0900AF6E0FDA3B8
:104F7D00E0900BA6CDF0A3CDF0900C56CDF0A3CDC7
:104F8D00F0900B0CE0FDA3E0900B10CDF0A3CDF055
:104F9D00900B0ECDF0A3CDF0900B0CE0FDA3E090A7
:104FAD000BBCCDF0A3CDF0900C6CCDF0A3CDF0905B
:104FBD000B22E0FDA3E0900B26CDF0A3CDF0900BDE
:104FCD0024CDF0A3CDF0900B22E0FDA3E0900BD209
:104FDD00CDF0A3CDF0900C82CDF0A3CDF0900B3899
:104FED00E0FDA3E0900B3CCDF0A3CDF0900B3ACDBE
:104FFD00F0A3CDF0900B38E0FDA3E0900BE8CDF0E1
:10500D00A3CDF0900C98CDF0A3CDF0900B52E0FD18
:10501D00A3E0900B68CDF0A3CDF0900B66CDF0A37F
:10502D00CDF0900B52E0FDA3E0900C14CDF0A3CD8C
:10503D00F0900CC4CDF0A3CDF0900B52E0FDA3E0A9
:10504D00900B64CDF0A3CDF0A3E0FDA3E090000B99
:10505D00CDF0A3CDF0900B68E0FFA3E0FE7C141221
:10506D001D7D900B50E4F0A3F0A3F0A3F0900CAED7
:10507D00F0A3F0900BFEF0A3F0900B4EF0A3F09088
:10508D000B7AE0FDA3E0900B7ECDF0A3CDF0900B5D
:10509D007CCDF0A3CDF0900B7AE0FDA3E0900C2A2F
:1050AD00CDF0A3CDF0900CDACDF0A3CDF0900B9018
:1050BD00E0FDA3E0900B94CDF0A3CDF0900B92CD3D
:1050CD00F0A3CDF0900B90E0FDA3E0900C40CDF05F
:1050DD00A3CDF0900CF0CDF0A3CDF0E4A29392E02F
:1050ED00F40404A2E09293900AF8E0FDA3E090008E
:1050FD000BCDF0A3CDF0900AFAE0FFA3E0FE7C000B
:10510D00121D7D900B0EE0FDA3E090000BCDF0A3E2
:10511D00CDF0900B10E0FFA3E0FE7C04121D7D90FE
:10512D000B24E0FDA3E090000BCDF0A3CDF0900B90
:10513D0026E0FFA3E0FE7C08121D7D900B3AE0FDFA
:10514D00A3E090000BCDF0A3CDF0900B3CE0FFA3BE
:10515D00E0FE7C0C121D7D900B7CE0FDA3E0900029
:10516D000BCDF0A3CDF0900B7EE0FFA3E0FE7C18FD
:10517D00121D7D900B92E0FDA3E090000BCDF0A3EE
:10518D00CDF0900B94E0FFA3E0FE7C1C121D7D90F2
:10519D00008DE0F8A3E0C0E0E8C0E022900098D0D8
:1051AD00E0F0A3D0E0F0E4A29392E0F40404A2E0D6
:1051BD0092939014F5E0120A680105540D51D652E0
:1051CD00BD52495331539E540BE49008A7F0744DD2
:1051DD009008A5F0900096E4F0A3F0C3900097E03E
:1051ED009408900096E09400504FE0FFA3E0FEEF8E
:1051FD00FDEEFC75F011A4FCE5F0CD75F011A42DBC
:10520D00FDEC245EF582ED3409F583EE240375F093
:10521D0011A4AC82AD8324A3F582E43408F583ECAC
:10522D00F9EDFA7B117801120ED40EEE70010F908C
:10523D000096EFF0A3EEF080A202540F74019008D7
:10524D00A7F0744D9008A5F0900096E4F0A3F0C37C
:10525D00900097E09408900096E09400504FE0FF86
:10526D00A3E0FEEFFDEEFC75F011A4FCE5F0CD75AD
:10527D00F011A42DFDEC245EF582ED3409F583EEDD
:10528D00240375F011A4AC82AD8324A3F582E4341C
:10529D0008F583ECF9EDFA7B117801120ED40EEEC0
:1052AD0070010F900096EFF0A3EEF080A202540F64
:1052BD0074029008A7F0744D9008A5F0900096E444
:1052CD00F0A3F0C3900097E09408900096E094004E
:1052DD00504FE0FFA3E0FEEFFDEEFC75F011A4FCD6
:1052ED00E5F0CD75F011A42DFDEC245EF582ED34C5
:1052FD0009F583EE240375F011A4AC82AD8324A3CC
:10530D00F582E43408F583ECF9EDFA7B117801129E
:10531D000ED40EEE70010F900096EFF0A3EEF0801C
:10532D00A202540F74549008A5F0900096E4F0A3D7
:10533D00F0C3900097E09408900096E09400504FD1
:10534D00E0FFA3E0FEEFFDEEFC75F011A4FCE5F02F
:10535D00CD75F011A42DFDEC24E6F582ED3409F5A3
:10536D0083EE240375F011A4AC82AD8324A3F582E2
:10537D00E43408F583ECF9EDFA7B117801120ED4C3
:10538D000EEE70010F900096EFF0A3EEF080A2806C
:10539D0071746F9008A5F0900096E4F0A3F0C3909F
:1053AD000097E09408900096E09400504FE0FFA322
:1053BD00E0FEEFFDEEFC75F011A4FCE5F0CD75F00F
:1053CD0011A42DFDEC246EF582ED340AF583EE2447
:1053DD000375F011A4AC82AD8324A3F582E43408E7
:1053ED00F583ECF9EDFA7B117801120ED40EEE7007
:1053FD00010F900096EFF0A3EEF080A280048010D4
:10540D00800E12542A9014F0E06005E4F0124F4A19
:10541D00900098E0F8A3E0C0E0E8C0E0229000948E
:10542D00D0E0F0A3D0E0F0900092E4F0A3F0A293CE
:10543D0092E0F40404A2E0929390008EE4F0A37441
:10544D0003F0C390008FE0940690008EE09400402E
:10545D000302557AE0FDA3E0FC75F011A4FCE5F024
:10546D00CD75F011A42D900092F0A3CCF0CC90004E
:10547D008EE0FFA3E0FE24FDCEFCCEFDEC75F01119
:10548D00A424A7F582E43408F583EDF0EE24FDCED7
:10549D00FCCEFDEC75F011A424A8F582E43408F5DA
:1054AD0083EDF0EE75F011A424A5F582E43408F532
:1054BD0083744DF0EE75F011A424B1F582E4340837
:1054CD00F583E4F0A29392E0F40404A2E0929390A9
:1054DD000090E4F0A3F0C3900091E094119000903F
:1054ED00E094004003025569D3A3E094019000902D
:1054FD00E09400403EC3A3E0940E900090E0940031
:10550D00503190008FE075F011A424B1F582E43490
:10551D0008F583AC82AD83900093E0FE900091E09E
:10552D002E24A3F582E43408F583E08C828D83FC70
:10553D00E06CF0900093E0FC900091E02C24A3F53A
:10554D0082E43408F583E0FC125587900091E00465
:10555D00F09000907003E004F00254E390008FE0AF
:10556D0004F090008E7003E004F002544F9000940C
:10557D00E0F8A3E0C0E0E8C0E022E4A29392E0F4FA
:10558D000404A2E09293900D0CE0FFA3E0FEE00472
:10559D00F0900D0C7003E004F0EE240EF582EF3464
:1055AD000DF583ECF090008DF0C3900D0DE094E8B7
:1055BD00900D0CE094034004E4F0A3F022900099C8
:1055CD00D0E0F0A3D0E0F0E4A29392E0F40404A2C2
:1055DD00E09293900D06E0FDA3E0FCA3A3E06C70B8
:1055ED0007900D08E06D60449014DFE07002803C80
:1055FD00ECFEEDFFCC2401CCCD3400CD900D06EDAD
:10560D00F0A3ECF0EE24F6F582EF3410F583E0FC18
:10561D007D067E0D7F01123FCFC3900D07E094E80C
:10562D00900D06E094034004E4F0A3F0900099E09F
:10563D00F8A3E0C0E0E8C0E022E4A29392E0F40415
:10564D0004A2E09293900D0AE0FDA3E0FCA3A3E079
:10565D006C7007900D0CE06D60469014DEE0603EBE
:10566D00C2AFECFEEDFFCC2401CCCD3400CD900DBE
:10567D000AEDF0A3ECF0EE240EF582EF340DF58378
:10568D00E0F599D2AFC3EC94E8ED9403400BE4FC44
:10569D00FD900D0AEDF0A3ECF0E49014DEF0800621
:1056AD0074019014DFF022C0E0C0F0C082C083C04E
:1056BD00D0E8C0E0E9C0E0EAC0E0EBC0E0ECC0E05B
:1056CD00EDC0E0EEC0E0EFC0E0900006D0E0F0A34A
:1056DD00D0E0F0C2A8124877900892E0FC90088CB8
:1056ED00E06C70030257D89014EAE070037401F077
:1056FD00900887E090088DF0900888E090088EF073
:10570D00900889E090088FF090088AE0900890F05A
:10571D0090088BE0900891F090088CE0FC90089236
:10572D00F0900891E075F00A84E5F0700EEC700BC6
:10573D0074019014ECF0149014EDF09014F1E0FC61
:10574D00900890E06C6025E0FC9014F1F0740190ED
:10575D0014EEF0149014EFF0900890E0700E900895
:10576D008FE0907F20F074019014F0F0900892E09B
:10577D0075F00384E5F0705390088DE07D0090087E
:10578D00BACDF0A3CDF090088EE09008BCCDF0A37B
:10579D00CDF090088FE09008BECDF0A3CDF090082D
:1057AD0090E09008CBCDF0A3CDF0900891E090085B
:1057BD00CDCDF0A3CDF0900892E09008CFCDF0A321
:1057CD00CDF09014F4E070037401F0D2A8900006AF
:1057DD00E0F8A3E0C0E0E8C0E0D0E0FFD0E0FED00C
:1057ED00E0FDD0E0FCD0E0FBD0E0FAD0E0F9D0E075
:1057FD00F8D0D0D083D082D0F0D0E032C0E0C082DB
:10580D00C083C0D0ECC0E0EDC0E0EEC0E0EFC0E082
:10581D00C2BC30983BC298D290E599900D08FEE03D
:10582D00FDA3E0FCE004F0900D087003E004F0EC43
:10583D0024F6F582ED3410F583EEF0C3900D09E0FA
:10584D0094E8900D08E094034004E4F0A3F0805B2D
:10585D00309958C299D291900D0AE0FDA3E0FCA3B6
:10586D00A3E06C7007900D0CE06D6037ECFEEDFF62
:10587D00CC2401CCCD3400CD900D0AEDF0A3ECF08D
:10588D00EE240EF582EF340DF583E0F599C3EC941B
:10589D00E8ED9403400BE4FCFD900D0AEDF0A3EC54
:1058AD00F0800874019014DEF0C291D2BCD0E0FFFC
:1058BD00D0E0FED0E0FDD0E0FCD0D0D083D082D0BF
:1058CD00E0329000B4D0E0F0A3D0E0F0E4A29392E7
:1058DD00E0F40404A2E092931246601249111249B9
:1058ED00C0124E18124BF7E4A29392E0F40404A2F6
:1058FD00E092931256461255CA9014EAE060239036
:10590D0014EBE0FC04F0EC25E02493F582E434087C
:10591D00F583E0FDA3E0F5828D83120F9F7C0012CD
:10592D000FAC9014ECE060239014EDE0FC04F0EC6F
:10593D0025E02493F582E43408F583E0FDA3E0F53A
:10594D00828D83120F9F7C01120FAC9014EEE060DC
:10595D00239014EFE0FC04F0EC25E02493F582E4B1
:10596D003408F583E0FDA3E0F5828D83120F9F7C53
:10597D0002120FAC1256461255CA9014EBE0C394A6
:10598D00084006E4F09014EAF09014EDE0C394089A
:10599D004006E4F09014ECF09014EFE0C39408404E
:1059AD0006E4F09014EEF01256461255CA9014F417
:1059BD00E060081251A9E49014F4F00258F490003C
:0B59CD00B4E0F8A3E0C0E0E8C0E02276
:1059DE005B2A5D2D2D2D2D2D2D2D2D2D2D2D2D2D8E
:1059EE002D2D2D2D2D2D2D2D2D2D2D2D2D2D2D2DD9
:1059FE002D2D2D2D2D2D2D2D2D2D2D2D2D2D2D2DC9
:105A0E002D2D2D2D2D2D2D2D5B2A5D005B2A5D203C
:105A1E00204A494E2D59414E472020494E44555358
:105A2E00545249414C2E2C434F204C54442020209C
:105A3E002020202020202020202020202020202058
:105A4E00202020205B2A5D005B2A5D202050726F93
:105A5E006772616D203A205041524B2E204A4F4EB4
:105A6E0047204B494C20202044617465203A203158
:105A7E003939382E20372E2032307E20202020201B
:105A8E005B2A5D005B2A5D202050726F6772616D2C
:105A9E0020456E64203A20313939372C2031312C93
:105AAE0020323020202020202020202020202020C6
:105ABE002020202020202020202020205B2A5D0076
:105ACE005B2A5D2D2D2D2D2D2D2D2D2D2D2D2D2D9D
:105ADE002D2D2D2D2D2D2D2D2D2D2D2D2D2D2D2DE8
:105AEE002D2D2D2D2D2D2D2D2D2D2D2D2D2D2D2DD8
