:03000000020026D5
:1000260075812778277600D8FC90013FAE83AF8292
:1000360090000E1200646005E4F0A380F69000C202
:1000460012006D9000C612006D9000CA12008B90CF
:1000560000D012008B75D000120B600200D6EF653F
:10006600827003EE658322E493F8740193F97402B7
:1000760093FE740393F5828E83E869700122E493FC
:10008600F6A30880F4E493FC740193FD740293FED6
:10009600740393FF740493F8740593F582888312AE
:1000A6000064700122E493A3A883A9828C838D82C5
:1000B600F0A3AC83AD828883898280E3282802611D
:1000C60028280261013F026802610146026802684F
:0200D60080FEAA
:1000D800EBC9FBEAC8FAEB335008E4C39AFAE49B8D
:1000E800FBD392F0E930E709B2F0C3E498F8E49959
:1000F800F912012B30F008C3E498F8E499F9482282
:10010800EBC9FBEAC8FA89F01200DE20F706EAF824
:0D011800EBF94822C3E49AF8E49BF9482271
:10012500EBC9FBEAC8FAE94B7010E8C0F08AF08425
:10013500F8AAF0D0F079007B0022ECC0E0EDC0E039
:10014500EEC0E07D007E007C10C3E833F8E933F9AA
:10015500ED33FDEE33FEED9AEE9B4005FEED9AFD87
:1001650008DCE6EDFAEEFBD0E0FED0E0FDD0E0FCE9
:03017500E8492234
:0F017800EBC9FBEAC8FA12012BEAF8EBF94822AF
:10018700BB0003740922BB010789828A8374042296
:0D019700BB020789828A83741022740A2239
:1001A400BB0007E92582F8740122BB010DE9258211
:1001B400F582EA3583F583740422BB020DE92582B6
:1001C400F582EA3583F583741022E92582F87402F6
:0101D4002208
:1001D500BF0005EDF8740122BF01078D828E83747F
:1001E5000422BF02078D828E83741022EDF87402FB
:0101F50022E7
:1001F600BF0007ED2582F8740122BF010DED2582AF
:10020600F582EE3583F583740422BF020DED258257
:10021600F582EE3583F583741022ED2582F874029B
:0102260022B5
:10022700C0E01201878013C0E01201A4800CC0E077
:100237001201D58005C0E01201F630E00B20E3047F
:10024700D0E0F622D0E0F72230E10B20E304D0E043
:0A025700F222D0E0F322D0E0F02202
:10026800C2AF7590FF758780759850758921758D17
:10027800E8758C4B758AFED28CD28ED2A9C2ABD2CD
:10028800ADC2A8C2AAD2BCD2ACE490013FF09001A2
:1002980040F0D2AF22C0E0C0F0C082C083C0D0E836
:1002A800C0E0E9C0E0EAC0E0EBC0E0ECC0E0EDC0CF
:1002B800E0EEC0E0EFC0E0900002E4F0A304F0E458
:1002C800A3F0A3F0900141F0900132F0A3F0900167
:1002D80040E075F09284E5F0F090013FE0FC900179
:1002E80040E06C700C0CEC75F09284E5F090013FE6
:1002F800F0E599900140FCE0FD04F0ED240EF58254
:10030800E43400F583ECF0900003E01470049000EE
:1003180002E0701E90013FE075F09284E5F0240E33
:10032800F582E43400F583E0046007900002E4F00D
:10033800A3F0900003E0147004900002E0702D9088
:10034800013FE07D002404FCE43DFDE4FB7A92ECEF
:10035800F8EDF912010EE8240EF582E43400F58375
:10036800E0644D6007900002E4F0A3F0900003E021
:10037800147004900002E0702C90013FE07D00248E
:1003880090FCE43DFDE4FB7A92ECF8EDF912010EE5
:10039800E8240EF582E43400F583E0046007900059
:1003A80002E4F0A3F0900003E0147004900002E06F
:1003B80060030204BEE4900004F0A3F0049001423C
:1003C800F0900000E4F0A37402F0C3900001E09400
:1003D80092900000E06480948040030204609001E1
:1003E8003FE07D00900000FCE0FFA3E0FEEC2EFC67
:1003F800ED3FFDE4FB7A92ECF8EDF912010EE824EA
:100408000EF582E43400F583E0CEFCCEFDEC24A0AA
:10041800F582E43400F583EDF0C3EE948EEF64804A
:1004280094805024EE24A0F582E43400F583E09013
:100438000004FCE06CF0EE24A0F582E43400F583BF
:10044800E0900005FCE02CF00EEE70010F9000002B
:10045800EFF0A3EEF00203D290013FE07D00248E7E
:10046800FCE43DFDE4FB7A92ECF8EDF912010EE8AC
:10047800240EF582E43400F583E0FC900004E06C7F
:100488006005E4900142F090013FE07D00248FFC7C
:10049800E43DFDE4FB7A92ECF8EDF912010EE82454
:1004A8000EF582E43400F583E0FC900005E06C6012
:1004B80005E4900142F0C299C298D0E0FFD0E0FE76
:1004C800D0E0FDD0E0FCD0E0FBD0E0FAD0E0F9D0FD
:1004D800E0F8D0D0D083D082D0F0D0E032900008BD
:1004E800E4F0A3F0C3900009E09410900008E064E1
:1004F800809480503BE4FDFE04FFA3E02DFD9000B6
:1005080008E03EFE2480FEE4120235FEFD9000095C
:10051800E02DFD900008E03EFE2490FEE412023536
:10052800900009E004F09000087003E004F080B443
:10053800E4F0A3F0C3900009E09410900008E06490
:10054800809480504FE4FDFE04FFA3E02DFD900051
:1005580008E03EFEED2403FDEE3480FE743F1202F7
:1005680035E4FDFE900009E02DFD900008E03EFE18
:10057800ED2403FDEE3490FE743F1202359000081E
:10058800E0FFA3E0FE2404FEE43F900008F0A3CEC1
:10059800F0CE80A022900008E4F0A3F0C3900009F8
:1005A800E09410900008E064809480503BE4FDFEE5
:1005B80004FFA3E02DFD900008E03EFE2480FEE449
:1005C800120235FEFD900009E02DFD900008E03E86
:1005D800FE2490FEE4120235900009E004F0900039
:1005E800087003E004F080B4E4F0A3F0C3900009BD
:1005F800E09410900008E064809480503EE4FDFE92
:1006080004FFA3E02DFD900008E03EFE2480FE7468
:100618007F120235E4FDFE900009E02DFD900008F0
:10062800E03EFE2490FE747F120235900009E0043B
:10063800F09000087003E004F080B122900006E416
:10064800F0A3F0C3900007E09410900006E06480E7
:100658009480503BE4FDFE04FFA3E02DFD900006CE
:10066800E03EFE2480FEE4120235FEFD900007E025
:100678002DFD900006E03EFE2490FEE41202359027
:100688000007E004F09000067003E004F080B42254
:10069800900008E4F0A3F0C3900009E094309000C3
:1006A80008E0648094F5500EA3E004F09000087010
:1006B80003E004F080E12290000CE4F0A3740AF057
:1006C800C390000DE0948890000CE0648094804012
:1006D800030207DEA3E024A0F582E43400F583E0FA
:1006E800B44D0280030207C690000DE0900144F06B
:1006F80090000DE0240224A0F582E43400F583E0A4
:10070800900143F0700D1209217C037D80120820AE
:100718000207C6B4010D1209217C077D801208204A
:100728000207C6B4025590000DE0240324A0F58208
:10073800E43400F583E0B40240120A067C0B7D80A5
:10074800120820900145E01470067440908008F06B
:10075800E4900145F0900144E0FF2404F0120A06F9
:100768007C0F7D80120820900145E01470067440CB
:1007780090800CF0E4900145F08043B4031E120908
:10078800217C037D90120820900144E0FF2404F0AE
:100798001209217C077D901208208022B4061F9040
:1007A800000DE0240324A0F582E43400F583E0B4CE
:1007B800040A1209217C0B7D901208208000900009
:1007C8000CE0FFA3E0FE240CFEE43F90000CF0A335
:1007D800CEF0CE0206C822C0E0C082C083C0D07569
:1007E8008C4B758AFE900133E004F090013270035F
:1007F800E004F0C3A3E09410900132E06480948E8A
:10080800400D900141E004F0900132E4F0A3F0D0F3
:10081800D0D083D082D0E032900008E4F0A3F0A3D7
:10082800EDF0A3ECF0C3900009E09404900008E018
:1008380064809480502DA3A3E0FDA3E0C390000939
:10084800FEE0CE9EFC900008E0FEED9EFD8C828DC1
:1008580083E4F0900009E004F09000087003E004DD
:10086800F080C2900135E0604A900C52937D007E82
:10087800007F0190000BFCE02DFD90000AE03EFE99
:10088800ED24FDFDEE34FFFEEC120235900136E05A
:10089800900C52937D007E0090000BFCE02DFD90A3
:1008A800000AE03EFEED24FEFDEE34FFFEEC1202EF
:1008B800358027A3E06023900C52937D007E007F53
:1008C8000190000BFCE02DFD90000AE03EFEED24B7
:1008D800FEFDEE34FFFEEC120235900137E0900C7D
:1008E80052937D007E007F0190000BFCE02DFD906F
:1008F800000AE03EFEED1D70011EEC12023590016B
:1009080038E0900C5293FE90000BE090000AFDE056
:10091800CDFCEE8C828D83F022900144E0240424E7
:10092800A0F582E43400F583E0FC900144E024055E
:1009380024A0F582E43400F583E0FDEC90013DF05D
:100948007F007E00FFED90013EF07D00FCEE9001FF
:1009580039CFF0A3CFF0ECED4FCCFECCFF900139AE
:10096800EFF0A3EEF090013BEFF0A3EEF07A107BEE
:1009780027F8EFF912012BE8900134F07A107B2761
:1009880090013BE0F9A3E0F812017E90013BE9F009
:10099800A3E8F07B037AE812012BE8900135F07B9D
:1009A800037AE890013BE0F9A3E0F812017E900198
:1009B8003BE9F0A3E8F0E4FB7A6412012BE890012C
:1009C80036F0E4FB7A6490013BE0F9A3E0F8120109
:1009D8007E90013BE9F0A3E8F0E4FB7A0A12012BD0
:1009E800E8900137F090013BE0FDA3E0FCE4FB7ADE
:1009F8000AECF8EDF912017EE8900138F022900136
:100A080044E0240424A0F582E43400F583E0FC905B
:100A18000144E0240524A0F582E43400F583E0FDD8
:100A2800EC90013DF07F007E00FFED90013EF07DEF
:100A380000FCEE900139CFF0A3CFF0ECED4FCCFEE7
:100A4800CCFF900139EFF0A3EEF090013BEFF0A35B
:100A5800EEF0C394E8EF9403501D7D0374E8C39E41
:100A6800FCED9FCCFECCFF90013BEFF0A3EEF074C1
:100A780001900145F08014EE2418FEEF34FC90013B
:100A88003BF0A3CEF0CEED900145F090013BE0FDA8
:100A9800A3E0FC7A107B27F8EDF912012BE890010E
:100AA80034F07A107B2790013BE0F9A3E0F81201BB
:100AB8007E90013BE9F0A3E8F07B037AE812012B72
:100AC800E8900135F07B037AE890013BE0F9A3E078
:100AD800F812017E90013BE9F0A3E8F0E4FB7A64A8
:100AE80012012BE8900136F0E4FB7A6490013BE0B8
:100AF800F9A3E0F812017E90013BE9F0A3E8F0E4E5
:100B0800FB7A0A12012BE8900137F090013BE0FDD7
:100B1800A3E0FCE4FB7A0AECF8EDF912017EE89018
:100B28000138F022900008E4F0A3740EF090000859
:100B3800E0C394015021900009E0900008FDE0CD49
:100B4800FCE48C828D83F0900009E004F0900008AA
:100B58007003E004F080D62212026812059D120686
:100B6800981204E5120B2CE4900145F012059D1231
:100B780006981206981204E5120698120698E49050
:100B88000134F0A3F0A3F0A3F0A3F07C037D80125E
:100B980008207C077D80120820E4900134F074025C
:100BA800A3F004A3F004A3F004A3F07C0B7D80124F
:100BB80008207440908008F0E4900134F07403A396
:100BC800F004A3F004A3F004A3F07C0F7D801208C6
:100BD80020744090800CF0E4900134F07404A3F089
:100BE80004A3F004A3F004A3F07C037D9012082072
:100BF800E4900134F07405A3F004A3F004A3F00416
:100C0800A3F07C077D90120820E4900134F074066C
:100C1800A3F004A3F004A3F004A3F07C0B7D9012CE
:100C28000820120698120698020B74900141E060A1
:100C3800081204E5E4900141F0900142E0147008C4
:0A0C48001206BFE4900142F080E1C3
:100C52003F065B4F666D7D077F6F31393936202045
:100C620020322032352044455349474E45442042E4
:100C720059204B59554E4720574F4F204C45452040
:100C82002D2D004A494E2059414E4720494E445588
:100C920053545249414C20434F2E2C204C54442E45
:100CA2002054454C202830333432292034312D371A
:100CB200373431003232332D33392053414E4744D9
:100CC2004145574F4E444F4E47204A554E47574F86
:100CD2004E47552053554E474E414D204349545996
:100CE200204B59554E474749444F204B4F5245419F
:010CF2000001
:03000B000207DF0A
:0300230002029D39
:070261000000000000000096
:00000001FF
:00000001FF
