:04043C0007220F3252
:03000000020026D5
:1000260075812278227600D8FC900FBEAE83AF820F
:10003600900F851200646005E4F0A380F69000C27C
:1000460012006D9000C612006D9000CA12008B90CF
:1000560000D012008B75D0001207940200D6EF650F
:10006600827003EE658322E493F8740193F97402B7
:1000760093FE740393F5828E83E869700122E493FC
:10008600F6A30880F4E493FC740193FD740293FED6
:10009600740393FF740493F8740593F582888312AE
:1000A6000064700122E493A3A883A9828C838D82C5
:1000B600F0A3AC83AD828883898280E32323042264
:1000C600232304220FBE043C04220FD804A804A84C
:0200D60080FEAA
:1004A800900F3BE4F0A3F0900F421203FE900F422E
:1004B8001203CD1201E6900F36F064256038E07023
:1004C80009900F3BE0FDA3E0FC22900F47120410B7
:1004D800900F36E0FC900F45E0FBA3E0F5828B839C
:1004E8001203EF1203FC900F3CE004F0900F3B70F6
:1004F80003E004F080B7900F421203CD1201E6909A
:100508000F36F0B46350900F4A120410120259E9E2
:10051800C0E07402120191D0E0F9C92401C9CA34BB
:1005280000CA1201DC900F36F0900F4712041090A9
:100538000F36E0FC900F45E0FBA3E0F5828B8312B9
:1005480003EF1203FC900F3CE004F0900F3B7003A4
:10055800E004F00204B5B4735B900F4A1204101261
:100568000259E9C0E07403120191D0E0F912025374
:10057800900F3F1203FE900F3F1203CD1201E69039
:100588000F36F0602C900F47120410900F36E0FCE5
:10059800900F45E0FBA3E0F5828B831203EF120373
:1005A800FC900F3CE004F0900F3B7003E004F080F7
:1005B800C50204B5B46F14900F3DE4F0A37408F0BD
:1005C800900F397480F0A3E4F08030B46415900F74
:1005D8003DE4F0A3740AF0900F397427F0A3741067
:1005E800F08018B478028003020531900F3DE4F0E2
:1005F800A37410F0900F39F0A3E4F0900F4A12049E
:1006080010120259E9C0E07402120191D0E0F91207
:10061800020F900F37CDF0A3CDF0900F36E0B46401
:100628000280030206A0ED335037A3A3C3E0FCE425
:100638009CF0900F37E0FCE49CF0900F47120410F8
:10064800900F45E0FCA3E0F5828C831203EF7C2D2C
:100658001203FC900F3CE004F0900F3B7003E004A1
:10066800F0900F39E0FFA3E0FED3EE9401EF940081
:10067800401E900F38E0C39E900F37E09F5011E462
:10068800FB7A0AEEF8EFF91200DEE8FEE9FF80D9FE
:10069800900F39EFF0A3EEF0900F37E0FDA3E0A341
:1006A800FCE0FBA3E0FAECF8EDF91200DEE8900FAD
:1006B8002093FC900F47120410900F45E0FBA3E035
:1006C800F5828B831203EF1203FC900F3CE004F0D9
:1006D800900F3B7003E004F0900F39E0FDA3E0FCBD
:1006E800FAEDFB900F37E0F9A3E0F8120131900F13
:1006F80037E9F0A3E8F0900F3DE0FDA3E0FCFAED48
:10070800FB900F39E0F9A3E0F81200DE900F39E909
:0A071800F0A3E8F04970810204B577
:100F2000303132333435363738394142434445461F
:010F300000C0
:10072200120259E9C0E07401120191D0E0F9EC1211
:10073200039322900F521203FE79587A0F7B019095
:100742000F4D120407794D7A0F900F4A1204077960
:10075200527A0F900F47120407743C7B04900F45A6
:10076200CBF0A3CBF0900F551204101204A8900FF7
:0907720052120419E4120393224F
:1000D800EBC9FBEAC8FAE94B7010E8C0F08AF08473
:1000E800F8AAF0D0F079007B0022ECC0E0EDC0E087
:1000F800EEC0E07D007E007C10C3E833F8E933F9F8
:10010800ED33FDEE33FEED9AEE9B4005FEED9AFDD4
:1001180008DCE6EDFAEEFBD0E0FED0E0FDD0E0FC36
:03012800E8492281
:0F012B00EBC9FBEAC8FA1200DEEAF8EBF948224A
:10013A0030E01B20E30C08E625F0F6F5F018E63C63
:10014A00F62209E725F0F7F5F019E73CF72230E245
:10015A0011C083A3E025F0F5F0F01582D083E03CCE
:10016A00F02220E30C08E225F0F2F5F018E23CF266
:0D017A002209E325F0F3F5F019E33CF32230
:10018700F5F0E9CCF9120341800D7900900001F5F3
:0F019700F0E9CCF912036212013AC9FCE5F0223B
:1001A600D083D082F5F0C3E493A3C5F095F0C0E008
:1001B600C3D0F0E493A395F04012A3A3C3E5F033B4
:1001C600500205832582F58250020583740193C08F
:0601D600E0E493C0E0220A
:1001DC001202F3800D1203108008120341800312E7
:1001EC00036230E00720E302E622E72230E1072039
:0E01FC00E302E222E32230E202E022E4932258
:10020A0012031080031202F3ADF012021CCDC5F0E6
:02021A00CD22F3
:10021C0030E01020E306E6F5F008E622E7F5F009F9
:10022C00E7192230E11020E306E2F5F008E222E3C0
:10023C00F5F009E3192230E206E0F5F0A3E022E440
:07024C0093F5F07401932209
:060253001202F30202A7F3
:0602590012034102025FE6
:10025F0030E01520E309E6FB08E6FA08E6F922E7A5
:10026F00FB09E7FA09E7F92230E11520E309E2FB80
:10027F0008E2FA08E2F922E3FB09E3FA09E3F922BB
:10028F0030E209E0FBA3E0FAA3E0F922E493FB7468
:08029F000193FA740293F922A5
:1002A70030E01720E309E6FF08E6FE08E6FD22E74F
:1002B700FF09E7FE09E7FD19192230E11720E309D5
:1002C700E2FF08E2FE08E2FD22E3FF09E3FE09E39D
:1002D700FD19192230E209E0FFA3E0FEA3E0FD22A9
:0C02E700E493FF740193FE740293FD2267
:1002F300BB0003740922BB010789828A8374042229
:0D030300BB020789828A83741022740A22CB
:10031000BB0007E92582F8740122BB010DE92582A3
:10032000F582EA3583F583740422BB020DE9258248
:10033000F582EA3583F583741022E92582F8740288
:01034000229A
:10034100BF0005EDF8740122BF01078D828E837411
:100351000422BF02078D828E83741022EDF874028D
:010361002279
:10036200BF0007ED2582F8740122BF010DED258241
:10037200F582EE3583F583740422BF020DED2582EA
:10038200F582EE3583F583741022ED2582F874022E
:010392002248
:10039300C0E01202F38013C0E0120310800CC0E02F
:1003A3001203418005C0E012036230E00B20E30436
:1003B300D0E0F622D0E0F72230E10B20E304D0E0D6
:0A03C300F222D0E0F322D0E0F02295
:1003CD00E0FFA3E0FEC083A3E0FD04F01582D0831F
:0603DD007003E004F022B1
:0C03E300EEFAEDF904FD70010EEFFB22B4
:0D03EF00740193F5F0E493F58385F082220C
:0203FC00E473A8
:0903FE00EFF0A3EEF0A3EDF022F4
:09040700EBF0A3EAF0A3E9F022F6
:09041000E0FFA3E0FEA3E0FD22E1
:09041900E0FBA3E0FAA3E0F922E4
:10077B0075A880758780758925758DFA758BFA75C7
:10078B009850D28ED2BCD2AC2212077B120B06121F
:10079B000DA874FF900F93F07590F074F0900F9478
:1007AB00F0C200120B7F7F037E157D017C61120E60
:1007BB00427E007D0A7C10120E7F7C01120EB3EC80
:1007CB00900F85F0900F8CF07C02120EB3EC900F13
:1007DB0086F0900F8DF07C03120EB3EC900F87F028
:1007EB00900F8EF07C04120EB3EC900F88F0900FEC
:1007FB008FF07C05120EB3EC900F89F0900F90F0F8
:10080B007C06120EB3EC900F8AF0900F91F07C07E0
:10081B00120EB3EC900F8BF0900F92F074FF900FC1
:10082B0096F0A3F07452A3F0E4A3F0A3F0A3F0A30B
:10083B00F0A3F0A3F014A3F014A3F07402900F76BE
:10084B00F0E4900F76F0801AE02496F582E4340FF2
:10085B00F583E0900F9EFCE06CF0900F76E004F0D7
:10086B0080DFF0900F93E0601EC394014008B40347
:10087B0000B34002800CB403028007B4060280026E
:10088B008000E4900F93F0900F94E064F060297572
:10089B0090F0120B7FE4900F76F0900F76E0C394FC
:1008AB000C5015E02496F582E4340FF583E0F599AE
:1008BB00900F76E004F080E2200003020A77900F9D
:1008CB00AEE07D00900F60CDF0A3CDF0900FADE0CA
:1008DB00900F5ECDF0A3CDF0900FACE0900F5CCD00
:1008EB00F0A3CDF0900FABE0900F5ACDF0A3CDF06D
:1008FB00900FAAE0900F58CDF0A3CDF07D8F7E0422
:10090B007F02900F55EFF0A3EEF0A3EDF07D627E2A
:10091B000F1F120735E4900F41F07D627E0F7F01B0
:10092B00900F3EEFF0A3EEF0A3EDF07D007C0012F4
:10093B000B8D900FB3E07D00900F60CDF0A3CDF049
:10094B00900FB2E0900F5ECDF0A3CDF0900FB1E021
:10095B00900F5CCDF0A3CDF0900FB0E0900F5ACD7F
:10096B00F0A3CDF0900FAFE0900F58CDF0A3CDF0EA
:10097B007D8F7E047F02900F55EFF0A3EEF0A3ED79
:10098B00F07D627E0F1F120735E4900F41F07D6200
:10099B007E0F7F01900F3EEFF0A3EEF0A3EDF07D05
:1009AB00017C00120B8D900FB8E07D00900F60CD95
:1009BB00F0A3CDF0900FB7E0900F5ECDF0A3CDF08C
:1009CB00900FB6E0900F5CCDF0A3CDF0900FB5E09B
:1009DB00900F5ACDF0A3CDF0900FB4E0900F58CDFF
:1009EB00F0A3CDF07D8F7E047F02900F55EFF0A327
:1009FB00EEF0A3EDF07D627E0F1F120735E4900F32
:100A0B0041F07D627E0F7F01900F3EEFF0A3EEF081
:100A1B00A3EDF07D027C00120B8D900FBAE07D00F0
:100A2B00900F5ACDF0A3CDF0900FB9E0900F58CDA9
:100A3B00F0A3CDF07D9F7E047F02900F55EFF0A3C6
:100A4B00EEF0A3EDF07D627E0F1F120735E4900FE1
:100A5B0041F07D627E0F7F01900F3EEFF0A3EEF031
:100A6B00A3EDF07D037C00120B8DC200E590900F7F
:100A7B0094F002086EC0E0C082C083C0D0ECC0E02E
:100A8B00EDC0E0E4900F31F0309904C299805DC263
:100A9B0098F0E599900FD6FCE0FD04F0ED24AAF553
:100AAB0082E4340FF583ECF0900FD6E0B4113D7473
:100ABB0002F0900FD6E0C3940C501AE024AAF582F2
:100ACB00E4340FF583E0900F31FCE06CF0900FD61F
:100ADB00E004F080DD900F31E0FC900FB7E06C701C
:100AEB0004D2008002C200E4900FD6F0D0E0FDD01B
:0B0AFB00E0FCD0D0D083D082D0E032ED
:100440004572726F724461790053756E64617920F0
:100450002020004D6F6E6461792020200054756566
:10046000736461792020005765646E6573646179F7
:100470000054687572736461792000467269646122
:100480007920202000536174757264617920002501
:10049000582025582025582025582025582000254B
:0604A00058202558200041
:03002300020A804E
:1004220002044002044902045302045D020467020A
:09043200047102047B0204850040
:100B06007D017C2C120D33120B35E4FD7CC8120DD1
:100B160033120B35E4FD7C64120D33120B357C0C5D
:100B2600120B43120B5A7C06120B68120B7F2274AF
:100B36003890C000F0E4FD7C64120D3322EC900F77
:100B46003AF0E4FD7C64120D33900F3AE0540F90B6
:100B5600C000F022E4FD7C64120D33740290C000E4
:100B6600F022EC900F3AF0E4FD7C64120D33900F06
:100B76003AE0540790C000F022740190C000F0E4FF
:100B8600FD7C64120D3322ED900F3DF0EC900F3C8E
:100B9600F0120BCC900F3EE0FFA3E0FEA3E0FD12A7
:100BA60001E660211203E3900F3EEFF0A3EEF0A3FF
:100BB600EDF01201DCFC120C0B900F41E06004FC1E
:100BC600120D6480CF22ED900F3BF0EC900F3AF0BF
:100BD600ED147009EC24C090C000F08020EDB40242
:100BE60009EC249490C000F08013B40309EC24D4DB
:100BF60090C000F08007EC248090C000F0E4FD7CFB
:100C060064120D3322EC90C001F0900F3AF0E4FD2F
:100C16007C64120D3322E4900F7BF0EE900F7EF091
:100C2600ED900F7DF0EC900F7CF0900F7BE0FCA335
:100C3600A3E0D39C4018900F7CE090C000F0900F8A
:100C46007EE0FC120D64900F7BE004F080DC2274E1
:100C560014900F77F0ECA3F0900F77E06030E490FB
:100C66000F41F07DA67E047F02900F3EEFF0A3EECB
:100C7600F0A3EDF0900F78E0FD900F77E0FC120BFB
:100C86008D7C01120D64900F77E014F080CAE49019
:100C96000F41F07DA67E047F02900F3EEFF0A3EE9B
:100CA600F0A3EDF0900F78E0FD7C00120B8D22E4AE
:100CB600900F7FF0ECA3F0900F7FE0C394155030B7
:100CC600E4900F41F07DA67E047F02900F3EEFF088
:100CD600A3EEF0A3EDF0900F80E0FD900F7FE0FC17
:100CE600120B8D7C01120D64900F7FE004F080C71B
:100CF60022EC900F79F0A3F0900F79E0C394155091
:100D06002BE4900F41F07DA67E047F02900F3EEF0C
:100D1600F0A3EEF0A3EDF0900F7AE0FD900F79E0EE
:100D2600FC120B8D900F79E004F080CC22900F36E8
:100D3600E4F0A3F0A3EDF0A3ECF0900F36E0FDA3F2
:100D4600E0FCA3A3E0D39C900F38E09D400F0CEC91
:100D560070010D900F36EDF0A3ECF080DD22E490EB
:100D66000F36F0EC900F39F0900F36E0FC900F390B
:100D7600E0D39C402C900F37E4F0A3F0C3900F38DB
:100D8600E09488900F37E09413500EA3E004F0909F
:100D96000F377003E004F080E3900F36E004F08034
:020DA600C72262
:0204A600200034
:100DA800E4FD04BD0045B40114900FD7E0449E440F
:100DB8008090800BF0740E90800AF08036B4021494
:100DC800900FD7E0449E448090800BF0740E908082
:100DD8000AF0801FB40314900FD7E0449E4480901B
:100DE800800BF0740E90800AF0800874FF90800ADF
:100DF800F08000900FD7E0449E547F90800BF02243
:100E0800900FD7E0449E448090800BF0EC908005D2
:100E1800F0900F81F0ED908003F0900F82F0EE904B
:100E28008001F0900F83F0900FD7E0449E547F909C
:100E3800800BF022EC900F84F022900FD7E0449EB4
:100E4800448090800BF0EC908009F0900F36F0ED24
:100E5800908008F0900F37F0EE908007F0900F38F0
:100E6800F0EF908006F0900F39F0900FD7E0449E95
:100E7800547F90800BF022900FD7E0449E448090DE
:100E8800800BF0EC908004F0900F36F0ED9080022B
:100E9800F0900F37F0EE908000F0900F38F0900F40
:100EA800D7E0449E547F90800BF022E4900F36F0F8
:100EB800ECA3F01201A601060F160ED00EDA0EE40E
:100EC8000EEE0EF80F020F0C908009E0900F36F02E
:100ED8008043908008E0900F36F08039908007E0DA
:100EE800900F36F0802F908006E0900F36F0802526
:100EF800908004E0900F36F0801B908002E0900F05
:100F080036F08011908000E0900F36F08007E49072
:080F18000F36F08000E0FC221E
:01043B0010B0
:00000001FF
:00000001FF
