:04043D00071C0F4A3F
:03000000020026D5
:1000260075812278227600D8FC900FE4AE83AF82E9
:10003600900FAB1200646005E4F0A380F69000C256
:1000460012006D9000C612006D9000CA12008B90CF
:1000560000D012008B75D000120BA80200D6EF65F7
:10006600827003EE658322E493F8740193F97402B7
:1000760093FE740393F5828E83E869700122E493FC
:10008600F6A30880F4E493FC740193FD740293FED6
:10009600740393FF740493F8740593F582888312AE
:1000A6000064700122E493A3A883A9828C838D82C5
:1000B600F0A3AC83AD828883898280E32323042264
:1000C600232304220FE4043D04220FFF04A204A20A
:0200D60080FEAA
:1004A200900F6DE4F0A3F0900F741203FE900F749E
:1004B2001203CD1201E6900F68F064256038E070F7
:1004C20009900F6DE0FDA3E0FC22900F7912041059
:1004D200900F68E0FC900F77E0FBA3E0F5828B833E
:1004E2001203EF1203FC900F6EE004F0900F6D7098
:1004F20003E004F080B7900F741203CD1201E6906E
:100502000F68F0B46350900F7C120410120259E984
:10051200C0E07402120191D0E0F9C92401C9CA34C1
:1005220000CA1201DC900F68F0900F79120410904B
:100532000F68E0FC900F77E0FBA3E0F5828B83125B
:1005420003EF1203FC900F6EE004F0900F6D700346
:10055200E004F00204AFB4735B900F7C120410123B
:100562000259E9C0E07403120191D0E0F91202537A
:10057200900F711203FE900F711203CD1201E690DB
:100582000F68F0602C900F79120410900F68E0FC55
:10059200900F77E0FBA3E0F5828B831203EF120347
:1005A200FC900F6EE004F0900F6D7003E004F08099
:1005B200C50204AFB46F14900F6FE4F0A37408F097
:1005C200900F6B7480F0A3E4F08030B46415900F48
:1005D2006FE4F0A3740AF0900F6B7427F0A3741009
:1005E200F08018B47802800302052B900F6FE4F0BC
:1005F200A37410F0900F6BF0A3E4F0900F7C120440
:1006020010120259E9C0E07402120191D0E0F9120D
:10061200020F900F69CDF0A3CDF0900F68E0B464A3
:1006220002800302069AED335037A3A3C3E0FCE431
:100632009CF0900F69E0FCE49CF0900F791204109A
:10064200900F77E0FCA3E0F5828C831203EF7C2D00
:100652001203FC900F6EE004F0900F6D7003E00443
:10066200F0900F6BE0FFA3E0FED3EE9401EF940055
:10067200401E900F6AE0C39E900F69E09F5011E404
:10068200FB7A0AEEF8EFF91200DEE8FEE9FF80D904
:10069200900F6BEFF0A3EEF0900F69E0FDA3E0A3E3
:1006A200FCE0FBA3E0FAECF8EDF91200DEE8900FB3
:1006B2003793FC900F79120410900F77E0FBA3E0C0
:1006C200F5828B831203EF1203FC900F6EE004F0AD
:1006D200900F6D7003E004F0900F6BE0FDA3E0FC5F
:1006E200FAEDFB900F69E0F9A3E0F8120131900FE7
:1006F20069E9F0A3E8F0900F6FE0FDA3E0FCFAEDEA
:10070200FB900F6BE0F9A3E0F81200DE900F6BE9AB
:0A071200F0A3E8F04970810204AF83
:100F37003031323334353637383941424344454608
:010F470000A9
:10071C00120259E9C0E07401120191D0E0F9EC1217
:10072C00039322900F841203FE798A7A0F7B019037
:10073C000F7F120407797F7A0F900F7C12040779D0
:10074C00847A0F900F79120407743D7B04900F7715
:10075C00CBF0A3CBF0900F871204101204A2900FD1
:09076C0084120419E41203932223
:1000D800EBC9FBEAC8FAE94B7010E8C0F08AF08473
:1000E800F8AAF0D0F079007B0022ECC0E0EDC0E087
:1000F800EEC0E07D007E007C10C3E833F8E933F9F8
:10010800ED33FDEE33FEED9AEE9B4005FEED9AFDD4
:1001180008DCE6EDFAEEFBD0E0FED0E0FDD0E0FC36
:03012800E8492281
:0F012B00EBC9FBEAC8FA1200DEEAF8EBF948224A
:10013A0030E01B20E30C08E625F0F6F5F018E63C63
:10014A00F62209E725F0F7F5F019E73CF72230E245
:10015A0011C083A3E025F0F5F0F01582D083E03CCE
:10016A00F02220E30C08E225F0F2F5F018E23CF266
:0D017A002209E325F0F3F5F019E33CF32230
:10018700F5F0E9CCF9120341800D7900900001F5F3
:0F019700F0E9CCF912036212013AC9FCE5F0223B
:1001A600D083D082F5F0C3E493A3C5F095F0C0E008
:1001B600C3D0F0E493A395F04012A3A3C3E5F033B4
:1001C600500205832582F58250020583740193C08F
:0601D600E0E493C0E0220A
:1001DC001202F3800D1203108008120341800312E7
:1001EC00036230E00720E302E622E72230E1072039
:0E01FC00E302E222E32230E202E022E4932258
:10020A0012031080031202F3ADF012021CCDC5F0E6
:02021A00CD22F3
:10021C0030E01020E306E6F5F008E622E7F5F009F9
:10022C00E7192230E11020E306E2F5F008E222E3C0
:10023C00F5F009E3192230E206E0F5F0A3E022E440
:07024C0093F5F07401932209
:060253001202F30202A7F3
:0602590012034102025FE6
:10025F0030E01520E309E6FB08E6FA08E6F922E7A5
:10026F00FB09E7FA09E7F92230E11520E309E2FB80
:10027F0008E2FA08E2F922E3FB09E3FA09E3F922BB
:10028F0030E209E0FBA3E0FAA3E0F922E493FB7468
:08029F000193FA740293F922A5
:1002A70030E01720E309E6FF08E6FE08E6FD22E74F
:1002B700FF09E7FE09E7FD19192230E11720E309D5
:1002C700E2FF08E2FE08E2FD22E3FF09E3FE09E39D
:1002D700FD19192230E209E0FFA3E0FEA3E0FD22A9
:0C02E700E493FF740193FE740293FD2267
:1002F300BB0003740922BB010789828A8374042229
:0D030300BB020789828A83741022740A22CB
:10031000BB0007E92582F8740122BB010DE92582A3
:10032000F582EA3583F583740422BB020DE9258248
:10033000F582EA3583F583741022E92582F8740288
:01034000229A
:10034100BF0005EDF8740122BF01078D828E837411
:100351000422BF02078D828E83741022EDF874028D
:010361002279
:10036200BF0007ED2582F8740122BF010DED258241
:10037200F582EE3583F583740422BF020DED2582EA
:10038200F582EE3583F583741022ED2582F874022E
:010392002248
:10039300C0E01202F38013C0E0120310800CC0E02F
:1003A3001203418005C0E012036230E00B20E30436
:1003B300D0E0F622D0E0F72230E10B20E304D0E0D6
:0A03C300F222D0E0F322D0E0F02295
:1003CD00E0FFA3E0FEC083A3E0FD04F01582D0831F
:0603DD007003E004F022B1
:0C03E300EEFAEDF904FD70010EEFFB22B4
:0D03EF00740193F5F0E493F58385F082220C
:0203FC00E473A8
:0903FE00EFF0A3EEF0A3EDF022F4
:09040700EBF0A3EAF0A3E9F022F6
:09041000E0FFA3E0FEA3E0FD22E1
:09041900E0FBA3E0FAA3E0F922E4
:10077500E4FD04BD0045B40114900FE4E0449E443B
:100785008090800BF0740E90800AF08036B40214CD
:10079500900FE4E0449E448090800BF0740E9080AE
:1007A5000AF0801FB40314900FE4E0449E44809047
:1007B500800BF0740E90800AF0800874FF90800A18
:1007C500F08000900FE4E0449E547F90800BF0226F
:1007D500900FE4E0449E448090800BF0EC908005FF
:1007E500F0900F4EF0ED908003F0900F4FF0EE90EB
:1007F5008001F0900F50F0900FE4E0449E547F90FC
:10080500800BF022EC900F51F022900FE4E0449E13
:10081500448090800BF0EC908009F0900F68F0ED2B
:10082500908008F0900F69F0EE908007F0900F6AC5
:10083500F0EF908006F0900F6BF0900FE4E0449E8F
:10084500547F90800BF022900FE4E0449E4480900A
:10085500800BF0EC908004F0900F68F0ED90800232
:10086500F0900F69F0EE908000F0900F6AF0900F15
:10087500E4E0449E547F90800BF022E4900F68F0F2
:10088500ECA3F01201A6010608E3089D08A708B12C
:1008950008BB08C508CF08D9908009E0900F68F01B
:1008A5008043908008E0900F68F08039908007E0E1
:1008B500900F68F0802F908006E0900F68F08025FB
:1008C500908004E0900F68F0801B908002E0900F0C
:1008D50068F08011908000E0900F68F08007E49048
:0808E5000F68F08000E0FC2226
:0104220010C9
:1008ED007D017C2C120B1A12091CE4FD7CC8120B25
:1008FD001A12091CE4FD7C64120B1A12091C7C0CE3
:10090D0012092A1209417C0612094F120966227436
:10091D003890C000F0E4FD7C64120B1A22EC900FAD
:10092D0068F0E4FD7C64120B1A900F68E0540F9090
:10093D00C000F022E4FD7C64120B1A740290C0001A
:10094D00F022EC900F68F0E4FD7C64120B1A900F0E
:10095D0068E0540790C000F022740190C000F0E4EC
:10096D00FD7C64120B1A22ED900F59F0EC900F588C
:10097D00F01209B3900F5AE0FFA3E0FEA3E0FD12C1
:10098D0001E660211203E3900F5AEFF0A3EEF0A3FE
:10099D00EDF01201DCFC1209F2900F5DE06004FC39
:1009AD00120B4B80CF22ED900F57F0EC900F56F0BD
:1009BD00ED147009EC24C090C000F08020EDB4025D
:1009CD0009EC249490C000F08013B40309EC24D4F6
:1009DD0090C000F08007EC248090C000F0E4FD7C16
:1009ED0064120B1A22EC90C001F0900F56F0E4FD4A
:1009FD007C64120B1A22E4900F62F0EE900F65F0FA
:100A0D00ED900F64F0EC900F63F0900F62E0FCA39B
:100A1D00A3E0D39C4018900F63E090C000F0900FBE
:100A2D0065E0FC120B4B900F62E004F080DC227449
:100A3D0014900F5EF0ECA3F0900F5EE06030E49048
:100A4D000F5DF07D417E047F02900F5AEFF0A3EE13
:100A5D00F0A3EDF0900F5FE0FD900F5EE0FC12094A
:100A6D00747C01120B4B900F5EE014F080CAE49081
:100A7D000F5DF07D417E047F02900F5AEFF0A3EEE3
:100A8D00F0A3EDF0900F5FE0FD7C0012097422E4FD
:100A9D00900F66F0ECA3F0900F66E0C39415503004
:100AAD00E4900F5DF07D417E047F02900F5AEFF0D0
:100ABD00A3EEF0A3EDF0900F67E0FD900F66E0FC64
:100ACD001209747C01120B4B900F66E004F080C785
:100ADD0022EC900F60F0A3F0900F60E0C3941550DE
:100AED002BE4900F5DF07D417E047F02900F5AEF55
:100AFD00F0A3EEF0A3EDF0900F61E0FD900F60E03C
:100B0D00FC120974900F60E004F080CC22900F521B
:100B1D00E4F0A3F0A3EDF0A3ECF0900F52E0FDA3F1
:100B2D00E0FCA3A3E0D39C900F54E09D400F0CEC90
:100B3D0070010D900F52EDF0A3ECF080DD22E490EA
:100B4D000F52F0EC900F55F0900F52E0FC900F55B6
:100B5D00E0D39C402C900F53E4F0A3F0C3900F54BE
:100B6D00E09488900F53E09413500EA3E004F0909E
:100B7D000F537003E004F080E3900F52E004F08017
:020B8D00C7227D
:02044100200099
:100B8F0075A880758780758925758DFA758BFA75AF
:100B9F009850D28ED2BCD2AC22120B8F1208ED120B
:100BAF00077574FF900FB9F07590F074F0900FBA4D
:100BBF00F0C200C2011209667F037E157D017C61C0
:100BCF0012080F7E007D0A7C1012084C7C0112085F
:100BDF0080EC900FABF0900FB2F07C02120880EC1B
:100BEF00900FACF0900FB3F07C03120880EC900FD5
:100BFF00ADF0900FB4F07C04120880EC900FAEF0C3
:100C0F00900FB5F07C05120880EC900FAFF0900FAD
:100C1F00B6F07C06120880EC900FB0F0900FB7F092
:100C2F007C07120880EC900FB1F0900FB8F074FFB2
:100C3F00900FBCF0A3F07452A3F0E4A3F0A3F0A3C1
:100C4F00F0A3F0A3F0A3F014A3F014A3F074029098
:100C5F000FA8F0900FA8E06408601AE024BCF5829A
:100C6F00E4340FF583E0900FC4FCE06CF0900FA814
:100C7F00E004F080DEE4F0900FB9E0601EC3940151
:100C8F004008B40300B34002800CB403028007B4E1
:100C9F00060280028000E4900FB9F0900FBAE06472
:100CAF00F060117590F0120966E4900FFEF0900F4E
:100CBF00FDF0D201300119209916900FFEE0FC04CF
:100CCF00F0EC24BCF582E4340FF583E0F59980E471
:100CDF00200003020E93900FD4E07D00900F92CD71
:100CEF00F0A3CDF0900FD3E0900F90CDF0A3CDF007
:100CFF00900FD2E0900F8ECDF0A3CDF0900FD1E0FA
:100D0F00900F8CCDF0A3CDF0900FD0E0900F8ACD47
:100D1F00F0A3CDF07D927E047F02900F87EFF0A3BA
:100D2F00EEF0A3EDF07D947E0F1F12072FE4900FCE
:100D3F005DF07D947E0F7F01900F5AEFF0A3EEF0E0
:100D4F00A3EDF07D007C00120974900FD9E07D00B7
:100D5F00900F92CDF0A3CDF0900FD8E0900F90CDE3
:100D6F00F0A3CDF0900FD7E0900F8ECDF0A3CDF084
:100D7F00900FD6E0900F8CCDF0A3CDF0900FD5E073
:100D8F00900F8ACDF0A3CDF07D927E047F02900F5D
:100D9F0087EFF0A3EEF0A3EDF07D947E0F1F120707
:100DAF002FE4900F5DF07D947E0F7F01900F5AEF2F
:100DBF00F0A3EEF0A3EDF07D017C00120974900F0B
:100DCF00DEE07D00900F92CDF0A3CDF0900FDDE02F
:100DDF00900F90CDF0A3CDF0900FDCE0900F8ECD63
:100DEF00F0A3CDF0900FDBE0900F8CCDF0A3CDF002
:100DFF00900FDAE0900F8ACDF0A3CDF07D927E04B4
:100E0F007F02900F87EFF0A3EEF0A3EDF07D947EBD
:100E1F000F1F12072FE4900F5DF07D947E0F7F015F
:100E2F00900F5AEFF0A3EEF0A3EDF07D027C0012CD
:100E3F000974900FE0E07D00900F8CCDF0A3CDF002
:100E4F00900FDFE0900F8ACDF0A3CDF07D9D7E0453
:100E5F007F02900F87EFF0A3EEF0A3EDF07D947E6D
:100E6F000F1F12072FE4900F5DF07D947E0F7F010F
:100E7F00900F5AEFF0A3EEF0A3EDF07D037C00127C
:100E8F000974C200E590900FBAF0020C86C0E0C062
:100E9F0082C083C0D0ECC0E0EDC0E0E4900F48F01A
:100EAF00A3F0309911C299900FFEE0B40B04C20168
:100EBF008002D2018063309860C298E599900FFD4F
:100ECF00FCE0FD04F0ED24D0F582E4340FF583EC63
:100EDF00F0900FFDE0B41141E4900F48F07402A3BD
:100EEF00F0900F49E0C3940E5018E024D0F582E43F
:100EFF00340FF583E0900F48FCE06CF0A3E004F0B2
:100F0F0080DF900F48E0FC900FDEE06C7004D200A1
:100F1F008002C200E4900FFDF0D0E0FDD0E0FCD0E5
:080F2F00D0D083D082D0E03263
:100443004572726F724461790053756E64617920ED
:100453002020004D6F6E6461792020200054756563
:10046300736461792020005765646E6573646179F4
:10047300005468757273646179200046726964611F
:1004830079202020005361747572646179200025FE
:0F04930078257825782578257800257825780034
:03002300020E9C2E
:1004230002044302044C02045602046002046A02FA
:0A043300047402047E020488000035
:00000001FF
:00000001FF
