:0300000002002ECD
:10002E0075812278227600D8FC9033DCAE83AF82C5
:10003E0090315312006C6005E4F0A380F69000CA74
:10004E001200759000CE1200759000D2120093909F
:10005E0000D812009375D0001212680200DEEF6510
:10006E00827003EE658322E493F8740193F97402AF
:10007E0093FE740393F5828E83E869700122E493F4
:10008E00F6A30880F4E493FC740193FD740293FECE
:10009E00740393FF740493F8740593F582888312A6
:1000AE00006C700122E493A3A883A9828C838D82B5
:1000BE00F0A3AC83AD828883898280E323230C492D
:1000CE0023230C4933DC0C490C4933DC0C490C4915
:0200DE0080FEA2
:100C490090311A120C10EF4E6005EF5480B2E7B2E2
:100C5900E77004120DDE22EE4F6004EF6480FF128C
:0B0C69000DDEEE4F6004EF6480FF2200
:100C740090313D120C10EF4E6003EF5480B2E770D8
:100C84000EEE4F6004EF6480FF90313D120C109023
:0B0C9400313BE4F0A304F0120E6A22D2
:100C9F0090310A120C10903112120C10EF4E6003AB
:100CAF00EF5480B2E7700690310A120A2E90310A83
:100CBF00120C317A187B4B7880799674031209C421
:100CCF007011903112120C31A3120C28120B8FE4F9
:100CDF00FEFF22903112120C311208E0120922A3EA
:100CEF00120C28120B8F120B0BEE4F6004EF648067
:0B0CFF00FF903112120C3D1207E3229F
:100D0A00903112120C1012052490310A120C10792B
:100D1A003A7B417A8178A812052C79367B4378761A
:100D2A007A861207E390310A120C3D12052C7920BB
:100D3A007B447A9078F01207E390310A120C3D1244
:100D4A00052C78017B44798D7ADE1207E390310A0B
:100D5A00120C3D12052C79327B44784D7A601207C9
:100D6A00E3A3120C1090310A120C317B427A6B7990
:100D7A00D378F01207E390310A120C3D12052C7A4F
:100D8A000679107B4478FC1207E390310A120C3D75
:100D9A0012052C78157B4479597AD01207E39031E1
:100DAA000A120C3D12052C7A017B45785C79F51202
:100DBA0007E390310A120C3D12052C79327B4478F4
:100DCA004D7A601207E3A3120A23903112120C3DE6
:100DDA0012052C22903116120C1079137B3E78CD15
:100DEA007AD4740B1209C47004120D0A227A1A7B7F
:100DFA0040787A798274071209C47021E4F8F97B81
:100E0A003F7A8012069C120D0AEE4F6004EF64804E
:100E1A00FF790F7B3F7AC978DB1207E322E4F8F9FE
:100E2A007A807BBF1207E3120BE3903116120C3162
:100E3A00E4F8F97B3F7A801207E3120BF512069C5D
:0F0E4A00120D0A790F7B3F7A4978DB1207E322FA
:100E590090313D120C1090313BE4F0A3F0120E6A70
:010E69002266
:100E6A00903125120C10EF4E6003EF5480B2E770F8
:100E7A001CEE4F6004EF6480FF903125120C109035
:100E8A00313CE02402F090313BE03400F07A227BDE
:100E9A003F788379F912052C903125120C10E4F869
:100EAA007B4679F87AFF74071209C46003020F3986
:100EBA007D197E317F01903116120C07903125126F
:100ECA000C31120C9F903129120C1090313BE0FD2D
:100EDA00A3E0FCED3395E0FEFF12092290311912CE
:100EEA000A147D1D7E317F01903116120C07903154
:100EFA0019120C31E4F8F97B3E7A8012052C120C97
:100F0A009F90311D120C31E4F8F97B407A8012056A
:100F1A002CEE4F6004EF6480FF903119120C3D12E1
:100F2A0007E31208E090313BEDF0A3ECF0804712A2
:100F3A0008E090312DEDF0A3ECF0ED3395E0FEFFE3
:100F4A00120922903125120C3D1207B8A3120C1077
:100F5A0090313BE0FFA3E0FEEFFDEE90312EFAE088
:100F6A002AFC90312DE03DFDEC5403FE7F009031C8
:100F7A003BEFF0A3EEF030E016903129120C31E489
:100F8A00F8F97B3F7A801207B8903129120C10D3F6
:100F9A0090313CE0940190313BE0648094804006BB
:100FAA00903129120A2E903129120C3112052490FF
:100FBA003121120C1078067A117B4379F812052C2C
:100FCA0078177A58795D7BC61207E3903121120CA3
:100FDA003D12052C7B487AD678E279E41207E39031
:100FEA003121120C3D12052C78787A967BCA79D871
:100FFA001207E3903121120C3D12052C79327B4BFA
:10100A007A4F78591207E3903129120C3D12052CB8
:10101A0090312F120C10903121120C317A047B433B
:10102A00784B79A71207E3903121120C3D12052C57
:10103A007A137B46786279DC1207E3903121120C2D
:10104A003D12052C7B48794E78677AC71207E390E0
:10105A003121120C3D12052C7A037B4B78CF79E7AC
:10106A001207E3903133120C1090312F120C3D12FB
:03107A00069C22AF
:1000E000EBC9FBEAC8FAE94B7010E8C0F08AF0846B
:1000F000F8AAF0D0F079007B0022ECC0E0EDC0E07F
:10010000EEC0E07D007E007C10C3E833F8E933F9EF
:10011000ED33FDEE33FEED9AEE9B4005FEED9AFDCC
:1001200008DCE6EDFAEEFBD0E0FED0E0FDD0E0FC2E
:03013000E8492279
:0F013300EBC9FBEAC8FA1200E6EAF8EBF948223A
:10014200E8FCE9FDEAFEEBFF8008ECF8EDF9EEFAD7
:10015200EFFBEF4E4D4B4A49700DE88CF0A4FCAD1D
:10016200F07E007F004D22C082ECF58288F0A4C0B0
:10017200E0E8C5F0CDC0E0A42DFDE435F0CEFC856D
:1001820082F0E9A42DFDEE35F0FEE433CF88F0A431
:100192002FFFE98CF0A42FFFEAD0F0C0F0A42FFFCC
:1001A200EB8582F0A42FFFD0F0E9A42EFEEF35F00C
:1001B200FFEA8582F0A42EFEEF35F0FF8CF0E8A472
:0F01C2002EFEEF35F0FFD0E0D082FC4E4D4F22E5
:0D01D100EFCBFFEECAFEEDC9FDECC8FC222D
:1001DE001201D1EB4A4E4F7017ECFAEDFB1200E014
:1001EE00F5F0E8FCE9FDEAF8EBF9E4FAFBE5F022BC
:1001FE00C082C08375F0208B828883E4FBCFC0E081
:10020E00E4CACEC0E0E4C9CDC0E0C3EC33FCA881A3
:10021E00E633F618E633F618E633F6EB33FBE9333E
:10022E00F9EA33FAEF33FFEB9583E99DEA9EEF95FA
:10023E0082400CFFEB9583FBE99DF9EA9EFA0CD503
:10024E00F0C8D0E0FDD0E0FEEBF8D0E0CFFBECD074
:10025E0083D0824D4E4F221201D11201E1EBFFEA03
:07026E00FEE9FDE8FC80EC55
:100275001201D1EB33500EE4C398F8E499F9E49AEE
:10028500FAE49BFBD3EF30E708B3C0D01202B78086
:1002950002C0D01201E1D0F020F70122F5F01202E0
:1002A500B7E5F0221201D1EFC0E012027812026B1D
:0202B50080E4E3
:1002B700E4C39CFCE49DFDE49EFEE49FFF4E4D4C91
:0102C7002214
:1002C800ECF4FCEDF4FDEEF4FEEFF4FF4E4D4C22A1
:1002D800C083F5F0C3EC98F583ED994283EE9A421A
:1002E8008320F010C082EB6480F582EF64809582F1
:1002F800D0828002EF9B82F130F20545837001D3F2
:09030800D08330F301B3E4332289
:1003110088F005F0800EEFA2E713FFEE13FEED1358
:0C032100FDEC13FCD5F0EFEF4E4D4C222C
:10032D0088F005F0800DC3EF13FFEE13FEED13FD06
:0B033D00EC13FCD5F0F0EF4E4D4C220D
:1003480088F005F0800DC3EC33FCED33FDEE33FE91
:0B035800EF33FFD5F0F0EF4E4D4C22CC
:10036300E8FCE9FDEAFEEBFF8008ECF8EDF9EEFAB4
:10037300EFFBEC28FCED39FDEE3AFEEF3BFF4E4D73
:020383004C220A
:10038500C3EC98FCED99FDEE9AFEEF9BFF4E4D4CAC
:010395002245
:10039600EC58FCED59FDEE5AFEEF5BFF4E4D4C223C
:1003A600EC48FCED49FDEE4AFEEF4BFF4E4D4C226C
:1003B600EC68FCED69FDEE6AFEEF6BFF4E4D4C22DC
:0B03C600E814600104F9FAFB02037563
:1003D100C0F0E5F0C4540F75F005A49003E073126A
:1003E100037580491203858044120154803F120233
:1003F10078803A1201E180351202AC803012026835
:10040100802B120311802612032D802112034880B4
:100411001C12039680171203A680121203B6800DD8
:100421001203C680081202B780031202C8D0F0FB83
:1004310030F010D0E0F8ECF618EDF618EEF618EF03
:10044100F6802E30F21DD083D082EFF0A3EEF0A320
:10045100EDF0A3ECF0E58224FDF582E58334FFF5B0
:1004610083800ED0E0F8ECF218EDF218EEF218EFFE
:10047100F230F30CD0E0FFD0E0FED0E0FDD0E0FCA4
:0D048100D0E0F8D0E0F9D0E0FAD0E0CB22D6
:10048E0075F004804A75F014804575F0248040752F
:10049E00F034803B75F044803675F054803175F041
:1004AE0064802C75F074802775F084802275F0942A
:1004BE00801D75F0A4801875F0B4801375F0C4809B
:1004CE000EFC75F0DC800875F0E4800375F0F4EB3B
:1004DE00C0E0EAC0E0E9C0E0E8C0E0ECF8EDF9EE1B
:1004EE00FAEFFBE0FFA3E0FEA3E0FDA3E0FC30F398
:1004FE000CECC0E0EDC0E0EEC0E0EFC0E0E5822421
:0C050E00FDC0E0E58334FFC0E00203D133
:10051A00E8FCE9FDEAFEEBFF8008ECF8EDF9EEFAFB
:10052A00EFFBEF4E700122EB4A7005FFFCFDFE2245
:10053A00120795947F40092B500C7F7F74FF80EC43
:10054A002B4003E480E5C0E0C0F0E849704EBA8071
:10055A0009D0E0F9D0E0F8020655EC4D7018BE80DB
:10056A0008E8FCE9FDEAFE80E8E4FBFFEA8EF0A475
:10057A00F8E5F0020620EA8CF0A4FFABF0EA8DF071
:10058A00A42BFBE435F0F8EA8EF0A428F8E435F061
:10059A00020620EACEFAE9FDE8FC80DAEC4D7005A5
:1005AA00BE80F080BCEAC0E0EC88F0A4FFABF0EDBE
:1005BA0088F0A42BFBE435F0FAEC89F0A42B4FFF6A
:1005CA00E5F03AFAE433FB88F0EEA42AFAE5F03BC8
:1005DA00FBED89F0A42AFAE5F03BFBE433F88CF052
:1005EA00D0E0FCA42AC5F03BFBE438F8EF6002D265
:1005FA00F0AFF0ED8CF0A42BFBE5F038F8E433FA19
:10060A00EE89F0A42BFBE5F038F8E43AFAEC8EF028
:10061A00A428F8E5F03AF5F0FEE8FDEBFCD0E0F9A5
:10062A00D0E0F830F70708B8000602066212066E34
:10063A00EF3350178CF020F00260100CBC000C0D48
:10064A00BD00080EBE000408E8600DE933E813FF98
:10065A00EE2313FE4F4D4C227F7F74FF8002E4FF8E
:10066A00FEFDFC22C3EF33FFEC33FCED33FDEE332A
:10067A00FE22C3EE13FEED13FDEC13FCEF13500242
:10068A00D2E0FF22C3E49CFCE49DFDE49EFEE49FCD
:02069A00FF223D
:10069C00EFCBFFEECAFEEDC9FDECC8FCEF4E7003CC
:1006AC00020668EB4A7003020662120795EB947F10
:1006BC00CF40069F500A020668C39F4003020662A1
:1006CC00FBE849700CEA94807007EBF8A9F002067D
:1006DC0055C0F07F00120786501EEB6002DB05D080
:1006EC00F0020668C3120672EF33FFEC28FCED39FA
:1006FC00FDEE3AFEE43FFFD3EBC0E075F008740367
:10070C00C0E07B00501CC3EC98FCED99FDEE9AFE0A
:10071C00EF9400FF500CEC28FCED39FDEE3AFEE4B2
:10072C003FFFEB33FBEC33FCED33FDEE33FEEF33ED
:10073C00FFD5F012D0F0EBC0E0E5F0146012C0E091
:10074C0075F0087B00EF20E0BDEED330E7D480B627
:10075C001207864E4D4CFBD0E0F4FCD0E0F4FDD0FB
:10076C00E0F4FED0E0F8D0E0F9EB5003020655605F
:10077C0003020645EC5401020643C3EC98FCED99C8
:09078C00FDEE9AFEEF9400FF223D
:10079500EAA2E7D2E7FAEB33FB13F5F0EEA2E7D2D4
:1007A500E7FEEF33FFC5F013A2E730E601B313C54B
:0307B500F0C3226C
:1007B800EFCBFFEECAFEEDC9FDECC8FCEB4A7003B7
:1007C800EF4E22EB6480FB8019E8FCE9FDEAFEEBC2
:1007D800FF8008ECF8EDF9EEFAEFFBEB4A7003EF57
:1007E8004E22EF4E700BEBFFEAFEE9FDE8FC7401C8
:1007F80022C3EC98ED99EE9AEBC2E7F5F0EFC2E769
:1008080095F0500E600CEBCFFBEACEFAE9CDF9E893
:10081800CCF8120795C0E0C0F07F00C39BFB605B7B
:100828009418600C401AD0E023F9D0E0F80206557D
:100838008AF0E9486003D2F0E4AFF0FAF9F8803BB7
:10084800EB30E40D89F0EA6003D2F0E4AFF0F9CAC6
:10085800F8EB30E30D88F0EF6002D2F0AFF0E4CAB5
:10086800C9F8EB54076014FBC3EA13FAE913F9E873
:1008780013F8EF135002D2E0FFDBEDD0E0C0E03018
:10088800E734C3E49FFFF5F0EC98FC42F0ED99FDE6
:1008980042F0EE9AFE42F0D0E0F9D0E0F8E5F070D0
:1008A8000122E923F9EE30E70302063AD8030206EB
:1008B8006812066E80F0EC28FCED39FDEE3AFED0A9
:1008C800E023F9D0E0F8400302063A12067D08B8A2
:0808D800000302066202063A69
:1008E000EF4E7003FDFC22EEA2E7D2E7FEE4CF3329
:1008F00092D5C3947F5003020668F5F0941F40051B
:100900006011020662F404F5F0EF54FEFF12067C5B
:10091000D5F0F6EFCCCDCECF30D50312068EEE0259
:02092000065E71
:10092200EF30E707D2D512068E8002C2D5EF4E4DC8
:100932004C70012275F096EF700EEE20E71C15F058
:1009420012066E30E7F88012EF05F0C313FFEE13C4
:10095200FEED13FDEC13FCEF70EFA2D5E5F013FFF3
:07096200EE92E7FE440122C2
:10096900EB30E711D2D5C3E498F8E499F9E49AFA9F
:10097900E49BFB8002C2D5EB4A494870012275F01D
:1009890096EB7018EA20E72615F0C3EB33FBE83342
:10099900F8E933F9EA33FA30E7EE8012EB05F0C3F0
:1009A90013FBEA13FAE913F9E813F8EB70EFA2D590
:0B09B900E5F013FBEA92E7FA4401228C
:1009C400F5F0C3EF20E706EB30E7148034EB20E7C3
:1009D40004F4D3802C30F10363F00CEB547FFBEF71
:1009E4004E7002FCFDEB4A7002F8F9EC98A8F0F5A1
:1009F400F0ED9942F0EE9A42F0EF547F9B45F08877
:100A0400F082F130F2037001D330F301B3E4332206
:100A140075F004801875F014801375F024800E7539
:100A2400F034800975F04CFC800375F054EBC0E0A1
:100A3400EAC0E0E9C0E0E8C0E0ECF8EDF9EEFAEF76
:100A4400FBE0FFA3E0FEA3E0FDA3E0FC30F30CEC2D
:100A5400C0E0EDC0E0EEC0E0EFC0E0E58224FDC000
:0A0A6400E0E58334FFC0E0020A78E9
:0A0A6E00E8FB7A80E4F9F80207E3E0
:100A7800C0F0E5F0C4540F75F005A475828A75833B
:100A88000A731207E3801C1207C4801712052C8012
:100A9800121206A8800D120A6E8008EF4E6004EF4D
:100AA800B2E7FFD0F0FB30F010D0E0F8ECF618ED2C
:100AB800F618EEF618EFF6802E30F21DD083D082AD
:100AC800EFF0A3EEF0A3EDF0A3ECF0E58224FDF542
:100AD80082E58334FFF583800ED0E0F8ECF218ED60
:100AE800F218EEF218EFF230F30CD0E0FFD0E0FE8F
:100AF800D0E0FDD0E0FCD0E0F8D0E0F9D0E0FAD0CA
:030B0800E0CB221D
:060B0B00120B72020B1137
:100B110030E01E20E30CE6FF08E6FE08E6FD08E6ED
:100B2100FC22E7FF09E7FE09E7FD09E7FC191919AE
:100B31002230E11E20E30CE2FF08E2FE08E2FD089C
:100B4100E2FC22E3FF09E3FE09E3FD09E3FC1919D5
:100B5100192230E20CE0FFA3E0FEA3E0FDA3E0FCDC
:100B610022E493FF740193FE740293FD740393FCDA
:010B71002261
:100B7200BB0003740922BB010789828A83740422A1
:0D0B8200BB020789828A83741022740A2244
:060B8F00120B72020B952F
:100B950030E01E20E30CEFF608EEF608EDF608EC63
:100BA500F622EFF709EEF709EDF709ECF719191930
:100BB5002230E11E20E30CEFF208EEF208EDF20818
:100BC500ECF222EFF309EEF309EDF309ECF3191951
:0E0BD5001922EFF0A3EEF0A3EDF0A3ECF02256
:100BE300D083D082EFC0E0EEC0E0EDC0E0ECC0E027
:020BF300E473A9
:100BF500D083D082D0E0F8D0E0F9D0E0FAD0E0FBA5
:020C0500E47396
:090C0700EFF0A3EEF0A3EDF022E2
:0C0C1000EFF0A3EEF0A3EDF0A3ECF02257
:0C0C1C00EBF0A3EAF0A3E9F0A3E8F0225B
:090C2800E0FBA3E0FAA3E0F922CD
:0C0C3100E0FFA3E0FEA3E0FDA3E0FC2236
:0C0C3D00E0FBA3E0FAA3E0F9A3E0F8223A
:10107D0075A880758780758925758DF4758BF475C8
:10108D008C00758A0075CD0075CC0075CA0075CBC6
:10109D0000759850D28EC28C90333FE4F0A3F0903F
:1010AD0033A5F0A3F0C20290315DF00490315FF0F2
:1010BD00E490315EF0903154F0903153F090319ACC
:1010CD00F0903155F0A3F0A3F0A3F0903159F0A3B7
:1010DD00F0A3F0A3F0903345F0A3F0A3F0A3F090AC
:1010ED00310AF0A3F090310BE0643C700690310AA8
:1010FD00E0603690310BE025E0249DF582E434313B
:10110D00F583E4F0A3F090310BE025E02417F58290
:10111D00E43432F583E4F0A3F090310BE004F09069
:10112D00310A7003E004F080BC90310AE4F0A3F0C2
:10113D0090310BE0640C700690310AE0603690310E
:10114D000BE025E0246AF582E43431F583E4F0A365
:10115D00F090310BE025E02482F582E43431F58303
:10116D00E4F0A3F090310BE004F090310A7003E04D
:10117D0004F080BC90310AE4F0A3F090310BE064F0
:10118D000A700690310AE0603690310BE025E024BC
:10119D0091F582E43432F583E4F0A3F090310BE065
:1011AD0025E024A7F582E43432F583E4F0A3F09032
:1011BD00310BE004F090310A7003E004F080BC9034
:1011CD00328FE4F0A3F09032A5F0A3F09032A5F0A9
:1011DD00A3F09032BBF0A3F09032C1F0A3F09032A7
:1011ED00C5F0A3F09032C9F0A3F09032D1F0A3F086
:1011FD009032CFF0A3F09032D7F0A3F09032D9F027
:10120D00A3F09033BEF0A3F09033C2F0A3F090336F
:10121D00CAF0A3F09033CEF0A3F09033D4F0A3F046
:10122D00A3F0A3F09033D8F0A3F0A3F0A3F0903285
:10123D00CBF0A3F09032CDF0A3F0C201C200D207E3
:10124D00C209C206C20C9033A7F0C296C297D2BC97
:10125D00D2CAD288D2ACD2ADD2A82212107D30081B
:10126D0006C295C2088004D295D20830031B903374
:10127D00A8E0FDA3E0FCE024FFF09033A8E034FFEC
:10128D00F0EC4D7004C296C20330041B9033AAE0FB
:10129D00FDA3E0FCE024FFF09033AAE034FFF0EC76
:1012AD004D7004C297C2049032D8E064C0700890AB
:1012BD0032D7E064A860109032D2E064607006907E
:1012CD0032D1E06454700DC2AC903154E04402F060
:1012DD00D2AC800BC2AC903154E05405F0D2AC903E
:1012ED0032D8E064C070089032D7E064A8601090E6
:1012FD0032D0E0646070069032CFE06454700DC25D
:10130D00AC903153E04402F0D2AC800BC2AC9031C2
:10131D0053E05405F0D2AC30090AC2ACE04404F0FD
:10132D00D2AC8008C2ACE05403F0D2AC300C14C285
:10133D00AC903154E04401F0903153E04401F0D2CF
:10134D00AC8012C2AC903154E05406F0903153E0B1
:10135D005406F0D2AC300624C2A8C20612138C90EB
:10136D00315DE0701512157390315FE0700C12193C
:10137D009D90315EE07003121D3BD2A802126B905E
:10138D003143E4F0A3F0903141F0A3F0903142E00D
:10139D00640C7006903141E06030903142E025E000
:1013AD002482F582E43431F583E0FDA3E0FC903135
:1013BD0044E02CF0903143E03DF0903142E004F0F8
:1013CD009031417003E004F080C2903143E0FFA3FF
:1013DD00E0FE903143E0FDA3E0FCEDE4FEFF1209D9
:1013ED002DE4F8F97440FAFB1206A81208E09031CA
:1013FD0043EDF0A3ECF0903143E0FDA3E0FC122BA4
:10140D0047903143EDF0A3ECF0FC9032C2E0C39C69
:10141D009032C1E09D400302156BC2ACEDF0A3EC20
:10142D00F0D2AC903149E4F0A3F0903145F0A3F047
:10143D00903141F0A3F0903142E0640C7006903190
:10144D0041E0605E903142E025E0246AF582E434AB
:10145D0031F583E0FDA3E0FCEDE4FEFF12092DE480
:10146D00F8F97A207B411206A878337B3C7A8E7985
:10147D00FA12052C90314D120C10120E5990314567
:10148D00120A1490314D120C31120C749031491214
:10149D000A14903142E004F09031417003E004F001
:1014AD008094903145120C31A3120C3D1206A812F6
:1014BD000C49792E7B427A6578E412052C90314DDA
:1014CD00120C10903145120C31EF4E6003EF548029
:1014DD00B2E7701FA3120C31EF4E6005EF5480B2CE
:1014ED00E7B2E7700EA37C007D007EB47F43120A45
:1014FD0014804C903145120C31EF4E6005EF548045
:10150D00B2E7B2E7700DA3120C31EF4E6003EF544A
:10151D00807020903145120C31EF4E6003EF5480F6
:10152D00B2E7701BA3120C31EF4E6003EF5480B283
:10153D00E7700CA37C007D007E347F43120A14C239
:10154D00AC90314D120C31E4F8F97A207B41120543
:10155D002C1208E09032BFEDF0A3ECF0D2AC90323B
:10156D00D9E4F0A3F0229033BAE4F0A3F09033C69F
:10157D00F0A3F09033D2F0A3F0903141F0A37409B1
:10158D00F0903142E0640D7009903141E07003023A
:10159D0016B890319AE07D00903142FEE02EFC901D
:1015AD003141E03DFDE4FB7A0CECF8EDF912013927
:1015BD00E825E02482F582E43431F583E0FDA3E0F3
:1015CD00FCEDFFECFE9033D3E02EF09033D2E03FF4
:1015DD00F0903143EDF0A3ECF07E007F009033D41A
:1015ED0012048E903143E0FDA3E0FC7E007F00905D
:1015FD0033D812048E90319AE07D00903142FEE096
:10160D002EFC903141E03DFDE4FB7A0CECF8EDF958
:10161D00120139E825E0246AF582E43431F583E0DE
:10162D00FDA3E0FCEDE4FEFF12092DE4F8F97A20AC
:10163D007B411206A878337B3C7A8E79FA12052C01
:10164D00903145120C10120E59903149120C109018
:10165D0033BA120A14903149120C319033BE120A6A
:10166D0014903149120C319033C2120A1490314545
:10167D00120C31120C74903149120C109033C612A9
:10168D000A14903149120C319033CA120A14903158
:10169D0049120C319033CE120A14903142E004F00D
:1016AD009031417003E004F002158E9033BA120CA4
:1016BD00319033C6120C3D1206A8120C49792E7BBF
:1016CD00427A6578E412052C903145120C10903356
:1016DD00BA120C31EF4E6003EF5480B2E7702390D5
:1016ED0033C6120C31EF4E6005EF5480B2E7B2E70E
:1016FD0070109031457C007D007EB47F43120A143A
:10170D0080529033BA120C31EF4E6005EF5480B217
:10171D00E7B2E7700F9033C6120C31EF4E6003EF56
:10172D00548070229033BA120C31EF4E6003EF5497
:10173D0080B2E7701F9033C6120C31EF4E6003EF8D
:10174D005480B2E7700E9031457C007D007E347F71
:10175D0043120A149033D2E0FDA3E0903162CDF034
:10176D00A3CDF09033D2E0FDA3E0FC122B479031D6
:10177D0041EDF0A3ECF0C2AC903215CDF0A3CDF05D
:10178D00903145120C31E4F8F97A207B4112052C89
:10179D001208E0903215E0FFA3E0FE90315FE025E6
:1017AD00E02417F582E43432F583EFF0A3EEF090E8
:1017BD00315FE025E0249DF582E43431F583EDF0D1
:1017CD00A3ECF090319BEDF0A3ECF0D2AC2007032D
:1017DD0002188EC207C2AC90328FCDF0A3CDF0901F
:1017ED00328FE0FDA3E09032BDCDF0A3CDF090316E
:1017FD009BE0FDA3E09032BFCDF0A3CDF090319BE7
:10180D00E0FDA3E09032C3CDF0A3CDF090319BE08D
:10181D00FDA3E09032C7CDF0A3CDF090319BE0FD5C
:10182D00A3E09032D3CDF0A3CDF0903215E0FDA31F
:10183D00E0FCEDE4FEFF12092D793D7B3F78717AD6
:10184D00AA12052C1208E09032A5EDF0A3ECF09051
:10185D0032BBEDF0A3ECF09032C1EDF0A3ECF090C3
:10186D0032C5EDF0A3ECF09032C9EDF0A3ECF090A1
:10187D0032D5EDF0A3ECF0903215EDF0A3ECF0D2F3
:10188D00AC903215E0FDA3E0FC9032CEE06C700719
:10189D009032CDE06D603A90319BE0FDA3E0FC907D
:1018AD0032CCE06C70059032CBE06D701DC3903280
:1018BD00D0E094609032CFE09454500CA3E004F04B
:1018CD009032CF7003E004F080079032CFE4F0A3A4
:1018DD00F090319BE0FDA3E0FC9032CCE06C700702
:1018ED009032CBE06D603A903215E0FDA3E0FC90B4
:1018FD0032CEE06C70059032CDE06D701DC390322C
:10190D00D2E094609032D1E09454500CA3E004F0F6
:10191D009032D17003E004F080079032D1E4F0A34F
:10192D00F090319BE0FDA3E0FC9032CCE06C7005B3
:10193D009032CBE06D7033903215E0FDA3E0FC905A
:10194D0032CEE06C70059032CDE06D701DC39032DB
:10195D00D8E094C09032D7E094A8500CA3E004F0E6
:10196D009032D77003E004F080079032D7E4F0A3F3
:10197D00F090319BE0FDA3E09032CBCDF0A3CDF004
:10198D00903215E0FDA3E09032CDCDF0A3CDF02245
:10199D009033BE120C319033CA120C3D1206A812B0
:1019AD000C49792E7B427A6578E412052C903143EF
:1019BD00120C109033BE120C31EF4E6003EF5480B9
:1019CD00B2E770239033CA120C31EF4E6005EF541D
:1019DD0080B2E7B2E770109031437C007D007EB499
:1019ED007F43120A1480529033BE120C31EF4E60B9
:1019FD0005EF5480B2E7B2E7700F9033CA120C3185
:101A0D00EF4E6003EF548070229033BE120C31EF15
:101A1D004E6003EF5480B2E7701F9033CA120C3141
:101A2D00EF4E6003EF5480B2E7700E9031437C00AF
:101A3D007D007E347F43120A149033D4120C31E4AE
:101A4D00F9FAFB783C120278122B47903141EDF0F8
:101A5D00A3ECF0C2AC9032A5CDF0A3CDF090314304
:101A6D00120C31E4F8F97A207B4112052C1208E0B2
:101A7D00D2AC9032A5E0FFA3E0FE90315EE025E010
:101A8D0024A7F582E43432F583EFF0A3EEF0903124
:101A9D005EE025E02491F582E43432F583EDF0A388
:101AAD00ECF090328FEDF0A3ECF0C2AC9032C5E4C7
:101ABD00F0A3F09032C3F0A3F0903141F0A3F09079
:101ACD003142E0643C7009903141E07003021B58D3
:101ADD00903142E025E02417F582E43432F583E0BD
:101AED00FDA3E0FC9032C6E0C39C9032C5E09D5052
:101AFD0036903142E025E0249DF582E43431F583C2
:101B0D00E0FDA3E09032C3CDF0A3CDF0903142E0E3
:101B1D0025E02417F582E43432F583E0FDA3E0904F
:101B2D0032C5CDF0A3CDF0903142E025E02417F57C
:101B3D0082E43432F583E4F0A3F0903142E004F016
:101B4D009031417003E004F0021ACCD2AC9033D442
:101B5D00E4F0A3F0A3F0A3F09033BEF0A3F0903324
:101B6D00CAF0A3F0903141F0A37408F0903142E037
:101B7D00640B7009903141E07003021C3D90315EA1
:101B8D00E07D00903142FEE02EFC903141E03DFDC4
:101B9D00E4FB7A0AECF8EDF9120139E825E024A707
:101BAD00F582E43432F583E0FDA3E0FC7E007F0096
:101BBD009033D412048E90315EE07D00903142FE60
:101BCD00E02EFC903141E03DFDE4FB7A0AECF8EDAE
:101BDD00F9120139E825E02491F582E43432F583D8
:101BED00E0FDA3E0FCEDE4FEFF12092DE4F8F97A27
:101BFD00207B411206A878337B3C7A8E79FA120548
:101C0D002C903143120C10120E599033BE120A143F
:101C1D00903143120C31120C749033CA120A149085
:101C2D003142E004F09031417003E004F0021B7981
:101C3D009033BE120C319033CA120C3D1206A8120D
:101C4D000C49792E7B427A6578E412052C9031434C
:101C5D00120C109033BE120C31EF4E6003EF548016
:101C6D00B2E770239033CA120C31EF4E6005EF547A
:101C7D0080B2E7B2E770109031437C007D007EB4F6
:101C8D007F43120A1480529033BE120C31EF4E6016
:101C9D0005EF5480B2E7B2E7700F9033CA120C31E2
:101CAD00EF4E6003EF548070229033BE120C31EF73
:101CBD004E6003EF5480B2E7701F9033CA120C319F
:101CCD00EF4E6003EF5480B2E7700E9031437C000D
:101CDD007D007E347F43120A14C2AC9033D4120CB3
:101CED0031120922E4F8F97440FAFB1206A8120821
:101CFD00E09032D5EDF0A3ECF0903143120C31E4CD
:101D0D00F8F97A207B4112052C1208E09032D3EDC0
:101D1D00F0A3ECF0D2AC9033D4E4F0A3F0A3F0A395
:101D2D00F09033BEF0A3F09033CAF0A3F0229033BD
:101D3D00C2120C319033CE120C3D1206A8120C4972
:101D4D00792E7B427A6578E412052C903120120CA5
:101D5D00109033C2120C31EF4E6003EF5480B2E796
:101D6D0070239033CE120C31EF4E6005EF5480B2DC
:101D7D00E7B2E770109031207C007D007EB47F4388
:101D8D00120A1480529033C2120C31EF4E6005EFDF
:101D9D005480B2E7B2E7700F9033CE120C31EF4E94
:101DAD006003EF548070229033C2120C31EF4E60FD
:101DBD0003EF5480B2E7701F9033CE120C31EF4E0B
:101DCD006003EF5480B2E7700E9031207C007D00EF
:101DDD007E347F43120A149033D8120C311209222B
:101DED00E4F8F97A167B441206A81208E0122B4784
:101DFD0090311EEDF0A3ECF0C2AC9032BBCDF0A350
:101E0D00CDF0903120120C31E4F8F97A207B41129B
:101E1D00052C1208E09032BDEDF0A3ECF09032C924
:101E2D00E4F0A3F09032C7F0A3F090311EF0A3F0D0
:101E3D0090311FE0640A700690311EE060679031AA
:101E4D001FE025E024A7F582E43432F583E0FDA3FD
:101E5D00E0FC9032CAE0C39C9032C9E09D503690B0
:101E6D00311FE025E02491F582E43432F583E0FD65
:101E7D00A3E09032C7CDF0A3CDF090311FE025E067
:101E8D0024A7F582E43432F583E0FDA3E09032C956
:101E9D00CDF0A3CDF090311FE004F090311E700312
:101EAD00E004F0808BD2AC9033D8E4F0A3F0A3F033
:101EBD00A3F09033C2F0A3F09033CEF0A3F0223212
:101ECD00C0E0C082C083C0D0C2CA75CD0075CC0041
:101EDD00D39032DAE094149032D9E094004004D2D9
:101EED000C800EC20CA3E004F09032D97003E00414
:101EFD00F075CA0075CB00D2CAC2CFD0D0D083D076
:101F0D0082D0E032C0E0C0F0C082C083C0D0E8C053
:101F1D00E0E9C0E0EAC0E0EBC0E0ECC0E0EDC0E01D
:101F2D00EEC0E0EFC0E090315DE0FC04F0ECB403F6
:101F3D001FE4F0C2AC90315FE004F0B43C10E4F06B
:101F4D0090315EE0FF0FEF75F00A84E5F0F0D2AC52
:101F5D00C2B5903106E4F0A3F0C3903107E0940FC1
:101F6D00903106E094005026A3E004F09031067005
:101F7D0003E004F0A3E024FFF0903106E034FFF01D
:101F8D00A3E004F09031067003E004F080CB74FF01
:101F9D0090C000F0903106E4F0A3F0C3903107E05B
:101FAD00940A903106E094005026A3E004F090319D
:101FBD00067003E004F0A3E024FFF0903106E03456
:101FCD00FFF0A3E004F09031067003E004F080CB45
:101FDD00E4F0A3F030B320903106E0FDA3E0FCE087
:101FED0004F09031067003E004F0D3EC9464ED94AA
:101FFD00004002800280DDD3903107E0946490317F
:10200D0006E094004004D2098002C209C2AC90C01F
:10201D0001E0C4540F7D00FC8D82E07F007E04251D
:10202D00E0CF33CFDEF9FEEC4EFCED4F903160F09A
:10203D00A3CCF0CCD2ACD2B5C28CE58C7D007C00AB
:10204D00FDECED3395E0FEFF903155120C10E58A55
:10205D00FC7D007E007F009031551204C5D28C901E
:10206D003159120C31903155120C3D74071202D8B2
:10207D00701EE8FCE9FDC390315CE0FEEC9EFC9027
:10208D00315BE0FEED9E903164F0A3CCF0CC801C72
:10209D00E8FCE9FDC390315CE0FEEC9EFC90315B09
:1020AD00E0FEED9E903164F0A3CCF0CC903159124E
:1020BD000C1C9033AEE4F0A3F09033B2F0A3F0C259
:1020CD0005903106F0A3F0903107E064107009908F
:1020DD003106E070030222269033B27C007D007E33
:1020ED00B47F41120A14903107E025E09030C6FB11
:1020FD0093CB04939033B0CBF0A3CBF0FA90316136
:10210D00E0C39A903160E09B4003022206E0FBA3FE
:10211D00E0FA9033AFE0D39A9033AEE09B400302E8
:10212D002206D205E4F8F97AB47BC11207E3EE4F2B
:10213D006004EF6480FF9033B2120C3D1207E39000
:10214D0033B0E0FBA3E0C39033AFF9E0C999FA9047
:10215D0033AEE0F9EB99FBEAF8CBF9CBEBE4FAFB04
:10216D0012097E1206A8903160E0FBA3E0F8CBF9CE
:10217D00CBEBE4FAFB12097E9033B6120C1012056C
:10218D002CEFC0E0EEC0E0EDC0E0ECC0E09033B26B
:10219D00120C31E4F8F97AB47BC11207E3D0E0F800
:1021AD00D0E0F9D0E0FAD0E0FB1207E39033AEE0D7
:1021BD00FBA3E0F8CBF9CBEBE4FAFB12097EEFC001
:1021CD00E0EEC0E0EDC0E0ECC0E09033B6120C31B3
:1021DD0012052CD0E0F8D0E0F9D0E0FAD0E0FB12F7
:1021ED0007B8E4F8F97A207B4112052C1208E0902B
:1021FD003166EDF0A3ECF080209033B0E0FDA3E06C
:10220D009033AECDF0A3CDF0903107E004F09031D6
:10221D00067003E004F00220D420050990316674A5
:10222D000EF0A304F090319AE0FF0FEF75F00C84DF
:10223D00E5F0FC903166E0FFA3E0FEEC90319AF002
:10224D0025E0246AF582E43431F583EFF0A3EEF056
:10225D00903164E0FFA3E0FEEC25E02482F582E4FA
:10226D003431F583EFF0A3EEF0D206D0E0FFD0E0ED
:10227D00FED0E0FDD0E0FCD0E0FBD0E0FAD0E0F9FC
:10228D00D0E0F8D0D0D083D082D0F0D0E032C0E012
:10229D00C082C083C0D0EAC0E0EBC0E0ECC0E0ED8E
:1022AD00C0E0EEC0E0EFC0E0209803022AEEC29835
:1022BD00D203D2969033A87410F0A3E4F0E5999070
:1022CD00333FFEE0FDA3E0FCE004F090333F7003EC
:1022DD00E004F0EC24DBF582E43432F583EEF0908B
:1022ED003340E01424DBF582E43432F583E0B4FEB0
:1022FD00028003022ADB903340E024FE24DBF582CA
:10230D00E43432F583E0046003022ADB903340E0CD
:10231D0024F624DBF582E43432F583E00460030215
:10232D002ADB903340E024F524DBF582E43432F5EA
:10233D0083E0046003022ADBE4903109F074099014
:10234D003108F0903108E064036021E0FC903340E7
:10235D00E0C39C24DBF582E43432F583E09031094F
:10236D00FCE06CF0903108E014F080D7903340E041
:10237D0024FD24DBF582E43432F583E0FC90310951
:10238D00E06C6003022ADB903340E024F824DBF597
:10239D0082E43432F583E0FC9033A7E06C600302F5
:1023AD00270C903340E024F724DBF582E43432F53A
:1023BD0083E0B44D02800302247B90333FE4F0A30D
:1023CD00F014903351F0903350F0744D90334FF032
:1023DD00903153E090334EF0E490334DF09033A7AD
:1023ED00E090334CF090319BE0FDA3E0ED7D00904B
:1023FD00334BF090319CE090334AF0ED903349F03F
:10240D00903348F0903347F0903346F09032BFE070
:10241D00FDA3E0ED7D00903345F09032C0E09033A8
:10242D0044F0ED903343F0740E903109F090310982
:10243D00E06402601AE02441F582E43433F583E070
:10244D00903343FCE06CF0903109E014F080DE74C1
:10245D00FF903342F014903341F09033A5E4F0A394
:10246D007410F0D202903351E0F59902270CB44F5D
:10247D0002800302254590333FE4F0A3F01490331E
:10248D0051F0903350F0744F90334FF0903153E042
:10249D0090334EF0E490334DF09033A7E090334CF1
:1024AD00F090328FE0FDA3E0ED7D0090334BF09086
:1024BD003290E090334AF09032D3E0FDA3E0ED7D11
:1024CD0000903349F09032D4E0903348F0ED9033E2
:1024DD0047F0903346F09032BFE0FDA3E0ED7D0074
:1024ED00903345F09032C0E0903344F0ED9033439B
:1024FD00F0740E903109F0903109E06402601AE039
:10250D002441F582E43433F583E0903343FCE06CF1
:10251D00F0903109E014F080DE74FF903342F01436
:10252D00903341F09033A5E4F0A37410F0D20290F3
:10253D003351E0F59902270CB4540280030225FDB6
:10254D0090333FE4F0A3F014903351F0903350F0FA
:10255D00745490334FF0E490334EF090334DF0902F
:10256D0033A7E090334CF09032BDE0FDA3E0ED7D5C
:10257D000090334BF09032BEE090334AF0ED903343
:10258D0049F0903348F0903347F0903346F0903255
:10259D00BFE0FDA3E0ED7D00903345F09032C0E04B
:1025AD00903344F0ED903343F0740E903109F09078
:1025BD003109E06402601AE02441F582E43433F518
:1025CD0083E0903343FCE06CF0903109E014F0802F
:1025DD00DE74FF903342F014903341F09033A5E454
:1025ED00F0A37410F0D202903351E0F59902270C4C
:1025FD00B4520280030226C690333FE4F0A3F014D8
:10260D00903351F0903350F0745290334FF090312D
:10261D0053E090334EF0E490334DF09033A7E090BB
:10262D00334CF0903160E0FDA3E0ED7D0090334B35
:10263D00F0903161E090334AF090319BE0FDA3E0E2
:10264D00ED7D00903349F090319CE0903348F0EDF2
:10265D00903347F0903346F09032BFE0FDA3E0EDAC
:10266D007D00903345F09032C0E0903344F0ED9012
:10267D003343F0740E903109F0903109E06402603B
:10268D001AE02441F582E43433F583E0903343FCC2
:10269D00E06CF0903109E014F080DE74FF9033426D
:1026AD00F014903341F09033A5E4F0A37410F0D200
:1026BD0002903351E0F5998046B4404390333FE0AA
:1026CD00FFA3E0FE24FB24DBF582E43432F583E046
:1026DD007D007C00CEFACEFDEA24FC24DBF582E4FD
:1026ED003432F583E07B00FAEC4AFCED9032BFF01A
:1026FD00A3CCF0CCEBFEFF90333FF0A3F080009025
:10270D003340E024F824DBF582E43432F583E07DB8
:10271D0000FC9033A7E07F0004FE70010FEC6E709B
:10272D0002ED6F6003022A9C903340E024F724DB16
:10273D00F582E43432F583E0B44D028003022803C0
:10274D0090333FE4F0A3F014903351F0903350F0F8
:10275D00744D90334FF0903154E090334EF074013E
:10276D0090334DF09033A7E00490334CF090321538
:10277D00E0FDA3E0ED7D0090334BF0903216E0903C
:10278D00334AF0ED903349F0903348F0903347F0F1
:10279D00903346F09032C1E0FDA3E0ED7D00903323
:1027AD0045F09032C2E0903344F0ED903343F07435
:1027BD000E903109F0903109E06402601AE0244175
:1027CD00F582E43433F583E0903343FCE06CF09014
:1027DD003109E014F080DE74FF903342F014903331
:1027ED0041F09033A5E4F0A37410F0D20290335170
:1027FD00E0F599022A9AB44F0280030228CF903354
:10280D003FE4F0A3F014903351F0903350F0744F37
:10281D0090334FF0903154E090334EF0740190337B
:10282D004DF09033A7E00490334CF09032A5E0FDCD
:10283D00A3E0ED7D0090334BF09032A6E090334A4B
:10284D00F09032D5E0FDA3E0ED7D00903349F0909E
:10285D0032D6E0903348F0ED903347F0903346F0A8
:10286D009032C1E0FDA3E0ED7D00903345F0903254
:10287D00C2E0903344F0ED903343F0740E90310983
:10288D00F0903109E06402601AE02441F582E434ED
:10289D0033F583E0903343FCE06CF0903109E014A4
:1028AD00F080DE74FF903342F014903341F090339A
:1028BD00A5E4F0A37410F0D202903351E0F5990223
:1028CD002A9AB45402800302298990333FE4F0A37D
:1028DD00F014903351F0903350F0745490334FF016
:1028ED00E490334EF00490334DF09033A7E0049014
:1028FD00334CF09032BBE0FDA3E0ED7D0090334B07
:10290D00F09032BCE090334AF0ED903349F09033C3
:10291D0048F0903347F0903346F09032C1E0FDA37C
:10292D00E0ED7D00903345F09032C2E0903344F0FD
:10293D00ED903343F0740E903109F0903109E0645D
:10294D0002601AE02441F582E43433F583E09033DC
:10295D0043FCE06CF0903109E014F080DE74FF90E0
:10296D003342F014903341F09033A5E4F0A374108A
:10297D00F0D202903351E0F599022A9AB4520280B6
:10298D0003022A5490333FE4F0A3F014903351F036
:10299D00903350F0745290334FF0903154E09033A7
:1029AD004EF0740190334DF09033A7E00490334C0A
:1029BD00F0903162E0FDA3E0ED7D0090334BF0909F
:1029CD003163E090334AF0903215E0FDA3E0ED7DE8
:1029DD0000903349F0903216E0903348F0ED90338B
:1029ED0047F0903346F09032C1E0FDA3E0ED7D005D
:1029FD00903345F09032C2E0903344F0ED90334384
:102A0D00F0740E903109F0903109E06402601AE023
:102A1D002441F582E43433F583E0903343FCE06CDC
:102A2D00F0903109E014F080DE74FF903342F01421
:102A3D00903341F09033A5E4F0A37410F0D20290DE
:102A4D003351E0F5998046B4404390333FE0FFA306
:102A5D00E0FE24FB24DBF582E43432F583E07D00D7
:102A6D007C00CEFACEFDEA24FC24DBF582E4343280
:102A7D00F583E07B00FAEC4AFCED9032C1F0A3CC7B
:102A8D00F0CCEBFEFF90333FF0A3F0800080389048
:102A9D003340E024F724DBF582E43432F583E0B4EF
:102AAD00492590333FE4F0A3F090319BE0FDA3E086
:102ABD009032BFCDF0A3CDF0903215E0FDA3E090A4
:102ACD0032C1CDF0A3CDF090333FE4F0A3F0D3901D
:102ADD003340E0945A90333FE094004004E4F0A377
:102AED00F030993BC2993002369033A5E0FDA3E05A
:102AFD00FCE024FFF09033A5E034FFF0EC4D601DB9
:102B0D00A3E02441F582E43433F583E0F599D20452
:102B1D00D2979033AA7410F0A3E4F08002C202D0D1
:102B2D00E0FFD0E0FED0E0FDD0E0FCD0E0FBD0E057
:102B3D00FAD0D0D083D082D0E032903116EDF0A310
:102B4D00ECF04D700EE4FCFD903116EDF0A3ECF0C1
:102B5D00022E229030E7E493C39C9030E6E4939DDF
:102B6D004049E493FD740193FCEDE4FEFF12092D41
:102B7D00E4F8F97440FAFB12069C903116E0FBA3C1
:102B8D00E0F8CBF9CBEBE4FAFB12097E903112128F
:102B9D000C1012052CE4F8F97A207B4112052C1249
:102BAD0008E0A3EDF0A3ECF0022E22A3E493C39C66
:102BBD009030E6E4939D4003022C8A9030E9E49333
:102BCD00C39C9030E8E4939D5003022C8AE493FD5E
:102BDD00740193FC9030E6E493FF740193FEEC9046
:102BED00310ACDF0A3CDF0FCEEA3CFF0A3CFF0FED4
:102BFD00C3EC9EFCED9FFDECF8CDF9CDEDE4FAFBB9
:102C0D0012097EE4FCFDFE7F401206A8903116E00D
:102C1D00FBA3E0F8CBF9CBEBE4FAFB12097E903184
:102C2D0012120C1012052C90310CE0FBA3E0F8CB26
:102C3D00F9CBEBE4FAFB12097EEFC0E0EEC0E0ED5C
:102C4D00C0E0ECC0E0903112120C3112052CD0E036
:102C5D00F8D0E0F9D0E0FAD0E0FB1207B8E4F8F9CB
:102C6D007440FAFB1207E3E4F8F97A207B41120570
:102C7D002C1208E0A3EDF0A3ECF0022E229030E828
:102C8D00E493FD74019390310CCDF0A3CDF0903110
:102C9D0010E4F0A37405F090310EE4F0A37402F08B
:102CAD0090310FE06410700990310EE07003022E28
:102CBD0022903111E02405F0903110E03400F090B5
:102CCD00310FE025E09030E6FD93CD049390310A6D
:102CDD00CDF0A3CDF0FC903117E0C39C903116E000
:102CED009D4003022E05E0FDA3E0FC90310DE0D3E5
:102CFD009C90310CE09D4003022E05903110E0FFB9
:102D0D00A3E0FEFCCFFDCFEFE4FEFF12092DE4F8AA
:102D1D00F97AA07BC01207E3EE4F6004EF6480FFE9
:102D2D00903110E0FBA3E0F8CBF9CBEBE4FAFB120A
:102D3D00097E1207E390310AE0FBA3E0C3A3A3F9D8
:102D4D00E0C999FA90310CE0F9EB99FBEAF8CBF96F
:102D5D00CBEBE4FAFB12097E1206A8903116E0FBCC
:102D6D00A3E0F8CBF9CBEBE4FAFB12097E9031121C
:102D7D00120C1012052C903110E0FBA3E0F8CBF9EA
:102D8D00CBEBE4FAFB12097EEFC0E0EEC0E0EDC044
:102D9D00E0ECC0E0E4FCFD7EA07FC01207E3D0E0D4
:102DAD00F8D0E0F9D0E0FAD0E0FB1207E390310C57
:102DBD00E0FBA3E0F8CBF9CBEBE4FAFB12097EEFD5
:102DCD00C0E0EEC0E0EDC0E0ECC0E0903112120CBE
:102DDD003112052CD0E0F8D0E0F9D0E0FAD0E0FBCC
:102DED001207B8E4F8F97A207B4112052C1208E09D
:102DFD00A3EDF0A3ECF0801D90310AE0FDA3E0A35C
:102E0D00CDF0A3CDF0A3A3E004F090310E7003E05C
:102E1D0004F0022CADD3903117E09458903116E0A8
:0F2E2D00940240057D027C5922E0FDA3E0FC22C7
:102E3C002F202F2F2F202F2F2F2F2F2F2F2F2F2FB4
:102E4C002F2F2F2F2F2F2F2F2F2F2F2F2F2F2F2F86
:102E5C002F2F2F2F2F2F2F2F2F2F2F2F2F2F2F2F76
:102E6C002F2F2F2F2F202F2F2F202F00000000006F
:102E7C00002F202F2F2F202F2F2F2F2F2F2F2F2FA3
:102E8C002F2F2F2F2F2F2F2F2F2F2F2F2F2F2F2F46
:102E9C002F2F2F2F2F2F2F2F2F2F2F2F2F2F2F2F36
:102EAC002F2F2F2F2F2F202F2F2F202F0000000000
:102EBC0000002F202F2F2F202F2F2F2020202020DD
:102ECC0020202057696E642053706565642026208D
:102EDC00446972656374696F6E20426F617264201D
:102EEC00202020202F2F2F202F2F2F202F000000CD
:102EFC000000002F202F2F2F202F2F2F20202020BD
:102F0C0020202020202020202020202020202020B5
:102F1C00202020202855702D4772616465292020BF
:102F2C0020202020202F2F2F202F2F2F202F00006C
:102F3C00000000002F202F2F2F202F2F2F2020209C
:102F4C00202020204A494E59414E472020494E44CA
:102F5C005553545249414C2E2C434F204C54442031
:102F6C002020202020202F2F2F202F2F2F202F000C
:102F7C0000000000002F202F2F2F202F2F2F20207C
:102F8C00202020202050726F6772616D20427920C2
:102F9C00204861652D73756B2E204A494E202020E8
:102FAC00202020202020202F2F2F202F2F2F202FAC
:102FBC000000000000002F202F2F2F202F2F2F205C
:102FCC00202020205374617274203A20203139392A
:102FDC00352E31322E203137202020202020202069
:102FEC0020202020202020202F2F2F202F2F2F207B
:102FFC002F0000000000002F202F2F2F202F2F2F0D
:10300C0020202020202020456E64203A20203139B9
:10301C0039362E20332E2031312020566572203146
:10302C002E31202020202020202F2F2F202F2F2F1B
:10303C00202F0000000000002F202F2F2F202F2FDB
:10304C002F2F2F2F2F2F2F2F2F2F2F2F2F2F2F2F84
:10305C002F2F2F2F2F2F2F2F2F2F2F2F2F2F2F2F74
:10306C002F2F2F2F2F2F2F2F2F2F2F2F2F202F2F73
:10307C002F202F0000000000002F202F2F2F202F9B
:10308C002F2F2F2F2F2F2F2F2F2F2F2F2F2F2F2F44
:10309C002F2F2F2F2F2F2F2F2F2F2F2F2F2F2F2F34
:1030AC002F2F2F2F2F2F2F2F2F2F2F2F2F2F202F33
:1030BC002F2F202F00000000000000FE01FD02FB5E
:1030CC0003FA04F805F606F507F308F109F00AEE21
:1030DC000BED0CEB0DE90EE80FE6002D005000A0F7
:1030EC0000F8014D01A401FB025102A802FE035598
:0A30FC0003AC0403045904B00507F7
:03000300021F11C8
:03000B00021ECC06
:0300230002229B1B
:03002B00021ECDE5
:00000001FF
:00000001FF
