:0410E50022C6000619
:0410E90021370006A5
:0410ED003703000EB7
:0410F1003A61001749
:0410F50034E90000DA
:0410F9001EC1000410
:0410FD001F9A000630
:0411010019A60039F2
:041105001D5800066B
:030000000200807B
:1000800075812778277600D8FC902B97AE83AF82B6
:100090009000641200BE6005E4F0A380F690011C9D
:1000A0001200C79001201200C79001241200E590B1
:1000B000012A1200E575D000124812020130EF65E6
:1000C000827003EE658322E493F8740193F974025D
:1000D00093FE740393F5828E83E869700122E493A2
:1000E000F6A30880F4E493FC740193FD740293FE7C
:1000F000740393FF740493F8740593F58288831254
:1001000000BE700122E493A3A883A9828C838D8210
:10011000F0A3AC83AD828883898280E3282810B75E
:10012000282810B72B9710E510B72BC51109110916
:0201300080FE4F
:1011090090004C121075EF4E6005EF5480B2E7B2B3
:10111900E7700412154E22EE4F6004EF6480FF124F
:0B112900154EEE4F6004EF6480FF22C3
:10113400900033121075EF4E6003EF5480B2E770E5
:101144000EEE4F6004EF6480FF9000331210759030
:0B1154000031E4F0A304F01215DA22D1
:10115F00EF4E6003EF548070028008EE4F6004EF93
:04116F006480FF2277
:1011730090003EE4F0A3F0A3121075EE4F700EA39F
:1011830012108DE4FB120ECCFCFDFEFF22EF4E602D
:1011930003EF5480B2E77018EE4F6004EF6480FFF2
:1011A30090004012107590003CE4F0A304F0800717
:1011B30090003CE4F0A3F0E4F8F97B3F7A807407F5
:1011C300120952703490004012109FE4F8F97B3FEB
:1011D3007A807407120952701E90003FE004F09069
:1011E300003E7003E004F0E4F8F9FA7B401206369F
:1011F300A3A312107580CE803190004012109FE49B
:10120300F8F9FA7B3F740B120952701E90003FE00D
:1012130024FFF090003EE034FFF0E4F8F9FA7B405D
:101223001204BAA3A312107580CF90003EE0FDA371
:10123300E0FC900044121096EC120EAB90003CE0E0
:10124300FDA3E04D601090004012109FEE4F60042C
:0D125300EF6480FF800690004012109F2283
:064904000100640108330C
:0310B700010064D1
:1012600090003F121063900001120CD0EAFDE9C318
:10127000900044FEE0CE9EFC900043E0FEED9ED345
:10128000FDEC9404ED64809480403890003F12108F
:101290008D900001120CD090004212108D90003CF5
:1012A00012106CA3121096900001120F18900042B9
:1012B00012108DE4120E7F90003C121096900001E7
:1012C000120F1E2290004EEDF0A3ECF02404FCE47B
:1012D0003DFD904908E493FF740193C3902B99FA64
:1012E000E0CA9AFE902B98E0FAEF9AFFECD39EEDBD
:1012F0009F505B902B9712108D7401120E7F9000FF
:101300004FE02404FA90004EE03400C0E090004B1F
:10131000121063D0E0CAFDCAFE902B99E02DF0FDBB
:10132000902B98E03EF0FE902B97E0FF90004B1240
:101330001096900001120F18902B9712108D9000AC
:101340004FE0C3CD9DFD90004EE0CE9EFE22904921
:1013500004121048900045121063900046E0FDA36F
:10136000E0FC902B99E0D39C902B98E09D500302D9
:10137000140A90004512108D90004B121063120C4D
:10138000277072900001120CD0EAFDE9C39000476B
:10139000FEE0CE9EFC900046E0FEED9EFDEC24FCBF
:1013A000FCED34FFFD90004FE0D39C90004EE09D9B
:1013B0005043900045E0FFA3E0A3E02404FDEE3499
:1013C00000FE90004B1210967401120E71900048AE
:1013D00012106390004FE02DFD90004EE03EFE9015
:1013E0000042121063E9FDEAFEEBFF12126090006A
:1013F0004812108D2290004B12108D900001120C9B
:0F140000D090004512106C02135AE4FDFEFF223B
:10140F00900000121075900008121075EF4E6003D7
:10141F00EF5480B2E77006900000120A629000004D
:10142F0012109F7A187B4B788079967403120952A9
:10143F00701190000812109FA3121096120F80E4E3
:10144F00FEFF2290000812109F12086E1208B0A320
:10145F00121096120F80120D6AEE4F6004EF648027
:0B146F00FF9000081210AB1207712262
:10147A009000441210751204B290003C1210757953
:10148A003A7B417A8178A81204BA79367B43787616
:10149A007A8612077190003C1210AB1204BA7920B6
:1014AA007B447A9078F012077190003C1210AB12CC
:1014BA0004BA78017B44798D7ADE12077190003C78
:1014CA001210AB1204BA79327B44784D7A60120753
:1014DA0071A312107590003C12109F7B427A6B79AF
:1014EA00D378F012077190003C1210AB1204BA7A4A
:1014FA000679107B4478FC12077190003C1210ABFD
:10150A001204BA78157B4479597AD012077190007F
:10151A003C1210AB1204BA7A017B45785C79F51259
:10152A00077190003C1210AB1204BA79327B4478EE
:10153A004D7A60120771A3120A579000441210AB39
:10154A001204BA2290004812107579137B3E78CDA6
:10155A007AD4740B120952700412147A227A1A7B02
:10156A0040787A798274071209527021E4F8F97B7B
:10157A003F7A8012062A12147AEE4F6004EF6480D2
:10158A00FF790F7B3F7AC978DB12077122E4F8F9F9
:10159A007A807BBF12077112102490004812109FA4
:1015AA00E4F8F97B3F7A8012077112103612062A84
:0F15BA0012147A790F7B3F7A4978DB120771227E
:1015C900900033121075900031E4F0A3F01215DA8F
:0115D90022EF
:1015DA0090001B121075EF4E6003EF5480B2E77053
:1015EA001CEE4F6004EF6480FF90001B1210759090
:1015FA000032E02402F0900031E03400F07A227BDD
:10160A003F788379F91204BA90001B121075E4F836
:10161A007B4679F87AFF740712095260030216A909
:10162A007D0F7E007F0190000C12106390001B1248
:10163A00109F12140F90001F121075900031E0FDD8
:10164A00A3E0FCED3395E0FEFF1208B090000F1204
:10165A000A487D137E007F0190000C1210639000EF
:10166A000F12109FE4F8F97B3E7A801204BA121422
:10167A000F90001312109FE4F8F97B407A8012044D
:10168A00BAEE4F6004EF6480FF90000F1210AB12A5
:10169A00077112086E900031EDF0A3ECF08047124A
:1016AA00086E900023EDF0A3ECF0ED3395E0FEFF19
:1016BA001208B090001B1210AB120746A312107545
:1016CA00900031E0FFA3E0FEEFFDEE900024FAE087
:1016DA002AFC900023E03DFDEC5403FE7F009000BD
:1016EA0031EFF0A3EEF030E01690001F12109FE4E5
:1016FA00F8F97B3F7A8012074690001F121075D3C3
:10170A00900032E09401900031E0648094804006B9
:10171A0090001F120A6290001F12109F1204B290CA
:10172A00001712107578067A117B4379F81204BAF9
:10173A0078177A58795D7BC61207719000171210D4
:10174A00AB1204BA7B487AD678E279E41207719030
:10175A0000171210AB1204BA78787A967BCA79D835
:10176A001207719000171210AB1204BA79327B4B30
:10177A007A4F785912077190001F1210AB1204BAEF
:10178A0090002512107590001712109F7A047B435F
:10179A00784B79A71207719000171210AB1204BA8E
:1017AA007A137B46786279DC12077190001712105F
:1017BA00AB1204BA7B48794E78677AC712077190E0
:1017CA0000171210AB1204BA7A037B4B78CF79E771
:1017DA001207719000291210759000251210AB1291
:0317EA00062A22AA
:1017ED00900053121075EF4E6005EF5480B2E77004
:1017FD0004E4FEFF227D4F7E007F01900044121015
:10180D006390005312109F121173900047121075C0
:10181D0090004712109FE4F8F9FA7B3F740B120900
:10182D0052701FE4F8F9FA7B401204BA9000471287
:10183D001075900050E024FFF090004FE034FFF061
:10184D0080CE900050E030E01DE4F8F9FA7B4012B4
:10185D0004BA900047121075900050E024FFF090EC
:10186D00004FE034FFF0E4F8F97B3F7A8012077106
:10187D00E4F8F9FA7B3F1204BA90004B121075D3BD
:10188D00900050E0943C90004FE064809480401EA6
:10189D0090004B7C007D007E807F4E120A5290009E
:1018AD0050E024C4F090004FE034FFF080D1C3909D
:1018BD000050E094C490004FE06480947F501E90DF
:1018CD00004B7C007D007E807F4E120A57900050A9
:1018DD00E0243CF090004FE03400F080D1E0334044
:1018ED002FE0FDA3E0FCE4FB7A02ECF8EDF9120128
:1018FD004DE8E93395E0FAFBE87C017D007E007F41
:10190D0000F812046B1208B090004B120A5280348A
:10191D00E0FDA3E0FCC3E49CFCE49DFDE4FB7A0246
:10192D00ECF8EDF912014DE8E93395E0FAFBE87CAE
:10193D00017D007E007F00F812046B1208B090004C
:10194D004B120A57900051E4F0A3F0D3900052E0EF
:10195D009404900051E0648094805036A3A312103B
:10196D009F90004B1210AB12063690004B1210AB2D
:10197D00120771E4F8F9FA7B3F1204BA900052E0B5
:10198D0004F09000517003E004F090004B121075BC
:09199D0080B990004B12109F224A
:10013200E88BF0A4C98AF0A429F9E88AF0A4F8E5CA
:05014200F029F948223C
:10014700EBC9FBEAC8FAEB335008E4C39AFAE49B1D
:10015700FBD392F0E930E709B2F0C3E498F8E499E9
:10016700F912019A30F008C3E498F8E499F94822A3
:10017700EBC9FBEAC8FA89F012014D20F706EAF845
:0D018700EBF94822C3E49AF8E49BF9482202
:10019400EBC9FBEAC8FAE94B7010E8C0F08AF084B6
:1001A400F8AAF0D0F079007B0022ECC0E0EDC0E0CA
:1001B400EEC0E07D007E007C10C3E833F8E933F93B
:1001C400ED33FDEE33FEED9AEE9B4005FEED9AFD18
:1001D40008DCE6EDFAEEFBD0E0FED0E0FDD0E0FC7A
:0301E400E84922C5
:0F01E700EBC9FBEAC8FA12019AEAF8EBF94822D1
:1001F60030E01B20E30C08E625F0F6F5F018E63CA7
:10020600F62209E725F0F7F5F019E73CF72230E288
:1002160011C083A3E025F0F5F0F01582D083E03C11
:10022600F02220E30C08E225F0F2F5F018E23CF2A9
:0D0236002209E325F0F3F5F019E33CF32273
:10024300F5F0EDCCFD120DD1800D7D00900001F590
:0F025300F0EDCCFD120DEE1201F6CDFCE5F02220
:1002620030E02720E31208E6C0E025F0F618E6F5B4
:10027200F03CF6E5F0D0F02209E7C0E025F0F719EE
:10028200E7F5F03CF7E5F0D0F02230E217A3E0C04A
:10029200E0C08325F0F01582D083E0F5F03CF0E574
:1002A200F0D0F02220E31208E2C0E025F0F218E2DA
:1002B200F5F03CF2E5F0D0F02209E3C0E025F0F3DE
:0B02C20019E3F5F03CF3E5F0D0F0226A
:1002CD00F5F0EBCCFB120E1F8008F5F0EBCCFB121A
:0A02DD000E40120262CBFCE5F02295
:1002E70030E03A30E302E9F8E8C0E0E6F908E6F87A
:1002F70030F005120132801B30F10512014D8013D9
:1003070030F20512019A800B30F30512017D80034C
:100317001201EDD0E0C9F709C8F7C8F92230E23376
:10032700E0F9C083A3E0F830F005120132801B30FA
:10033700F10512014D801330F20512019A800B303E
:10034700F30512017D80031201EDE8F0D0831582D9
:10035700E9F02230E302E9F8E8C0E0E2F908E2F860
:1003670030F005120132801B30F10512014D801368
:1003770030F20512019A800B30F30512017D8003DC
:0D0387001201EDD0E0C9F309C8F3C8F92256
:1003940075F001801275F002800D75F00480087507
:1003A400F008800375F000CACEC0E0EDCBCFC0E00A
:1003B400E9FDE8C0E0120E1F802875F00180127577
:1003C400F002800D75F004800875F008800375F064
:1003D40000CACEC0E0EDCBCFC0E0E9FDE8C0E0123A
:1003E4000E401202E7D0E0C8FAE9CDF9D0E0CFFB25
:0503F400D0E0CECA229A
:1003F90075F001801275F002800D75F004800875A2
:10040900F008800375F000CACEC0E0EFCBFFE9CD5C
:10041900C0E0E8C0E0120E1F802875F00180127557
:10042900F002800D75F004800875F008800375F0FE
:1004390000CACEC0E0EFCBFFE9CDC0E0E8C0E012D2
:100449000E401202E7D0E0C8FAEDC9CFCBD0E0FDEB
:05045900D0E0CECA2234
:0D045E00EFCBFFEECAFEEDC9FDECC8FC229D
:10046B0088F005F0800DC3EC33FCED33FDEE33FE6D
:0B047B00EF33FFD5F0F0EF4E4D4C22A8
:10048600E8FCE9FDEAFEEBFF8008ECF8EDF9EEFA90
:10049600EFFBEC28FCED39FDEE3AFEEF3BFF4E4D4F
:0204A6004C22E6
:1004A800E8FCE9FDEAFEEBFF8008ECF8EDF9EEFA6E
:1004B800EFFBEF4E700122EB4A7005FFFCFDFE22B8
:1004C800120723947F40092B500C7F7F74FF80EC28
:1004D8002B4003E480E5C0E0C0F0E849704EBA80E4
:1004E80009D0E0F9D0E0F80205E3EC4D7018BE80C1
:1004F80008E8FCE9FDEAFE80E8E4FBFFEA8EF0A4E8
:10050800F8E5F00205AEEA8CF0A4FFABF0EA8DF056
:10051800A42BFBE435F0F8EA8EF0A428F8E435F0D3
:100528000205AEEACEFAE9FDE8FC80DAEC4D70058A
:10053800BE80F080BCEAC0E0EC88F0A4FFABF0ED30
:1005480088F0A42BFBE435F0FAEC89F0A42B4FFFDC
:10055800E5F03AFAE433FB88F0EEA42AFAE5F03B3A
:10056800FBED89F0A42AFAE5F03BFBE433F88CF0C4
:10057800D0E0FCA42AC5F03BFBE438F8EF6002D2D7
:10058800F0AFF0ED8CF0A42BFBE5F038F8E433FA8B
:10059800EE89F0A42BFBE5F038F8E43AFAEC8EF09B
:1005A800A428F8E5F03AF5F0FEE8FDEBFCD0E0F918
:1005B800D0E0F830F70708B800060205F01205FC8D
:1005C800EF3350178CF020F00260100CBC000C0DBB
:1005D800BD00080EBE000408E8600DE933E813FF0B
:1005E800EE2313FE4F4D4C227F7F74FF8002E4FF01
:1005F800FEFDFC22C3EF33FFEC33FCED33FDEE339D
:10060800FE22C3EE13FEED13FDEC13FCEF135002B4
:10061800D2E0FF22C3E49CFCE49DFDE49EFEE49F3F
:02062800FF22AF
:10062A00EFCBFFEECAFEEDC9FDECC8FCEF4E70033E
:10063A000205F6EB4A70030205F0120723EB947FDA
:10064A00CF40069F500A0205F6C39F40030205F0F9
:10065A00FBE849700CEA94807007EBF8A9F00205F0
:10066A00E3C0F07F00120714501EEB6002DB05D0D6
:10067A00F00205F6C3120600EF33FFEC28FCED3951
:10068A00FDEE3AFEE43FFFD3EBC0E075F0087403D9
:10069A00C0E07B00501CC3EC98FCED99FDEE9AFE7D
:1006AA00EF9400FF500CEC28FCED39FDEE3AFEE425
:1006BA003FFFEB33FBEC33FCED33FDEE33FEEF3360
:1006CA00FFD5F012D0F0EBC0E0E5F0146012C0E004
:1006DA0075F0087B00EF20E0BDEED330E7D480B69A
:1006EA001207144E4D4CFBD0E0F4FCD0E0F4FDD0E0
:1006FA00E0F4FED0E0F8D0E0F9EB50030205E36045
:10070A00030205D3EC54010205D1C3EC98FCED9920
:09071A00FDEE9AFEEF9400FF22AF
:10072300EAA2E7D2E7FAEB33FB13F5F0EEA2E7D246
:10073300E7FEEF33FFC5F013A2E730E601B313C5BD
:03074300F0C322DE
:10074600EFCBFFEECAFEEDC9FDECC8FCEB4A700329
:10075600EF4E22EB6480FB8019E8FCE9FDEAFEEB34
:10076600FF8008ECF8EDF9EEFAEFFBEB4A7003EFC9
:100776004E22EF4E700BEBFFEAFEE9FDE8FC74013A
:1007860022C3EC98ED99EE9AEBC2E7F5F0EFC2E7DB
:1007960095F0500E600CEBCFFBEACEFAE9CDF9E806
:1007A600CCF8120723C0E0C0F07F00C39BFB605B60
:1007B6009418600C401AD0E023F9D0E0F80205E363
:1007C6008AF0E9486003D2F0E4AFF0FAF9F8803B2A
:1007D600EB30E40D89F0EA6003D2F0E4AFF0F9CA39
:1007E600F8EB30E30D88F0EF6002D2F0AFF0E4CA28
:1007F600C9F8EB54076014FBC3EA13FAE913F9E8E6
:1008060013F8EF135002D2E0FFDBEDD0E0C0E0308A
:10081600E734C3E49FFFF5F0EC98FC42F0ED99FD58
:1008260042F0EE9AFE42F0D0E0F9D0E0F8E5F07042
:100836000122E923F9EE30E7030205C8D8030205D1
:10084600F61205FC80F0EC28FCED39FDEE3AFED000
:10085600E023F9D0E0F840030205C812060B08B8F9
:0808660000030205F00205C8C1
:10086E00EF4E7003FDFC22EEA2E7D2E7FEE4CF339B
:10087E0092D5C3947F50030205F6F5F0941F400500
:10088E0060110205F0F404F5F0EF54FEFF12060AB3
:10089E00D5F0F6EFCCCDCECF30D50312061CEE023E
:0208AE0005EC57
:1008B000EF30E707D2D512061C8002C2D5EF4E4DAD
:1008C0004C70012275F096EF700EEE20E71C15F0CB
:1008D0001205FC30E7F88012EF05F0C313FFEE13AA
:1008E000FEED13FDEC13FCEF70EFA2D5E5F013FF66
:0708F000EE92E7FE44012235
:1008F700EB30E711D2D5C3E498F8E499F9E49AFA12
:10090700E49BFB8002C2D5EB4A494870012275F08F
:1009170096EB7018EA20E72615F0C3EB33FBE833B4
:10092700F8E933F9EA33FA30E7EE8012EB05F0C362
:1009370013FBEA13FAE913F9E813F8EB70EFA2D502
:0B094700E5F013FBEA92E7FA440122FE
:10095200F5F0C3EF20E706EB30E7148034EB20E735
:1009620004F4D3802C30F10363F00CEB547FFBEFE3
:100972004E7002FCFDEB4A7002F8F9EC98A8F0F513
:10098200F0ED9942F0EE9A42F0EF547F9B45F088E9
:10099200F082F130F2037001D330F301B3E4332279
:1009A20075F001801875F011801375F021800E75B5
:1009B200F031800975F051800475F049FCEBC0E01C
:1009C200EAC0E0E9C0E0E8C0E0EDF9EEFAEFFBE6EC
:1009D200FF08E6FE08E6FD08E6CCC830F310CCC0FE
:1009E200E0CCCDC0E0CDCEC0E0CECFC0E0CFC0E005
:0309F200020B1ED7
:1009F50075F002801875F012801375F022800E755F
:100A0500F032800975F052800475F04AFCEBC0E0C5
:100A1500EAC0E0E9C0E0E8C0E0EDF9EEFAEFFBE698
:100A2500FF08E6FE08E6FD08E6CCC830F310CCC0AA
:100A3500E0CCCDC0E0CDCEC0E0CECFC0E0CFC0E0B1
:030A4500020B1E83
:100A480075F004801875F014801375F024800E7505
:100A5800F034800975F04CFC800375F054EBC0E06D
:100A6800EAC0E0E9C0E0E8C0E0ECF8EDF9EEFAEF42
:100A7800FBE0FFA3E0FEA3E0FDA3E0FC30F30CECF9
:100A8800C0E0EDC0E0EEC0E0EFC0E0E58224FDC0CC
:0A0A9800E0E58334FFC0E0020B1E0E
:100AA20075F000801875F010801375F020800E75B7
:100AB200F030800975F048FC800375F050BB000AE5
:100AC200E92582F843F0010209BFBB011043F0049B
:100AD200E92582F582EA3583F583020A6543F0024D
:070AE200E92582F8020A1267
:100AE90075F004801875F010801375F020800E756C
:100AF900F030800975F048F8800375F05012045EF3
:0B0B0900120ABFF5F012045EE5F022B6
:0A0B1400E8FB7A80E4F9F8020771AB
:100B1E00C0F0E5F0C4540F75F005A47582307583EE
:100B2E000B73120771801C12075280171204BA80C1
:100B3E0012120636800D120B148008EF4E6004EF71
:100B4E00B2E7FFD0F0FB30F010D0E0F8ECF618ED85
:100B5E00F618EEF618EFF6802E30F21DD083D08206
:100B6E00EFF0A3EEF0A3EDF0A3ECF0E58224FDF59B
:100B7E0082E58334FFF583800ED0E0F8ECF218EDB9
:100B8E00F218EEF218EFF230F30CD0E0FFD0E0FEE8
:100B9E00D0E0FDD0E0FCD0E0F8D0E0F9D0E0FAD023
:030BAE00E0CB2277
:100BB100F5F0E9800DF5F0EB8008F5F0ED8003F537
:100BC100F0EFD083D082C0E0C3E493A3C5F095F0E9
:100BD100D0F0C0E0E493A3C5F095F07003020BF7E9
:060BE100A3D0E0020C139A
:100BE700D083D082F5F0C3E493A3C5F095F0C0E0BD
:100BF700C3D0F0E493A395F04012A3A3C3E5F03369
:100C0700500205832582F58250020583740193C043
:060C1700E0E493C0E022BE
:100C1D00120DD1800D120DEE8008120E1F800312E1
:100C2D000E4030E00720E302E622E72230E1072004
:0E0C3D00E302E222E32230E202E022E493220C
:100C4B00120DEE8003120DD1ADF0120C93CDC5F049
:020C5B00CD22A8
:100C5D00120DEE8003120DD1AFF0120C93CFC5F033
:020C6D00CF2294
:100C6F00120E408003120E1FA9F0120C93C9C5F08B
:020C7F00C92288
:100C8100120E408003120E1FABF0120C93CBC5F075
:020C9100CB2274
:100C930030E01020E306E6F5F008E622E7F5F00978
:100CA300E7192230E11020E306E2F5F008E222E33F
:100CB300F5F009E3192230E206E0F5F0A3E022E4BF
:070CC30093F5F07401932288
:060CCA00120DEE020D1EEA
:060CD000120E40020CD6DA
:100CD60030E01520E309E6FB08E6FA08E6F922E724
:100CE600FB09E7FA09E7F92230E11520E309E2FBFF
:100CF60008E2FA08E2F922E3FB09E3FA09E3F9223A
:100D060030E209E0FBA3E0FAA3E0F922E493FB74E6
:080D16000193FA740293F92223
:100D1E0030E01720E309E6FF08E6FE08E6FD22E7CD
:100D2E00FF09E7FE09E7FD19192230E11720E30953
:100D3E00E2FF08E2FE08E2FD22E3FF09E3FE09E31B
:100D4E00FD19192230E209E0FFA3E0FEA3E0FD2227
:0C0D5E00E493FF740193FE740293FD22E5
:060D6A00120DD1020D7014
:100D700030E01E20E30CE6FF08E6FE08E6FD08E68C
:100D8000FC22E7FF09E7FE09E7FD09E7FC1919194D
:100D90002230E11E20E30CE2FF08E2FE08E2FD083B
:100DA000E2FC22E3FF09E3FE09E3FD09E3FC191974
:100DB000192230E20CE0FFA3E0FEA3E0FDA3E0FC7B
:100DC00022E493FF740193FE740293FD740393FC79
:010DD0002200
:100DD100BB0003740922BB010789828A8374042240
:0D0DE100BB020789828A83741022740A22E3
:100DEE00BB0007E92582F8740122BB010DE92582BB
:100DFE00F582EA3583F583740422BB020DE9258260
:100E0E00F582EA3583F583741022E92582F874029F
:010E1E0022B1
:100E1F00BF0005EDF8740122BF01078D828E837428
:100E2F000422BF02078D828E83741022EDF87402A4
:010E3F002290
:100E4000BF0007ED2582F8740122BF010DED258258
:100E5000F582EE3583F583740422BF020DED258201
:100E6000F582EE3583F583741022ED2582F8740245
:010E7000225F
:100E7100C0E0120DD18013C0E0120DEE800CC0E075
:100E8100120E1F8005C0E0120E4030E00B20E3047B
:100E9100D0E0F622D0E0F72230E10B20E304D0E0ED
:0A0EA100F222D0E0F322D0E0F022AC
:0B0EAB00C0E0EDC0E0120DD1020EE22D
:0B0EB600C0E0EFC0E0120DEE020EE203
:0B0EC100C0E0E9C0E0120E40020EE2AB
:0B0ECC00C0E0EBC0E0120E1F020EE2BF
:0B0ED700C0E0EBC0E0120E40020EE293
:100EE20030E01420E308D0E0F6D0E008F622D0E0AB
:100EF200F7D0E009F7192230E11420E308D0E0F23C
:100F0200D0E008F222D0E0F3D0E009F31922D0E0D9
:060F1200F0D0E0A3F02284
:060F1800120DEE020F4570
:060F1E00120E40020F2438
:100F240030E009EBF608EAF608E9F62230E109EBCD
:100F3400F208EAF208E9F222EBF0A3EAF0A3E9F0FE
:010F4400228A
:100F450030E01720E309EFF608EEF608EDF622EF9C
:100F5500F709EEF709EDF719192230E11520E30934
:100F6500EFF208EEF208EDF222EFF309EEF309EDE8
:0B0F7500F322EFF0A3EEF0A3EDF0225A
:060F8000120DD1020FA0CA
:060F8600120DEE020FA0A7
:0A0F8C00C0F088F0120E1F020FEEF5
:0A0F9600C0F088F0120E40020FEECA
:100FA00030E01E20E30CEFF608EEF608EDF608EC54
:100FB000F622EFF709EEF709EDF709ECF719191921
:100FC0002230E11E20E30CEFF208EEF208EDF20809
:100FD000ECF222EFF309EEF309EDF309ECF3191942
:0E0FE0001922EFF0A3EEF0A3EDF0A3ECF02247
:100FEE0030E010EBF608EAF608E9F608E5F0F6F858
:100FFE00D0F02230E110EBF208EAF208E9F208E54F
:10100E00F0F2F8D0F022EBF0A3EAF0A3E9F0A3E5BA
:06101E00F0F0F8D0F02212
:10102400D083D082EFC0E0EEC0E0EDC0E0ECC0E0E1
:02103400E47363
:10103600D083D082D0E0F8D0E0F9D0E0FAD0E0FB5F
:02104600E47351
:0C104800E493FF740193FE740293FD22F8
:0D105400740193F5F0E493F58385F082229A
:02106100E47336
:09106300EFF0A3EEF0A3EDF02282
:09106C00EBF0A3EAF0A3E9F02285
:0C107500EFF0A3EEF0A3EDF0A3ECF022EE
:0C108100EBF0A3EAF0A3E9F0A3E8F022F2
:09108D00E0FFA3E0FEA3E0FD2258
:09109600E0FBA3E0FAA3E0F9225B
:0C109F00E0FFA3E0FEA3E0FDA3E0FC22C4
:0C10AB00E0FBA3E0FAA3E0F9A3E0F822C8
:1019A600E4A29792E0F40404A2E09297900039EF43
:1019B600F0A3EEF0A3EDF012452C900037EDF0A366
:1019C600ECF0FCEDE4FEFF1208BBE4F87B457A7F01
:1019D60079F0120636E4F8F97A077B441204BA90D5
:1019E6002BA8E07B007A0625E0CB33CBDAF9244D31
:1019F600F582EB3408F583121075902BA8E07D0074
:101A06007C0625E0CD33CDDCF9244DF582ED340896
:101A1600F58312109FE4F8F97B437AB47403120934
:101A2600527021902BA8E07D007C0625E0CD33CDB9
:101A3600DCF9244DF582ED3408F5837D007EB47F14
:101A4600C3120A48902BA8E07D007C0625E0CD3322
:101A5600CDDCF9244DF582ED3408F58312109FEFA5
:101A66004E6003EF5480B2E77021902BA8E07D0012
:101A76007C0625E0CD33CDDCF9244DF582ED340826
:101A8600F5837D007E807FBF120A52902BA8E07DF1
:101A9600007C0625E0CD33CDDCF9244DF582ED340E
:101AA60008F58312109FE4F8F97B437AB4740312A5
:101AB60009527027902BA8E07D007C0625E0CD33E7
:101AC600CDDCF9244DF582ED3408F5837443F0A39B
:101AD60074B3F0A374FEF0A374B8F0902BA8E07D65
:101AE600007C0625E0CD33CDDCF9244DF582ED34BE
:101AF60008F58312109F12115F902BA8E0FB790066
:101B0600780625E0C933C9D8F9244DF582E93408A9
:101B1600F583121075E4A29792E0F40404A2E09211
:101B260097EB75F06AA424C3F582E5F03409F583D2
:101B3600E07D007C0625E0CD33CDDCF9244DF58231
:101B4600ED3408F58312109F7B3E7A4C74CCF90471
:101B5600F8740B1209526003021BEE902BA8E07D6D
:101B6600007C0625E0CD33CDDCF9244DF582ED343D
:101B760008F58312109F7B3E7A4C74CCF904F81258
:101B860004BA790F7B407A4978DB1204BAE4F8F993
:101B96007A347B431206361215C9902BB5120A48C1
:101BA600902BA8E07D007C0625E0CD33CDDCF92422
:101BB6004DF582ED3408F58312109F7B3E7A4C7406
:101BC600CCF904F81204BA790F7B407A4978DB1213
:101BD60004BAE4F8F97A347B4312063612113490CB
:101BE6002BB9120A48021CDA902BA8E075F06AA4F9
:101BF60024C3F582E5F03409F583E07D007C0625F3
:101C0600E0CD33CDDCF9244DF582ED3408F583AC17
:101C160082AD83902BA8E07F007E0625E0CF33CFF0
:101C2600DEF9244DF582EF3408F583AE82AF838C5E
:101C3600828D831210AB8E828F8312109F1204BA8C
:101C4600790F7B407A4978DB1204BAE4F8F97A34E2
:101C56007B431206361215C9902BB5120A48902BF3
:101C6600A8E075F06AA424C3F582E5F03409F5838B
:101C7600E07D007C0625E0CD33CDDCF9244DF582F0
:101C8600ED3408F583AC82AD83902BA8E07F007E0F
:101C96000625E0CF33CFDEF9244DF582EF3408F583
:101CA60083AE82AF838C828D831210AB8E828F833C
:101CB60012109F1204BA790F7B407A4978DB12041E
:101CC600BAE4F8F97A347B43120636121134902BB3
:101CD600B9120A48902BA8E0FF7D007C0625E0CDCE
:101CE60033CDDCF9244DF582ED3408F5831210ABC3
:101CF600EF7D007C0625E0CD33CDDCF92451F5825D
:101D0600ED3408F583121081EF7D007C0625E0CDC9
:101D160033CDDCF92455F582ED3408F583121081B4
:101D2600EF7D007C0625E0CD33CDDCF92459F58224
:101D3600ED3408F583121081EF7D007C0625E0CD99
:101D460033CDDCF9244AF582ED3408F583E054FD01
:101D5600F022E4A29792E0F40404A2E092979000A5
:101D660006EFF0A3EEF0A3EDF012452C900004ED83
:101D7600F0A3ECF0FCEDE4FEFF1208BBE4F87B45B3
:101D86007A7F79F0120636E4F8F97B427A7012040B
:101D9600BA902BA8E07B007A0625E0CB33CBDAF9A4
:101DA600244DF582EB3408F583121075902BA8E0CC
:101DB6007D007C0625E0CD33CDDCF9244DF582EDA2
:101DC6003408F58312109FE4F8F97B427A707403A5
:101DD6001209527026902BA8E07D007C0625E0CDE6
:101DE60033CDDCF9244DF582ED3408F5837442F0E9
:101DF600A3746FF0A37499F0A304F0902BA8E0FFEE
:101E06007D007C0625E0CD33CDDCF9244DF582ED51
:101E16003408F5831210ABEF7D007C0625E0CD3348
:101E2600CDDCF92451F582ED3408F583121081EFEB
:101E36007D007C0625E0CD33CDDCF92455F582ED19
:101E46003408F583121081EF7D007C0625E0CD3342
:101E5600CDDCF92459F582ED3408F583121081EFB3
:101E66007D007C0625E0CD33CDDCF9244DF582EDF1
:101E76003408F583AC82AD83900006E0FBA3E0FA5C
:101E8600A3E0F98C828D8312109F900052120AA251
:101E96007C007D007E807F3F900062120AA2902B1C
:101EA600A8E07D007C0625E0CD33CDDCF9244AF59B
:101EB60082ED3408F583E054FDF022900000E4F052
:101EC600A3F0A29792E0F40404A2E09297902BA8C4
:101ED600E075F06AA424C3F582E5F03409F583E0E1
:101EE6007B007A0625E0CB33CBDAF9244DF582EB7D
:101EF6003408F583AA82AB83900004EFF0A3EEF0DA
:101F0600A3EDF08A828B8312109F902BC11210AB27
:101F1600120752900000121075E4F8F97A347B43E8
:101F260074071209527010E4F8F97AB47BC31207E9
:101F360071900000121075E4F8F97A347BC3740BC3
:101F46001209527010E4F8F97B437AB412077190C3
:101F560000001210751204B2902BBD120A48902B85
:101F6600A8E07D007C0625E0CD33CDDCF9244AF5DA
:101F760082ED3408F583E054FDF0900004E0FFA301
:101F8600E0FEA3E0FD780079007A807B3F90006256
:101F9600120AE922E4A29792E0F40404A2E09297DE
:101FA600900006EFF0A3EEF0A3EDF012452C9000A2
:101FB60004EDF0A3ECF04D7026902BA8E07D007C9C
:101FC6000625E0CD33CDDCF9244DF582ED3408F558
:101FD6008374C2F0A37448F0A3E4F0A3F08068C34E
:101FE600EC94FFED940F4026902BA8E07D007C0634
:101FF60025E0CD33CDDCF9244DF582ED3408F583AB
:102006007442F0A37448F0A3E4F0A3F08039ECED39
:10201600E4FEFF1208BB7A237B4274CCF904F81263
:102026000636E4F8F97A487BC2120771902BA8E0CD
:102036007B007A0625E0CB33CBDAF9244DF582EB2B
:102046003408F583121075902BA8E0FF7D007C06FE
:1020560025E0CD33CDDCF9244DF582ED3408F5834A
:102066001210ABEF7D007C0625E0CD33CDDCF924E4
:1020760051F582ED3408F583121081EF7D007C0660
:1020860025E0CD33CDDCF92455F582ED3408F58312
:10209600121081EF7D007C0625E0CD33CDDCF924DE
:1020A60059F582ED3408F583121081900004E0FDA5
:1020B600A3E0F8CDF9CDEDE4FAFB12090CEF7D00B3
:1020C6007C0625E0CD33CDDCF92451F582ED3408CC
:1020D600F583121081EF7D007C0625E0CD33CDDC43
:1020E600F9244DF582ED3408F583AC82AD8390007A
:1020F60006E0FBA3E0FAA3E0F98C828D8312109F21
:10210600900052120AA27C007D007E807F3F9000E4
:1021160062120AA2902BA8E07D007C0625E0CD3352
:10212600CDDCF9244AF582ED3408F583E054FDF060
:1021360022E4A29792E0F40404A2E09297900006AB
:10214600EFF0A3EEF0A3EDF012452C900004EDF0B5
:10215600A3ECF04D701F902BA8E07D007C0625E0D7
:10216600CD33CDDCF9244DF582ED3408F583E4F06A
:10217600A3F0022204ECEDE4FEFF1208BBE4F87BB8
:10218600457A7F79F0120636E4F8F97B427AC8126E
:1021960004BA902BA8E07B007A0625E0CB33CBDA95
:1021A600F9244DF582EB3408F583121075902BA8AF
:1021B600E07D007C0625E0CD33CDDCF9244DF582AB
:1021C600ED3408F58312109F7B427AC774CCF9046C
:1021D600F874031209527026902BA8E07D007C0645
:1021E60025E0CD33CDDCF9244DF582ED3408F583B9
:1021F6007442F0A374C7F0A374CCF0A304F0E4A275
:102206009792E0F40404A2E09297902BA8E0FF7D59
:10221600007C0625E0CD33CDDCF9244DF582ED3486
:1022260008F5831210ABEF7D007C0625E0CD33CD9B
:10223600DCF92451F582ED3408F583121081EF7D27
:10224600007C0625E0CD33CDDCF92455F582ED344E
:1022560008F583121081EF7D007C0625E0CD33CD95
:10226600DCF92459F582ED3408F583121081EF7DEF
:10227600007C0625E0CD33CDDCF9244AF582ED3429
:1022860008F583E054FDF0900006E0FBA3E0FAA316
:10229600E0F97D007E807F3F900062120AA2902BBB
:1022A600A8E07D007C0625E0CD33CDDCF9244DF594
:1022B60082ED3408F58312109F900052120AA22272
:1022C600E4A29792E0F40404A2E09297900006EF4D
:1022D600F0A3EEF0A3EDF012452C900004EDF0A370
:1022E600ECF04D701E902BA8E07D007C0625E0CD1D
:1022F60033CDDCF9244DF582ED3408F583E4F0A303
:10230600F08041ECEDE4FEFF1208BBE4F8F9FA7B3D
:10231600401204BAE4F87B457A7F79F0120636E477
:10232600F8F97A207B411204BA902BA8E07B007A58
:102336000625E0CB33CBDAF9244DF582EB3408F5EC
:1023460083121075902BA8E0FF7D007C0625E0CD5A
:1023560033CDDCF9244DF582ED3408F5831210AB4C
:10236600EF7D007C0625E0CD33CDDCF92451F582E6
:10237600ED3408F583121081EF7D007C0625E0CD53
:1023860033CDDCF92455F582ED3408F5831210813E
:10239600EF7D007C0625E0CD33CDDCF92459F582AE
:1023A600ED3408F583121081EF7D007C0625E0CD23
:1023B60033CDDCF9244AF582ED3408F583E054FD8B
:1023C600F0900006E0FBA3E0FAA3E0F97D007E8032
:1023D6007F3F900062120AA2902BA8E07D007C0647
:1023E60025E0CD33CDDCF9244DF582ED3408F583B7
:1023F60012109F900052120AA222900057E4F0A3F6
:10240600F090005BF0A3F090005FF0A3F0A297922B
:10241600E0F40404A2E09297EC900063F07D007C67
:102426000625E0CD33CDDCF9246BF582ED3408F5D5
:1024360083E060030225B6902BB912109F12086E36
:10244600ED30E706C3E49CFCE49DFDECED3395E03E
:10245600FEFF1208B078177B3879B77AD1740B1261
:1024660009527025902BB512109F78177B3879B7D3
:102476007AD1120636121109792E7B427A6578E1F5
:102486001204BA90005F121075902BB512109FEFD0
:102496004E6003EF5480B2E7701090005F7C007DC1
:1024A600007E347FC3120A48801D902BB91210ABF0
:1024B600120636121109792E7B427A6578E11204EA
:1024C600BA90005F121075902BB912109FEF4E60F4
:1024D60003EF5480B2E7700E90005F7C007D007EB3
:1024E600347F43120A4890005F12109FEF4E60033C
:1024F600EF5480B2E77010E4F8F97B437AB4120720
:102506007190005F121075E4F8F97B437AB4740792
:102516001209527010E4F8F97AB47BC3120771906D
:10252600005F121075E4F8F97B437AB4740312095C
:1025360052701290005F7443F0A374B3F0A374FE5C
:10254600F0A374B8F090005F12109F12115F900014
:1025560063E0FB7900780625E0C933C9D8F924750C
:10256600F582E93408F583121075EB7900780625B3
:10257600E0C933C9D8F9246DF582E93408F5831228
:102586001075EB7900780625E0C933C9D8F92479A6
:10259600F582E93408F583121075902BC112107577
:1025A600902BB9E4F0A3F0902BB5F0A3F00228B37A
:1025B600B4120280030227D4900063E075F06AA487
:1025C6002427F582E5F0340AF58312109F902BBD7F
:1025D6001210AB12062A1217ED902BBDE4F0A3F0F1
:1025E600900063E075F06AA42427F582E5F0340ACA
:1025F600F583E4F0A3F0900063E0FB79007806250C
:10260600E0C933C9D8F92475F582E93408F583128F
:102616001075EB7900780625E0C933C9D8F9246D21
:10262600F582E93408F583121075EB7900780625F2
:10263600E0C933C9D8F92479F582E93408F583125B
:102646001075EB7900780625E0C933C9D8F9245509
:10265600F582E93408F583121075EB7900780625C2
:10266600E0C933C9D8F9244DF582E93408F5831257
:102676001075EB7900780625E0C933C9D8F92459D5
:10268600F582E93408F5831210759000571210751B
:10269600E4F97B417AB474071209527010A3743FAF
:1026A600F0A37480F0A3E4F0A3F0022797E4F8F90E
:1026B6007B417A8C7407120952701CE4F8F97B414D
:1026C6007AB4740F120952700EA37440F0A3E4F0AA
:1026D600A3F0A3F0022797E4F8F97B417A48740740
:1026E600120952701CE4F8F97B417A8C740F1209B6
:1026F60052700EA37440F0A3F0A3E4F0A3F00227F7
:1027060097E4F8F97B407AF07407120952701CE4DA
:10271600F8F97B417A48740F120952700EA374407F
:10272600F0A323F0A3E4F0A3F080667433F8F97BFA
:10273600407A737407120952701DE4F8F97B407AE7
:10274600F0740F120952700FA37440F0A374A0F036
:10275600A3E4F0A3F0803A7A067B407466F8F97435
:1027660007120952701E7433F8F97B407A73740F9E
:10277600120952700FA37440F0A374C0F0A3E4F0E2
:10278600A3F0800DA37441F0A37410F0A3E4F0A3AA
:10279600F090005B12109F900063E0FB79007806D2
:1027A60025E0C933C9D8F92471F582E93408F583DF
:1027B600121075EB7900780625E0C933C9D8F924DB
:1027C60051F582E93408F5831210750228B390009A
:1027D60063E0FF75F06AA42417F582E5F0340AF584
:1027E60083EFAC82AD8375F06AA42427F582E5F009
:1027F600340AF583AE82AF838C828D831210AB8E42
:10280600828F8312109F12062A900063E0FB7900E4
:10281600780625E0C933C9D8F9246DF582E934086C
:10282600F583121075EB7D007C0625E0CD33CDDCFB
:10283600F9246DF582ED3408F58312109FEB7900CB
:10284600780625E0C933C9D8F92479F582E9340830
:10285600F583121075EB7D007C0625E0CD33CDDCCB
:10286600F9246DF582ED3408F58312109FEB79009B
:10287600780625E0C933C9D8F92475F582E9340804
:10288600F583121075EB75F06AA42417F582E5F04E
:10289600340AF583E4F0A3F0EB75F06AA42427F577
:1028A60082E5F0340AF583E4F0A3F080009000633B
:1028B600E07D007C0625E0CD33CDDCF9246AF58287
:1028C600ED3408F583E8F022E4A29792E0F40404DC
:1028D600A2E0929790083474FFF0A3F0A3F0A3F05F
:1028E60090083F14F0A3F0A3F0A3F0E4900838F0AA
:1028F60090000CE0900839F090000AE0FBA3E0900D
:10290600083BCBF0A3CBF0EC90083AF0900009F02E
:10291600E490083DF0A3F0900004F0A3F0A3EFF0DC
:10292600A3EEF0A3EDF0C3900005E0940F90000431
:10293600E09400506FD3A3E09403900004E0940069
:102946004035C3A3E09409900004E094005028A306
:10295600E02434F582E43408F583E090083DFCE099
:102966006CF0900005E02434F582E43408F583E049
:1029760090083EFCE02CF0900005E02434F582E45B
:102986003408F583E0FC900006E0FFA3E0FEA3E038
:10299600FD122CB8900005E004F09000047003E0EE
:1029A60004F08082A3A3E0FFA3E0FEA3E0FDE49091
:1029B6000009120E8622EC90000CF07B007A0625A8
:1029C600E0CB33CBDAF92443FAEB3408FBEAF9EB34
:1029D600FA7B01900006EBF0A3EAF0A3E9F0900081
:1029E6000CE01B7A0625E0CB33CBDAF9244AF582D4
:1029F600EB3408F583AA82AB83902BB0E08A828BF6
:102A060083FCE04CF090000CE07B007A0625E0CBDE
:102A160033CBDAF9245DF582EB3408F583EAF090DE
:102A2600000CE07B007A0625E0CB33CBDAF9245E96
:102A3600F582EB3408F583EAF0900004F0A3F090F9
:102A46000009EFF0A3EEF0A3EDF0C3900005E094CB
:102A560020900004E094004003022B27D3A3E094C7
:102A660003900004E094005003022AEEC3A3E0940E
:102A76001A900004E09400506F90000CE07D007CFA
:102A86000625E0CD33CDDCF9245DF582ED3408F57D
:102A960083AA82AB83900006E0FFA3E0FEA3E0FDDD
:102AA600900004E0FCA3E0F5828C83120C2C8A8251
:102AB6008B83FCE06CF090000CE07B007A0625E04E
:102AC600CB33CBDAF9245EF582EB3408F583AA82A0
:102AD600AB83900004E0FCA3E0F5828C83120C2CFF
:102AE6008A828B83FCE02CF0900006E0FFA3E0FED8
:102AF600A3E0FD900004E0FCA3E0F5828C83120CB9
:102B06002CFC900009E0FFA3E0FEA3E0FD122CB828
:102B1600900005E004F09000047003E004F0022A3F
:102B260050900009E0FFA3E0FEA3E0FDE490000959
:102B3600120E8622EC90000CF07B007A0625E0CB84
:102B460033CBDAF92463FAEB3408FBEAF9EBFA7BC8
:102B560001900006EBF0A3EAF0A3E9F090000CE088
:102B66001B7A0625E0CB33CBDAF9246AF582EB34FF
:102B760008F583AA82AB83902BB0E08A828B83FC14
:102B8600E04CF090000CE07B007A0625E0CB33CBDE
:102B9600DAF9247DF582EB3408F583EAF090000C2F
:102BA600E07B007A0625E0CB33CBDAF9247EF5828A
:102BB600EB3408F583EAF0900004F0A3F0900009E6
:102BC600EFF0A3EEF0A3EDF0C3900005E0942090A3
:102BD6000004E094004003022CA5D3A3E0940390E4
:102BE6000004E094005003022C6CC3A3E0941A90F6
:102BF6000004E09400506F90000CE07D007C0625F8
:102C0600E0CD33CDDCF9247DF582ED3408F583AAD9
:102C160082AB83900006E0FFA3E0FEA3E0FD9000F8
:102C260004E0FCA3E0F5828C83120C2C8A828B8351
:102C3600FCE06CF090000CE07B007A0625E0CB33DC
:102C4600CBDAF9247EF582EB3408F583AA82AB83CE
:102C5600900004E0FCA3E0F5828C83120C2C8A829F
:102C66008B83FCE02CF0900006E0FFA3E0FEA3E0DF
:102C7600FD900004E0FCA3E0F5828C83120C2CFC92
:102C8600900009E0FFA3E0FEA3E0FD122CB890003F
:102C960005E004F09000047003E004F0022BCE90EF
:102CA6000009E0FFA3E0FEA3E0FDE4900009120E98
:102CB6008622E4A29792E0F40404A2E09297E4FB51
:102CC600049000061202D7FA900000EFF0A3EEF08F
:102CD600A3EDF02AFDEE3BFEEC90000A120E869064
:102CE6000003F0900000E0A3E0FEA3E0FD900006E4
:102CF600120C81C3FA94A0EB940F4008E4FB9000F9
:102D060006120ED722E4900050F0A3F0A3F0900034
:102D160057E0FBA3E0FA900053EFF0A3EEF0A3ED2B
:102D2600F0EA901F4D120ED7EC901F4B120E8690B4
:102D36000056F090005EE0901F4A120E86E4FB906B
:102D46000006120ED7900004120ED7900002120E43
:102D5600D7120ECC901F4A120C2C75F00EA4ABF0B5
:102D6600FCCBFDCB1212C4900053E0FBA3E0FAA308
:102D7600E0F9901F4F120F187401900008120E7898
:102D8600900009120E7890005BE0901F4C120E78AE
:102D9600901F4B120C226003022E46C2AF90005BBE
:102DA600E06401600274FF04900050FCE02CF09097
:102DB600005CE0600B438780900050E004F08007E1
:102DC60053877F900050E0900059E0FDA3E0120B7E
:102DD600BB0000032E372DE42DF62E0B2E2190007E
:102DE60050E0249AF582E4342BF583E0F58D80419A
:102DF600900050E004F0E0249AF582E4342BF58349
:102E0600E0F58D802C900050E02402F0E0249AF545
:102E160082E4342BF583E0F58D8016900050E02493
:102E260003F0E0249AF582E4342BF583E0F58D80F7
:102E360000759850758920D28ED2ACD2BC02302C47
:102E460090005BE06402600274FF04600474048016
:102E560001E4900050FCE02CF0900059E0FDA3E066
:102E6600120BBB0000032EE92E762E902EAD2ECB34
:102E7600900050E024A0F582E4342BF583E07D0039
:102E8600900051CDF0A3CDF08059900050E004F0B1
:102E9600E024A0F582E4342BF583E07D0090005118
:102EA600CDF0A3CDF0803C900050E02402F0E02469
:102EB600A0F582E4342BF583E07D00900051CDF03F
:102EC600A3CDF0801E900050E02403F0E024A0F58E
:102ED60082E4342BF583E07D00900051CDF0A3CD44
:102EE600F0800090005DE04480FC900053E0FFA37A
:102EF600E0FEA3E0FD901F4D120C812403FAE43B93
:102F0600FBEAF8EBF97A007B00ECC0E0E4FCFDFF9D
:102F160004FE120498EEFFEDFEECFDD0E0120E7FEB
:102F2600900052E0FCA3E0FFA3E0FEA3E0FD901FAB
:102F36004D120C81FAF8EBF97A007B00ECC0E0E464
:102F4600FCFDFF04FE120498EEFFEDFEECFDD0E062
:102F5600120E7F900053E0FFA3E0FEA3E0FD901F5A
:102F66004D120C8104FA70010BEAF8EBF97A007B3A
:102F760000E4FCFDFF04FE120498EEFFEDFEECFDFE
:102F8600E4120E7F90005DE0547FFC900053E0FF5A
:102F9600A3E0FEA3E0FD901F4D120C812403FAE48A
:102FA6003BFBEAF8EBF97A007B00ECC0E0E4FCFDC1
:102FB600FF04FE120498EEFFEDFEECFDD0E0120ECB
:102FC6007F900053E0FFA3E0FEA3E0FD901F4D12AB
:102FD6000C8104FA70010BEAF8EBF97A007B00E445
:102FE600FCFDFF04FE120498EEFFEDFEECFD7401FD
:102FF600120E7F900053E0FFA3E0FEA3E0FD901FBA
:103006004D120C812404FAE43BFBEAFCEBFD7E0046
:103016007F00E4F8F9FB04FA120498EEFFEDFEECEB
:10302600FD740B120E7F22900050EFF0A3EEF0A37A
:10303600EDF0901F4F120CD0EC75F00EA4AFF0F52A
:10304600828F83E4FF120EB6900050E0FFA3E0A348
:10305600E0901F4F120CD0EC75F00EA4AFF0F58285
:103066008F83A3A3E4FF120EB6900050E0FFA3E007
:10307600A3E0901F4F120CD0EC75F00EA4AFF02910
:10308600F9EA3FFAE4900006120E78900054E07FC9
:1030960000FE900050E0FBA3E0FAA3E0F9EFC0E0E9
:1030A600EEC0E0901F4F120CCAEC75F00EA4ABF008
:1030B6002DFDEE3BFED0E0FBD0E0CB900004120EDF
:1030C600D7EC900053F0900050E0FFA3E0FEA3E0A1
:1030D600FD901F4F120CD0EC75F00EA4ADF029F93F
:1030E600EA3DFA900004120C4BFC1212C4900050F8
:1030F600E0FBA3E0FAA3E0F9EFC0E0EEC0E0EDC02C
:10310600E0901F4F120CCA900053E075F00EA4AB6E
:10311600F02DFDEE3BFED0E0F9D0E0FAD0E0FB90DA
:103126000007120F1E900055E0FDA3E0FECDFFCD77
:10313600900050E0FBA3E0FAA3E0F9EFC0E0EEC098
:10314600E0901F4F120CCA900053E075F00EA4AB2E
:10315600F02DFDEE3BFED0E0FBD0E0CB90000A1256
:103166000ED7900057E0FDA3E0FECDFFCD900050B6
:10317600E0FBA3E0A3E0EFC0E0EEC0E0901F4F123B
:103186000CCA900053E075F00EA4ABF02DFDEE3B9B
:10319600FED0E0FBD0E0CB90000C120ED7229000C0
:1031A60004E0FA900000EFF0A3EEF0A3EDF0EAC021
:1031B600E0901F4F120CD0EC900003F075F00EA4B7
:1031C600ADF029F9EA3DFAD0E0900006120E782219
:1031D600E4900041F0EC900045F0900042EFF0A33F
:1031E600EEF0A3EDF0900042E0FFA3E0FEA3E0FDC9
:1031F600901F4A120C2CFC900041E0C39C40030235
:103206003338901F4F120CD0900041E075F00EA499
:10321600ADF029F9EA3DFA900006120C221460037B
:1032260002332F900045E0900040F0900042E0A36A
:10323600E0A3E0FD900041E0FC123339900042E04B
:10324600FFA3E0FEA3E0FD901F4F120CD0900041BB
:10325600E075F00EA4ADF029F9EA3DFAE9FDEAFEC3
:10326600EBFFA3E0FBA3E0FAA3E0F9EFC0E0EEC0BA
:10327600E0EDC0E0901F4F120CCA900041E075F0DF
:103286000EA4ABF02DFDEE3BFE90000A120C81F56C
:10329600828B83121054D0E0FDD0E0FED0E0FF1206
:1032A6001061EC700302332F900042E0FFA3E0FEB2
:1032B600A3E0FD901F4F120CD0900041E075F00E78
:1032C600A4ADF029F9EA3DFAE9FDEAFEEBFFA3E039
:1032D600FBA3E0FAA3E0F9EFC0E0EEC0E0EDC0E04A
:1032E600901F4F120CCA900041E075F00EA4ABF08F
:1032F6002DFDEE3BFE90000C120C81F5828B8312A5
:103306001054D0E0FDD0E0FED0E0FF121061EC607A
:1033160018E4900004F0900042E0FFA3E0FEA3E072
:10332600FD900041E0FC1231A4900041E004F0025F
:1033360031EB2290003CEFF0A3EEF0A3EDF0901FEE
:103346004F120CD0EC75F00EA4AFF029F9EA3FFA53
:10335600E92402F9EA3400FA90003CE0FFA3E0A376
:10336600E0EBC0E0EAC0E0E9C0E0901F4F120CD0ED
:10337600EC75F00EA4AFF029F9EA3FFA90000412BA
:103386000C5DFED0E0F9D0E0FAD0E0FBEE12040DC1
:10339600EC90003FF090003CE0FFA3E0FEA3E0903D
:1033A6001F4F120CD0EC75F00EA4ADF0F5828D8394
:1033B600A3A3120C4BFC90003CE0FBA3E0FAA3E0B5
:1033C600F9EDC0E0ECC0E0901F4F120CCA90003F30
:1033D600E075F00EA4ABF0F5828B83120C81FAD067
:1033E600E0FCD0E0FDEA6C7002EB6D600302347520
:1033F60090003CE0FFA3E0FEA3E0FD901F4F120CFF
:10340600D090003FE075F00EA4ADF029F9EA3DFA40
:10341600E4FD0412024390003CE0A3E0A3E0FD902B
:103426001F4F120CD090003FE075F00EA4ADF029AE
:10343600F9EA3DFA90003CE0A3E0A3E0FDEBC0E032
:10344600EAC0E0E9C0E0901F4F120CD090003FE0C8
:1034560075F00EA4ADF029F9EA3DFA900004120CBD
:103466004BFCD0E0F9D0E0FAD0E0FBEC1203A890D8
:103476000040E0FC90003CE0FFA3E0FEA3E0FD90EE
:103486001F4F120CD090003FE075F00EA4AFF0294C
:10349600F9EA3FFA900007120CCA90003CE0FBA341
:1034A600E0FAA3E0F9EFC0E0EEC0E0EDC0E0901F67
:1034B6004F120CCA90003FE075F00EA4ABF02DFD44
:1034C600EE3BFEED2402FDEE3400FEE4FB041202A8
:1034D600CDF5828B83D0E0FDD0E0FED0E0FFEC128C
:1034E6000E8622E4A29792E0F40404A2E09297905A
:1034F6000000EFF0A3EEF0A3EDF0900007120CD061
:10350600EBC0E0EAC0E0E9C0E0900004120C81FAEA
:10351600120C74F8EA28FAEB39FBEA24FFFAEB34CA
:10352600FFFB900004120C6FF81201E78882898372
:10353600D0E0F9D0E0FAD0E0FB120C2264FE600382
:103546007C0022900007120CD0EBC0E0EAC0E0E954
:10355600C0E0900004120C81FA120C74F8EA28FA02
:10356600EB39FBEA24FEFAEB34FFFB900004120C65
:103576006FF81201E788828983D0E0F9D0E0FAD0AB
:10358600E0FB120C2264FE60037C0022900007120E
:103596000CD0EBC0E0EAC0E0E9C0E0900004120CF9
:1035A60081FA120C74F8EA28FAEB39FBEA24FDFAE0
:1035B600EB34FFFB900004120C6FF81201E78882CF
:1035C6008983D0E0F9D0E0FAD0E0FB120C2264FE49
:1035D60060037C0022900007120CD0EBC0E0EAC02A
:1035E600E0E9C0E0900004120C81FA120C74F8EACB
:1035F60028FAEB39FBEA24FCFAEB34FFFB900004D3
:10360600120C6FF81201E788828983D0E0F9D0E0C6
:10361600FAD0E0FB120C2264FE60037C0022C2B5E5
:10362600900007120CD0EBC0E0EAC0E0E9C0E0125F
:103636000C862403FAE43BFB900004120C6FF8128C
:1036460001E788828983D0E0F9D0E0FAD0E0FB1266
:103656000C220460037C0022900007120CD0EBC001
:10366600E0EAC0E0E9C0E0120C862402FAE43BFB83
:10367600900004120C6FF81201E788828983D0E06B
:10368600F9D0E0FAD0E0FB120C220460037C0022A1
:10369600900007120CD0EBC0E0EAC0E0E9C0E012EF
:1036A6000C8604FA70010B900004120C6FF81201DC
:1036B600E788828983D0E0F9D0E0FAD0E0FB120CEB
:1036C600220460037C0022900007120CD0EBC0E0BD
:1036D600EAC0E0E9C0E0120C86FA900004120C6F12
:1036E600F81201E788828983D0E0F9D0E0FAD0E0C9
:1036F600FB120C220460037C00227C0122E4900071
:1037060005F0A3F0A3F0A3F0A3F0A3F0A3F0A3F0B9
:10371600A3F0A29792E0F40404A2E09297A3EFF03C
:10372600A3EEF0A3EDF0900007120CD0EBC0E0EA98
:10373600C0E0E9C0E0120C862405FAE43BFB9000E9
:1037460004120C6FF81201E788828983D0E0F9D061
:10375600E0FAD0E0FB120C22900007F090000AE499
:10376600F0A3F0C390000BE0940790000AE09400E9
:103776005054E0FDA3E07C0625E0CD33CDDCF924F2
:103786004CF582ED3408F583E0FC900007E06C70A0
:103796002590000BE02491F582E4342BF583E014A8
:1037A600701490000BE0900009F0A3E4F0A314F06D
:1037B6007401900008F090000BE004F090000A708D
:1037C60003E004F0809D900008E070037C0022A3D3
:1037D600A3E4F0A37404F090000EE0FFA3E0FEA3C0
:1037E600E0FD900004120C8124FAFAEB34FFFB9002
:1037F600000BE0C39A90000AE09B400302389690C3
:103806000007120CD0EBC0E0EAC0E0E9C0E0120C01
:103816008690000BFCE02CFA90000AE03BFB90003F
:1038260004120C6FF81201E788828983D0E0F9D080
:10383600E0FAD0E0FB120C22900005FCE06CF09060
:103846000007120CD0EBC0E0EAC0E0E9C0E0120CC1
:103856008690000BFCE02CFA90000AE03BFB9000FF
:1038660004120C6FF81201E788828983D0E0F9D040
:10387600E0FAD0E0FB120C22900006FCE02CF0905F
:10388600000BE004F090000A7003E004F00237DD5C
:10389600900007120CD0EBC0E0EAC0E0E9C0E0906F
:1038A6000004120C81FA120C74F8EA28FAEB39FBC0
:1038B600EA24FAFAEB34FFFB900004120C6FF812BC
:1038C60001E788828983D0E0F9D0E0FAD0E0FB12E4
:1038D6000C22FC900005E06C60037C00229000073F
:1038E600120CD0EBC0E0EAC0E0E9C0E090000412A0
:1038F6000C81FA120C74F8EA28FAEB39FBEA24FB7D
:10390600FAEB34FFFB900004120C6FF81201E78803
:10391600828983D0E0F9D0E0FAD0E0FB120C22FCD9
:10392600900006E06C60037C0022900007120CD029
:10393600EBC0E0EAC0E0E9C0E0120C862406FAE437
:103946003BFB900004120C6FF81201E78882898312
:10395600D0E0F9D0E0FAD0E0FB120C226444600318
:103966007C0022900007120CD0EBC0E0EAC0E0E930
:10397600C0E0120C862407FAE43BFB900004120C0C
:103986006FF81201E788828983D0E0F9D0E0FAD097
:10399600E0FB120C227B007A0090000CF0A3CAF028
:1039A600CA900007120CD0EBC0E0EAC0E0E9C0E024
:1039B600120C862408FAE43BFB900004120C6FF804
:1039C6001201E788828983D0E0F9D0E0FAD0E0FBE3
:1039D600120C227B00FA90000DE04AF090000CE0F9
:1039E600F090000AE4F0A3F0902B89E07D00FC90B3
:1039F600000BE0C39C90000AE09D505CE0FDA3E054
:103A0600FC75F00EA4FCE5F0CD75F00EA42DFD902E
:103A16002B8EE0FBA3E0FAA3E0F92CF9EA3DFA903D
:103A26000004120C4BFC90000DE06C700590000C2D
:103A3600E06D70147401900004F090000BE0FC7DC2
:103A46003F7E0C7F011231A490000BE004F0900041
:103A56000A7003E004F080907C0022E490000DF0F0
:103A6600A3F0A3F0A3F0A3F0A3F0A3F0A3F0A3F0B8
:103A7600A3F0A29792E0F40404A2E09297A3EFF0D9
:103A8600A3EEF0A3EDF0900007120CD0EBC0E0EA35
:103A9600C0E0E9C0E0120C862409FAE43BFB900082
:103AA60004120C6FF81201E788828983D0E0F9D0FE
:103AB600E0FAD0E0FB120C22900011F0A3A3E4F090
:103AC600A3F0C3900014E09407900013E094005014
:103AD60042E0FDA3E07C0625E0CD33CDDCF9244CA5
:103AE600F582ED3408F583E0FC900011E06C70136C
:103AF600900014E0900010F07401A3A3F0A3E4F08A
:103B0600A314F0900014E004F09000137003E00496
:103B1600F080AF900012E070037C0122900010E06C
:103B26002491F582E4342BF583E070037C01229026
:103B36000013E4F0A37404F0900017E0FFA3E0FE86
:103B4600A3E0FD900004120C8124FAFAEB34FFFB8B
:103B5600900014E0C39A900013E09B4003023BF7E9
:103B6600900007120CD0EBC0E0EAC0E0E9C0E0121A
:103B76000C86900014FCE02CFA900013E03BFB90BE
:103B86000004120C6FF81201E788828983D0E0F9ED
:103B9600D0E0FAD0E0FB120C2290000DFCE06CF0B5
:103BA600900007120CD0EBC0E0EAC0E0E9C0E012DA
:103BB6000C86900014FCE02CFA900013E03BFB907E
:103BC6000004120C6FF81201E788828983D0E0F9AD
:103BD600D0E0FAD0E0FB120C2290000EFCE02CF0B4
:103BE600900014E004F09000137003E004F0023B30
:103BF6003E900007120CD0EBC0E0EAC0E0E9C0E05E
:103C0600900004120C81FA120C74F8EA28FAEB39C7
:103C1600FBEA24FAFAEB34FFFB900004120C6FF86F
:103C26001201E788828983D0E0F9D0E0FAD0E0FB80
:103C3600120C22FC90000DE06C60037C01229000C7
:103C460007120CD0EBC0E0EAC0E0E9C0E090000447
:103C5600120C81FA120C74F8EA28FAEB39FBEA2402
:103C6600FBFAEB34FFFB900004120C6FF81201E72D
:103C760088828983D0E0F9D0E0FAD0E0FB120C22EA
:103C8600FC90000EE06C60037C0122900007120C91
:103C9600D0EBC0E0EAC0E0E9C0E0120C862404FAEA
:103CA600E43BFB900004120C6FF81201E78882894E
:103CB60083D0E0F9D0E0FAD0E0FB120C22FC9000B1
:103CC60007120CD0EBC0E0EAC0E0E9C0E0120C86B7
:103CD6002405FAE43BFB900004120C6FF81201E78E
:103CE60088828983D0E0F9D0E0FAD0E0FB120C227A
:103CF6007B007A00900015F0A3CAF0CA9000071264
:103D06000CD0EBC0E0EAC0E0E9C0E0120C86240665
:103D1600FAE43BFB900004120C6FF81201E788826C
:103D26008983D0E0F9D0E0FAD0E0FB120C227B00C8
:103D3600FA900016E04AF0900015E0F0EC90000FC3
:103D4600F0B457028003023DBE900015E0FDA3E0EB
:103D56007030BD002D900011E090000CF090000A2C
:103D6600E4F0A37420F07C447D3F7E0C7F01122892
:103D7600CE900010E0FC7D3F7E0C7F011229BC7CBA
:103D86000122B48430BD032D900011E090000CF0A8
:103D960090000AE4F0A37420F07C447D3F7E0C7F03
:103DA600011228CE900010E0FC7D3F7E0C7F0112B0
:103DB6002B3A7C01227C0122B440028003B4490BD9
:103DC600900010E0FC1243897C01227C0122E490E1
:103DD600003EF0A29792E0F40404A2E0929790B01D
:103DE60000E090003CF090B000E090003DF0FC90C8
:103DF600003CE06C7007A3A3E004F0800CE4A3A3EE
:103E0600F090B000E090003CF090003EE0C3940BD0
:103E16004002800280D090003CE0FFF4541FFFF087
:103E2600FC22E4A29792E0F40404A2E092977402C2
:103E360090005EF0E490005DF090005CF00490006D
:103E46005BF0900059E4F0A3F0900057F0A3F0FC6B
:103E56007D3F7E0C7F01122D0B74ED7D1090005777
:103E6600CDF0A3CDF074F57D10900055CDF0A3CD27
:103E7600F0740F900054F07C007D3F7E0C7F0112A1
:103E8600302D74F17D10900057CDF0A3CDF074F570
:103E96007D10900055CDF0A3CDF07420900054F025
:103EA6007C017D3F7E0C7F0112302D740190000451
:103EB600F07C007D3F7E0C7F011231A4E49000046B
:103EC600F07C017D3F7E0C7F011231A422E4A29793
:103ED60092E0F40404A2E09297438901D288D2A822
:103EE600D2AF22E4A29792E0F40404A2E09297E40F
:103EF600902BB4F0123DD4EC902BB4F0E4902BB0A0
:103F0600F0C2B4C2B5900044F0900044E0C39406F9
:103F16005014E02491F582E4342BF583E4F090000C
:103F260044E004F080E3E4902BA8F0902BA9F0FC89
:103F360012450F902BAAE4F0A3F0902BAC7403F07B
:103F4600A37484F0E4902BAEF0902BAFF0902BB5D9
:103F5600F0A3F0902BB9F0A3F0902BBDF0A3F09056
:103F66002BC1F0A3F0902BB4E060030240747401FF
:103F7600902B95F0902B94F0902B93F0902B92F041
:103F8600902B91F0900043F0900042F074017D1167
:103F9600900040CDF0A3CDF07DC37E097F01124194
:103FA600F1E4900040F0FC7D437E087F011242A1BF
:103FB600E4900043F0900042F074057D11900040BB
:103FC600CDF0A3CDF07D2D7E0A7F011241F1740262
:103FD600900040F07C017D837E087F011242A1E4BF
:103FE600900043F0900042F074FD7D10900040CDAB
:103FF600F0A3CDF07D977E0A7F011241F174049003
:104006000040F07C027DC37E087F011242A1E4904D
:104016000043F0900042F074E97D10900040CDF02E
:10402600A3CDF07D017E0B7F011241F17406900055
:1040360040F0FC7D037E097F011242A1E49000431B
:10404600F0900042F074F97D10900040CDF0A3CDC1
:10405600F07D6B7E0B7F011241F17408900040F0F9
:104066007C127D437E097F011242A10241F0B40118
:1040760002800302417E7401902B95F0902B94F000
:10408600902B93F0902B92F0902B91F0900043F0B0
:10409600900042F074017D11900040CDF0A3CDF068
:1040A6007DC37E097F011241F17401900040F07CCE
:1040B600007D437E087F011242A1E4900043F09008
:1040C6000042F074057D11900040CDF0A3CDF07D47
:1040D6002D7E0A7F011241F17403900040F07C01AD
:1040E6007D837E087F011242A1E4900043F0900098
:1040F60042F074FD7D10900040CDF0A3CDF07D9789
:104106007E0A7F011241F17405900040F07C027D29
:10411600C37E087F011242A1E4900043F090004262
:10412600F074E97D10900040CDF0A3CDF07D017EC6
:104136000B7F011241F17407900040F07C067D036D
:104146007E097F011242A1E4900043F0900042F004
:1041560074F97D10900040CDF0A3CDF07D6B7E0B01
:104166007F011241F17409900040F07C127D437E7C
:10417600097F011242A18072B402028003023F74D9
:104186007401902B92F0902B91F014900043F090D4
:104196000042F074E57D10900040CDF0A3CDF07D97
:1041A600C37E097F011241F1740A900040F07C1A27
:1041B6007D437E087F011242A1E4900043F0900007
:1041C60042F074E57D10900040CDF0A3CDF07D2D3A
:1041D6007E0A7F011241F1740B900040F07C1A7D3B
:1041E600837E087F011242A1800022E4A29792E01A
:1041F600F40404A2E09297900040E0FBA3E0F8CB21
:10420600F9CB90003DEFF0A3EEF0A3EDF0E89000BF
:1042160068120EC1900042E0120E7F900043E090BB
:104226000001120E86E4900002120E869000031220
:104236000E8690003CF090003CE0C39414502DE0B4
:104246007D0025E0CD33CD25E0CD33CDFCA3E0FBCD
:10425600A3E0FAA3E0F92CF9EA3DFAE4FEFF9000A8
:1042660004120F8690003CE004F080CAA3E0FFA38E
:10427600E0FEA3E0FDE4FAFB900054120F96EAF884
:10428600EAF9900058120F9690005C120F96900073
:1042960060120F96900064120F9622E4A29792E0A5
:1042A600F40404A2E0929774FFF8F9FAFB120F8C5B
:1042B60090003CEFF0A3EEF0A3EDF074FE18191A8F
:1042C6001B90001C120F967457900004120E86E481
:1042D600FB900005120ED7EC900008120E86900097
:1042E6003FF0A3E0900009120E86EB900007120E35
:1042F6008690001A120E8690001B120E86F9F8FAA6
:1043060090000A120F96900016120F969000121245
:104316000F9690000E120F9674FF18191A1B900034
:1043260020120F9674FE18191A1B90003C120F9655
:104336007457900024120E867B0374849000251215
:104346000ED7EC900028120E86900040E0900029CF
:10435600120E86E4900027120E8690003A120E8600
:1043660090003B120E86F9F8FAFB90002A120F967F
:10437600900036120F96900032120F9690002E1271
:104386000F9622E4A29792E0F40404A2E09297EC3E
:10439600900000F07D007C0625E0CD33CDDCF924CD
:1043A6004BF582ED3408F583E0B4120302450E9016
:1043B6000000E0FF7D007C0625E0CD33CDDCF9244E
:1043C6004DF582ED3408F5831210ABEF7D007C06C7
:1043D60025E0CD33CDDCF92459F582ED3408F5839B
:1043E600121081EF7D007C0625E0CD33CDDCF9246B
:1043F6004DF582ED3408F5831210ABEF7D007C0697
:1044060025E0CD33CDDCF92455F582ED3408F5836E
:10441600121081EF7D007C0625E0CD33CDDCF9243A
:104426004DF582ED3408F5831210ABEF7D007C0666
:1044360025E0CD33CDDCF92479F582ED3408F5831A
:10444600121081EF7D007C0625E0CD33CDDCF9240A
:104456004DF582ED3408F5831210ABEF7D007C0636
:1044660025E0CD33CDDCF92475F582ED3408F583EE
:10447600121081EF7D007C0625E0CD33CDDCF924DA
:104486004DF582ED3408F5831210ABEF7D007C0606
:1044960025E0CD33CDDCF9246DF582ED3408F583C6
:1044A600121081EF7D007C0625E0CD33CDDCF924AA
:1044B6004DF582ED3408F5831210AB902BC1121026
:1044C60081EF7D007C0625E0CD33CDDCF92451F566
:1044D60082ED3408F583E4F0A3F0EF7D007C062539
:1044E600E0CD33CDDCF92471F582ED3408F583E4B3
:1044F600F0A3F0EF75F06AA42427F582E5F0340AFC
:10450600F583E4F0A3F0800022E4A29792E0F4049D
:1045160004A2E09297EC90003DF0C394044001227F
:10452600EC90C000F022900002E4F0A3F0A2979273
:10453600E0F40404A2E09297900000E4F0A3F0C334
:10454600900001E09464900000E094005026A3E0FF
:1045560004F09000007003E004F0A3E024FFF09064
:104566000000E034FFF0A3E004F09000007003E0E8
:1045760004F080CBE4F0A3F0C2AFC29614908000A2
:10458600F030B30280FB908000E07D007C0425E0E3
:10459600CD33CDDCF9900002CDF0A3CDF0908001B3
:1045A600E0C4540F7D00FC900003E04CF090000244
:1045B600E0F0D2AFD296C3900001E0946490000080
:1045C600E094004009902BB0E04404F08007902B63
:1045D600B0E054FBF0900002E0FDA3E0FC22E4A270
:1045E6009792E0F40404A2E09297900C43E0FDA3B6
:1045F600E0FCA3A3E06C7007900C45E06D6046906C
:104606000C47E0603EC2AFECFEEDFFCC2401CCCD02
:104616003400CD900C43EDF0A3ECF0EE2449F58286
:10462600EF340CF583E0F599D2AFC3EC94A0ED948A
:104636000F400BE4FCFD900C43EDF0A3ECF0E4908E
:104646000C47F080067401900C48F022E4A2979281
:10465600E0F40404A2E09297900C3FE0FDA3E0FC96
:10466600A3A3E06C7007900C41E06D6043900C488A
:10467600E0700122ECFEEDFFCC2401CCCD3400CD60
:10468600900C3FEDF0A3ECF0EE24E9F582EF341B3D
:10469600F583E0FC7D3F7E0C7F011231D6C3900C82
:1046A60040E094A0900C3FE0940F4004E4F0A3F0A7
:1046B60022C0E0C0F0C082C083C0D0ECC0E0EDC034
:1046C600E0C2AF902BB1E004F075F00984E5F0C3C9
:1046D60094014011B40600B3400B902BA9E070037F
:1046E6007401F08040B4073B902BABE004F0902BB4
:1046F600AA7003E004F0E0FDA3E0FC902BADE06CB3
:104706007005902BACE06D70137401902BAFF0E444
:10471600FCFD902BAAF0A3F0902BAEF0E4902BB109
:10472600F080028000902BB2E4F0A3F0902BB0E072
:1047360054FEF0D2AFD0E0FDD0E0FCD0D0D083D094
:1047460082D0F0D0E032C0E0C082C083C0D0ECC0DE
:10475600E0EDC0E0EEC0E0EFC0E0C2AF30983BC293
:1047660098D2B5E599900C41FEE0FDA3E0FCE0048B
:10477600F0900C417003E004F0EC24E9F582ED348E
:104786001BF583EEF0C3900C42E094A0900C41E040
:10479600940F4004E4F0A3F0805B309958C299D29C
:1047A600B4900C43E0FDA3E0FCA3A3E06C7007907B
:1047B6000C45E06D6037ECFEEDFFCC2401CCCD342A
:1047C60000CD900C43EDF0A3ECF0EE2449F582EF1A
:1047D600340CF583E0F599C3EC94A0ED940F400BEF
:1047E600E4FCFD900C43EDF0A3ECF080087401901E
:1047F6000C47F0C2B4D2AFD0E0FFD0E0FED0E0FD6F
:10480600D0E0FCD0D0D083D082D0E032E4A2979220
:10481600E0F40404A2E09297123EE9123E28123E0A
:10482600D3E4A29792E0F40404A2E09297124652CF
:104836001245E4902BA9E06059902BA8E02491F54D
:1048460082E4342BF583E06032902BA8E075F06AA1
:10485600A424C5FCE5F03409FDFEECFD7F01E075FE
:10486600F06AA4242BF582E5F0340AF583E0FBA375
:10487600E0F5828B83121054121061902BA8E0048D
:10488600F0C394064002E4F0E0FC12450FE4902BDE
:10489600A9F01246521245E4E4A29792E0F4040409
:1048A600A2E09297902BAFE06028902BAEE0249187
:1048B600F582E4342BF583E06008902BAEE0FC1221
:1048C6002400902BAEE004F0C394064005E4902B40
:1048D600AFF01246521245E4902BB2E0FDA3E0FC85
:1048E600E004F0902BB27003E004F0D3EC94D0ED2A
:0E48F60094074007902BB0E04401F0024827E1
:10490A005B2A5D2D2D2D2D2D2D2D2D2D2D2D2D2D72
:10491A002D2D2D2D2D2D2D2D2D2D2D2D2D2D2D2DBD
:10492A002D2D2D2D2D2D2D2D2D2D2D2D2D2D2D2DAD
:10493A002D2D2D2D2D2D2D2D5B2A5D005B2A5D2021
:10494A00204A494E2D59414E472020494E4455533D
:10495A00545249414C2E2C434F204C544420202081
:10496A00202020202020202020202020202020203D
:10497A00202020205B2A5D005B2A5D202050726F78
:10498A006772616D203A205041524B2E204A6F6E59
:10499A00674B696C20202044617465203A203139C4
:1049AA0039392E20352E20387E2020202020202024
:1049BA005B2A5D005B2A5D2D2D2D2D2D2D2D2D2D94
:1049CA002D2D2D2D2D2D2D2D2D2D2D2D2D2D2D2D0D
:1049DA002D2D2D2D2D2D2D2D2D2D2D2D2D2D2D2DFD
:1049EA002D2D2D2D2D2D2D2D2D2D2D2D5B2A5D00BF
:1049FA005B2A5D202050726F6A656374204E414DB8
:104A0A0045203A204441454A554E20574F4E4A4187
:104A1A0052554B20202020202020202020202020FA
:104A2A0020202020202020205B2A5D005B2A5D2D8B
:104A3A002D2D2D2D2D2D2D2D2D2D2D2D2D2D2D2D9C
:104A4A002D2D2D2D2D2D2D2D2D2D2D2D2D2D2D2D8C
:104A5A002D2D2D2D2D2D2D2D2D2D2D2D2D2D2D2D7C
:104A6A002D2D2D2D5B2A5D005B2A5D2020424F41B2
:104A7A005244203A2039382720414420424F41529B
:104A8A004420282034204368616E6E656C202920FA
:104A9A00202020202020202020202020202020200C
:104AAA005B2A5D005B2A5D2D2D2D2D2D2D2D2D2DA3
:104ABA002D2D2D2D2D2D2D2D2D2D2D2D2D2D2D2D1C
:104ACA002D2D2D2D2D2D2D2D2D2D2D2D2D2D2D2D0C
:104ADA002D2D2D2D2D2D2D2D2D2D2D2D5B2A5D00CE
:104AEA005B2A5D202053656E736F7220434F4445E5
:104AFA00204465736372697074696F6E2E2020207A
:104B0A00202020202020202020202020202020209B
:104B1A0020202020202020205B2A5D005B2A5D20A7
:104B2A002057494E44203D203078302C205753508E
:104B3A004420203D203078312C2054454D502020EF
:104B4A003D203078322020202020202020202020C4
:104B5A00202020205B2A5D005B2A5D202048554DDD
:104B6A0049203D203078362C205349474D41203D7D
:104B7A002030783142202020202020202020202090
:104B8A00202020202020202020202020202020201B
:104B9A005B2A5D005B2A5D2D2D2D2D2D2D2D2D2DB2
:104BAA002D2D2D2D2D2D2D2D2D2D2D2D2D2D2D2D2B
:104BBA002D2D2D2D2D2D2D2D2D2D2D2D2D2D2D2D1B
:104BCA002D2D2D2D2D2D2D2D2D2D2D2D5B2A5D00DD
:104BDA005B2A5D202053656E736F7220494420441E
:104BEA0065736372697074696F6E2E2020202020AD
:104BFA0020202020202020202020202020202020AB
:104C0A0020202020202020205B2A5D005B2A5D20B6
:104C1A002028444950205357203D3D2030783030D9
:104C2A002920202020202020202020202020202071
:104C3A00202020202020202020202020202020206A
:104C4A00202020205B2A5D005B2A5D2020574449F2
:104C5A005220203D203078302C2057535044203D9C
:104C6A00203078312C2054454D50203D2030783466
:104C7A002C2048554D49203D2030783620202020D0
:104C8A005B2A5D005B2A5D20205349474D41203D48
:104C9A00203078382020202020202020202020208A
:104CAA0020202020202020202020202020202020FA
:104CBA002020202020202020202020205B2A5D0088
:104CCA005B2A5D202028444950205357203D3D202F
:104CDA003078303129202020202020202020202038
:104CEA0020202020202020202020202020202020BA
:104CFA0020202020202020205B2A5D005B2A5D20C6
:104D0A00205744495220203D203078322C205753D6
:104D1A005044203D203078332C2054454D50203DBE
:104D2A00203078352C2048554D49203D20307837A1
:104D3A00202020205B2A5D005B2A5D202053494702
:104D4A004D41203D2030783920202020202020206D
:104D5A002020202020202020202020202020202049
:104D6A002020202020202020202020202020202039
:104D7A005B2A5D005B2A5D2D2D2D2D2D2D2D2D2DD0
:104D8A002D2D2D2D2D2D2D2D2D2D2D2D2D2D2D2D49
:104D9A002D2D2D2D2D2D2D2D2D2D2D2D2D2D2D2D39
:104DAA002D2D2D2D2D2D2D2D2D2D2D2D5B2A5D00FB
:104DBA005B2A5D2020412F44204368616E6E656C3A
:104DCA00204465736372697074696F6E2E202020A7
:104DDA0020202020202020202020202020202020C9
:104DEA0020202020202020205B2A5D005B2A5D20D5
:104DFA002056455253494F4E203A20312E317820C1
:104E0A002020202020202020202020202020202098
:104E1A002020202020202020202020202020202088
:104E2A00202020205B2A5D005B2A5D2D2D2D2D2D53
:104E3A002D2D2D2D2D2D2D2D2D2D2D2D2D2D2D2D98
:104E4A002D2D2D2D2D2D2D2D2D2D2D2D2D2D2D2D88
:104E5A002D2D2D2D2D2D2D2D2D2D2D2D2D2D2D2D78
:104E6A005B2A5D0000000000000000000000000056
:104E7A000000000000000000000000000000000028
:104E8A000000000000000000000000000000000018
:104E9A000000000000000000000000000000000008
:104EAA0000000000000000000000000000000000F8
:104EBA0000000000000000000000000000000000E8
:104ECA0000000000000000000000000000000000D8
:104EDA0000000000000000000000000000000000C8
:104EEA0000000000000000000000000000000000B8
:104EFA0000000000000000000000000000000000A8
:104F0A000000000000000000000000000000000097
:104F1A000000000000000000000000000000000087
:104F2A000000000000000000000000000000000077
:104F3A000000000000000000000000000000000067
:104F4A000000000000000000000000000000000057
:104F5A000000000000000000000000000000000047
:104F6A000000000000000000000000000000000037
:104F7A000000000000000000000000000000000027
:104F8A000000000000000000000000000000000017
:104F9A000000000000000000000000000000000007
:104FAA0000000000000000000000000000000000F7
:104FBA0000000000000000000000000000000000E7
:104FCA0000000000000000000000000000000000D7
:104FDA0000000000000000000000000000000000C7
:104FEA0000000000000000000000000000000000B7
:104FFA0000000000000000000000000000000000A7
:08500A0000000000000000009E
:030003000246B7FB
:0300230002474C45
:1010BA00FDFAF4E8D0A00C183060142850A0000003
:1010CA000000000000000000000000000000000016
:0B10DA0000000000000000000000000B
:00000001FF
:00000001FF
