:0407C60011EA000E26
:0407CA000FD000024A
:100896007401909000F0E4FD7C641219C922740280
:1008A600909000F0E4FD7C641219C922EC9090004F
:1008B600F0900015F0E4FD7C641219C922EC90005A
:1008C60015F0540F909000F0E4FD7C641219C922D3
:1008D600EC909000F0900015F07D017C2C1219C967
:1008E600900015E0909000F0E4FD7CC81219C990C4
:1008F6000015E0909000F0E4FD7C641219C922ED29
:10090600900012F0EC900011F0EDC3940440012227
:10091600900016E0C3940A400122E0900039F0905E
:100926000013E0FFA3E0FEA3E0FD1204916056125F
:10093600076D900013EFF0A3EEF0A3EDF01204871D
:10094600900011FCE0FD04F0ED75F028A4AFF0FE78
:10095600A3E075F00AA4ABF0FAEE2AFEEF3BFF9097
:100966000016E07B00FAEE2AFEEF3BFFEE243CF594
:1009760082EF3400F583ECF0900011E0C39414404C
:1009860002EBF0809A22E4A29792E0F40404A2E03B
:100996009297EC900015F0C3940940012290001143
:1009A600E4F0A3F0C3900012E09404900011E094E8
:1009B600004003020A3BA3A3E4F0A3F0C390001493
:1009C600E09414900013E094005059E0FDA3E0FC7D
:1009D60075F028A4FCE5F0CD75F028A42DFD900057
:1009E60011E0FFA3E0FE75F00AA4FEE5F0CF75F076
:1009F6000AA42FFFEC2EFCED3FFD900015E07F00D2
:100A0600FEEC2EFCED3FFDEC243CF582ED3400F5CA
:100A1600837420F0900014E004F09000137003E05B
:100A260004F08098900012E004F09000117003E04A
:100A360004F00209AA22ED900001F0EC900000F00B
:100A4600ED147009EC24C0909000F08020EDB40203
:100A560009EC2494909000F08013B40309EC24D49C
:100A6600909000F08007EC2480909000F022EC90AB
:100A76009001F0900000F0227430900018F0E4A28B
:100A86009792E0F40404A2E092977C381208D67C90
:100A96000C1208C31208A47C061208B2120896E4C7
:100AA600900039F0A3F0900037F0A3F00490003BDB
:100AB600F0900016E4F0A3F0C3900017E0940A90BB
:100AC6000016E094005016A3E0FC12098C90001763
:100AD600E004F09000167003E004F080DB22C0E032
:100AE600C0F0C082C083C0D0E8C0E0E9C0E0EAC080
:100AF600E0EBC0E0ECC0E0EDC0E0EEC0E0EFC0E04F
:100B0600C28CC28D90003BE06011E4F0900038E0AA
:100B1600FD900037E0FC120A3C806D7401F09000F5
:100B260038E075F00AA4ADF0FC900037E075F028C7
:100B3600A4AFF02CFEEF3DFFA3A3E07D00FCEE2C5E
:100B4600FEEF3DFFEE243CF582EF3400F583E0FC3A
:100B5600120A74900037E0FC04F0ECC394134028AA
:100B6600E4F0A3E0FC04F0ECC39403401BE4F0A320
:100B7600A3E06014900039E004F0E4A3F09000399B
:100B8600E0C3940A4002E4F0758CFF758A00D28CAB
:100B9600D0E0FFD0E0FED0E0FDD0E0FCD0E0FBD01E
:100BA600E0FAD0E0F9D0E0F8D0D0D083D082D0F00F
:100BB600D0E032900362E4F0A3F0900360F0A3F07B
:100BC60090035EF0A3F090035CF0A3F0049003653D
:100BD600F0A3F0900027EFF0A3EEF0900025EDF0E3
:100BE600A3ECF0E4FD7C0F121B7F901307EFF0A33C
:100BF600EEF0A3EDF0759850758920438780758BCC
:100C0600F4758DF47401900364F0E4FB1206B99058
:100C160000021206C49000061206C4900025E0FDEC
:100C2600A3E0FC901307E0FBA3E0FAA3E0F9EC9045
:100C360000041206AE900027E0FDA3E090000B1220
:100C460006AE900029E0FDA3E090000D1206AE90DE
:100C56000025E0FDA3E0FC121B7F901307E0FBA339
:100C6600E0FAA3E0F9900008120705E4FD049000FD
:100C7600061206AED28ED2ACD2BC22900015E07B14
:100C860000FA900011EFF0A3EEF0A3EDF0EBC0E058
:100C9600EAC0E0900FAB12053AEC900014F075F044
:100CA6000FA4ADF029F9EA3DFAD0E0FDD0E0CD90F1
:100CB60000061206AE22E4900016F0EC90001AF040
:100CC600900017EFF0A3EEF0A3EDF0900017E0FF11
:100CD600A3E0FEA3E0FD900008120496FC90001627
:100CE600E0C39C4003020E1F900FAB12053A900022
:100CF60016E075F00FA4ADF029F9EA3DFA9000066A
:100D06001204B5144D6003020E1690001AE090000E
:100D160015F0900017E0A3E0A3E0FD900016E0FCBC
:100D2600120E20900017E0FFA3E0FEA3E0FD900F57
:100D3600AB12053A900016E075F00FA4ADF029F954
:100D4600EA3DFAE9FDEAFEEBFFA3E0FBA3E0FAA326
:100D5600E0F9EFC0E0EEC0E0EDC0E0900FAB1205A9
:100D660034900016E075F00FA4ABF02DFDEE3BFEBF
:100D760090000B1204EBF5828B83120785D0E0FD01
:100D8600D0E0FED0E0FF120792EC7003020E169040
:100D96000017E0FFA3E0FEA3E0FD900FAB12053ABB
:100DA600900016E075F00FA4ADF029F9EA3DFAE9D6
:100DB600FDEAFEEBFFA3E0FBA3E0FAA3E0F9EFC038
:100DC600E0EEC0E0EDC0E0900FAB120534900016E7
:100DD600E075F00FA4ABF02DFDEE3BFE90000D127A
:100DE60004EBF5828B83120785D0E0FDD0E0FED0C0
:100DF600E0FF120792EC6018E4900015F0900017DF
:100E0600E0FFA3E0FEA3E0FD900016E0FC120C81DB
:100E1600900016E004F0020CD122900011EFF0A32E
:100E2600EEF0A3EDF0900FAB12053AEC75F00FA4BF
:100E3600AFF029F9EA3FFAE92402F9EA3400FA9018
:100E46000011E0FFA3E0A3E0EBC0E0EAC0E0E9C0E8
:100E5600E0900FAB12053AEC75F00FA4AFF029F94C
:100E6600EA3FFA9000041204C7FED0E0F9D0E0FA97
:100E7600D0E0FBEE12040DEC900014F0900011E0AF
:100E8600FFA3E0FEA3E0900FAB12053AEC75F00F5E
:100E9600A4ADF0F5828D83A3A31204B5FC900011D6
:100EA600E0FBA3E0FAA3E0F9EDC0E0ECC0E0900FB0
:100EB600AB120534900014E075F00FA4ABF0F58288
:100EC6008B831204EBFAD0E0FCD0E0FDEA6C7002F2
:100ED600EB6D6003020F5C900011E0FFA3E0FEA340
:100EE600E0FD900FAB12053A900014E075F00FA4E8
:100EF600ADF029F9EA3DFAE4FD041202439000112F
:100F0600E0A3E0A3E0FD900FAB12053A900014E0D9
:100F160075F00FA4ADF029F9EA3DFA900011E0A3AF
:100F2600E0A3E0FDEBC0E0EAC0E0E9C0E0900FAB73
:100F360012053A900014E075F00FA4ADF029F9EA15
:100F46003DFA9000041204B5FCD0E0F9D0E0FAD0E6
:100F5600E0FBEC1203A8900015E0FC900011E0FF06
:100F6600A3E0FEA3E0FD900FAB12053A900014E05B
:100F760075F00FA4AFF029F9EA3FFA9000081205C0
:100F860034900011E0FBA3E0FAA3E0F9EFC0E0EE35
:100F9600C0E0EDC0E0900FAB120534900014E07590
:100FA600F00FA4ABF02DFDEE3BFEED2402FDEE347A
:100FB60000FEE4FB041202CDF5828B83D0E0FDD067
:100FC600E0FED0E0FFEC12068922E4A29792E0F45C
:100FD6000404A2E09297900002EFF0A3EEF0A3EDD6
:100FE600F090000812053AEBC0E0EAC0E0E9C0E084
:100FF6009000041204EBFA1204DEF8EA28FAEB3940
:10100600FBEA24FFFAEB34FFFB9000041204D9F844
:101016001201E788828983D0E0F9D0E0FAD0E0FBBC
:1010260012048C64FE60037C002290000812053ACC
:10103600EBC0E0EAC0E0E9C0E09000041204EBFA7D
:101046001204DEF8EA28FAEB39FBEA24FEFAEB345E
:10105600FFFB9000041204D9F81201E78882898305
:10106600D0E0F9D0E0FAD0E0FB12048C64FE600315
:101076007C002290000812053AEBC0E0EAC0E0E9E5
:10108600C0E09000041204EBFA1204DEF8EA28FA33
:10109600EB39FBEA24FDFAEB34FFFB900004120463
:1010A600D9F81201E788828983D0E0F9D0E0FAD036
:1010B600E0FB12048C64FE60037C002290000812A0
:1010C600053AEBC0E0EAC0E0E9C0E0900004120493
:1010D600EBFA1204DEF8EA28FAEB39FBEA24FCFA0A
:1010E600EB34FFFB9000041204D9F81201E7888262
:1010F6008983D0E0F9D0E0FAD0E0FB12048C64FEDC
:1011060060037C0022D29590000812053AEBC0E0FD
:10111600EAC0E0E9C0E01204F02403FAE43BFB90E5
:1011260000041204D9F81201E788828983D0E0F915
:10113600D0E0FAD0E0FB12048C0460037C0022901D
:10114600000812053AEBC0E0EAC0E0E9C0E012048C
:10115600F02402FAE43BFB9000041204D9F81201D1
:10116600E788828983D0E0F9D0E0FAD0E0FB120468
:101176008C0460037C002290000812053AEBC0E064
:10118600EAC0E0E9C0E01204F004FA70010B900036
:10119600041204D9F81201E788828983D0E0F9D0D5
:1011A600E0FAD0E0FB12048C0460037C002290007D
:1011B6000812053AEBC0E0EAC0E0E9C0E01204F02C
:1011C600FA9000041204D9F81201E788828983D0C4
:1011D600E0F9D0E0FAD0E0FB12048C0460037C0056
:1011E600227C0122E4900008F0A3F0A3F0A3F0A370
:1011F600F0A3F0A29792E0F40404A2E09297C294BE
:1012060090000AE4F0A37404F0A3E4F0A3F0A3EFC3
:10121600F0A3EEF0A3EDF090000EE0FFA3E0FEA336
:10122600E0FD9000041204EB24FAFAEB34FFFB9085
:10123600000BE0C39A90000AE09B4003021345901E
:10124600000812053AEBC0E0EAC0E0E9C0E012048B
:10125600F090000BFCE02CFA90000AE03BFB9000BB
:10126600041204D9F81201E788828983D0E0F9D004
:10127600E0FAD0E0FB12048C900008FCE06CF090E1
:10128600000812053AEBC0E0EAC0E0E9C0E012044B
:10129600F090000BFCE02CFA90000AE03BFB90007B
:1012A600041204D9F81201E788828983D0E0F9D0C4
:1012B600E0FAD0E0FB12048C900009FCE02CF090E0
:1012C600000CE0FFA3E0FEA3E0FBA3E0FAA3E0F935
:1012D600EFC0E0EEC0E0900008120534EFC0E0EE8B
:1012E600C0E0EDC0E01204BA90000BFEE02EFC90C8
:1012F600000AE03DFD9000041204C7FEFAEFFBEC85
:10130600F8EDF91201ED88828983D0E0FDD0E0FE88
:10131600D0E0FF120496FCD0E0FED0E0FF1213DC12
:1013260090000BE004F090000A7003E004F09000D7
:101336000DE004F090000C7003E004F002121D743E
:101346000190003AF090000812053AEBC0E0EAC0BE
:10135600E0E9C0E09000041204EBFA1204DEF8EAB9
:1013660028FAEB39FBEA24F8FAEB34FFFB90000489
:101376001204D9F81201E788828983D0E0F9D0E017
:10138600FAD0E0FB12048C90C001F0900008120520
:101396003AEBC0E0EAC0E0E9C0E09000041204EBDA
:1013A600FA1204DEF8EA28FAEB39FBEA24F9FAEB3A
:1013B60034FFFB9000041204D9F81201E7888289F1
:1013C60083D0E0F9D0E0FAD0E0FB12048C90C000A4
:1013D600F0D294AC8222E4A29792E0F40404A2E054
:1013E6009297900006EFF0A3EEF0EC900005F0C3A4
:1013F600EE9450EF9400400122EE4F7009E4900005
:1014060002F0A3F08022EFFDEEFCE4FB7A14ECF888
:10141600EDF91201EDE8900002F0E4FB7A14EEF823
:10142600EFF912019AE8A3F0900039E00490000465
:10143600F0C3940A4002E4F0A3E0FC900002E075D9
:10144600F028A4AFF0FEA3E075F00AA4ABF0FAEE24
:101456002AFEEF3BFFA3E07B00FAEE2AFEEF3BFFFE
:10146600EE243CF582EF3400F583ECF022E4A297FB
:1014760092E0F40404A2E0929790002C74FFF0A38B
:10148600F0A3F0A3F090003314F0A3F0A3F0A3F0C0
:10149600E4900032F0900031F0EC900030F09000D3
:1014A60017F0900030E0A3A3FCE06CF0EC90003164
:1014B600FDE02DF0900015E4F0A3F0C3900016E0D7
:1014C600940B900015E094005026A3E0242CF5829E
:1014D600E43400F583E0FC7D5C7E037F011214F7A3
:1014E600900016E004F09000157003E004F080CB45
:1014F60022E4A29792E0F40404A2E09297E4FB04AB
:101506009000061202D7FA900011EFF0A3EEF0A3B6
:10151600EDF02AFDEE3BFEEC90000B1206899000E2
:1015260014F0900011E0A3E0FEA3E0FD9000061287
:1015360004EBC3FA94D0EB94074008E4FB90000652
:101546001206C422E4A29792E0F40404A2E0929761
:10155600900360E0FDA3E0FCA3A3E06C700790039A
:1015660062E06D6046900365E0603EC2AFECFEED62
:10157600FFCC2401CCCD3400CD900360EDF0A3EC7C
:10158600F0EE2467F582EF3403F583E0F599D2AFE8
:10159600C3EC94D0ED9407400BE4FCFD900360EDA2
:1015A600F0A3ECF0E4900365F08006740190036606
:1015B600F022E4A29792E0F40404A2E0929790034A
:1015C6005CE0FDA3E0FCA3A3E06C700790035EE083
:1015D6006D6043900366E0700122ECFEEDFFCC24C3
:1015E60001CCCD3400CD90035CEDF0A3ECF0EE24FD
:1015F60037F582EF340BF583E0FC7D5C7E037F01DB
:10160600120CBCC390035DE094D090035CE0940799
:101616004004E4F0A3F022C0E0C082C083C0D0EC56
:10162600C0E0EDC0E0EEC0E0EFC0E0C2AF30983BF6
:10163600C298C295E59990035EFEE0FDA3E0FCE04A
:1016460004F090035E7003E004F0EC2437F582EDBD
:10165600340BF583EEF0C390035FE094D090035E05
:10166600E094074004E4F0A3F0805B309958C299F7
:10167600C296900360E0FDA3E0FCA3A3E06C7007B4
:10168600900362E06D6037ECFEEDFFCC2401CCCD1B
:101696003400CD900360EDF0A3ECF0EE2467F58204
:1016A600EF3403F583E0F599C3EC94D0ED9407404D
:1016B6000BE4FCFD900360EDF0A3ECF080087401F0
:1016C600900365F0D296D2AFD0E0FFD0E0FED0E036
:1016D600FDD0E0FCD0D0D083D082D0E032E49000C0
:1016E60015F0A29792E0F40404A2E09297E4A3F026
:1016F600900016E0C394085028E024DDF582E43417
:101706001AF583E0900015FCE04C90C000F09000C4
:1017160015F07D137C881219C9900016E004F0803C
:10172600CFE4900015F0A3F0900016E0C3940850A3
:1017360028E024DDF582E4341AF583E0900015FCF8
:10174600E04C90C001F0900015F07D137C881219D2
:10175600C9900016E004F080CFE4900015F022C294
:1017660090E490C001F090C000F0C294C295C29679
:101776007D137C881219C97D137C881219C9D294ED
:10178600D295D2967D137C881219C97D137C881256
:1017960019C9E4900016F07DCE7E077F02900013F3
:1017A600EFF0A3EEF0A3EDF07D007C00120905E456
:1017B600900016F07DE27E077F02900013EFF0A303
:1017C600EEF0A3EDF07D017C00120905E490001611
:1017D600F07DF67E077F02900013EFF0A3EEF0A3F4
:1017E600EDF07D027C00120905E4900016F07D0AFA
:1017F6007E087F02900013EFF0A3EEF0A3EDF07DDC
:10180600037C001209057D137C881219C97D137C9F
:10181600881219C97D137C881219C97D137C881218
:1018260019C97D137C881219C97D137C881219C9C0
:101836007D137C881219C97D137C881219C97D1302
:101846007C881219C97D137C881219C97C0012097B
:101856008C7D137C881219C9E4900016F07D1E7EDB
:10186600087F02900013EFF0A3EEF0A3EDF07D00E9
:101876007C001209051216E3E4900016F07D327E14
:10188600087F02900013EFF0A3EEF0A3EDF07D00C9
:101896007C00120905D2907D137C881219C97D132C
:1018A6007C881219C97D137C881219C9C290E490EC
:1018B600C001F090C000F0FC12098C7D137C8812E8
:1018C60019C9E4900016F07D467E087F0290001349
:1018D600EFF0A3EEF0A3EDF07D007C001209057D8C
:1018E600137C881219C97D137C881219C97D137C53
:1018F600881219C97D137C881219C97D137C881238
:1019060019C9E4900016F07D5A7E087F02900013F4
:10191600EFF0A3EEF0A3EDF07D017C001209057D4A
:10192600137C881219C97D137C881219C97D137C12
:10193600881219C97D137C881219C97D137C8812F7
:1019460019C9E4900016F07D6E7E087F02900013A0
:10195600EFF0A3EEF0A3EDF07D027C001209057D09
:10196600137C881219C97D137C881219C97D137CD2
:10197600881219C97D137C881219C97D137C8812B7
:1019860019C9E4900016F07D827E087F029000134C
:10199600EFF0A3EEF0A3EDF07D037C001209057DC8
:1019A600137C881219C97D137C881219C97D137C92
:1019B600881219C97D137C881219C97D137C881277
:1019C60019C922900011E4F0A3F0A3EDF0A3ECF006
:1019D600900011E0FDA3E0FCA3A3E0D39C900013CC
:1019E600E09D401BE4A29792E0F40404A2E09297E3
:1019F6000CEC70010D900011EDF0A3ECF080D122FB
:101A0600438901758CFF758A00D2A9D28CD2AF2288
:101A1600E4A29792E0F40404A2E09297E490002BEB
:101A2600F090A000E090002BF0901ADAE06001221E
:101A360090002BE0333354015401700122E0547FAF
:101A4600F0E0540F12045E1A69001A85011A700438
:101A56001A8C051A77081A93091A7E0C1A9A0D0021
:101A6600001AA17C5512147380337C4412147380BF
:101A76002C7C4C12147380257C52121473801E7CAD
:101A86004512147380177C4312147380107C4D1218
:101A9600147380097C4612147380028000740190CE
:101AA6001ADAF0D29022E4A29792E0F40404A2E0BB
:101AB6009297120A7E74C67D07900029CDF0A3CDB9
:101AC600F07ECA7F07E4FD7C5C120BB9121A06127F
:101AD6001765E4A29792E0F40404A2E09297121527
:101AE600B812154A121A16901ADAE06026901ADB16
:101AF600E0FDA3E0FCE004F0901ADB7003E004F0E4
:101B0600D3EC94D0ED9407400AE4F0A3F0901ADAEF
:051B1600F0C29080BD4B
:1007CE004A494E59414E4720494E44555354524979
:1007DE00414C2E00482F5720444553494E45204248
:1007EE0059204A4B2E20200053414D504C4520425B
:1007FE004F415244202020202020200042415544C9
:10080E00524154452039363030204250532020007A
:10081E00566F6C756D65204C454420544553542ECF
:10082E002E2E2E00535045414B45522054455354C5
:10083E002E2E2E2E2E2E2E00564F49434520535926
:10084E004E54484553495A45522E2E00434F4D5053
:10085E005554455220424F4F54494E472E2E2E008E
:10086E00484152445741524520494E495449414C02
:10087E00495A450050524F4752414D2052554E4E07
:08088E00494E47212121210000
:03000B00020AE402
:0300230002161DA5
:0B07B800000000010204081020408037
:030000000200807B
:1000800075812F782F7600D8FC901ADAAE83AF8274
:1000900090002B1200BE6005E4F0A380F690011CD6
:1000A0001200C79001201200C79001241200E590B1
:1000B000012A1200E575D000121AAC020130EF657A
:1000C000827003EE658322E493F8740193F974025D
:1000D00093FE740393F5828E83E869700122E493A2
:1000E000F6A30880F4E493FC740193FD740293FE7C
:1000F000740393FF740493F8740593F58288831254
:1001000000BE700122E493A3A883A9828C838D8210
:10011000F0A3AC83AD828883898280E3303007B856
:10012000303007B81ADA07C607B81AE808960896F2
:0201300080FE4F
:061CCA0001130A011AD902
:0307C30001130A15
:101B1B0090001412079490000112053AEAFDE9C3F4
:101B2B00900019FEE0CE9EFC900018E0FEED9ED3D7
:101B3B00FDEC9404ED6480948040389000141207FF
:101B4B00A690000112053A9000171207A6900011FB
:101B5B0012079DA31207AF90000112070590001703
:101B6B001207A6E41206829000111207AF90000133
:101B7B0012070B22900023EDF0A3ECF02404FCE4FD
:101B8B003DFD901CCEE493FF740193C3901AE7FACA
:101B9B00E0CA9AFE901AE6E0FAEF9AFFECD39EEDBC
:101BAB009F505B901AE51207A674011206829000F3
:101BBB0024E02404FA900023E03400C0E0900020DD
:101BCB00120794D0E0CAFDCAFE901AE7E02DF0FD93
:101BDB00901AE6E03EF0FE901AE5E0FF900020122E
:101BEB0007AF900001120705901AE51207A69000A7
:101BFB0024E0C3CD9DFD900023E0CE9EFE22901CE1
:101C0B00CA12077990001A12079490001BE0FDA3EB
:101C1B00E0FC901AE7E0D39C901AE6E09D5003029B
:101C2B001CC590001A1207A69000201207941204EC
:101C3B0091707290000112053AEAFDE9C390001C05
:101C4B00FEE0CE9EFC90001BE0FEED9EFDEC24FC26
:101C5B00FCED34FFFD900024E0D39C900023E09D2D
:101C6B00504390001AE0FFA3E0A3E02404FDEE3400
:101C7B0000FE9000201207AF740112067490001D35
:101C8B00120794900024E02DFD900023E03EFE907F
:101C9B000017120794E9FDEAFEEBFF121B1B9000E5
:101CAB001D1207A6229000201207A6900001120514
:0F1CBB003A90001A12079D021C15E4FDFEFF224D
:10013200E88BF0A4C98AF0A429F9E88AF0A4F8E5CA
:05014200F029F948223C
:10014700EBC9FBEAC8FAEB335008E4C39AFAE49B1D
:10015700FBD392F0E930E709B2F0C3E498F8E499E9
:10016700F912019A30F008C3E498F8E499F94822A3
:10017700EBC9FBEAC8FA89F012014D20F706EAF845
:0D018700EBF94822C3E49AF8E49BF9482202
:10019400EBC9FBEAC8FAE94B7010E8C0F08AF084B6
:1001A400F8AAF0D0F079007B0022ECC0E0EDC0E0CA
:1001B400EEC0E07D007E007C10C3E833F8E933F93B
:1001C400ED33FDEE33FEED9AEE9B4005FEED9AFD18
:1001D40008DCE6EDFAEEFBD0E0FED0E0FDD0E0FC7A
:0301E400E84922C5
:0F01E700EBC9FBEAC8FA12019AEAF8EBF94822D1
:1001F60030E01B20E30C08E625F0F6F5F018E63CA7
:10020600F62209E725F0F7F5F019E73CF72230E288
:1002160011C083A3E025F0F5F0F01582D083E03C11
:10022600F02220E30C08E225F0F2F5F018E23CF2A9
:0D0236002209E325F0F3F5F019E33CF32273
:10024300F5F0EDCCFD1205D4800D7D00900001F595
:0F025300F0EDCCFD1205F11201F6CDFCE5F02225
:1002620030E02720E31208E6C0E025F0F618E6F5B4
:10027200F03CF6E5F0D0F02209E7C0E025F0F719EE
:10028200E7F5F03CF7E5F0D0F02230E217A3E0C04A
:10029200E0C08325F0F01582D083E0F5F03CF0E574
:1002A200F0D0F02220E31208E2C0E025F0F218E2DA
:1002B200F5F03CF2E5F0D0F02209E3C0E025F0F3DE
:0B02C20019E3F5F03CF3E5F0D0F0226A
:1002CD00F5F0EBCCFB1206228008F5F0EBCCFB121F
:0A02DD000643120262CBFCE5F0229A
:1002E70030E03A30E302E9F8E8C0E0E6F908E6F87A
:1002F70030F005120132801B30F10512014D8013D9
:1003070030F20512019A800B30F30512017D80034C
:100317001201EDD0E0C9F709C8F7C8F92230E23376
:10032700E0F9C083A3E0F830F005120132801B30FA
:10033700F10512014D801330F20512019A800B303E
:10034700F30512017D80031201EDE8F0D0831582D9
:10035700E9F02230E302E9F8E8C0E0E2F908E2F860
:1003670030F005120132801B30F10512014D801368
:1003770030F20512019A800B30F30512017D8003DC
:0D0387001201EDD0E0C9F309C8F3C8F92256
:1003940075F001801275F002800D75F00480087507
:1003A400F008800375F000CACEC0E0EDCBCFC0E00A
:1003B400E9FDE8C0E0120622802875F0018012757C
:1003C400F002800D75F004800875F008800375F064
:1003D40000CACEC0E0EDCBCFC0E0E9FDE8C0E0123A
:1003E40006431202E7D0E0C8FAE9CDF9D0E0CFFB2A
:0503F400D0E0CECA229A
:1003F90075F001801275F002800D75F004800875A2
:10040900F008800375F000CACEC0E0EFCBFFE9CD5C
:10041900C0E0E8C0E0120622802875F0018012755C
:10042900F002800D75F004800875F008800375F0FE
:1004390000CACEC0E0EFCBFFE9CDC0E0E8C0E012D2
:1004490006431202E7D0E0C8FAEDC9CFCBD0E0FDF0
:05045900D0E0CECA2234
:10045E00D083D082F5F0E49370097401937004A3F5
:10046E00A3800C74029365F06005A3A3A380E774C8
:09047E000193C0E0E493C0E02208
:100487001205D4800D1205F180081206228003128E
:10049700064330E00720E302E622E72230E10720A7
:0E04A700E302E222E32230E202E022E49322AA
:1004B5001205F180031205D4ADF01204FDCDC5F08F
:0204C500CD2246
:1004C7001205F180031205D4AFF01204FDCFC5F079
:0204D700CF2232
:1004D9001206438003120622A9F01204FDC9C5F0D1
:0204E900C92226
:1004EB001206438003120622ABF01204FDCBC5F0BB
:0204FB00CB2212
:1004FD0030E01020E306E6F5F008E622E7F5F00916
:10050D00E7192230E11020E306E2F5F008E222E3DC
:10051D00F5F009E3192230E206E0F5F0A3E022E45C
:07052D0093F5F07401932225
:060534001205F10205882A
:06053A0012064302054019
:1005400030E01520E309E6FB08E6FA08E6F922E7C1
:10055000FB09E7FA09E7F92230E11520E309E2FB9C
:1005600008E2FA08E2F922E3FB09E3FA09E3F922D7
:1005700030E209E0FBA3E0FAA3E0F922E493FB7484
:080580000193FA740293F922C1
:1005880030E01720E309E6FF08E6FE08E6FD22E76B
:10059800FF09E7FE09E7FD19192230E11720E309F1
:1005A800E2FF08E2FE08E2FD22E3FF09E3FE09E3B9
:1005B800FD19192230E209E0FFA3E0FEA3E0FD22C5
:0C05C800E493FF740193FE740293FD2283
:1005D400BB0003740922BB010789828A8374042245
:0D05E400BB020789828A83741022740A22E8
:1005F100BB0007E92582F8740122BB010DE92582C0
:10060100F582EA3583F583740422BB020DE9258264
:10061100F582EA3583F583741022E92582F87402A4
:0106210022B6
:10062200BF0005EDF8740122BF01078D828E83742D
:100632000422BF02078D828E83741022EDF87402A9
:010642002295
:10064300BF0007ED2582F8740122BF010DED25825D
:10065300F582EE3583F583740422BF020DED258206
:10066300F582EE3583F583741022ED2582F874024A
:010673002264
:10067400C0E01205D48013C0E01205F1800CC0E084
:100684001206228005C0E012064330E00B20E3048A
:10069400D0E0F622D0E0F72230E10B20E304D0E0F2
:0A06A400F222D0E0F322D0E0F022B1
:0B06AE00C0E0EDC0E01205F10206CF35
:0B06B900C0E0EBC0E01206220206CFFA
:0B06C400C0E0EBC0E01206430206CFCE
:1006CF0030E01420E308D0E0F6D0E008F622D0E0C6
:1006DF00F7D0E009F7192230E11420E308D0E0F257
:1006EF00D0E008F222D0E0F3D0E009F31922D0E0F5
:0606FF00F0D0E0A3F022A0
:060705001205F1020732AB
:06070B0012064302071173
:1007110030E009EBF608EAF608E9F62230E109EBE8
:10072100F208EAF208E9F222EBF0A3EAF0A3E9F019
:0107310022A5
:1007320030E01720E309EFF608EEF608EDF622EFB7
:10074200F709EEF709EDF719192230E11520E3094F
:10075200EFF208EEF208EDF222EFF309EEF309ED03
:0B076200F322EFF0A3EEF0A3EDF02275
:0C076D00EEFAEDF904FD70010EEFFB2226
:0C077900E493FF740193FE740293FD22D0
:0D078500740193F5F0E493F58385F0822272
:02079200E4730E
:09079400EFF0A3EEF0A3EDF0225A
:09079D00EBF0A3EAF0A3E9F0225D
:0907A600E0FFA3E0FEA3E0FD2248
:0907AF00E0FBA3E0FAA3E0F9224B
:00000001FF
:00000001FF
