:03000000020026D5
:1000260075812678267600D8FC9002E7AE83AF82EB
:100036009000001200646005E4F0A380F69000C210
:1000460012006D9000C612006D9000CA12008B90CF
:1000560000D012008B75D0001208050200D6EF659D
:10006600827003EE658322E493F8740193F97402B7
:1000760093FE740393F5828E83E869700122E493FC
:10008600F6A30880F4E493FC740193FD740293FED6
:10009600740393FF740493F8740593F582888312AE
:1000A6000064700122E493A3A883A9828C838D82C5
:1000B600F0A3AC83AD828883898280E32727080575
:1000C6002727080502E70805080502E708050805C9
:0200D60080FEAA
:1000D800EBC9FBEAC8FAE94B7010E8C0F08AF08473
:1000E800F8AAF0D0F079007B0022ECC0E0EDC0E087
:1000F800EEC0E07D007E007C10C3E833F8E933F9F8
:10010800ED33FDEE33FEED9AEE9B4005FEED9AFDD4
:1001180008DCE6EDFAEEFBD0E0FED0E0FDD0E0FC36
:03012800E8492281
:10012B00E8FCE9FDEAFEEBFF8008ECF8EDF9EEFAEE
:10013B00EFFBEF4E4D4B4A49700DE88CF0A4FCAD34
:10014B00F07E007F004D22C082ECF58288F0A4C0C7
:10015B00E0E8C5F0CDC0E0A42DFDE435F0CEFC8584
:10016B0082F0E9A42DFDEE35F0FEE433CF88F0A448
:10017B002FFFE98CF0A42FFFEAD0F0C0F0A42FFFE3
:10018B00EB8582F0A42FFFD0F0E9A42EFEEF35F023
:10019B00FFEA8582F0A42EFEEF35F0FF8CF0E8A489
:0F01AB002EFEEF35F0FFD0E0D082FC4E4D4F22FC
:0D01BA00EFCBFFEECAFEEDC9FDECC8FC2244
:1001C7001201BAEB4A4E4F7017ECFAEDFB1200D84A
:1001D700F5F0E8FCE9FDEAF8EBF9E4FAFBE5F022D3
:1001E700C082C08375F0208B828883E4FBCFC0E098
:1001F700E4CACEC0E0E4C9CDC0E0C3EC33FCA881BB
:10020700E633F618E633F618E633F6EB33FBE93355
:10021700F9EA33FAEF33FFEB9583E99DEA9EEF9511
:1002270082400CFFEB9583FBE99DF9EA9EFA0CD51A
:10023700F0C8D0E0FDD0E0FEEBF8D0E0CFFBECD08B
:1002470083D0824D4E4F221201BA1201CAEBFFEA48
:07025700FEE9FDE8FC80EC6C
:10025E001201BAEB33500EE4C398F8E499F9E49A1C
:10026E00FAE49BFBD3EF30E708B3C0D01202A080B4
:10027E0002C0D01201CAD0F020F70122F5F012020E
:10028E00A0E5F0221201BAEFC0E012026112025490
:02029E0080E4FA
:1002A000E4C39CFCE49DFDE49EFEE49FFF4E4D4CA8
:0102B000222B
:1002B100ECF4FCEDF4FDEEF4FEEFF4FF4E4D4C22B8
:1002C10088F005F0800EEFA2E713FFEE13FEED13A9
:0C02D100FDEC13FCD5F0EFEF4E4D4C227D
:1002DD0088F005F0800DC3EF13FFEE13FEED13FD57
:0B02ED00EC13FCD5F0F0EF4E4D4C225E
:1002F80088F005F0800DC3EC33FCED33FDEE33FEE2
:0B030800EF33FFD5F0F0EF4E4D4C221C
:10031300E8FCE9FDEAFEEBFF8008ECF8EDF9EEFA04
:10032300EFFBEC28FCED39FDEE3AFEEF3BFF4E4DC3
:020333004C225A
:10033500C3EC98FCED99FDEE9AFEEF9BFF4E4D4CFC
:010345002295
:10034600EC58FCED59FDEE5AFEEF5BFF4E4D4C228C
:10035600EC48FCED49FDEE4AFEEF4BFF4E4D4C22BC
:10036600EC68FCED69FDEE6AFEEF6BFF4E4D4C222C
:0B037600E814600104F9FAFB02032503
:10038100C0F0E5F0C4540F75F005A490039073120A
:1003910003258049120335804412013D803F12023A
:1003A10061803A1201CA80351202958030120251E1
:1003B100802B1202C180261202DD80211202F880F8
:1003C1001C12034680171203568012120366800D19
:1003D10012037680081202A080031202B1D0F0FB52
:1003E10030F010D0E0F8ECF618EDF618EEF618EF54
:1003F100F6802E30F21DD083D082EFF0A3EEF0A371
:10040100EDF0A3ECF0E58224FDF582E58334FFF500
:1004110083800ED0E0F8ECF218EDF218EEF218EF4E
:10042100F230F30CD0E0FFD0E0FED0E0FDD0E0FCF4
:0D043100D0E0F8D0E0F9D0E0FAD0E0CB2226
:10043E0075F004804A75F014804575F0248040757F
:10044E00F034803B75F044803675F054803175F091
:10045E0064802C75F074802775F084802275F0947A
:10046E00801D75F0A4801875F0B4801375F0C480EB
:10047E000EFC75F0DC800875F0E4800375F0F4EB8B
:10048E00C0E0EAC0E0E9C0E0E8C0E0ECF8EDF9EE6B
:10049E00FAEFFBE0FFA3E0FEA3E0FDA3E0FC30F3E8
:1004AE000CECC0E0EDC0E0EEC0E0EFC0E0E5822471
:0C04BE00FDC0E0E58334FFC0E0020381D4
:1004CA00EF3350178CF020F00260100CBC000C0DBA
:1004DA00BD00080EBE000408E8600DE933E813FF0A
:1004EA00EE2313FE4F4D4C227F7F74FF8002E4FF00
:1004FA00FEFDFC22C3EF33FFEC33FCED33FDEE339C
:10050A00FE22C3EE13FEED13FDEC13FCEF135002B3
:10051A00D2E0FF22C3E49CFCE49DFDE49EFEE49F3E
:02052A00FF22AE
:10052C00EFCBFFEECAFEEDC9FDECC8FCEF4E70033D
:10053C000204F8EB4A70030204F2120625EB947FD6
:10054C00CF40069F500A0204F8C39F40030204F2F6
:10055C00FBE849700CEA94807007EBF8A9F00204F0
:10056C00E5C0F07F00120616501EEB6002DB05D0D2
:10057C00F00204F8C3120502EF33FFEC28FCED394E
:10058C00FDEE3AFEE43FFFD3EBC0E075F0087403D8
:10059C00C0E07B00501CC3EC98FCED99FDEE9AFE7C
:1005AC00EF9400FF500CEC28FCED39FDEE3AFEE424
:1005BC003FFFEB33FBEC33FCED33FDEE33FEEF335F
:1005CC00FFD5F012D0F0EBC0E0E5F0146012C0E003
:1005DC0075F0087B00EF20E0BDEED330E7D480B699
:1005EC001206164E4D4CFBD0E0F4FCD0E0F4FDD0DE
:1005FC00E0F4FED0E0F8D0E0F9EB50030204E56043
:10060C00030204D5EC54010204D3C3EC98FCED991D
:09061C00FDEE9AFEEF9400FF22AE
:10062500EAA2E7D2E7FAEB33FB13F5F0EEA2E7D245
:10063500E7FEEF33FFC5F013A2E730E601B313C5BC
:03064500F0C322DD
:10064800EFCBFFEECAFEEDC9FDECC8FCEB4A700328
:10065800EF4E22EB6480FB8019E8FCE9FDEAFEEB33
:10066800FF8008ECF8EDF9EEFAEFFBEB4A7003EFC8
:100678004E22EF4E700BEBFFEAFEE9FDE8FC740139
:1006880022C3EC98ED99EE9AEBC2E7F5F0EFC2E7DA
:1006980095F0500E600CEBCFFBEACEFAE9CDF9E805
:1006A800CCF8120625C0E0C0F07F00C39BFB605B5E
:1006B8009418600C401AD0E023F9D0E0F80204E561
:1006C8008AF0E9486003D2F0E4AFF0FAF9F8803B29
:1006D800EB30E40D89F0EA6003D2F0E4AFF0F9CA38
:1006E800F8EB30E30D88F0EF6002D2F0AFF0E4CA27
:1006F800C9F8EB54076014FBC3EA13FAE913F9E8E5
:1007080013F8EF135002D2E0FFDBEDD0E0C0E03089
:10071800E734C3E49FFFF5F0EC98FC42F0ED99FD57
:1007280042F0EE9AFE42F0D0E0F9D0E0F8E5F07041
:100738000122E923F9EE30E7030204CAD8030204D0
:10074800F81204FE80F0EC28FCED39FDEE3AFED0FC
:10075800E023F9D0E0F840030204CA12050D08B8F6
:0807680000030204F20204CABE
:10077000EF4E7003FDFC22EEA2E7D2E7FEE4CF339A
:1007800092D5C3947F50030204F8F5F0941F4005FE
:1007900060110204F2F404F5F0EF54FEFF12050CB0
:1007A000D5F0F6EFCCCDCECF30D50312051EEE023C
:0207B00004EE55
:1007B200EF30E707D2D512051E8002C2D5EF4E4DAB
:1007C2004C70012275F096EF700EEE20E71C15F0CA
:1007D2001204FE30E7F88012EF05F0C313FFEE13A8
:1007E200FEED13FDEC13FCEF70EFA2D5E5F013FF65
:0707F200EE92E7FE44012234
:0C07F900E0FFA3E0FEA3E0FDA3E0FC2273
:1008050012091D30011B90020FE0FDA3E0FCE0245E
:10081500FFF090020FE034FFF0EC4D7004C290C27F
:100825000130021B90020DE0FDA3E0FCE024FFF087
:1008350090020DE034FFF0EC4D7004C291C202301D
:100845000614C2AC900211E04404F0900212E04498
:1008550004F0D2AC8012C2AC900211E05403F090C7
:100865000212E05403F0D2ACD390026CE0944090B5
:10087500026BE09438400DC2AC900211E04402F0E6
:10088500D2AC800BC2AC900211E05405F0D2ACD3CF
:1008950090026EE0944090026DE09438400DC2AC39
:1008A500900212E04402F0D2AC800BC2AC9002126E
:1008B500E05405F0D2ACD390026AE094109002693E
:1008C500E094274014C2AC900211E04401F090027C
:1008D50012E04401F0D2AC801EA3E004F09002695E
:1008E5007003E004F0C2AC900211E05406F09002EF
:1008F50012E05406F0D2AC30031BC203900000E0B6
:100905007005120AC1800EB40205120D4B8006B4A3
:10091500030312100002080875A880758780758981
:1009250025758DFA758BFA758CFF758AFF7598504C
:10093500900209E4F0A3F090020BF0A3F0C20004CA
:10094500900000F0900001F0E4900002F090026940
:10095500F0A3F0900269F0A3F090026BF0A3F09081
:10096500026DF0A3F0900221F0A3F0A304F0A374AC
:10097500F4F090022DE4F0A3F0A304F0A374F4F0D6
:1009850090021F7401F0A374F4F090022B7401F02F
:10099500A374F4F09002397401F0A374F4F090029A
:1009A5003D7401F0A374F4F09002417401F0A37456
:1009B500F4F09002377401F0A374F4F090023B74E4
:1009C50001F0A374F4F090023F7401F0A374F4F005
:1009D5009002517401F0A374F4F090024F7401F089
:1009E500A374F4F09002557401F0A374F4F090022E
:1009F500537401F0A374F4F0900227E4F0A3F0A37C
:100A0500F0A3F0900233F0A3F0A3F0A3F090022539
:100A1500F0A3F0900231F0A3F0900245F0A3F0901E
:100A25000249F0A3F090024DF0A3F0900243F0A329
:100A3500F0900247F0A3F090024BF0A3F09002591A
:100A4500F0A3F0900257F0A3F090025DF0A3F090B0
:100A5500025BF0A3F0D204D203C206904000E090FE
:100A65000003F0E4F52375240AE524452360189076
:100A75004000E0FC900003E06C6002800AE524156C
:100A8500247002152380E2E524452370CE900003EF
:100A9500E0FFF40414FFF07402900004F074059074
:100AA5000006F0C290C291C201C202D293C294C2A2
:100AB50095D28ED2BCD288D2A8D2AC22C292E4F50D
:100AC50024F523C3E524940FE5239400501A052447
:100AD500E52470020523E524152470021523052459
:100AE500E5247002052380DB74FF902000F0E4F517
:100AF50024F523C3E524940AE5239400501A05241C
:100B0500E52470020523E524152470021523052428
:100B1500E5247002052380DBE4F524F523309719DD
:100B2500AC24AD230524E52470020523D3EC94649D
:100B3500ED94004002800280E4D3E5249464E5232B
:100B450094004004D2068002C206C2AC902001E0A7
:100B5500C4540F7D00FC8D82E07F007E0425E0CF2C
:100B650033CFDEF9FEEC4EFCED4FD2ACD2929002C3
:100B750015F0A3CCF0CCFDECEDE4FEFF1207BD793A
:100B85000A783D7B407A83120538E4F8F97B437A8D
:100B9500FA120673120770900001E075F00A84E5F9
:100BA500F025E0246FF582E43402F583EDF0A3EC43
:100BB500F0E4FCFD8C248D23F526F525C3E526946C
:100BC5000AE52594005026E52625E0246FF582E404
:100BD5003402F583E0FDA3E0FCE5242CF524E523B0
:100BE5003DF5230526E5267002052580CFE4FB7A31
:100BF5000AA824A9231200DEC2AC90021BE9F0A3C7
:100C0500E8F0D2AC88248923FCE9FD7E007F0090C2
:100C1500022112043EE8FCE9FD7E007F0090022DD2
:100C250012043E300457E4F526F525C3E526940A5B
:100C3500E52594005021AD23E524FCE52625E02497
:100C45006FF582E43402F583EDF0A3ECF00526E5BB
:100C5500267002052580D4AD23E52490021FCDF032
:100C6500A3CDF090022BCDF0A3CDF0900239CDF0BD
:100C7500A3CDF0900237CDF0A3CDF0802E90023AAF
:100C8500E0C398900239E099500BC2ACE9F0A3E8B3
:100C9500F0D2AC8016900238E0D398900237E099F4
:100CA5004009C2ACE9F0A3E8F0D2ACAC24AD239086
:100CB5000252E0C39C900251E09D5007EDF0A3EC79
:100CC500F08012900250E0D39C90024FE09D4005C9
:100CD500EDF0A3ECF0AC24AD23900256E0C39C905C
:100CE5000255E09D5007EDF0A3ECF0801290025400
:100CF500E0D39C900253E09D4005EDF0A3ECF0ACF1
:100D050024AD23900260E06C700590025FE06D7089
:100D15001DC390026CE0944190026BE09438500C36
:100D2500A3E004F090026B7003E004F080079002EA
:100D35006BE4F0A3F090025FEDF0A3ECF0D293C268
:100D450094C295C20422C292E4F524F523C3E52496
:100D5500940FE5239400501A0524E5247002052319
:100D6500E5241524700215230524E52470020523C6
:100D750080DB74FF902000F0E4F524F523C3E5241F
:100D8500940AE5239400501A0524E52470020523EE
:100D9500E5241524700215230524E5247002052396
:100DA50080DBE4F524F523309719AC24AD23052425
:100DB500E52470020523D3EC9464ED940040028091
:100DC5000280E4D3E5249464E52394004004D2062C
:100DD5008002C206C2AC902001E0C4540F7D00FC25
:100DE5008D82E07F007E0425E0CF33CFDEF9FEEC77
:100DF5004EFCED4FD2ACD292900219F0A3CCF0CCC0
:100E0500FDECEDE4FEFF1207BD790A783D7B407AE3
:100E150083120538120770900001E075F00A84E529
:100E2500F025E024ABF582E43402F583EDF0A3EC84
:100E3500F0E4FCFD8C248D23F526F525C3E52694E9
:100E45000AE52594005026E52625E024ABF582E445
:100E55003402F583E0FDA3E0FCE5242CF524E5232D
:100E65003DF5230526E5267002052580CFE4FB7AAE
:100E75000AA824A9231200DE88248923D3E894E74D
:100E8500E994034008790378E788248923C2AC9064
:100E9500021DE9F0A3E8F0D2ACFCE9FD7E007F007D
:100EA50090022712043EE8FCE9FD7E007F009002D7
:100EB5003312043E300457E4F526F525C3E52694A0
:100EC5000AE52594005021AD23E524FCE52625E01F
:100ED50024ABF582E43402F583EDF0A3ECF00526AE
:100EE500E5267002052580D4AD23E524900225CDA5
:100EF500F0A3CDF0900231CDF0A3CDF0900245CD19
:100F0500F0A3CDF0900243CDF0A3CDF0802E90025A
:100F150046E0C398900245E099500BC2ACE9F0A3B6
:100F2500E8F0D2AC8016900244E0D398900243E0FA
:100F3500994009C2ACE9F0A3E8F0D2ACAC24AD23EA
:100F450090025AE0C39C900259E09D5007EDF0A332
:100F5500ECF08012900258E0D39C900257E09D403F
:100F650005EDF0A3ECF0AC24AD2390025EE0C39C4C
:100F750090025DE09D5007EDF0A3ECF08012900229
:100F85005CE0D39C90025BE09D4005EDF0A3ECF0A6
:100F9500AC24AD23900262E06C7005900261E06DB7
:100FA500701DC390026EE0944190026DE09438503C
:100FB5000CA3E004F090026D7003E004F08007904C
:100FC500026DE4F0A3F0900261EDF0A3ECF0C293A2
:100FD500C294C29522C0E0C082C083C0D0ECC0E0FC
:100FE500900000E0FC04F0ECB40302E4F0D203D07E
:100FF500E0FCD0D0D083D082D0E032900001E00474
:10100500F0B43C1CE4F0900002E0FF0FEF75F00A2D
:1010150084E5F0F012102D900002E070031210FB31
:10102500900269E4F0A3F022C2AC9002211207F904
:101035001207BDE4F8F97B427A7012053812077081
:1010450090021FEDF0A3ECF09002271207F91207AA
:10105500BDE4F8F97B427A701205381207709002E8
:1010650025EDF0A3ECF0900251E0FDA3E090023DE8
:10107500CDF0A3CDF090024FE0FDA3E090023BCD73
:10108500F0A3CDF0900259E0FDA3E0900249CDF028
:10109500A3CDF0900257E0FDA3E0900247CDF0A369
:1010A500CDF0D2AC90021BE0FDA3E0900251CDF053
:1010B500A3CDF090021BE0FDA3E090024FCDF0A37D
:1010C500CDF090021BE0FDA3E0900259CDF0A3CD39
:1010D500F090021BE0FDA3E0900257CDF0A3CDF008
:1010E500900221E4F0A3F0A3F0A3F0900227F0A36F
:1010F500F0A3F0A3F022C2AC90022D1207F912075B
:10110500BDE4F8F97A167B4412053812077090028F
:101115002BEDF0A3ECF09002331207F91207BDE4B2
:10112500F8F97A167B44120538120770900231EDF2
:10113500F0A3ECF0900255E0FDA3E0900241CDF064
:10114500A3CDF0900253E0FDA3E090023FCDF0A3C4
:10115500CDF090025DE0FDA3E090024DCDF0A3CD72
:10116500F090025BE0FDA3E090024BCDF0A3CDF043
:10117500D2AC90021BE0FDA3E0900255CDF0A3CDCB
:10118500F090021BE0FDA3E0900253CDF0A3CDF05B
:1011950090021BE0FDA3E090025DCDF0A3CDF090A1
:1011A500021BE0FDA3E090025BCDF0A3CDF0900221
:1011B5002DE4F0A3F0A3F0A3F0900233F0A3F0A385
:1011C500F0A3F022C0E0C082C083C0D0EAC0E0EB4B
:1011D500C0E0ECC0E0EDC0E0EEC0E0EFC0E020987C
:1011E50003021AB3C298D201D29090020F7403F091
:1011F500A3E4F0E599900209FEE0FDA3E0FCE0041C
:10120500F09002097003E004F0EC2409F582E4345F
:1012150000F583EEF090020AE0142409F582E43427
:1012250000F583E0B4FE028003021AA090020AE0F2
:1012350024FE2409F582E43400F583E0046003020A
:101245001AA090020AE024F62409F582E43400F598
:1012550083E0046003021AA090020AE024F5240941
:10126500F582E43400F583E0046003021AA07522D8
:1012750000752109E5216403601790020AE0C39512
:10128500212409F582E43400F583E06222152180EA
:10129500E390020AE024FD2409F582E43400F58395
:1012A500E065226003021AA090020AE024F82409EE
:1012B500F582E43400F583E0FC900004E06C600303
:1012C50002165B90020AE024F72409F582E4340053
:1012D500F583E0B44D02800302139B900209E4F00C
:1012E500A3F014900119F0900118F0744D900117B6
:1012F500F0900211E0900116F07402900115F09043
:101305000004E0900114F090021BE0FDA3E0ED7DE8
:1013150000900113F090021CE0900112F0ED900195
:1013250011F0900110F0900237E0FDA3E0ED7D0093
:1013350090010FF0900238E090010EF0900239E034
:10134500FDA3E0ED7D0090010DF090023AE09001E3
:101355000CF0ED90010BF075220EE522640260178A
:10136500E5222409F582E43401F583E090010BFCC4
:10137500E06CF0152280E374FF90010AF0149001EF
:1013850009F090020BE4F0A37410F0D2009001195B
:10139500E0F599021658B44F02800302145E9002DC
:1013A50009E4F0A3F014900119F0900118F0744FBE
:1013B500900117F0900211E0900116F0740290016F
:1013C50015F0900004E0900114F090021FE0FDA3D9
:1013D500E0ED7D00900113F0900220E0900112F005
:1013E500ED900111F0900110F090023BE0FDA3E0BB
:1013F500ED7D0090010FF090023CE090010EF09021
:10140500023DE0FDA3E0ED7D0090010DF090023E70
:10141500E090010CF0ED90010BF075220EE52264D1
:10142500026017E5222409F582E43401F583E09092
:10143500010BFCE06CF0152280E374FF90010AF0CB
:1014450014900109F090020BE4F0A37410F0D2009F
:10145500900119E0F599021658B45402800302155B
:1014650021900209E4F0A3F014900119F0900118FD
:10147500F07454900117F0900211E0900116F07489
:1014850002900115F0900004E0900114F090022BF9
:10149500E0FDA3E0ED7D00900113F090022CE090BB
:1014A5000112F0ED900111F0900110F090023FE073
:1014B500FDA3E0ED7D0090010FF0900240E090016A
:1014C5000EF0900241E0FDA3E0ED7D0090010DF0EE
:1014D500900242E090010CF0ED90010BF075220EA8
:1014E500E52264026017E5222409F582E43401F55A
:1014F50083E090010BFCE06CF0152280E374FF9013
:10150500010AF014900109F090020BE4F0A37410A5
:10151500F0D200900119E0F599021658B4520280F4
:10152500030215E3900209E4F0A3F014900119F009
:10153500900118F07452900117F0900211E090019B
:1015450016F07402900115F0900004E0900114F07B
:10155500900215E0FDA3E0ED7D00900113F09002EF
:1015650016E0900112F0ED900111F0900110F0904D
:101575000237E0FDA3E0ED7D0090010FF090023809
:10158500E090010EF0900239E0FDA3E0ED7D0090C2
:10159500010DF090023AE090010CF0ED90010BF096
:1015A50075220EE52264026017E5222409F582E41E
:1015B5003401F583E090010BFCE06CF0152280E32B
:1015C50074FF90010AF014900109F090020BE4F009
:1015D500A37410F0D200900119E0F5998075B4401C
:1015E50072900209E0FFA3E0FE24FB2409F582E4E2
:1015F5003400F583E07D007C00CEFACEFDEA24FCC4
:101605002409F582E43400F583E07B00FAEC4AFC1A
:10161500ED900239F0A3CCF0CCEE24F92409F58243
:10162500E43400F583E07D007C00CEFACEFDEA24AB
:10163500FA2409F582E43400F583E0FAEC4AFCED7E
:10164500900237F0A3CCF0CCEBFEFF900209F0A39B
:10165500F08000021AA090020AE024F82409F5821D
:10166500E43400F583E0FC900006E06C6003021AA8
:101675000990020AE024F72409F582E43400F58391
:10168500E0B44D028003021749900209E4F0A3F08B
:1016950014900119F0900118F0744D900117F09015
:1016A5000212E0900116F07406900115F090000604
:1016B500E0900114F090021DE0FDA3E0ED7D0090A7
:1016C5000113F090021EE0900112F0ED900111F06F
:1016D500900110F0900243E0FDA3E0ED7D00900144
:1016E5000FF0900244E090010EF0900245E0FDA35A
:1016F500E0ED7D0090010DF0900246E090010CF0C8
:10170500ED90010BF075220EE52264026017E522CB
:101715002409F582E43401F583E090010BFCE06CCB
:10172500F0152280E374FF90010AF014900109F08E
:1017350090020BE4F0A37410F0D200900119E0F5CB
:1017450099021A06B44F02800302180C900209E4AC
:10175500F0A3F014900119F0900118F0744F900166
:1017650017F0900212E0900116F07406900115F042
:10177500900006E0900114F0900225E0FDA3E0ED55
:101785007D00900113F0900226E0900112F0ED909B
:101795000111F0900110F0900247E0FDA3E0ED7D0E
:1017A5000090010FF0900248E090010EF090024980
:1017B500E0FDA3E0ED7D0090010DF090024AE09080
:1017C500010CF0ED90010BF075220EE5226402602C
:1017D50017E5222409F582E43401F583E090010B35
:1017E500FCE06CF0152280E374FF90010AF0149080
:1017F5000109F090020BE4F0A37410F0D2009001FF
:1018050019E0F599021A06B4540280030218CF9024
:101815000209E4F0A3F014900119F0900118F07496
:1018250054900117F0900212E0900116F0740690A2
:101835000115F0900006E0900114F0900231E0FDF2
:10184500A3E0ED7D00900113F0900232E0900112CB
:10185500F0ED900111F0900110F090024BE0FDA326
:10186500E0ED7D0090010FF090024CE090010EF04C
:1018750090024DE0FDA3E0ED7D0090010DF090029A
:101885004EE090010CF0ED90010BF075220EE52273
:1018950064026017E5222409F582E43401F583E04A
:1018A50090010BFCE06CF0152280E374FF90010AB7
:1018B500F014900109F090020BE4F0A37410F0D23B
:1018C50000900119E0F599021A06B452028003024C
:1018D5001991900209E4F0A3F014900119F0900118
:1018E50018F07452900117F0900212E0900116F072
:1018F5007406900115F0900006E0900114F0900236
:101905001DE0FDA3E0ED7D00900113F090021EE0C7
:10191500900112F0ED900111F0900110F09002434A
:10192500E0FDA3E0ED7D0090010FF0900244E09012
:10193500010EF0900245E0FDA3E0ED7D0090010D64
:10194500F0900246E090010CF0ED90010BF075224D
:101955000EE52264026017E5222409F582E43401CC
:10196500F583E090010BFCE06CF0152280E374FF39
:1019750090010AF014900109F090020BE4F0A374B1
:1019850010F0D200900119E0F5998075B44072907D
:101995000209E0FFA3E0FE24FB2409F582E43400FC
:1019A500F583E07D007C00CEFACEFDEA24FC240917
:1019B500F582E43400F583E07B00FAEC4AFCED9017
:1019C5000245F0A3CCF0CCEE24F92409F582E434E9
:1019D50000F583E07D007C00CEFACEFDEA24FA24F2
:1019E50009F582E43400F583E0FAEC4AFCED900257
:1019F50043F0A3CCF0CCEBFEFF900209F0A3F080FE
:101A050000021AA090020AE024F72409F582E434C2
:101A150000F583E0B449028003021AA0900209E4AC
:101A2500F0A3F090021BE0FDA3E090021FCDF0A310
:101A3500CDF090021BE0FDA3E090022BCDF0A3CDED
:101A4500F090021BE0FDA3E0900237CDF0A3CDF0AE
:101A550090021BE0FDA3E0900239CDF0A3CDF090FC
:101A6500021DE0FDA3E0900225CDF0A3CDF090028C
:101A75001DE0FDA3E0900231CDF0A3CDF090021D55
:101A8500E0FDA3E0900243CDF0A3CDF090021DE070
:101A9500FDA3E0900245CDF0A3CDF0D390020AE07E
:101AA500945A900209E094004004E4F0A3F03099C0
:101AB5003BC29930003690020BE0FDA3E0FCE02428
:101AC500FFF090020BE034FFF0EC4D601DA3E02425
:101AD50009F582E43401F583E0F599D202D29190BB
:101AE500020D7403F0A3E4F08002C200D0E0FFD041
:101AF500E0FED0E0FDD0E0FCD0E0FBD0E0FAD0D0B5
:071B0500D083D082D0E03252
:101B0C002F202F2F2F202F2F2F2F2F2F2F2F2F2FF7
:101B1C002F2F2F2F2F2F2F2F2F2F2F2F2F2F2F2FC9
:101B2C002F2F2F2F2F2F2F2F2F2F2F2F2F2F2F2FB9
:101B3C002F2F2F2F2F202F2F2F202F0000000000B2
:101B4C00002F202F2F2F202F2F2F2F2F2F2F2F2FE6
:101B5C002F2F2F2F2F2F2F2F2F2F2F2F2F2F2F2F89
:101B6C002F2F2F2F2F2F2F2F2F2F2F2F2F2F2F2F79
:101B7C002F2F2F2F2F2F202F2F2F202F0000000043
:101B8C0000002F202F2F2F202F2F2F202020202020
:101B9C0020204A494E2D59414E472020494E44554C
:101BAC0053545249414C2E2C434F204C544420202A
:101BBC00202020202F2F2F202F2F2F202F00000010
:101BCC000000002F202F2F2F202F2F2F2020202000
:101BDC0020202050726F6772616D2042792020485E
:101BEC0061652D73756B2E204A696E202020202094
:101BFC0020202020202F2F2F202F2F2F202F0000B0
:101C0C00000000002F202F2F2F202F2F2F202020DF
:101C1C0020205374617274203A2020313939372EC8
:101C2C0020322E2031392E20202020202020202050
:101C3C002020202020202F2F2F202F2F2F202F004F
:101C4C0000000000002F202F2F2F202F2F2F2020BF
:101C5C002020202020456E64203A2020313939364E
:101C6C002E202020202020202056657220312E305E
:101C7C00202020202020202F2F2F202F2F2F202FEF
:101C8C000000000000002F202F2F2F202F2F2F209F
:101C9C002020202020202020202020202020202038
:101CAC002020202020202020202020202020202028
:101CBC0020202020202020202F2F2F202F2F2F20BE
:101CCC002F0000000000002F202F2F2F202F2F2F50
:101CDC0020202020312E54656D70657261747572F0
:101CEC00652020203A20312045412020416E616C36
:101CFC006F672043683D3020202F2F2F202F2F2F50
:101D0C00202F0000000000002F202F2F2F202F2F1E
:101D1C002F20202020322E48756D6964697479203B
:101D2C0020202020203A20312045412020416E6186
:101D3C006C6F672043683D3120202F2F2F202F2FD1
:101D4C002F202F0000000000002F202F2F2F202FDE
:101D5C002F2F2F2F2F2F2F2F2F2F2F2F2F2F2F2F87
:101D6C002F2F2F2F2F2F2F2F2F2F2F2F2F2F2F2F77
:101D7C002F2F2F2F2F2F2F2F2F2F2F2F2F2F202F76
:101D8C002F2F202F0000000000002F202F2F2F209E
:101D9C002F2F2F2F2F2F2F2F2F2F2F2F2F2F2F2F47
:101DAC002F2F2F2F2F2F2F2F2F2F2F2F2F2F2F2F37
:101DBC002F2F2F2F2F2F2F2F2F2F2F2F2F2F2F2036
:101DCC002F2F2F202F00000000000000000000002B
:101DDC0000000000000000000000000000000000F7
:101DEC0000000000000000000000000000000000E7
:101DFC0000000000000000000000000000000000D7
:101E0C0000000000000000000000000000000000C6
:04201C0000000000C0
:03000300020FDA0F
:030023000211C9FE
:00000001FF
:00000001FF
