:040ABF0014E8003403
:040AC30011B2003438
:100AC700900235E4F0A3F0900231F0A3F0A3F0A375
:100AD700F090022FF0A3F090023DF0A3F0900239BE
:100AE700F0A3F0A3F0A3F0900237F0A3F090024533
:100AF700F0A3F0900241F0A3F0A3F0A3F090023F1F
:100B0700F0A3F090024BF0A3F0900249F0A3F0900D
:100B17000247F0A3F0900255F0A3F0900251F0A322
:100B2700F0A3F0A3F090024FF0A3F090025DF0A3C2
:100B3700F0900259F0A3F0A3F0A3F0900257F0A3AE
:100B4700F0900265F0A3F0900261F0A3F0A3F0A388
:100B5700F090025FF0A3F090026BF0A3F0900269AF
:100B6700F0A3F0900267F0A3F090026DF0A3F0906D
:100B7700026FF0A3F0900271F0A3F0900273F0A35C
:100B8700F0900275F004900276F0C200900008F031
:100B9700A374F4F0C293C294C2952274FFFB120AA5
:100BA700588D368E358F34EC900002120A33F537A4
:100BB700E4900003120A33E539900004120A33E582
:100BC70038900005120A33E40B900006120A63906E
:100BD7000008120A6390000A120A6390000C120AB6
:100BE7006390000E120A33141B1490000F120A634D
:100BF70022900227E4F0A3F0900225F0A3F09002E0
:100C07002BF0A3F0900229F0A3F0C2AF758780758F
:100C17009850758925758DFA758BFAD28ED2BCD20C
:100C270088D2A8D2ACD2AF22C290C29175390275D0
:100C370038027C4D7D027E007F01120BA2753902BE
:100C47007538027C747D137E007F01120BA2753903
:100C5700027538027C4F7D247E007F01120BA2753E
:100C670039027538027C547D357E007F01120BA254
:100C77007539067538057C4D7D467E007F01120B60
:100C8700A27539067538057C747D577E007F011281
:100C97000BA27539067538057C4F7D687E007F018C
:100CA700120BA27539067538057C547D797E007F55
:100CB70001120BA2120AC7120BF822753100E4F5D4
:100CC70033F532900225E0FDA3E0FCA3A3E06C70AE
:100CD70005900227E06D7001220CEC70010D900267
:100CE70025EDF0A3ECF0C394C8ED64809480400B2D
:100CF700E4FCFD900225EDF0A3ECF074FFFEFF127B
:100D0700107BEC2495F582ED3400F583E064FE60FA
:100D17000122C290900225E0FDA3E0FC74FEFE04D0
:100D2700FF12107BEC2495F582ED3400F583E00487
:100D3700600122900225E0FDA3E0FC7EF67FFF1212
:100D4700107BEC2495F582ED3400F583E004600117
:100D570022900225E0FDA3E0FC7EF57FFF12107BC9
:100D6700EC2495F582ED3400F583E00460012290D0
:100D77000225E0FDA3E0FC7EF87FFF12107BEC2448
:100D870095F582ED3400F583E06402601F9002253B
:100D9700E0FDA3E0FC7EF87FFF12107BEC2495F5C5
:100DA70082ED3400F583E06405600122E4F533F554
:100DB70032C3E533940BE53294004003020E51D35E
:100DC700E5339401E5329400403AC3E5339408E5EE
:100DD700329400502FE4FD740BC39533FCED95322C
:100DE700FDC3E49CFCE49DFDECFEEDFF900225E0D5
:100DF700FDA3E0FC12107BEC2495F582ED3400F5A1
:100E070083E06231E4FD740BC39533FCED9532FD4D
:100E1700C3E49CFCE49DFDECFEEDFF900225E0FDA4
:100E2700A3E0FC12107BEC2495F582ED3400F583EA
:100E3700E0FCE533248AF582E43400F583ECF00521
:100E470033E53370020532020DB8900092E0653148
:100E570060012290008DE06402600274FF04A2E04A
:100E6700920090008CE01209270EF7400EEE490E13
:100E7700864D0EBA4F0ED4540EA07400000FAD303D
:100E8700000B7D027E007F01120FB080097D467E38
:100E9700007F01120FB0020FAF30000B7D137E00F1
:100EA7007F01120FB080097D577E007F01120FB0BE
:100EB700020FAF30000B7D247E007F01120FB08040
:100EC700097D687E007F01120FB0020FAF30000B63
:100ED7007D357E007F01120FB080097D797E007F0E
:100EE70001120FB0020FAF7401900276F0020FAF3C
:100EF700900090E0FDA3E090001DCDF0A3CDF09011
:100F0700008EE0FDA3E090001FCDF0A3CDF0900090
:100F170090E0FDA3E090002ECDF0A3CDF090008EE1
:100F2700E0FDA3E0900030CDF0A3CDF0900090E07D
:100F3700FDA3E090003FCDF0A3CDF090008EE0FD43
:100F4700A3E0900041CDF0A3CDF0900090E0FDA389
:100F5700E0900061CDF0A3CDF090008EE0FDA3E01E
:100F6700900063CDF0A3CDF0900090E0FDA3E0905A
:100F77000072CDF0A3CDF090008EE0FDA3E09000CD
:100F870074CDF0A3CDF0900090E0FDA3E090008336
:100F9700CDF0A3CDF090008EE0FDA3E0900085CDCD
:100FA700F0A3CDF08002800022900270E0E48D3043
:100FB7008E2F8F2E900003120A33F52DF52CC3E5E3
:100FC7002D9411E52C9400400302104DD3E52D9488
:100FD70001E52C94004020C3E52D940EE52C9400E8
:100FE7005015AD30AE2FAF2E852D82852C8312097B
:100FF7005F90000E1201B2AD30AE2FAF2E852D825D
:10100700852C8312095F90022BFEE0FDA3E0FCE034
:1010170004F090022B7003E004F0EC245DF582ED00
:101027003401F583EEF0C390022CE094C890022BB4
:10103700E0648094804004E4F0A3F0052DE52D7072
:1010470002052C020FC5D29190022AE0245DFC9084
:101057000229E034018C82F583E0F599900229E0BA
:10106700FDA3E0FCE4FF04FE12107B900229EDF0E3
:10107700A3ECF022EC2EFCED3F8E2B8F2A8C29F56A
:1010870028C3FDEC94C8ED64809480400BEC2438B1
:10109700FCED34FF8C29F528E52833500CE529248D
:1010A700C8F529E5283400F528AC29AD2822C292D5
:1010B700900271E4F0A3F0C3900272E0940F9002E3
:1010C70071E094005026A3E004F09002717003E0F1
:1010D70004F0A3E024FFF0900271E034FFF0A3E0F6
:1010E70004F09002717003E004F080CB74FF90204D
:1010F70000F0900271E4F0A3F0C3900272E0940F45
:10110700900271E094005026A3E004F09002717001
:1011170003E004F0A3E024FFF0900271E034FFF055
:10112700A3E004F09002717003E004F080CB90021A
:101137006DE4F0A3F030972090026DE0FDA3E0FC92
:10114700E004F090026D7003E004F0D3EC9464EDDA
:1011570094004002800280DDD390026EE094649098
:10116700026DE094004009900270E04404F08007AB
:1011770090026FE4F0A3F0900273E4F0A3F0C2AC26
:10118700902001E0C4540F7D00FC8D82E07F007E3B
:101197000425E0CF33CFDEF9FEEC4EFCED4F900295
:1011A70073F0A3CCF0CCD2ACD292221210B5C2AC61
:1011B700900273E0FDA3E0FCEDE4FEFF1208EB797B
:1011C7000A783D7B407A83120666E4F8F97B437A16
:1011D700FA1207A112089E90022DEDF0A3ECF0D3AE
:1011E700FC94DCED9405400E7D057CDC90022DED32
:1011F700F0A3ECF08015C3EC94F4ED9401500C7D52
:10120700017CF490022DEDF0A3ECF0900008EDF0D6
:10121700A3ECF090022DE0FDA3E0FC90000DE0C3ED
:101227009C90000CE09D5005EDF0A3ECF090022D92
:10123700E0FDA3E0FC90000FE0D39C90000EE09D42
:101247004005EDF0A3ECF0D2AC90022DE0FDA3E059
:10125700FC7E007F0090023112056C90022DE0FDAC
:10126700A3E0FC7E007F0090023912056C90022DEE
:10127700E0FDA3E0FC7E007F0090024112056C9028
:10128700022DE0FDA3E0FCA3A3E0C39C90022FE0A6
:101297009D5005EDF0A3ECF090022DE0FDA3E0FCDE
:1012A700900236E0D39C900235E09D4005EDF0A317
:1012B700ECF090022DE0FDA3E0FC900238E0C39C27
:1012C700900237E09D5005EDF0A3ECF090022DE081
:1012D700FDA3E0FC90023EE0D39C90023DE09D40E0
:1012E70005EDF0A3ECF090022DE0FDA3E0FC9002E9
:1012F70038E0C39C900237E09D500890023FEDF024
:10130700A3ECF090022DE0FDA3E0FC90023EE0D3B9
:101317009C90023DE09D4008900245EDF0A3ECF063
:10132700C3900248E0940A900247E094004060C2EC
:10133700AC900231120AB31208EBE4F8F97A207B79
:101347004112066612089E900019EDF0A3ECF0D248
:10135700AC90022FE0FDA3E090001DCDF0A3CDF0EF
:10136700900235E0FDA3E090001FCDF0A3CDF090F3
:10137700022DE0FDA3E0A3CDF0A3CDF0900235CD83
:10138700F0A3CDF0900231E4F0A3F0A3F0A3F0C3F3
:1013970090024AE0943C900249E094004062C2AC5B
:1013A700900239120AB31208EBE4F8F97B427A701B
:1013B70012066612089E90002AEDF0A3ECF0D2AC5C
:1013C700900237E0FDA3E090002ECDF0A3CDF09082
:1013D700023DE0FDA3E0900030CDF0A3CDF09002F8
:1013E7002DE0FDA3E0900237CDF0A3CDF090023DB4
:1013F700CDF0A3CDF0900239E4F0A3F0A3F0A3F071
:10140700C390024CE0945890024BE094024062C2B1
:10141700AC900241120AB31208EBE4F8F97A167B92
:101427004412066612089E90003BEDF0A3ECF0D242
:10143700AC90023FE0FDA3E090003FCDF0A3CDF0DC
:10144700900245E0FDA3E0900041CDF0A3CDF090E0
:10145700022DE0FDA3E090023FCDF0A3CDF0900276
:1014670045CDF0A3CDF0900241E4F0A3F0A3F0A3A3
:10147700F0C3900248E0940A900247E094004006C7
:10148700E4F0A3F0800CA3E004F09002477003E0BF
:1014970004F0C390024AE0943C900249E094004073
:1014A70006E4F0A3F0800CA3E004F0900249700377
:1014B700E004F0C390024CE0945890024BE0940291
:1014C7004006E4F0A3F0800CA3E004F090024B7018
:1014D70003E004F0C2ACD293C294C295C200D2AC6E
:1014E700221210B5C2AC900273E0FDA3E0FCEDE45C
:1014F700FEFF1208EB790A783D7B407A8312066675
:1015070012089E90024DEDF0A3ECF0D3FC94E7EDAA
:101517009403400C7D037CE790024DEDF0A3ECF0C3
:1015270090004CEDF0A3ECF0D2AC90024DE0FDA39F
:10153700E0FC7E007F0090025112056C90024DE0A6
:10154700FDA3E0FC7E007F0090025912056C90021B
:101557004DE0FDA3E0FC7E007F0090026112056C68
:1015670090024DE0FDA3E0FC900051E0C39C900089
:1015770050E09D5005EDF0A3ECF090024DE0FDA387
:10158700E0FC900053E0D39C900052E09D4005EDB5
:10159700F0A3ECF090024DE0FDA3E0FCA3A3E0C3B1
:1015A7009C90024FE09D5005EDF0A3ECF090024DAA
:1015B700E0FDA3E0FC900256E0D39C900255E09D2D
:1015C7004005EDF0A3ECF090024DE0FDA3E0FC90A8
:1015D7000258E0C39C900257E09D5005EDF0A3EC44
:1015E700F090024DE0FDA3E0FC90025EE0D39C90FA
:1015F700025DE09D4005EDF0A3ECF090024DE0FDAB
:10160700A3E0FC900258E0C39C900257E09D50086D
:1016170090025FEDF0A3ECF090024DE0FDA3E0FC3B
:1016270090025EE0D39C90025DE09D4008900265C9
:10163700EDF0A3ECF0C3900268E0940A900267E033
:1016470094004060C2AC900251120AB31208EBE456
:10165700F8F97A207B4112066612089E90005DED2C
:10166700F0A3ECF0D2AC90024FE0FDA3E090006154
:10167700CDF0A3CDF0900255E0FDA3E0900063CD3F
:10168700F0A3CDF090024DE0FDA3E0A3CDF0A3CDF4
:10169700F0900255CDF0A3CDF0900251E4F0A3F005
:1016A700A3F0A3F0C390026AE0943C900269E0942F
:1016B700004062C2AC900259120AB31208EBE4F878
:1016C700F97B427A7012066612089E90006EEDF062
:1016D700A3ECF0D2AC900257E0FDA3E0900072CDEE
:1016E700F0A3CDF090025DE0FDA3E0900074CDF093
:1016F700A3CDF090024DE0FDA3E0900257CDF0A3FB
:10170700CDF090025DCDF0A3CDF0900259E4F0A3A7
:10171700F0A3F0A3F0C390026CE0945890026BE042
:1017270094024062C2AC900261120AB31208EBE461
:10173700F8F97A167B4412066612089E90007FED30
:10174700F0A3ECF0D2AC90025FE0FDA3E090008341
:10175700CDF0A3CDF0900265E0FDA3E0900085CD2C
:10176700F0A3CDF090024DE0FDA3E090025FCDF035
:10177700A3CDF0900265CDF0A3CDF0900261E4F027
:10178700A3F0A3F0A3F0C3900268E0940A90026765
:10179700E094004006E4F0A3F0800CA3E004F0908E
:1017A70002677003E004F0C390026AE0943C900281
:1017B70069E094004006E4F0A3F0800CA3E004F095
:1017C7009002697003E004F0C390026CE0945890B3
:1017D700026BE094024006E4F0A3F0800CA3E0045F
:1017E700F090026B7003E004F0C2ACC293C294C2E3
:1017F70095C200D2AC22C0E0C0F0C082C083C0D086
:10180700E8C0E0E9C0E0EAC0E0EBC0E0ECC0E0ED32
:10181700C0E0EEC0E0EFC0E0C2AF309840C298D25F
:1018270090E599900227FEE0FDA3E0FCE004F0902C
:1018370002277003E004F0EC2495F582ED3400F5FF
:1018470083EEF0C3900228E094C8900227E06480FA
:1018570094804004E4F0A3F0120CC28055309952F2
:10186700C299900229E0FDA3E0FCA3A3E06C7007F6
:1018770090022BE06D6023ECFEEDFFCC2401CCCD74
:101887003400CD900229EDF0A3ECF0EE245DF58253
:10189700EF3401F583E0F5998002C291C3EC94C857
:1018A700ED64809480400BE4FCFD900229EDF0A3E9
:1018B700ECF0D2AFD0E0FFD0E0FED0E0FDD0E0FC0E
:1018C700D0E0FBD0E0FAD0E0F9D0E0F8D0D0D08378
:1018D700D082D0F0D0E032C0E0C082C083C0D0EC6C
:1018E700C0E0EDC0E0C2AF900275E0701674C37D32
:1018F7000A900000CDF0A3CDF0D200900275E0046D
:10190700F08030B40108900275E004F08025B4023D
:101917001674BF7D0A900000CDF0A3CDF0D20090E1
:101927000275E004F0800CB40307E4900275F080C0
:10193700028000D2AFD0E0FDD0E0FCD0D0D083D081
:1019470082D0E032120C2F900276E0146003021A64
:1019570015C2AF90022DE0FDA3E090001DCDF0A3CE
:10196700CDF090022DE0FDA3E090001FCDF0A3CDB8
:10197700F090022DE0FDA3E090002ECDF0A3CDF076
:1019870090022DE0FDA3E0900030CDF0A3CDF090C4
:10199700022DE0FDA3E090003FCDF0A3CDF0900233
:1019A7002DE0FDA3E0900041CDF0A3CDF090024DD6
:1019B700E0FDA3E0900061CDF0A3CDF090024DE0F3
:1019C700FDA3E0900063CDF0A3CDF090024DE0FDC4
:1019D700A3E0900072CDF0A3CDF090024DE0FDA3FF
:1019E700E0900074CDF0A3CDF090024DE0FDA3E0B0
:1019F700900083CDF0A3CDF090024DE0FDA3E090E1
:101A07000085CDF0A3CDF0E4900276F0D2AF3000A0
:101A170011900000E0FFA3E0F5828F83120AA41261
:051A27000AB102194E96
:101A2C005B2A5DC4C4C4C4C4C4C4C4C4C4C4C4C4D4
:101A3C00C4C4C4C4C4C4C4C4C4C4C4C4C4C4C4C45A
:101A4C00C4C4C4C4C4C4C4C4C4C4C4C4C4C4C4C44A
:101A5C00C4C4C4C4C4C4C4C45B2A5D005B2A5D2076
:101A6C00204A494E2D59414E472020494E4455534A
:101A7C00545249414C2E2C434F204C54442020208E
:101A8C00202020202020202020202020202020204A
:101A9C00202020205B2A5D005B2A5D202050726F85
:101AAC006772616D203A205041524B2E204A6F6E66
:101ABC00674B696C2020202044617465203A2031EA
:101ACC003939372E20322E2032367E20202020200D
:101ADC005B2A5D005B2A5DC4C4C4C4C4C4C4C4C452
:101AEC00C4C4C4C4C4C4C4C4C4C4C4C4C4C4C4C4AA
:101AFC00C4C4C4C4C4C4C4C4C4C4C4C4C4C4C4C49A
:101B0C00C4C4C4C4C4C4C4C4C4C4C4C45B2A5D00B7
:101B1C005B2A5DC4C4C4C4C4C4C4C4C4C4C4C4C4E3
:101B2C00C4C4C4C4C4C4C4C4C4C4C4C4C4C4C4C469
:101B3C00C4C4C4C4C4C4C4C4C4C4C4C4C4C4C4C459
:101B4C00C4C4C4C4C4C4C4C45B2A5D005B2A5D2085
:101B5C002053656E736F72203A2054454D50455298
:101B6C004C415455524520312045412020416E6155
:101B7C006C6F67204348203A20302C204944203A8F
:101B8C00203020205B2A5D005B2A5D202020202055
:101B9C0020202020202048554D4944555449592097
:101BAC00202020312045412020416E616C6F672040
:101BBC004348203A20312C204944203A203120201F
:101BCC005B2A5D005B2A5D202053656E736F72206B
:101BDC00436F6465203A2054454D50203D20322CF3
:101BEC002048554D49203D20362020202020202003
:101BFC002020202020202020202020205B2A5D0077
:101C0C005B2A5DC4C4C4C4C4C4C4C4C4C4C4C4C4F2
:101C1C00C4C4C4C4C4C4C4C4C4C4C4C4C4C4C4C478
:101C2C00C4C4C4C4C4C4C4C4C4C4C4C4C4C4C4C468
:101C3C00C4C4C4C4C4C4C4C45B2A5D005B2A5DC4F0
:101C4C00C4C4C4C4C4C4C4C4C4C4C4C4C4C4C4C448
:101C5C00C4C4C4C4C4C4C4C4C4C4C4C4C4C4C4C438
:101C6C00C4C4C4C4C4C4C4C4C4C4C4C4C4C4C4C428
:101C7C00C4C4C4C45B2A5D005B2A5D202055736517
:101C8C006420426F617264203A2053414D332042EC
:101C9C006F6172642844657369676E656420504196
:101CAC00524B494B2920202020202020202020206E
:101CBC005B2A5D005B2A5DC4C4C4C4C4C4C4C4C470
:101CCC00C4C4C4C4C4C4C4C4C4C4C4C4C4C4C4C4C8
:101CDC00C4C4C4C4C4C4C4C4C4C4C4C4C4C4C4C4B8
:101CEC00C4C4C4C4C4C4C4C4C4C4C4C45B2A5D00D6
:101CFC005B2A5DC4C4C4C4C4C4C4C4C4C4C4C4C402
:101D0C00C4C4C4C4C4C4C4C4C4C4C4C4C4C4C4C487
:101D1C00C4C4C4C4C4C4C4C4C4C4C4C4C4C4C4C477
:101D2C00C4C4C4C4C4C4C4C45B2A5D005B2A5D20A3
:101D3C002056455253494F4E203A20546573742017
:101D4C0056657220312E30202046697273742054EF
:101D5C00455354203A2039372E20332E2031302051
:101D6C00202020205B2A5D005B2A5DC4C4C4C4C44F
:101D7C00C4C4C4C4C4C4C4C4C4C4C4C4C4C4C4C417
:101D8C00C4C4C4C4C4C4C4C4C4C4C4C4C4C4C4C407
:101D9C00C4C4C4C4C4C4C4C4C4C4C4C4C4C4C4C4F7
:101DAC005B2A5D0000000000000000000000000045
:101DBC000000000000000000000000000000000017
:101DCC000000000000000000000000000000000007
:101DDC0000000000000000000000000000000000F7
:101DEC0000000000000000000000000000000000E7
:101DFC0000000000000000000000000000000000D7
:101E0C0000000000000000000000000000000000C6
:101E1C0000000000000000000000000000000000B6
:101E2C0000000000000000000000000000000000A6
:101E3C000000000000000000000000000000000096
:101E4C000000000000000000000000000000000086
:101E5C000000000000000000000000000000000076
:101E6C000000000000000000000000000000000066
:101E7C000000000000000000000000000000000056
:101E8C000000000000000000000000000000000046
:101E9C000000000000000000000000000000000036
:101EAC000000000000000000000000000000000026
:101EBC000000000000000000000000000000000016
:101ECC000000000000000000000000000000000006
:030003000218DE02
:030023000217FDC4
:03000000020100FA
:1001000075813978397600D8FC900277AE83AF825A
:1001100090000012013E6005E4F0A380F690019C7F
:100120001201479001A01201479001A412016590AD
:1001300001AA12016575D00012194B0201B0EF65DA
:10014000827003EE658322E493F8740193F97402DC
:1001500093FE740393F5828E83E869700122E49321
:10016000F6A30880F4E493FC740193FD740293FEFB
:10017000740393FF740493F8740593F582888312D3
:10018000013E700122E493A3A883A9828C838D820F
:10019000F0A3AC83AD828883898280E33A3A0ABFB8
:1001A0003A3A0ABF02770ABF0ABF02770AC70AC7EC
:0201B00080FECF
:0A01B200CCC0E01201DF6C0201BEB8
:1001BC00D0F030F00920F303F68010F7800D30F109
:1001CC000920F303F28004F38001F020F404FCD046
:0301DC00E0CC2252
:1001DF00BF000975F001ED2582F8E622BF010FED92
:1001EF002582F582EE3583F58375F004E02275F0F4
:0701FF0002ED2582F8E22267
:10020600EBC9FBEAC8FAE94B7010E8C0F08AF08443
:10021600F8AAF0D0F079007B0022ECC0E0EDC0E057
:10022600EEC0E07D007E007C10C3E833F8E933F9C8
:10023600ED33FDEE33FEED9AEE9B4005FEED9AFDA5
:1002460008DCE6EDFAEEFBD0E0FED0E0FDD0E0FC07
:03025600E8492252
:10025900E8FCE9FDEAFEEBFF8008ECF8EDF9EEFABF
:10026900EFFBEF4E4D4B4A49700DE88CF0A4FCAD05
:10027900F07E007F004D22C082ECF58288F0A4C098
:10028900E0E8C5F0CDC0E0A42DFDE435F0CEFC8555
:1002990082F0E9A42DFDEE35F0FEE433CF88F0A419
:1002A9002FFFE98CF0A42FFFEAD0F0C0F0A42FFFB4
:1002B900EB8582F0A42FFFD0F0E9A42EFEEF35F0F4
:1002C900FFEA8582F0A42EFEEF35F0FF8CF0E8A45A
:0F02D9002EFEEF35F0FFD0E0D082FC4E4D4F22CD
:0D02E800EFCBFFEECAFEEDC9FDECC8FC2215
:1002F5001202E8EB4A4E4F7017ECFAEDFB120206BC
:10030500F5F0E8FCE9FDEAF8EBF9E4FAFBE5F022A3
:10031500C082C08375F0208B828883E4FBCFC0E068
:10032500E4CACEC0E0E4C9CDC0E0C3EC33FCA8818B
:10033500E633F618E633F618E633F6EB33FBE93326
:10034500F9EA33FAEF33FFEB9583E99DEA9EEF95E2
:1003550082400CFFEB9583FBE99DF9EA9EFA0CD5EB
:10036500F0C8D0E0FDD0E0FEEBF8D0E0CFFBECD05C
:1003750083D0824D4E4F221202E81202F8EBFFEABB
:07038500FEE9FDE8FC80EC3D
:10038C001202E8EB33500EE4C398F8E499F9E49ABE
:10039C00FAE49BFBD3EF30E708B3C0D01203CE8056
:1003AC0002C0D01202F8D0F020F70122F5F01203AF
:1003BC00CEE5F0221202E8EFC0E012038F120382A6
:0203CC0080E4CB
:1003CE00E4C39CFCE49DFDE49EFEE49FFF4E4D4C79
:0103DE0022FC
:1003DF00ECF4FCEDF4FDEEF4FEEFF4FF4E4D4C2289
:1003EF0088F005F0800EEFA2E713FFEE13FEED137A
:0C03FF00FDEC13FCD5F0EFEF4E4D4C224E
:10040B0088F005F0800DC3EF13FFEE13FEED13FD27
:0B041B00EC13FCD5F0F0EF4E4D4C222E
:1004260088F005F0800DC3EC33FCED33FDEE33FEB2
:0B043600EF33FFD5F0F0EF4E4D4C22ED
:10044100E8FCE9FDEAFEEBFF8008ECF8EDF9EEFAD5
:10045100EFFBEC28FCED39FDEE3AFEEF3BFF4E4D94
:020461004C222B
:10046300C3EC98FCED99FDEE9AFEEF9BFF4E4D4CCD
:010473002266
:10047400EC58FCED59FDEE5AFEEF5BFF4E4D4C225D
:10048400EC48FCED49FDEE4AFEEF4BFF4E4D4C228D
:10049400EC68FCED69FDEE6AFEEF6BFF4E4D4C22FD
:0B04A400E814600104F9FAFB020453A5
:1004AF00C0F0E5F0C4540F75F005A49004BE7312AC
:1004BF0004538049120463804412026B803F12037D
:1004CF008F803A1202F880351203C3803012037FF7
:1004DF00802B1203EF802612040B8021120426803A
:1004EF001C12047480171204848012120494800D5D
:1004FF001204A480081203CE80031203DFD0F0FB96
:10050F0030F010D0E0F8ECF618EDF618EEF618EF24
:10051F00F6802E30F21DD083D082EFF0A3EEF0A341
:10052F00EDF0A3ECF0E58224FDF582E58334FFF5D1
:10053F0083800ED0E0F8ECF218EDF218EEF218EF1F
:10054F00F230F30CD0E0FFD0E0FED0E0FDD0E0FCC5
:0D055F00D0E0F8D0E0F9D0E0FAD0E0CB22F7
:10056C0075F004804A75F014804575F02480407550
:10057C00F034803B75F044803675F054803175F062
:10058C0064802C75F074802775F084802275F0944B
:10059C00801D75F0A4801875F0B4801375F0C480BC
:1005AC000EFC75F0DC800875F0E4800375F0F4EB5C
:1005BC00C0E0EAC0E0E9C0E0E8C0E0ECF8EDF9EE3C
:1005CC00FAEFFBE0FFA3E0FEA3E0FDA3E0FC30F3B9
:1005DC000CECC0E0EDC0E0EEC0E0EFC0E0E5822442
:0C05EC00FDC0E0E58334FFC0E00204AF76
:1005F800EF3350178CF020F00260100CBC000C0D8B
:10060800BD00080EBE000408E8600DE933E813FFDA
:10061800EE2313FE4F4D4C227F7F74FF8002E4FFD0
:10062800FEFDFC22C3EF33FFEC33FCED33FDEE336C
:10063800FE22C3EE13FEED13FDEC13FCEF13500284
:10064800D2E0FF22C3E49CFCE49DFDE49EFEE49F0F
:02065800FF227F
:10065A00EFCBFFEECAFEEDC9FDECC8FCEF4E70030E
:10066A00020626EB4A7003020620120753EB947F18
:10067A00CF40069F500A020626C39F400302062067
:10068A00FBE849700CEA94807007EBF8A9F00206BF
:10069A0013C0F07F00120744501EEB6002DB05D046
:1006AA00F0020626C3120630EF33FFEC28FCED39C0
:1006BA00FDEE3AFEE43FFFD3EBC0E075F0087403A9
:1006CA00C0E07B00501CC3EC98FCED99FDEE9AFE4D
:1006DA00EF9400FF500CEC28FCED39FDEE3AFEE4F5
:1006EA003FFFEB33FBEC33FCED33FDEE33FEEF3330
:1006FA00FFD5F012D0F0EBC0E0E5F0146012C0E0D4
:10070A0075F0087B00EF20E0BDEED330E7D480B669
:10071A001207444E4D4CFBD0E0F4FCD0E0F4FDD07F
:10072A00E0F4FED0E0F8D0E0F9EB500302061360E3
:10073A0003020603EC5401020601C3EC98FCED998E
:09074A00FDEE9AFEEF9400FF227F
:10075300EAA2E7D2E7FAEB33FB13F5F0EEA2E7D216
:10076300E7FEEF33FFC5F013A2E730E601B313C58D
:03077300F0C322AE
:10077600EFCBFFEECAFEEDC9FDECC8FCEB4A7003F9
:10078600EF4E22EB6480FB8019E8FCE9FDEAFEEB04
:10079600FF8008ECF8EDF9EEFAEFFBEB4A7003EF99
:1007A6004E22EF4E700BEBFFEAFEE9FDE8FC74010A
:1007B60022C3EC98ED99EE9AEBC2E7F5F0EFC2E7AB
:1007C60095F0500E600CEBCFFBEACEFAE9CDF9E8D6
:1007D600CCF8120753C0E0C0F07F00C39BFB605B00
:1007E6009418600C401AD0E023F9D0E0F802061302
:1007F6008AF0E9486003D2F0E4AFF0FAF9F8803BFA
:10080600EB30E40D89F0EA6003D2F0E4AFF0F9CA08
:10081600F8EB30E30D88F0EF6002D2F0AFF0E4CAF7
:10082600C9F8EB54076014FBC3EA13FAE913F9E8B5
:1008360013F8EF135002D2E0FFDBEDD0E0C0E0305A
:10084600E734C3E49FFFF5F0EC98FC42F0ED99FD28
:1008560042F0EE9AFE42F0D0E0F9D0E0F8E5F07012
:100866000122E923F9EE30E7030205F8D803020670
:100876002612062C80F0EC28FCED39FDEE3AFED06F
:10088600E023F9D0E0F840030205F812063B08B869
:0808960000030206200205F830
:10089E00EF4E7003FDFC22EEA2E7D2E7FEE4CF336B
:1008AE0092D5C3947F5003020626F5F0941F40059F
:1008BE006011020620F404F5F0EF54FEFF12063A22
:1008CE00D5F0F6EFCCCDCECF30D50312064CEE02DE
:0208DE00061CF6
:1008E000EF30E707D2D512064C8002C2D5EF4E4D4D
:1008F0004C70012275F096EF700EEE20E71C15F09B
:1009000012062C30E7F88012EF05F0C313FFEE1348
:10091000FEED13FDEC13FCEF70EFA2D5E5F013FF35
:07092000EE92E7FE44012204
:10092700D083D082F5F0E49370097401937004A327
:10093700A3800C74029365F06005A3A3A380E774FA
:090947000193C0E0E493C0E0223A
:1009500012097E800D12099B80081209CC800312B7
:1009600009ED30E00720E302E622E72230E107202C
:0E097000E302E222E32230E202E022E49322DC
:10097E00BB0003740922BB010789828A8374042297
:0D098E00BB020789828A83741022740A223A
:10099B00BB0007E92582F8740122BB010DE9258212
:1009AB00F582EA3583F583740422BB020DE92582B7
:1009BB00F582EA3583F583741022E92582F87402F7
:0109CB002209
:1009CC00BF0005EDF8740122BF01078D828E837480
:1009DC000422BF02078D828E83741022EDF87402FC
:0109EC0022E8
:1009ED00BF0007ED2582F8740122BF010DED2582B0
:1009FD00F582EE3583F583740422BF020DED258259
:100A0D00F582EE3583F583741022ED2582F874029C
:010A1D0022B6
:100A1E00C0E012097E8013C0E012099B800CC0E07A
:100A2E001209CC8005C0E01209ED30E00B20E30482
:100A3E00D0E0F622D0E0F72230E10B20E304D0E044
:0A0A4E00F222D0E0F322D0E0F02203
:0B0A5800C0E0EBC0E01209CC020A6E07
:0B0A6300C0E0EBC0E01209ED020A6EDB
:100A6E0030E01420E308D0E0F6D0E008F622D0E023
:100A7E00F7D0E009F7192230E11420E308D0E0F2B4
:100A8E00D0E008F222D0E0F3D0E009F31922D0E052
:060A9E00F0D0E0A3F022FD
:0D0AA400740193F5F0E493F58385F0822250
:020AB100E473EC
:0C0AB300E0FFA3E0FEA3E0FDA3E0FC22B6
:00000001FF
:00000001FF
