:03000000020003F8
:1000030075813278327600D8FC900000AE83AF82DF
:100013009000001200416005E4F0A380F690009F79
:1000230012004A9000A312004A9000A712006890A1
:1000330000AD12006875D00012012A0200B3EF650B
:10004300827003EE658322E493F8740193F97402DA
:1000530093FE740393F5828E83E869700122E4931F
:10006300F6A30880F4E493FC740193FD740293FEF9
:10007300740393FF740493F8740593F582888312D1
:100083000041700122E493A3A883A9828C838D820B
:10009300F0A3AC83AD828883898280E3262600B5F2
:1000A300333300B5000000B500B5000000B500B55E
:0200B30080FECD
:1000B5007590FF90800DE030E00C748F90800AF011
:1000C500741A90800BF0745A908009F07401908036
:1000D50008F07401908007F07401908006F07400B8
:1000E500908004F07401908002F07401908000F01B
:1000F500740F90800AF0741A90800BF0227826E431
:10010500F608F67828EDF608ECF67826E6FD08E61A
:100115007829C396FCED1896500A782706E61870DC
:10012500010680E6221200B5908000E0782AF6905C
:100135008002E0782BF6908004E0782CF690800819
:10014500E0782DF6908006E0782EF6908007E0782E
:100155002FF678308682758300E07830F6759055F5
:0201650080C652
:00000001FF
:00000001FF
