:040513000AB5002401
:040517000A72002242
:04051B000ABC0022F4
:03000000020026D5
:1000260075813878387600D8FC90016EAE83AF8241
:100036009000001200646005E4F0A380F69000C210
:1000460012006D9000C612006D9000CA12008B90CF
:1000560000D012008B75D000120A3A0200D6EF6566
:10006600827003EE658322E493F8740193F97402B7
:1000760093FE740393F5828E83E869700122E493FC
:10008600F6A30880F4E493FC740193FD740293FED6
:10009600740393FF740493F8740593F582888312AE
:1000A6000064700122E493A3A883A9828C838D82C5
:1000B600F0A3AC83AD828883898280E32222051275
:1000C60039390512016E05130512016F051F051F4B
:0200D60080FEAA
:0A00D800CCC0E01201056C0200E448
:1000E200D0F030F00920F303F68010F7800D30F1E4
:1000F2000920F303F28004F38001F020F404FCD021
:03010200E0CC222C
:10010500BF000975F001ED2582F8E622BF010FED6C
:100115002582F582EE3583F58375F004E02275F0CE
:0701250002ED2582F8E22241
:10012C00E8FCE9FDEAFEEBFF8008ECF8EDF9EEFAED
:10013C00EFFBEF4E700122EB4A7005FFFCFDFE2237
:10014C001202AE947F40092B500C7F7F74FF80EC21
:10015C002B4003E480E5C0E0C0F0E849704EBA8063
:10016C0009D0E0F9D0E0F8020267EC4D7018BE80BF
:10017C0008E8FCE9FDEAFE80E8E4FBFFEA8EF0A467
:10018C00F8E5F0020232EA8CF0A4FFABF0EA8DF055
:10019C00A42BFBE435F0F8EA8EF0A428F8E435F053
:1001AC00020232EACEFAE9FDE8FC80DAEC4D700589
:1001BC00BE80F080BCEAC0E0EC88F0A4FFABF0EDB0
:1001CC0088F0A42BFBE435F0FAEC89F0A42B4FFF5C
:1001DC00E5F03AFAE433FB88F0EEA42AFAE5F03BBA
:1001EC00FBED89F0A42AFAE5F03BFBE433F88CF044
:1001FC00D0E0FCA42AC5F03BFBE438F8EF6002D257
:10020C00F0AFF0ED8CF0A42BFBE5F038F8E433FA0A
:10021C00EE89F0A42BFBE5F038F8E43AFAEC8EF01A
:10022C00A428F8E5F03AF5F0FEE8FDEBFCD0E0F997
:10023C00D0E0F830F70708B800060202741202800A
:10024C00EF3350178CF020F00260100CBC000C0D3A
:10025C00BD00080EBE000408E8600DE933E813FF8A
:10026C00EE2313FE4F4D4C227F7F74FF8002E4FF80
:10027C00FEFDFC22C3EF33FFEC33FCED33FDEE331C
:10028C00FE22C3EE13FEED13FDEC13FCEF13500234
:10029C00D2E0FF22C3E49CFCE49DFDE49EFEE49FBF
:0202AC00FF222F
:1002AE00EAA2E7D2E7FAEB33FB13F5F0EEA2E7D2C0
:1002BE00E7FEEF33FFC5F013A2E730E601B313C537
:0302CE00F0C32258
:1002D100EF4E7003FDFC22EEA2E7D2E7FEE4CF333E
:1002E10092D5C3947F500302027AF5F0941F400522
:1002F1006011020274F404F5F0EF54FEFF12028E55
:10030100D5F0F6EFCCCDCECF30D5031202A0EE0260
:02031100027078
:10031300EF30E707D2D51202A08002C2D5EF4E4DCF
:100323004C70012275F096EF700EEE20E71C15F06D
:1003330012028030E7F88012EF05F0C313FFEE13CB
:10034300FEED13FDEC13FCEF70EFA2D5E5F013FF08
:07035300EE92E7FE440122D7
:10035A00D083D082F5F0E49370097401937004A3FA
:10036A00A3800C74029365F06005A3A3A380E774CD
:09037A000193C0E0E493C0E0220D
:100383001203B1800D1203CE80081203FF80031203
:10039300042030E00720E302E622E72230E10720D1
:0E03A300E302E222E32230E202E022E49322AF
:1003B100BB0003740922BB010789828A837404226A
:0D03C100BB020789828A83741022740A220D
:1003CE00BB0007E92582F8740122BB010DE92582E5
:1003DE00F582EA3583F583740422BB020DE925828A
:1003EE00F582EA3583F583741022E92582F87402CA
:0103FE0022DC
:1003FF00BF0005EDF8740122BF01078D828E837453
:10040F000422BF02078D828E83741022EDF87402CE
:01041F0022BA
:10042000BF0007ED2582F8740122BF010DED258282
:10043000F582EE3583F583740422BF020DED25822B
:10044000F582EE3583F583741022ED2582F874026F
:010450002289
:10045100C0E01203B18013C0E01203CE800CC0E0F3
:100461001203FF8005C0E012042030E00B20E304FA
:10047100D0E0F622D0E0F72230E10B20E304D0E017
:0A048100F222D0E0F322D0E0F022D6
:0B048B00C0E0EBC0E01203FF0204A180
:0B049600C0E0EBC0E01204200204A153
:1004A10030E01420E308D0E0F6D0E008F622D0E0F6
:1004B100F7D0E009F7192230E11420E308D0E0F287
:1004C100D0E008F222D0E0F3D0E009F31922D0E025
:0604D100F0D0E0A3F022D0
:1004D700C0E0EBF608EAF608E9F608D0E0F6F822FD
:1004E700E493FB740193FA740293F9740393F8226B
:0D04F700740193F5F0E493F58385F0822203
:02050400E4739E
:0C050600EFF0A3EEF0A3EDF0A3ECF02268
:10051F00900BAF1204E7E878241204D774FFFB1294
:10052F00048B782DE62424F8E67828CFF6CF08CE72
:10053F00F6CE08CDF6CD900002120466E4900003CB
:10054F00120466EC900004120466782BF608E6900D
:10055F000005120466E40B90000612049690000842
:10056F0012049690000C12049690000A12049690B2
:10057F00000E120466141B1490000F1204962275BD
:10058F00A880758780758DF4758BF4758C00758ACE
:10059F0000758925759850D28E22EC540FF478246B
:1005AF00F6FC22E4A29592E0F40404A2E092959066
:1005BF008000E07827F6181876007825E6C3940AAD
:1005CF00500A908000E008F6180680EE0808E6183A
:1005DF00667002800280CC08E6FC1205A922120583
:1005EF008E1205B2EC90016EF0E4900155F090017F
:1005FF0053F0A3F0900152F090016CF0A3F0782E1D
:10060F007600782EE6C394045054E6792DF79001C6
:10061F006EE019F7E675F022A42402FCE43400FD25
:10062F00FEECFD7F017C0012051F782EE6792DF779
:10063F0090016EE00419F7E675F022A42413FCE490
:10064F003400FDFEECFD7F017C0112051FE4A29535
:10065F0092E0F40404A2E09295782E0680A4D28C46
:10066F00D2A8D2ACE4A29592E0F40404A2E0929551
:10067F00227829EE26FE18EF361818F608CEF6CE99
:10068F007824CDF6CD08CCF6CCFFEED39CED64806C
:10069F00CF64809F400A0808C3E69CF618E69DF6D3
:1006AF007827ECC39618E66480CD64809D400F18C0
:1006BF0018E6FD08E60808E62CF618E63DF6E6FD16
:1006CF0008E6FC22782A760008760008760090016A
:1006DF0052E0FCA3E06C7001220CEC900152F0C3CD
:1006EF00946440047C00ECF0782874FFF608F6EC74
:1006FF007D00FECDFFCD7C64120680EC24EEF582EA
:10070F00E43400F583E064FE600122782876FF0868
:10071F0076FE900152E07D00FECDFFCD7C64120687
:10072F0080EC24EEF582E43400F583E004600122CE
:10073F00782876FF0876F6900152E07D00FECDFF17
:10074F00CD7C64120680EC24EEF582E43400F58350
:10075F00E004600122782876FF0876F5900152E0D8
:10076F007D00FECDFFCD7C64120680EC24EEF58279
:10077F00E43400F583E004600122C296782876FF06
:10078F000876F8900152E07D00FECDFFCD7C64121B
:10079F000680EC24EEF582E43400F583E0FC900152
:1007AF006EE06C603A782876FF0876F8900152E098
:1007BF007D00FECDFFCD7C64120680EC24EEF58229
:1007CF00E43400F583E07D00FC90016EE07F0004CF
:1007DF00FE70010FEC6E7002ED6F600302099A78E4
:1007EF002B7600782BE6C3940B400302088AE67D34
:1007FF0000FCE4FF740BC39CFEEF9DFFC3E49EFE61
:10080F00E49FFF7828EFF608EEF6900152E0FECD58
:10081F00FFCD7C64120680EC24EEF582E43400F503
:10082F0083E0FC782BE6242EF8ECF6782BE6C394C5
:10083F00024042E6C39409503CE67D00FCE4FF749D
:10084F000BC39CFEEF9DFFC3E49EFEE49FFF782841
:10085F00EFF608EEF6900152E0FECDFFCD7C64126C
:10086F000680EC24EEF582E43400F583E0782AFC70
:10087F00E66C792AF7782B060207F2E4A29592E04C
:10088F00F40404A2E0929590016EE0783166D36093
:10089F0001C35003E480027401782CF61818E6782F
:1008AF003666600302099A7830E612035A093A0055
:1008BF00095201096A0209820308D2400938490026
:1008CF0000099A782D7600782DE6C39404504C7861
:1008DF0034E6FD08E6FC782DE675F022A4FE18E656
:1008EF0075F011A42E240EF582E43400F583EDF09B
:1008FF00A3ECF07832E6FD08E6FC782DE675F022E1
:10090F00A4FE18E675F011A42E240CF582E4340031
:10091F00F583EDF0A3ECF0080680ACE4A29592E02D
:10092F00F40404A2E0929580628060782CE675F062
:10093F0011A42402FCE43400FDFEECFD7F0112093A
:10094F009B8048782CE675F011A42424FCE4340035
:10095F00FDFEECFD7F0112099B8030782CE675F0CF
:10096F0011A42446FCE43400FDFEECFD7F011209C6
:10097F009B8018782CE675F011A42468FCE43400F1
:10098F00FDFEECFD7F0112099B8000227825EFF61A
:10099F0008EEF608EDF6E490000E12046678247661
:1009AF00007824E6C39411505FE6C394024020E61A
:1009BF00C3940E501A08E6FF08E6FE08E6FD7824F9
:1009CF00E6F58275830012039290000E1200D8781C
:1009DF0025E6FF08E6FE08E6FD7824E6F582758336
:1009EF0000120392900155FCE0FD04F0ED248AF50E
:1009FF0082E43400F583ECF0900155E0C394644039
:100A0F0002E4F07824068099D297E4A29592E0F45C
:100A1F000404A2E09295900154E0FC04F0EC248AC7
:100A2F00F582E43400F583E0F599221205ED120604
:100A3F00D3E4A29592E0F40404A2E0929590016DA4
:100A4F00E0147011900000E0FFA3E0F5828F831295
:100A5F0004F7120504E4A29592E0F40404A2E092D4
:100A6F009580CBC28CE58A7D00900156CDF0A3CD49
:100A7F00F0E58C7C00FDE0F0900156E04DF0D28C5B
:100A8F00E0FDA3E0FCEDE4FEFF12031E791E7B3DAB
:100A9F007A8578B812013E1202D190015A120506DA
:100AAF00E490016DF0227822E4F608F62222C0E0ED
:100ABF00C082C083C0D0ECC0E0EDC0E090016CE01C
:100ACF00701474177D05900000CDF0A3CDF0740164
:100ADF0090016DF08041B4011474137D05900000F6
:100AEF00CDF0A3CDF0740190016DF0802AB4021403
:100AFF00741B7D05900000CDF0A3CDF07401900123
:100B0F006DF08013B40309E490016CF0A3F080073B
:100B1F00E490016DF08000D0E0FDD0E0FCD0D0D0AB
:100B2F0083D082D0E032C0E0C082C083C0D0ECC09E
:100B3F00E0EDC0E0309825C298D296E59990015328
:100B4F00FCE0FD04F0ED24EEF582E43400F583ECD7
:100B5F00F0900153E0C394644002E4F0309932C244
:100B6F0099900154E0FCA3E06C6017EC2401CC24B5
:100B7F008AF582E43400F583E0F599EC900154F0A6
:100B8F008002C297ECC3946440077C00EC90015440
:100B9F00F0D0E0FDD0E0FCD0D0D083D082D0E032D6
:040BAF004D744F54DE
:03000300020ABD31
:03002300020B3598
:0105120000E8
:00000001FF
:00000001FF
