:03000000020026D5
:1000260075814B784B7600D8FC9002C9AE83AF82BF
:100036009000001200646005E4F0A380F69000C210
:1000460012006D9000C612006D9000CA12008B90CF
:1000560000D012008B75D000121F5D0200D6EF652E
:10006600827003EE658322E493F8740193F97402B7
:1000760093FE740393F5828E83E869700122E493FC
:10008600F6A30880F4E493FC740193FD740293FED6
:10009600740393FF740493F8740593F582888312AE
:1000A6000064700122E493A3A883A9828C838D82C5
:1000B600F0A3AC83AD828883898280E32222097F04
:1000C6004C4C097F02C90990097F02DA0990099010
:0200D60080FEAA
:100990007924E4F709F709120925EE4F700E0912C0
:1009A0000931E4FB1208CDFCFDFEFF22EF4E60038F
:1009B000EF5480B2E77016EE4F6004EF6480FF7969
:1009C000261209257922E4F70904F780067922E442
:1009D000F709F7E4F8F97B3F7A8074071206507044
:1009E0002D792612094FE4F8F97B3F7A80740712BB
:1009F00006507018792507E719700107E4F8F9FA2D
:100A00007B4012038F792612092580D5802A79260A
:100A100012094FE4F8F9FA7B3F740B120650701874
:100A20007925E71719700117E4F8F9FA7B401202EB
:100A300013792612092580D67924E7FD09E7FC7988
:100A40002A12093AEC1208C27922E70947600F79A5
:100A50002612094FEE4F6004EF6480FF800579266F
:040A600012094F2206
:100A64007939120925EF4E6005EF5480B2E770041E
:100A7400E4FEFF22792A7700097700097735120905
:100A840090792D120925792D12094FE4F8F9FA7B92
:100A94003F740B1206507018E4F8F9FA7B40120206
:100AA40013792D1209257936E7171970011780D6A5
:100AB4007936E730E016E4F8F9FA7B40120213794C
:100AC4002D1209257936E71719700117E4F8F97B17
:100AD4003F7A801204CAE4F8F9FA7B3F12021379D0
:100AE40031120925D37936E7943C19E76480948060
:100AF400401A79317C007D007E807F4E1206AA79EF
:100B040036E724C4F719E734FFF780D8C37936E70A
:100B140094C419E76480947F501A79317C007D0075
:100B24007E807F4E1206AF7936E7243CF719E7340E
:100B340000F780D8E733402EE7FD09E7FCE4FB7AB1
:100B440002ECF8EDF9120132E8E93395E0FAFBE83A
:100B54007C017D007E007F00F81201CC1206097929
:100B6400311206AA803109C3E497FD19E497CDFC3C
:100B7400E4FB7A02ECF8EDF9120132E8E93395E08E
:100B8400FAFBE87C017D007E007F00F81201CC12A4
:100B9400060979311206AF7937E4F709F7D37938C2
:100BA400E7940419E764809480502D090912094FD1
:100BB400783112095B12038F783112095B1204CA6F
:100BC400E4F8F9FA7B3F120213793807E719700148
:0E0BD40007793112092580C5793112094F22A7
:0A00D800CCC0E01201056C0200E448
:1000E200D0F030F00920F303F68010F7800D30F1E4
:1000F2000920F303F28004F38001F020F404FCD021
:03010200E0CC222C
:10010500BF000975F001ED2582F8E622BF010FED6C
:100115002582F582EE3583F58375F004E02275F0CE
:0701250002ED2582F8E22241
:10012C00EBC9FBEAC8FAEB335008E4C39AFAE49B38
:10013C00FBD392F0E930E709B2F0C3E498F8E49904
:10014C00F912017F30F008C3E498F8E499F94822D9
:10015C00EBC9FBEAC8FA89F012013220F706EAF87B
:0D016C00EBF94822C3E49AF8E49BF948221D
:10017900EBC9FBEAC8FAE94B7010E8C0F08AF084D1
:10018900F8AAF0D0F079007B0022ECC0E0EDC0E0E5
:10019900EEC0E07D007E007C10C3E833F8E933F956
:1001A900ED33FDEE33FEED9AEE9B4005FEED9AFD33
:1001B90008DCE6EDFAEEFBD0E0FED0E0FDD0E0FC95
:0301C900E84922E0
:1001CC0088F005F0800DC3EC33FCED33FDEE33FE0F
:0B01DC00EF33FFD5F0F0EF4E4D4C224A
:1001E700080808E62CFCF618E63DFDF618E63EFE84
:0A01F700F618E63FFFF64E4D4C22CD
:10020100E8FCE9FDEAFEEBFF8008ECF8EDF9EEFA17
:10021100EFFBEF4E700122EB4A7005FFFCFDFE2261
:1002210012047C947F40092B500C7F7F74FF80EC7B
:100231002B4003E480E5C0E0C0F0E849704EBA808D
:1002410009D0E0F9D0E0F802033CEC4D7018BE8013
:1002510008E8FCE9FDEAFE80E8E4FBFFEA8EF0A491
:10026100F8E5F0020307EA8CF0A4FFABF0EA8DF0A9
:10027100A42BFBE435F0F8EA8EF0A428F8E435F07D
:10028100020307EACEFAE9FDE8FC80DAEC4D7005DD
:10029100BE80F080BCEAC0E0EC88F0A4FFABF0EDDA
:1002A10088F0A42BFBE435F0FAEC89F0A42B4FFF86
:1002B100E5F03AFAE433FB88F0EEA42AFAE5F03BE4
:1002C100FBED89F0A42AFAE5F03BFBE433F88CF06E
:1002D100D0E0FCA42AC5F03BFBE438F8EF6002D281
:1002E100F0AFF0ED8CF0A42BFBE5F038F8E433FA35
:1002F100EE89F0A42BFBE5F038F8E43AFAEC8EF045
:10030100A428F8E5F03AF5F0FEE8FDEBFCD0E0F9C1
:10031100D0E0F830F70708B8000602034912035588
:10032100EF3350178CF020F00260100CBC000C0D64
:10033100BD00080EBE000408E8600DE933E813FFB4
:10034100EE2313FE4F4D4C227F7F74FF8002E4FFAA
:10035100FEFDFC22C3EF33FFEC33FCED33FDEE3346
:10036100FE22C3EE13FEED13FDEC13FCEF1350025E
:10037100D2E0FF22C3E49CFCE49DFDE49EFEE49FE9
:02038100FF2259
:10038300EFCBFFEECAFEEDC9FDECC8FCEF4E7003E8
:1003930002034FEB4A700302034912047CEB947F80
:1003A300CF40069F500A02034FC39F4003020349F5
:1003B300FBE849700CEA94807007EBF8A9F002039C
:1003C3003CC0F07F0012046D501EEB6002DB05D0D1
:1003D300F002034FC3120359EF33FFEC28FCED394E
:1003E300FDEE3AFEE43FFFD3EBC0E075F008740383
:1003F300C0E07B00501CC3EC98FCED99FDEE9AFE27
:10040300EF9400FF500CEC28FCED39FDEE3AFEE4CE
:100413003FFFEB33FBEC33FCED33FDEE33FEEF3309
:10042300FFD5F012D0F0EBC0E0E5F0146012C0E0AD
:1004330075F0087B00EF20E0BDEED330E7D480B643
:1004430012046D4E4D4CFBD0E0F4FCD0E0F4FDD033
:10045300E0F4FED0E0F8D0E0F9EB500302033C6097
:100463000302032CEC540102032AC3EC98FCED991C
:09047300FDEE9AFEEF9400FF2259
:10047C00EAA2E7D2E7FAEB33FB13F5F0EEA2E7D2F0
:10048C00E7FEEF33FFC5F013A2E730E601B313C567
:03049C00F0C32288
:10049F00EFCBFFEECAFEEDC9FDECC8FCEB4A7003D3
:1004AF00EF4E22EB6480FB8019E8FCE9FDEAFEEBDE
:1004BF00FF8008ECF8EDF9EEFAEFFBEB4A7003EF73
:1004CF004E22EF4E700BEBFFEAFEE9FDE8FC7401E4
:1004DF0022C3EC98ED99EE9AEBC2E7F5F0EFC2E785
:1004EF0095F0500E600CEBCFFBEACEFAE9CDF9E8B0
:1004FF00CCF812047CC0E0C0F07F00C39BFB605BB4
:10050F009418600C401AD0E023F9D0E0F802033CB5
:10051F008AF0E9486003D2F0E4AFF0FAF9F8803BD3
:10052F00EB30E40D89F0EA6003D2F0E4AFF0F9CAE2
:10053F00F8EB30E30D88F0EF6002D2F0AFF0E4CAD1
:10054F00C9F8EB54076014FBC3EA13FAE913F9E88F
:10055F0013F8EF135002D2E0FFDBEDD0E0C0E03034
:10056F00E734C3E49FFFF5F0EC98FC42F0ED99FD02
:10057F0042F0EE9AFE42F0D0E0F9D0E0F8E5F070EC
:10058F000122E923F9EE30E703020321D803020326
:10059F004F12035580F0EC28FCED39FDEE3AFED0FA
:1005AF00E023F9D0E0F8400302032112036408B8F6
:0805BF000003020349020321BD
:1005C700EF4E7003FDFC22EEA2E7D2E7FEE4CF3345
:1005D70092D5C3947F500302034FF5F0941F400553
:1005E7006011020349F404F5F0EF54FEFF120363B0
:1005F700D5F0F6EFCCCDCECF30D503120375EE0292
:020607000345A9
:10060900EF30E707D2D51203758002C2D5EF4E4D00
:100619004C70012275F096EF700EEE20E71C15F074
:1006290012035530E7F88012EF05F0C313FFEE13FC
:10063900FEED13FDEC13FCEF70EFA2D5E5F013FF0F
:07064900EE92E7FE440122DE
:10065000F5F0C3EF20E706EB30E7148034EB20E73A
:1006600004F4D3802C30F10363F00CEB547FFBEFE8
:100670004E7002FCFDEB4A7002F8F9EC98A8F0F518
:10068000F0ED9942F0EE9A42F0EF547F9B45F088EE
:10069000F082F130F2037001D330F301B3E433227E
:1006A00075F001801875F011801375F021800E75BA
:1006B000F031800975F051800475F049FCEBC0E021
:1006C000EAC0E0E9C0E0E8C0E0ECF8EEFAEFFBE7F2
:1006D000FF09E7FE09E7FC09E7CCCDC930F310CCF0
:1006E000C0E0CCCDC0E0CDCEC0E0CECFC0E0CFC02A
:0406F000E00206FE20
:0A06F400E8FB7A80E4F9F80204CA7A
:1006FE00C0F0E5F0C4540F75F005A4758210758333
:10070E0007731204CA801C1204AB801712021380E6
:10071E001212038F800D1206F48008EF4E6004EF64
:10072E00B2E7FFD0F0FB30F010D0E0F8ECF618EDA9
:10073E00F618EEF618EFF6802E30F21DD083D0822A
:10074E00EFF0A3EEF0A3EDF0A3ECF0E58224FDF5BF
:10075E0082E58334FFF583800ED0E0F8ECF218EDDD
:10076E00F218EEF218EFF230F30CD0E0FFD0E0FE0C
:10077E00D0E0FDD0E0FCD0E0F8D0E0F9D0E0FAD047
:03078E00E0CB229B
:10079100D083D082F5F0E49370097401937004A3BF
:1007A100A3800C74029365F06005A3A3A380E77492
:0907B1000193C0E0E493C0E022D2
:1007BA001207E8800D120805800812083680031215
:1007CA00085730E00720E302E622E72230E107205B
:0E07DA00E302E222E32230E202E022E4932274
:1007E800BB0003740922BB010789828A837404222F
:0D07F800BB020789828A83741022740A22D2
:10080500BB0007E92582F8740122BB010DE92582A9
:10081500F582EA3583F583740422BB020DE925824E
:10082500F582EA3583F583741022E92582F874028E
:0108350022A0
:10083600BF0005EDF8740122BF01078D828E837417
:100846000422BF02078D828E83741022EDF8740293
:01085600227F
:10085700BF0007ED2582F8740122BF010DED258247
:10086700F582EE3583F583740422BF020DED2582F0
:10087700F582EE3583F583741022ED2582F8740234
:01088700224E
:10088800C0E01207E88013C0E0120805800CC0E041
:100898001208368005C0E012085730E00B20E30448
:1008A800D0E0F622D0E0F72230E10B20E304D0E0DC
:0A08B800F222D0E0F322D0E0F0229B
:0B08C200C0E0EDC0E01207E80208E310
:0B08CD00C0E0EBC0E01208360208E3B8
:0B08D800C0E0EBC0E01208570208E38C
:1008E30030E01420E308D0E0F6D0E008F622D0E0B0
:1008F300F7D0E009F7192230E11420E308D0E0F241
:10090300D0E008F222D0E0F3D0E009F31922D0E0DE
:06091300F0D0E0A3F02289
:0C091900EFF608EEF608EDF608ECF6220A
:0C092500EFF709EEF709EDF709ECF722F7
:09093100E7FF09E7FE09E7FD22DA
:09093A00E7FB09E7FA09E7F922DD
:0C094300E6FF08E6FE08E6FD08E6FC22E0
:0C094F00E7FF09E7FE09E7FD09E7FC22CD
:0C095B00E6FB08E6FA08E6F908E6F822D8
:0C096700EFF0A3EEF0A3EDF0A3ECF02203
:0C097300E0FFA3E0FEA3E0FDA3E0FC22F7
:100BE200782BE67822F6782AE6FB08E6EB7B00789B
:100BF20023F608EFF608EEF608EDF6EB9000C912C0
:100C0200089D9000C812089D9000CB12089D90008C
:100C1200CA12089D9000CC12089D7828E6FB08E6CF
:100C22009000CD1208D8EC9000CF12089D7827F6DC
:100C32009000CF1207C9146003020CE2782CE6443C
:100C4200807D007E007F017829FCED26FDEE1836BE
:100C5200FEED2403FDEE3400FEEC1208967822E647
:100C6200FC78298683858382F58318E6C583F0782C
:100C720023E67D007E007829FCED26FDEE1836FE87
:100C82000DED70010EEC120896782CE67D007E00C8
:100C92007829FCED26FDEE1836FEED2403FDEE3438
:100CA20000FEEC120896E4FDFE7829ED26FDEE1812
:100CB20036FE0DED70010EEF120896E4FDFE782966
:100CC20026FDEE1836FEED2404FDEE3400FE740B14
:100CD20012089678298683858382F58318E6C58370
:100CE20022C0E0C082C083C0D0ECC0E0EDC0E09082
:100CF2008002E05406B404028003020D8CE4FD7409
:100D020002BD0042700B9002B4E0543F4440F080B8
:100D120035B4010B9002B4E054CF4410F08027B4F4
:100D2200020B9002B4E054F34404F08019B4030BB4
:100D32009002B4E054FC4401F0800BB4FF0874014B
:100D42009002B4F080009002B4E090B000F0900104
:100D5200E3E01470119001E2E09001E1FDE0CDF5D5
:100D6200828D83E08002E5999001DDFCE0FD04F0D4
:100D7200ED2414F582E43401F583ECF09001DDE01A
:100D8200C394644002E4F0020E2490A002E05406F0
:100D9200B404028003020E24E4FD7403BD00427019
:100DA2000B9002B4E0543F4440F08035B4010B9004
:100DB20002B4E054CF4410F08027B4020B9002B486
:100DC200E054F34404F08019B4030B9002B4E054ED
:100DD200FC4401F0800BB4FF0874019002B4F0806F
:100DE200009002B4E090B000F09002B3E0147011F1
:100DF2009002B2E09002B1FDE0CDF5828D83E080F9
:100E020002E5999002ADFCE0FD04F0ED24E4F582E8
:100E1200E43401F583ECF09002ADE0C39464400247
:100E2200E4F0D0E0FDD0E0FCD0D0D083D082D0E09E
:100E320032C0E0C0F0C082C083C0D0ECC0E0EDC0E0
:100E4200E09002C9E004F0200003020EA9740290AF
:100E52008004F0C200E4FDBD003970099002B4E0E4
:100E6200543FF0802EB401099002B4E054CFF080D8
:100E720022B402099002B4E054F3F08016B40309DC
:100E82009002B4E054FCF0800AB4FF07E49002B48C
:100E9200F080009002B4E090B000F09002CBE0C38A
:100EA20094645003E004F09002C9E0C39404500338
:100EB200020F219002CAE004F0E49002C9F090020D
:100EC200CAE075F00384E5F07055E4908004F0D236
:100ED20000FDBD0042700B9002B4E0543F44C0F0EC
:100EE2008035B4010B9002B4E054CF4430F0802737
:100EF200B4020B9002B4E054F3440CF08019B40332
:100F02000B9002B4E054FC4403F0800BB4FF08746D
:100F1200039002B4F080009002B4E090B000F0D0F0
:100F2200E0FDD0E0FCD0D0D083D082D0F0D0E0324F
:100F3200C0E0C082C083C0D0ECC0E0EDC0E0C2AC73
:100F4200209803020FD6C298E4FD04BD0042700B44
:100F52009002B4E0543F4440F08035B4010B90025B
:100F6200B4E054CF4410F08027B4020B9002B4E0F6
:100F720054F34404F08019B4030B9002B4E054FC1F
:100F82004401F0800BB4FF0874019002B4F08000B9
:100F92009002B4E090B000F0900113E01470119050
:100FA2000112E0900111FDE0CDF5828D83E0800217
:100FB200E59990010DFCE0FD04F0ED2444F582E496
:100FC2003400F583ECF090010DE0C394644002E438
:100FD200F0021061209903021061C299E4FD04BD80
:100FE2000042700B9002B4E0543F4480F08035B46C
:100FF200010B9002B4E054CF4420F08027B4020BDE
:101002009002B4E054F34408F08019B4030B900248
:10101200B4E054FC4402F0800BB4FF087402900266
:10102200B4F080009002B4E090B000F090010EE0C5
:10103200FCA3E06C7005E4A3F08024900113E0703F
:101042001EEC2401CC24A8F582E43400F583E0F5FB
:1010520099EC90010EF0C3946440047C00ECF0D251
:10106200ACD0E0FDD0E0FCD0D0D083D082D0E03252
:10107200E4FD14BD003970099002B4E0543FF080E1
:101082002EB401099002B4E054CFF08022B40209D8
:101092009002B4E054F3F08016B403099002B4E075
:1010A20054FCF0800AB4FF07E49002B4F080009090
:1010B20002B4E090B000F07822E4F608F6C3782398
:1010C200E6940418E664809480400302112BE6FD46
:1010D20008E6BD0042700B9002B4E0543F4480F039
:1010E2008035B4010B9002B4E054CF4420F0802745
:1010F200B4020B9002B4E054F34408F08019B40334
:101102000B9002B4E054FC4402F0800BB4FF08746C
:10111200029002B4F080009002B4E090B000F07847
:101122002306E6187001068094E4F608F6C37823D5
:10113200E6948818E6648094935039E6FD08E6FC4C
:10114200E4FB7A64ECF8EDF9120162E849701BE401
:10115200A29392E0F40404A2E092937823E6161894
:101162007001160806E618700106782306E6187064
:10117200010680B9E4F608F6C37823E6940418E67B
:101182006480948040030211E6E6FD08E6BD004259
:10119200700B9002B4E0543F4440F08035B4010B30
:1011A2009002B4E054CF4410F08027B4020B9002B6
:1011B200B4E054F34404F08019B4030B9002B4E099
:1011C20054FC4401F0800BB4FF0874019002B4F0A7
:1011D20080009002B4E090B000F0782306E6187028
:1011E20001068094E4F608F6C37823E6948818E6AC
:1011F200648094935039E6FD08E6FCE4FB7A64ECE3
:10120200F8EDF9120162E849701BE4A29392E0F44E
:101212000404A2E092937823E616187001160806D9
:10122200E618700106782306E61870010680B9E414
:10123200FD14BD003970099002B4E0543FF0802ED5
:10124200B401099002B4E054CFF08022B4020990B4
:1012520002B4E054F3F08016B403099002B4E054EF
:10126200FCF0800AB4FF07E49002B4F08000900220
:10127200B4E090B000F0227827EE26FE18EF361880
:1012820018F608CEF6CE7822CDF6CD08CCF6CCFFF5
:10129200EEC39CED6480CF64809F400A0808C3E6D9
:1012A2009CF618E69DF67824E633500808E62CF6FC
:1012B20018E63DF6E6FD08E6FC22900110E0147007
:1012C200012290010EE0FCA3E06C7048E4FD04BD35
:1012D200003970099002B4E0543FF0802EB4010945
:1012E2009002B4E054CFF08022B402099002B4E03C
:1012F20054F3F08016B403099002B4E054FCF08079
:101302000AB4FF07E49002B4F080009002B4E090C7
:10131200B000F022C2AC7401A3F0EC24A8F582E480
:101322003400F583E0F5997826E4F60804F6900196
:101332000EE07D00FECDFFCD7C64121279EC9001AF
:101342000EF0D2AC227829EFF608EEF608EDF6E4BC
:1013520090000E12089D782876007828E6C3941132
:10136200505FE6C394024020E6C3940E501A08E68A
:10137200FF08E6FE08E6FD7828E6F582758300128E
:1013820007C990000E1200D87829E6FF08E6FE0889
:10139200E6FD7828E6F5827583001207C990010FF1
:1013A200FCE0FD04F0ED24A8F582E43400F583ECC2
:1013B200F090010FE0C394644002E4F078280680C4
:1013C200991212BC2274FFFB1208CD7822EFF608A4
:1013D200EEF608EDF674FE90000F1208D87826E6B5
:1013E20090000412089DEC90000512089D7825F6E5
:1013F200E490000312089D90000E12089D0B9000CD
:10140200081208D89000061208D890000C1208D8CA
:1014120090000A1208D87827E690000212089D224E
:1014220090010CE0FCA3E06C7001220CEC90010C2A
:10143200F0C3946440047C00ECF0782674FFF60854
:10144200F6EC7D00FECDFFCD7C64121279EC2444D3
:10145200F582E43400F583E064FE600122782676AA
:10146200FF0876FE90010CE07D00FECDFFCD7C648E
:10147200121279EC2444F582E43400F583E004602E
:101482000122782676FF0876F590010CE07D00FEB9
:10149200CDFFCD7C64121279EC2444F582E4340051
:1014A200F583E004600122782676FF0876F6900143
:1014B2000CE07D00FECDFFCD7C64121279EC244459
:1014C200F582E43400F583E004600122E4FD04BD0A
:1014D200003970099002B4E0543FF0802EB4010943
:1014E2009002B4E054CFF08022B402099002B4E03A
:1014F20054F3F08016B403099002B4E054FCF08077
:101502000AB4FF07E49002B4F080009002B4E090C5
:10151200B000F0782676FF0876F890010CE07D00A6
:10152200FECDFFCD7C64121279EC2444F582E434C2
:1015320000F583E0FC9002CCE06C6027782676FF11
:101542000876F890010CE07D00FECDFFCD7C6412A0
:101552001279EC2444F582E43400F583E00460035C
:101562000216FB783876001876007837E6C3940BBB
:101572004003021604E67D00FCE4FF740BC39CFEEC
:10158200EF9DFFC3E49EFEE49FFF7826EFF608EE90
:10159200F690010CE0FECDFFCD7C64121279EC24B2
:1015A20044F582E43400F583E0FC7837E6242CF835
:1015B200ECF67837E6C394024042E6C39408503C06
:1015C200E67D00FCE4FF740BC39CFEEF9DFFC3E4C9
:1015D2009EFEE49FFF7826EFF608EEF690010CE0FF
:1015E200FECDFFCD7C64121279EC2444F582E43402
:1015F20000F583E07838FCE66C7938F77837060234
:10160200156C7834E678386660030216FB782EE6AD
:1016120012079116EB2316C92A162E4016A6491652
:10162200A84D16B34F16BE54000016FB7830E6FDE7
:1016320008E690000ACDF0A3CDF018E6FD08E6908A
:10164200001BCDF0A3CDF018E6FD08E690002CCDEE
:10165200F0A3CDF008E6FD08E690000CCDF0A3CD96
:10166200F018E6FD08E690001DCDF0A3CDF018E6D7
:10167200FD08E690002ECDF0A3CDF018E6FD08E6B9
:10168200900006CDF0A3CDF018E6FD08E690001715
:10169200CDF0A3CDF018E6FD08E6900028CDF0A32A
:1016A200CDF0805580537D007E007F01121347806C
:1016B200487D117E007F01121347803D7D227E000E
:1016C2007F0112134780329002CFE0FDA3E0900029
:1016D2003DCDF0A3CDF09002CDCDF0A3CDF07D3382
:1016E2007E007F0112134780107830E6FD08E690F5
:1016F20002CDCDF0A3CDF08000227842E4F608F6C8
:1017020008F608F6784AF608F69001DCE0FCA3E059
:101712006C7001220CEC9001DCF0C3946440047CF8
:1017220000ECF0782674FFF608F6EC7D00FECDFFA3
:10173200CD7C64121279EC2414F582E43401F58331
:10174200E0640A600122782676FF0876FE9001DCCA
:10175200E07D00FECDFFCD7C64121279EC2414F5FD
:1017620082E43401F583E0640D600122782676FF7D
:101772000876F79001DCE07D00FECDFFCD7C64129F
:101782001279EC2414F582E43401F583E0642B60D1
:101792000122782676FF0876F89001DCE07D00FED3
:1017A200CDFFCD7C64121279EC2414F582E434016D
:1017B200F583E0B42E028003021877782676FF08BC
:1017C20076F99001DCE07D00FECDFFCD7C64121243
:1017D20079EC2414F582E43401F583E07D0024D011
:1017E200FCED34FFFDEC75F064A4FCE5F0CD75F082
:1017F20064A42DFD784BE62CF618E63DF6782676A5
:10180200FF0876FA9001DCE07D00FECDFFCD7C641E
:10181200121279EC2414F582E43401F583E07D00A0
:1018220024D0FCED34FFFDEC75F00AA4FCE5F0CD0C
:1018320075F00AA42DFD784BE62CF618E63DF678F5
:101842002676FF0876FB9001DCE07D00FECDFFCD21
:101852007C64121279EC2414F582E43401F583E0FD
:101862007D0024D0FCED34FFFD784BE62CF618E623
:101872003DF60219A8782676FF0876F99001DCE099
:101882007D00FECDFFCD7C64121279EC2414F5822A
:10189200E43401F583E0B42E0280030219A1782614
:1018A20076FF0876F89001DCE07D00FECDFFCD7C6E
:1018B20064121279EC2414F582E43401F583E07D9C
:1018C2000024D0FCED34FFFDEC75F0E8A4CCAEF0C2
:1018D20075F003A42EFEED75F0E8A42EFD784BE61C
:1018E2002CF618E63DF6782676FF0876FA9001DCAB
:1018F200E07D00FECDFFCD7C64121279EC2414F55C
:1019020082E43401F583E07D0024D0FCED34FFFD58
:10191200EC75F064A4FCE5F0CD75F064A42DFD78BF
:101922004BE62CF618E63DF6782676FF0876FB9015
:1019320001DCE07D00FECDFFCD7C64121279EC2447
:1019420014F582E43401F583E07D0024D0FCED340B
:10195200FFFDEC75F00AA4FCE5F0CD75F00AA42DAC
:10196200FD784BE62CF618E63DF6782676FF0876EB
:10197200FC9001DCE07D00FECDFFCD7C641212798B
:10198200EC2414F582E43401F583E07D0024D0FCDC
:10199200ED34FFFD784BE62CF618E63DF68007782D
:1019A2004A76D80876F1784BE664F1700918E66455
:1019B200D87003021C089002D6E064F1700690020F
:1019C200D5E064D8700E784AE6FD08E69002D5CDDF
:1019D200F0A3CDF0C39002D6E0FE784BE69EFC90D9
:1019E20002D5E0FE18E69E7846F608CCF6CC3350D7
:1019F20008C3E496F6E41896F6D37847E69464189A
:101A0200E664809480401F9002D7E004F0E0C39423
:101A1200054010E4F0784AE6FD08E69002D5CDF0E4
:101A2200A3CDF0021C08784AE6FD08E69002D8FC35
:101A3200E0FE04F0EE25E024B5F582E43402F583FD
:101A4200EDF0A3ECF09002D5EDF0A3ECF09002D80B
:101A5200E0C3940A4006E4F09002D9F09002D9E083
:101A62006003021C089002D1120973794F78807AC0
:101A7200C37BC774051206506003021C0878337BCF
:101A8200437A88799312038F120A64783E120919F5
:101A9200783D7600783DE6C3940A5021E625E0249D
:101AA200B5F582E43402F583E0FDA3E0FCED339565
:101AB200E0FEFF78421201E7783D0680D7784212B5
:101AC2000943120609E4F8F97B427AC812038F78B7
:101AD2003E12095B120213783E120919E4F8F97AF0
:101AE200207B411202131205C79002CFEDF0A3EC46
:101AF200F09002CDE0FDA3E04D7003021BD49002F2
:101B0200CDE0A3E0C39002D0FEE0CE9EFC9002CFD7
:101B1200E0FEED9ED3FDEC9400ED64809480406E77
:101B22009002CDE0FDA3E0C39002D0FEE0CE9E780D
:101B320049F69002CFE0FEED9E18F6C308E6940542
:101B420018E6648094805004E4F608F67848E6FDCE
:101B520008E690000CCDF0A3CDF0900006CDF0A3E6
:101B6200CDF018E6FD08E690001DCDF0A3CDF09073
:101B72000017CDF0A3CDF018E6FD08E690002ECDBB
:101B8200F0A3CDF0900028CDF0A3CDF08031E0FDA0
:101B9200A3E09002CDCDF0A3CDF0900006E4F0A337
:101BA200F090000CF0A3F0900017F0A3F090001D4D
:101BB200F0A3F0900028F0A3F090002EF0A3F0E440
:101BC200900003F0900014F0900025F09002CBF00A
:101BD20080349002CFE0FDA3E0C3E49CFCE49DFDD1
:101BE200900006EDF0A3ECF0C3E49CFCE49DFD90B4
:101BF2000017EDF0A3ECF0C3E49CFCE49DFD900023
:101C020028EDF0A3ECF0E4FD7402BD0039700990F8
:101C120002B4E0543FF0802EB401099002B4E054C3
:101C2200CFF08022B402099002B4E054F3F080169F
:101C3200B403099002B4E054FCF0800AB4FF07E454
:101C42009002B4F080009002B4E090B000F02290D4
:101C520002ACE0FCA3E06C7001220CEC9002ACF050
:101C6200C3946440047C00ECF0782674FFF608F616
:101C7200EC7D00FECDFFCD7C64121279EC24E4F5FC
:101C820082E43401F583E064FE600122782676FF67
:101C92000876FE9002ACE07D00FECDFFCD7C6412A2
:101CA2001279EC24E4F582E43401F583E004600166
:101CB20022E4FD7403BD003970099002B4E0543F80
:101CC200F0802EB401099002B4E054CFF08022B427
:101CD20002099002B4E054F3F08016B403099002B2
:101CE200B4E054FCF0800AB4FF07E49002B4F08040
:101CF200009002B4E090B000F0782676FF0876F00B
:101D02009002ACE07D00FECDFFCD7C64121279EC36
:101D120024E4F582E43401F583E0046001227826AC
:101D220076FF0876EF9002ACE07D00FECDFFCD7C21
:101D320064121279EC24E4F582E43401F583E004C0
:101D4200600122782676FF0876F19002ACE07D00F1
:101D5200FECDFFCD7C64121279EC24E4F582E434EA
:101D620001F583E0644D600122782676FF0876F261
:101D72009002ACE07D00FECDFFCD7C64121279ECC6
:101D820024E4F582E43401F583E0600122782676CA
:101D9200FF0876F39002ACE07D00FECDFFCD7C64BF
:101DA200121279EC24E4F582E43401F583E0640252
:101DB200600122782976001876007828E6C394110B
:101DC2004003021E8CE67D00FCE4FF7411C39CFEFE
:101DD200EF9DFFC3E49EFEE49FFF7826EFF608EE38
:101DE200F69002ACE0FECDFFCD7C64121279EC24B9
:101DF200E4F582E43401F583E0FC7828E6242AF84D
:101E0200ECF67828E6C394024042E6C3940E503CB6
:101E1200E67D00FCE4FF7411C39CFEEF9DFFC3E46A
:101E22009EFEE49FFF7826EFF608EEF69002ACE005
:101E3200FECDFFCD7C64121279EC24E4F582E43409
:101E420001F583E07829FCE66C7929F77829E678B0
:101E5200386670307831E62418FC18E634FCFDEC64
:101E6200ED3395E0FEFF120609E4F8F97A207B4192
:101E720012038F7B43787B7A8879941204CA90028A
:101E8200D1120967782806021DBC22782376000841
:101E92007600E4A29392E0F40404A2E09293E59027
:101EA20054F07824F6181876007822E6C3940A5083
:101EB20010E59054F0080866700218067822068031
:101EC200E808E6C394094002800280C608E6C454CA
:101ED2000FF4540F9002CCF02275A880758780C24F
:101EE200931210727402908004F0782C7603181802
:101EF200E4F608760C7828F608F6FC7D447E007F2E
:101F020001120BE2782C76031818E4F60876607852
:101F120028768008F67C017D147E017F01120BE297
:101F2200782C76031818E4F6087630782876A0081C
:101F3200F67C017DE47E017F01120BE27589257535
:101F42008DF4758BF4759850D2AFC28CD28ED2BC00
:101F5200D288C28AD2ACD2A8D2AA22121EDB121E08
:101F62008D7827764D18760C9002CCE0FC7D007EB1
:101F7200007F011213C77827764F18760C9002CC97
:101F8200E0FC7D117E007F011213C778277654187A
:101F9200760C9002CCE0FC7D227E007F011213C7FA
:101FA2007827762A18760C9002CCE0FC7D337E00EE
:101FB2007F011213C7121422E4A29392E0F40404E4
:101FC200A2E092931212BC1216FCE4A29392E0F4E5
:101FD2000404A2E092931212BC121C51E4A2939246
:101FE200E0F40404A2E092931212BC9002CBE07DD2
:101FF20000C3FC94F4ED648094814015900003E0EA
:102002004402F0900014E04402F0900025E0440203
:03201200F080A2B9
:03000300020E33B7
:03001300020CE3F9
:03002300020F3297
:10097F000000000600000000C7C34F80D8F1000040
:01098F000166
:00000001FF
:00000001FF
