:0300000002002ECD
:10002E0075816E786E7600D8FC900293AE83AF82A7
:10003E0090000012006C6005E4F0A380F69000CAF8
:10004E001200759000CE1200759000D2120093909F
:10005E0000D812009375D00012132C0200DEEF654B
:10006E00827003EE658322E493F8740193F97402AF
:10007E0093FE740393F5828E83E869700122E493F4
:10008E00F6A30880F4E493FC740193FD740293FECE
:10009E00740393FF740493F8740593F582888312A6
:1000AE00006C700122E493A3A883A9828C838D82B5
:1000BE00F0A3AC83AD828883898280E322220D2354
:1000CE006F6F0D2302930D230D2302930D230D232A
:0200DE0080FEA2
:100D23007936120CBAEF4E6005EF5480B2E7B2E7A2
:100D33007004120EA422EE4F6004EF6480FF120EC3
:0A0D4300A4EE4F6004EF6480FF226D
:100D4D007959120CBAEF4E6003EF5480B2E7700D73
:100D5D00EE4F6004EF6480FF7959120CBA7957E4B5
:080D6D00F70904F7120F2C2214
:100D75007926120CBA792E120CBAEF4E6003EF5495
:100D850080B2E770057926120A7B7926120CDB7A88
:100D9500187B4B7880799674031209C47010792EEC
:100DA500120CDB09120CC6120C36E4FEFF22792E5A
:100DB500120CDB1208E012092209120CC6120C36BD
:100DC500120BB2EE4F6004EF6480FF782E120CE731
:040DD5001207E322FC
:100DD900792E120CBA1205247926120CBA793A7BAB
:100DE900417A8178A812052C79367B4378767A8600
:100DF9001207E37826120CE712052C79207B447A36
:100E09009078F01207E37826120CE712052C780186
:100E19007B44798D7ADE1207E37826120CE71205F6
:100E29002C79327B44784D7A601207E3792A120CC7
:100E3900BA7926120CDB7B427A6B79D378F01207E8
:100E4900E37826120CE712052C7A0679107B447890
:100E5900FC1207E37826120CE712052C78157B445F
:100E690079597AD01207E37826120CE712052C7A01
:100E7900017B45785C79F51207E37826120CE712B5
:100E8900052C79327B44784D7A601207E3792A126E
:100E99000A76782E120CE712052C227932120CBA36
:100EA90079137B3E78CD7AD4740B1209C47004127D
:100EB9000DD9227A1A7B40787A798274071209C48B
:100EC9007021E4F8F97B3F7A8012069C120DD9EE65
:100ED9004F6004EF6480FF790F7B3F7AC978DB129A
:100EE90007E322E4F8F97A807BBF1207E3120C8A40
:100EF9007932120CDBE4F8F97B3F7A801207E312AE
:100F09000C9C12069C120DD9790F7B3F7A4978DB2C
:040F19001207E322B6
:0F0F1D007959120CBA7957E4F709F7120F2C2201
:100F2C007941120CBAEF4E6003EF5480B2E770189F
:100F3C00EE4F6004EF6480FF7941120CBA7958E7E8
:100F4C002402F719E73400F77A227B3F788379F98A
:100F5C0012052C7941120CBAE4F87B4679F87AFF29
:100F6C0074071209C4706979327700097700097720
:100F7C0035120D757945120CBA7957E7FD09E7FC66
:100F8C00ED3395E0FEFF1209227935120A677932AA
:100F9C007700097700097739E4F8F97B3E7A8012FB
:100FAC00052C120D757939120CDBE4F8F97B407ABB
:100FBC008012052CEE4F6004EF6480FF7835120C24
:100FCC00E71207E31208E07957EDF709ECF78034E4
:100FDC001208E07949EDF709ECF7ED3395E0FEFFE7
:100FEC001209227841120CE71207B87945120CBA93
:100FFC0009097858E627FC1918E637FDEC54030864
:10100C00F61876007958E730E0147945120CDBE4D9
:10101C00F8F97B3F7A801207B87945120CBAD3796C
:10102C0058E7940119E76480948040057945120AC9
:10103C007B7945120CDB120524793D120CBA78062B
:10104C007A117B4379F812052C78177A58795D7BE5
:10105C00C61207E3783D120CE712052C7B487AD6B2
:10106C0078E279E41207E3783D120CE712052C784C
:10107C00787A967BCA79D81207E3783D120CE7127E
:10108C00052C79327B4B7A4F78591207E37845124D
:10109C000CE712052C794B120CBA793D120CDB7A49
:1010AC00047B43784B79A71207E3783D120CE712C7
:1010BC00052C7A137B46786279DC1207E3783D12B3
:1010CC000CE712052C7B48794E78677AC71207E338
:1010DC00783D120CE712052C7A037B4B78CF79E71D
:1010EC001207E3794F120CBA784B120CE712069CDC
:0110FC0022D1
:1000E000EBC9FBEAC8FAE94B7010E8C0F08AF0846B
:1000F000F8AAF0D0F079007B0022ECC0E0EDC0E07F
:10010000EEC0E07D007E007C10C3E833F8E933F9EF
:10011000ED33FDEE33FEED9AEE9B4005FEED9AFDCC
:1001200008DCE6EDFAEEFBD0E0FED0E0FDD0E0FC2E
:03013000E8492279
:0F013300EBC9FBEAC8FA1200E6EAF8EBF948223A
:10014200E8FCE9FDEAFEEBFF8008ECF8EDF9EEFAD7
:10015200EFFBEF4E4D4B4A49700DE88CF0A4FCAD1D
:10016200F07E007F004D22C082ECF58288F0A4C0B0
:10017200E0E8C5F0CDC0E0A42DFDE435F0CEFC856D
:1001820082F0E9A42DFDEE35F0FEE433CF88F0A431
:100192002FFFE98CF0A42FFFEAD0F0C0F0A42FFFCC
:1001A200EB8582F0A42FFFD0F0E9A42EFEEF35F00C
:1001B200FFEA8582F0A42EFEEF35F0FF8CF0E8A472
:0F01C2002EFEEF35F0FFD0E0D082FC4E4D4F22E5
:0D01D100EFCBFFEECAFEEDC9FDECC8FC222D
:1001DE001201D1EB4A4E4F7017ECFAEDFB1200E014
:1001EE00F5F0E8FCE9FDEAF8EBF9E4FAFBE5F022BC
:1001FE00C082C08375F0208B828883E4FBCFC0E081
:10020E00E4CACEC0E0E4C9CDC0E0C3EC33FCA881A3
:10021E00E633F618E633F618E633F6EB33FBE9333E
:10022E00F9EA33FAEF33FFEB9583E99DEA9EEF95FA
:10023E0082400CFFEB9583FBE99DF9EA9EFA0CD503
:10024E00F0C8D0E0FDD0E0FEEBF8D0E0CFFBECD074
:10025E0083D0824D4E4F221201D11201E1EBFFEA03
:07026E00FEE9FDE8FC80EC55
:100275001201D1EB33500EE4C398F8E499F9E49AEE
:10028500FAE49BFBD3EF30E708B3C0D01202B78086
:1002950002C0D01201E1D0F020F70122F5F01202E0
:1002A500B7E5F0221201D1EFC0E012027812026B1D
:0202B50080E4E3
:1002B700E4C39CFCE49DFDE49EFEE49FFF4E4D4C91
:0102C7002214
:1002C800ECF4FCEDF4FDEEF4FEEFF4FF4E4D4C22A1
:1002D800C083F5F0C3EC98F583ED994283EE9A421A
:1002E8008320F010C082EB6480F582EF64809582F1
:1002F800D0828002EF9B82F130F20545837001D3F2
:09030800D08330F301B3E4332289
:1003110088F005F0800EEFA2E713FFEE13FEED1358
:0C032100FDEC13FCD5F0EFEF4E4D4C222C
:10032D0088F005F0800DC3EF13FFEE13FEED13FD06
:0B033D00EC13FCD5F0F0EF4E4D4C220D
:1003480088F005F0800DC3EC33FCED33FDEE33FE91
:0B035800EF33FFD5F0F0EF4E4D4C22CC
:10036300E8FCE9FDEAFEEBFF8008ECF8EDF9EEFAB4
:10037300EFFBEC28FCED39FDEE3AFEEF3BFF4E4D73
:020383004C220A
:10038500C3EC98FCED99FDEE9AFEEF9BFF4E4D4CAC
:010395002245
:10039600EC58FCED59FDEE5AFEEF5BFF4E4D4C223C
:1003A600EC48FCED49FDEE4AFEEF4BFF4E4D4C226C
:1003B600EC68FCED69FDEE6AFEEF6BFF4E4D4C22DC
:0B03C600E814600104F9FAFB02037563
:1003D100C0F0E5F0C4540F75F005A49003E073126A
:1003E100037580491203858044120154803F120233
:1003F10078803A1201E180351202AC803012026835
:10040100802B120311802612032D802112034880B4
:100411001C12039680171203A680121203B6800DD8
:100421001203C680081202B780031202C8D0F0FB83
:1004310030F010D0E0F8ECF618EDF618EEF618EF03
:10044100F6802E30F21DD083D082EFF0A3EEF0A320
:10045100EDF0A3ECF0E58224FDF582E58334FFF5B0
:1004610083800ED0E0F8ECF218EDF218EEF218EFFE
:10047100F230F30CD0E0FFD0E0FED0E0FDD0E0FCA4
:0D048100D0E0F8D0E0F9D0E0FAD0E0CB22D6
:10048E0075F004804A75F014804575F0248040752F
:10049E00F034803B75F044803675F054803175F041
:1004AE0064802C75F074802775F084802275F0942A
:1004BE00801D75F0A4801875F0B4801375F0C4809B
:1004CE000EFC75F0DC800875F0E4800375F0F4EB3B
:1004DE00C0E0EAC0E0E9C0E0E8C0E0ECF8EDF9EE1B
:1004EE00FAEFFBE0FFA3E0FEA3E0FDA3E0FC30F398
:1004FE000CECC0E0EDC0E0EEC0E0EFC0E0E5822421
:0C050E00FDC0E0E58334FFC0E00203D133
:10051A00E8FCE9FDEAFEEBFF8008ECF8EDF9EEFAFB
:10052A00EFFBEF4E700122EB4A7005FFFCFDFE2245
:10053A00120795947F40092B500C7F7F74FF80EC43
:10054A002B4003E480E5C0E0C0F0E849704EBA8071
:10055A0009D0E0F9D0E0F8020655EC4D7018BE80DB
:10056A0008E8FCE9FDEAFE80E8E4FBFFEA8EF0A475
:10057A00F8E5F0020620EA8CF0A4FFABF0EA8DF071
:10058A00A42BFBE435F0F8EA8EF0A428F8E435F061
:10059A00020620EACEFAE9FDE8FC80DAEC4D7005A5
:1005AA00BE80F080BCEAC0E0EC88F0A4FFABF0EDBE
:1005BA0088F0A42BFBE435F0FAEC89F0A42B4FFF6A
:1005CA00E5F03AFAE433FB88F0EEA42AFAE5F03BC8
:1005DA00FBED89F0A42AFAE5F03BFBE433F88CF052
:1005EA00D0E0FCA42AC5F03BFBE438F8EF6002D265
:1005FA00F0AFF0ED8CF0A42BFBE5F038F8E433FA19
:10060A00EE89F0A42BFBE5F038F8E43AFAEC8EF028
:10061A00A428F8E5F03AF5F0FEE8FDEBFCD0E0F9A5
:10062A00D0E0F830F70708B8000602066212066E34
:10063A00EF3350178CF020F00260100CBC000C0D48
:10064A00BD00080EBE000408E8600DE933E813FF98
:10065A00EE2313FE4F4D4C227F7F74FF8002E4FF8E
:10066A00FEFDFC22C3EF33FFEC33FCED33FDEE332A
:10067A00FE22C3EE13FEED13FDEC13FCEF13500242
:10068A00D2E0FF22C3E49CFCE49DFDE49EFEE49FCD
:02069A00FF223D
:10069C00EFCBFFEECAFEEDC9FDECC8FCEF4E7003CC
:1006AC00020668EB4A7003020662120795EB947F10
:1006BC00CF40069F500A020668C39F4003020662A1
:1006CC00FBE849700CEA94807007EBF8A9F002067D
:1006DC0055C0F07F00120786501EEB6002DB05D080
:1006EC00F0020668C3120672EF33FFEC28FCED39FA
:1006FC00FDEE3AFEE43FFFD3EBC0E075F008740367
:10070C00C0E07B00501CC3EC98FCED99FDEE9AFE0A
:10071C00EF9400FF500CEC28FCED39FDEE3AFEE4B2
:10072C003FFFEB33FBEC33FCED33FDEE33FEEF33ED
:10073C00FFD5F012D0F0EBC0E0E5F0146012C0E091
:10074C0075F0087B00EF20E0BDEED330E7D480B627
:10075C001207864E4D4CFBD0E0F4FCD0E0F4FDD0FB
:10076C00E0F4FED0E0F8D0E0F9EB5003020655605F
:10077C0003020645EC5401020643C3EC98FCED99C8
:09078C00FDEE9AFEEF9400FF223D
:10079500EAA2E7D2E7FAEB33FB13F5F0EEA2E7D2D4
:1007A500E7FEEF33FFC5F013A2E730E601B313C54B
:0307B500F0C3226C
:1007B800EFCBFFEECAFEEDC9FDECC8FCEB4A7003B7
:1007C800EF4E22EB6480FB8019E8FCE9FDEAFEEBC2
:1007D800FF8008ECF8EDF9EEFAEFFBEB4A7003EF57
:1007E8004E22EF4E700BEBFFEAFEE9FDE8FC7401C8
:1007F80022C3EC98ED99EE9AEBC2E7F5F0EFC2E769
:1008080095F0500E600CEBCFFBEACEFAE9CDF9E893
:10081800CCF8120795C0E0C0F07F00C39BFB605B7B
:100828009418600C401AD0E023F9D0E0F80206557D
:100838008AF0E9486003D2F0E4AFF0FAF9F8803BB7
:10084800EB30E40D89F0EA6003D2F0E4AFF0F9CAC6
:10085800F8EB30E30D88F0EF6002D2F0AFF0E4CAB5
:10086800C9F8EB54076014FBC3EA13FAE913F9E873
:1008780013F8EF135002D2E0FFDBEDD0E0C0E03018
:10088800E734C3E49FFFF5F0EC98FC42F0ED99FDE6
:1008980042F0EE9AFE42F0D0E0F9D0E0F8E5F070D0
:1008A8000122E923F9EE30E70302063AD8030206EB
:1008B8006812066E80F0EC28FCED39FDEE3AFED0A9
:1008C800E023F9D0E0F8400302063A12067D08B8A2
:0808D800000302066202063A69
:1008E000EF4E7003FDFC22EEA2E7D2E7FEE4CF3329
:1008F00092D5C3947F5003020668F5F0941F40051B
:100900006011020662F404F5F0EF54FEFF12067C5B
:10091000D5F0F6EFCCCDCECF30D50312068EEE0259
:02092000065E71
:10092200EF30E707D2D512068E8002C2D5EF4E4DC8
:100932004C70012275F096EF700EEE20E71C15F058
:1009420012066E30E7F88012EF05F0C313FFEE13C4
:10095200FEED13FDEC13FCEF70EFA2D5E5F013FFF3
:07096200EE92E7FE440122C2
:10096900EB30E711D2D5C3E498F8E499F9E49AFA9F
:10097900E49BFB8002C2D5EB4A494870012275F01D
:1009890096EB7018EA20E72615F0C3EB33FBE83342
:10099900F8E933F9EA33FA30E7EE8012EB05F0C3F0
:1009A90013FBEA13FAE913F9E813F8EB70EFA2D590
:0B09B900E5F013FBEA92E7FA4401228C
:1009C400F5F0C3EF20E706EB30E7148034EB20E7C3
:1009D40004F4D3802C30F10363F00CEB547FFBEF71
:1009E4004E7002FCFDEB4A7002F8F9EC98A8F0F5A1
:1009F400F0ED9942F0EE9A42F0EF547F9B45F08877
:100A0400F082F130F2037001D330F301B3E4332206
:100A140075F001801875F011801375F021800E7542
:100A2400F031800975F051800475F049FCEBC0E0A9
:100A3400EAC0E0E9C0E0E8C0E0EDF9EEFAEFFBE679
:100A4400FF08E6FE08E6FD08E6CCC830F310CCC08B
:100A5400E0CCCDC0E0CDCEC0E0CECFC0E0CFC0E092
:030A6400020B1F63
:100A670075F001801875F011801375F021800E75EF
:100A7700F031800975F051800475F049FCEBC0E056
:100A8700EAC0E0E9C0E0E8C0E0ECF8EEFAEFFBE727
:100A9700FF09E7FE09E7FC09E7CCCDC930F310CC25
:100AA700C0E0CCCDC0E0CDCEC0E0CECFC0E0CFC05F
:040AB700E0020B1F2F
:100ABB0075F004801875F014801375F024800E7592
:100ACB00F034800975F04CFC800375F054EBC0E0FA
:100ADB00EAC0E0E9C0E0E8C0E0ECF8EDF9EEFAEFCF
:100AEB00FBE0FFA3E0FEA3E0FDA3E0FC30F30CEC86
:100AFB00C0E0EDC0E0EEC0E0EFC0E0E58224FDC059
:0A0B0B00E0E58334FFC0E0020B1F99
:0A0B1500E8FB7A80E4F9F80207E338
:100B1F00C0F0E5F0C4540F75F005A47582317583EC
:100B2F000B731207E3801C1207C4801712052C8069
:100B3F00121206A8800D120B158008EF4E6004EFFD
:100B4F00B2E7FFD0F0FB30F010D0E0F8ECF618ED84
:100B5F00F618EEF618EFF6802E30F21DD083D08205
:100B6F00EFF0A3EEF0A3EDF0A3ECF0E58224FDF59A
:100B7F0082E58334FFF583800ED0E0F8ECF218EDB8
:100B8F00F218EEF218EFF230F30CD0E0FFD0E0FEE7
:100B9F00D0E0FDD0E0FCD0E0F8D0E0F9D0E0FAD022
:030BAF00E0CB2276
:060BB200120C19020BB841
:100BB80030E01E20E30CE6FF08E6FE08E6FD08E646
:100BC800FC22E7FF09E7FE09E7FD09E7FC19191907
:100BD8002230E11E20E30CE2FF08E2FE08E2FD08F5
:100BE800E2FC22E3FF09E3FE09E3FD09E3FC19192E
:100BF800192230E20CE0FFA3E0FEA3E0FDA3E0FC35
:100C080022E493FF740193FE740293FD740393FC32
:010C180022B9
:100C1900BB0003740922BB010789828A83740422F9
:0D0C2900BB020789828A83741022740A229C
:060C3600120C19020C3C37
:100C3C0030E01E20E30CEFF608EEF608EDF608ECBB
:100C4C00F622EFF709EEF709EDF709ECF719191988
:100C5C002230E11E20E30CEFF208EEF208EDF20870
:100C6C00ECF222EFF309EEF309EDF309ECF31919A9
:0E0C7C001922EFF0A3EEF0A3EDF0A3ECF022AE
:100C8A00D083D082EFC0E0EEC0E0EDC0E0ECC0E07F
:020C9A00E47301
:100C9C00D083D082D0E0F8D0E0F9D0E0FAD0E0FBFD
:020CAC00E473EF
:0C0CAE00EFF608EEF608EDF608ECF62272
:0C0CBA00EFF709EEF709EDF709ECF7225F
:090CC600E7FB09E7FA09E7F9224E
:0C0CCF00E6FF08E6FE08E6FD08E6FC2251
:0C0CDB00E7FF09E7FE09E7FD09E7FC223E
:0C0CE700E6FB08E6FA08E6F908E6F82249
:0C0CF300EFF0A3EEF0A3EDF0A3ECF02274
:0C0CFF00EBF0A3EAF0A3E9F0A3E8F02278
:0C0D0B00E0FFA3E0FEA3E0FDA3E0FC225B
:0C0D1700E0FBA3E0FAA3E0F9A3E0F8225F
:1010FD0075A88075878075A0FF758925758DF47528
:10110D008BF4758C00758A0075CD0075CC0075CA91
:10111D000075CB00759850D28EC28C9001EEE4F024
:10112D00A3F0900254F0A3F0C20390000AF00490D3
:10113D00000CF0E490000BF0900001F0900000F036
:10114D00900047F0900002F0A3F0A3F0A3F0900000
:10115D0006F0A3F0A3F0A3F09001F4F0A3F0A3F038
:10116D00A3F07826F608F67827E6643C700418E6B6
:10117D00602A7827E625E0244AF582E43400F583D9
:10118D00E4F0A3F0E625E024C4F582E43400F58311
:10119D00E4F0A3F006E61870010680CB7826E4F69D
:1011AD0008F67827E6640C700418E6602A7827E6BE
:1011BD0025E02417F582E43400F583E4F0A3F0E68E
:1011CD0025E0242FF582E43400F583E4F0A3F00646
:1011DD00E61870010680CB7826E4F608F67827E647
:1011ED00640A700418E6602A7827E625E0243EF5A7
:1011FD0082E43401F583E4F0A3F0E625E02454F510
:10120D0082E43401F583E4F0A3F006E618700106DC
:10121D0080CB90013CE4F0A3F0900152F0A3F0904C
:10122D000152F0A3F0900168F0A3F0900170F0A3CB
:10123D00F0900174F0A3F0900178F0A3F09001808C
:10124D00F0A3F090017EF0A3F0900186F0A3F09052
:10125D000188F0A3F0900271F0A3F0900275F0A355
:10126D00F0900279F0A3F090027DF0A3F09002814E
:10127D00F0A3F0900285F0A3F0900289F0A3F09016
:10128D00028BF0A3F0A3F0A3F090028FF0A3F0A3D4
:10129D00F0A3F0900269F0A3F090026DF0A3F0902E
:1012AD00017AF0A3F090017CF0A3F0C202C201D24A
:1012BD0008C20AC207C20D908000E0900256F07875
:1012CD0026E4F608760A7826E60846601690800031
:1012DD00E0FC900256E06C60028008E61618700182
:1012ED001680E318E6084670CEC20E900256E05402
:1012FD0080B48002D20EC200E05440B44002D2004D
:10130D00E0540FF0E0FFF404240F540FFFF0C296E9
:10131D00C297D2BCD2CAD288D2ACD2ADD2A8221238
:10132D0010FD300906C295C2098004D295D209304C
:10133D00041B900257E0FDA3E0FCE024FFF09002B7
:10134D0057E034FFF0EC4D7004C296C20430051B1B
:10135D00900259E0FDA3E0FCE024FFF0900259E07B
:10136D0034FFF0EC4D7004C297C205900187E06424
:10137D00C07008900186E064A86010900181E0645F
:10138D00607006900180E06454700DC2AC90000155
:10139D00E04402F0D2AC800BC2AC900001E05405E9
:1013AD00F0D2AC900187E064C07008900186E064D3
:1013BD00A8601090017FE06460700690017EE0648B
:1013CD0054700DC2AC900000E04402F0D2AC800B22
:1013DD00C2AC900000E05405F0D2AC300A0AC2ACA9
:1013ED00E04404F0D2AC8008C2ACE05403F0D2ACBF
:1013FD00300D14C2AC900001E04401F0900000E00B
:10140D004401F0D2AC8012C2AC900001E05406F061
:10141D00900000E05406F0D2AC300724C2A8C207F9
:10142D0012145090000AE0701512160890000CE08E
:10143D00700C121CB190000BE07003121A6DD2A843
:10144D0002132F785FE4F608F6785DF608F6785EFD
:10145D00E6640C700418E66025785EE625E0242F1E
:10146D00F582E43400F583E0FDA3E0FC0808E62CEA
:10147D00F618E63DF61806E61870010680D0785F7E
:10148D00E6FF08E6FE18E6FD08E6FCEDE4FEFF12B9
:10149D00092DE4F8F97440FAFB1206A81208E07859
:1014AD005FEDF608ECF618E6FD08E6FC122C617807
:1014BD005FEDF608ECF6900171E0C39C900170E0D1
:1014CD009D4003021600C2ACEDF0A3ECF0D2AC7857
:1014DD0065E4F608F67861F608F6785DF608F678B4
:1014ED005EE6640C700418E66053785EE625E02431
:1014FD0017F582E43400F583E0FDA3E0FCEDE4FE96
:10150D00FF12092DE4F8F97A207B411206A87833F1
:10151D007B3C7A8E79FA12052C7869120CAE120F7B
:10152D001D7861120A147869120CCF120D4D786571
:10153D00120A14785E06E61870010680A278611210
:10154D000CCF08120CE71206A8120D23792E7B4240
:10155D007A6578E412052C7869120CAE7861120C5C
:10156D00CFEF4E6003EF5480B2E7701F08120CCF1F
:10157D00EF4E6005EF5480B2E7B2E7700E087C00C5
:10158D007D007EB47F43120A14804A7861120CCF1D
:10159D00EF4E6005EF5480B2E7B2E7700D08120C04
:1015AD00CFEF4E6003EF5480701F7861120CCFEFB8
:1015BD004E6003EF5480B2E7701B08120CCFEF4E54
:1015CD006003EF5480B2E7700C087C007D007E3420
:1015DD007F43120A14C2AC7869120CCFE4F8F97A81
:1015ED00207B4112052C1208E090016EEDF0A3EC6A
:1015FD00F0D2AC900188E4F0A3F022900271E4F0F7
:10160D00A3F090027DF0A3F0900289F0A3F0785D35
:10161D00F6087609785EE6640D700718E670030229
:10162D00172D900047E07D00785E26FC18ED36FD05
:10163D00E4FB7A0CECF8EDF9120139E825E0242FE2
:10164D00F582E43400F583E0FDA3E0FCEDFFECFE54
:10165D0090028AE02EF0900289E03FF0785FEDF67F
:10166D0008ECF67E007F0090028B12048E18E6FDCA
:10167D0008E6FC7E007F0090028F12048E900047DA
:10168D00E07D00181826FC18ED36FDE4FB7A0CEC15
:10169D00F8EDF9120139E825E02417F582E434005C
:1016AD00F583E0FDA3E0FCEDE4FEFF12092DE4F867
:1016BD00F97A207B411206A878337B3C7A8E79FA31
:1016CD0012052C7861120CAE120F1D7865120CAE3E
:1016DD00900271120ABB7865120CCF900275120A36
:1016ED00BB7865120CCF900279120ABB7861120C8F
:1016FD00CF120D4D7865120CAE90027D120ABB789B
:10170D0065120CCF900281120ABB7865120CCF9036
:10171D000285120ABB785E06E618700106021621D4
:10172D00900271120D0B90027D120D171206A81268
:10173D000D23792E7B427A6578E412052C7861129F
:10174D000CAE900271120D0BEF4E6003EF5480B290
:10175D00E7702290027D120D0BEF4E6005EF548065
:10176D00B2E7B2E7700F78617C007D007EB47F43F5
:10177D00120A148051900271120D0BEF4E6005EF9D
:10178D005480B2E7B2E7700F90027D120D0BEF4E51
:10179D006003EF54807022900271120D0BEF4E60BA
:1017AD0003EF5480B2E7701E90027D120D0BEF4EC9
:1017BD006003EF5480B2E7700D78617C007D007E90
:1017CD00347F43120A14900289E0FDA3E090000FCC
:1017DD00CDF0A3CDF0900289E0FDA3E0FC122C61C9
:1017ED00C2AC785DEDF608ECF69000C2EDF0A3EC1E
:1017FD00F07861120CCFE4F8F97A207B4112052CB8
:10180D001208E09000C2E0FFA3E0FE90000CE0257E
:10181D00E024C4F582E43400F583EFF0A3EEF090FC
:10182D00000CE025E0244AF582E43400F583EDF068
:10183D00A3ECF0900048EDF0A3ECF0D2AC2008033F
:10184D000218FEC208C2AC90013CCDF0A3CDF090C1
:10185D00013CE0FDA3E090016ACDF0A3CDF0900036
:10186D0048E0FDA3E090016ECDF0A3CDF0900048CF
:10187D00E0FDA3E0900172CDF0A3CDF0900048E023
:10188D00FDA3E0900176CDF0A3CDF0900048E0FDF2
:10189D00A3E0900182CDF0A3CDF09000C2E0FDA3B6
:1018AD00E0FCEDE4FEFF12092D793D7B3F78717A66
:1018BD00AA12052C1208E0900152EDF0A3ECF09065
:1018CD000168EDF0A3ECF0900170EDF0A3ECF09059
:1018DD000174EDF0A3ECF0900178EDF0A3ECF09035
:1018ED000184EDF0A3ECF09000C2EDF0A3ECF0D28A
:1018FD00AC9000C2E0FDA3E0FC90017DE06C7007B0
:10190D0090017CE06D603A900048E0FDA3E0FC9012
:10191D00017BE06C700590017AE06D701DC3900144
:10192D007FE0946090017EE09454500CA3E004F0AD
:10193D0090017E7003E004F0800790017EE4F0A337
:10194D00F0900048E0FDA3E0FC90017BE06C700797
:10195D0090017AE06D603A9000C2E0FDA3E0FC904A
:10196D00017DE06C700590017CE06D701DC39001F0
:10197D0081E09460900180E09454500CA3E004F059
:10198D009001807003E004F08007900180E4F0A3E3
:10199D00F0900048E0FDA3E0FC90017BE06C700549
:1019AD0090017AE06D70339000C2E0FDA3E0FC90F1
:1019BD00017DE06C700590017CE06D701DC39001A0
:1019CD0087E094C0900186E094A8500CA3E004F049
:1019DD009001867003E004F08007900186E4F0A387
:1019ED00F0900048E0FDA3E090017ACDF0A3CDF09A
:1019FD009000C2E0FDA3E090017CCDF0A3CDF0906E
:101A0D000048E0FDA3E0FCEDE4FEFF12092D783364
:101A1D007B3C7A8E79FA12052C7861120CAE120F7E
:101A2D001D9000C2E0FBA3E0F8CBF9CBEBE4FAFB91
:101A3D0012097E12052C900269120ABB7861120CF4
:101A4D00CF120D4D9000C2E0FBA3E0F8CBF9CBEB2C
:101A5D00E4FAFB12097E12052C90026D120ABB22CC
:101A6D00900279120D0B900285120D171206A81215
:101A7D000D23792E7B427A6578E412052C783C1281
:101A8D000CAE900269120D0B90026D120D1712061D
:101A9D00A8120D23792E7B427A6578E412052C78F5
:101AAD0040120CAE900279120D0BEF4E6003EF5405
:101ABD0080B2E77022900285120D0BEF4E6005EF9C
:101ACD005480B2E7B2E7700F783C7C007D007EB4A5
:101ADD007F43120A148051900279120D0BEF4E6064
:101AED0005EF5480B2E7B2E7700F900285120D0B2F
:101AFD00EF4E6003EF54807022900279120D0BEFC0
:101B0D004E6003EF5480B2E7701E900285120D0BEC
:101B1D00EF4E6003EF5480B2E7700D783C7C007D92
:101B2D00007E347F43120A14900269120D0BEF4EA2
:101B3D006003EF5480B2E7702290026D120D0BEF2F
:101B4D004E6005EF5480B2E7B2E7700F78407C002D
:101B5D007D007EB47F43120A148051900269120DEC
:101B6D000BEF4E6005EF5480B2E7B2E7700F9002B5
:101B7D006D120D0BEF4E6003EF54807022900269D1
:101B8D00120D0BEF4E6003EF5480B2E7701E900202
:101B9D006D120D0BEF4E6003EF5480B2E7700D78B0
:101BAD00407C007D007E347F43120A1490028F1218
:101BBD000D0B120922E4F8F97A167B441206A812CD
:101BCD0008E0122C61C2AC900168EDF0A3ECF07846
:101BDD003AEDF608ECF608120CCFE4F8F97A207B12
:101BED004112052C1208E090016AEDF0A3ECF0789B
:101BFD0040120CCFE4F8F97A207B4112052C120823
:101C0D00E090016CEDF0A3ECF0900178E4F0A3F01E
:101C1D00900176F0A3F0783AF608F6783BE6640A80
:101C2D00700418E66058783BE625E02454F582E40C
:101C3D003401F583E0FDA3E0FC900179E0C39C90B5
:101C4D000178E09D5030E625E0243EF582E4340134
:101C5D00F583E0FDA3E0900176CDF0A3CDF0E62570
:101C6D00E02454F582E43401F583E0FDA3E0900116
:101C7D0078CDF0A3CDF006E618700106809DD2ACAC
:101C8D0090028FE4F0A3F0A3F0A3F0900279F0A3FB
:101C9D00F0900285F0A3F0900269F0A3F090026D30
:101CAD00F0A3F022900275120D0B900281120D1708
:101CBD001206A8120D23792E7B427A6578E412055F
:101CCD002C785F120CAE900275120D0BEF4E600367
:101CDD00EF5480B2E77022900281120D0BEF4E602F
:101CED0005EF5480B2E7B2E7700F785F7C007D009E
:101CFD007EB47F43120A148051900275120D0BEFC2
:101D0D004E6005EF5480B2E7B2E7700F900281127A
:101D1D000D0BEF4E6003EF54807022900275120D83
:101D2D000BEF4E6003EF5480B2E7701E90028112EC
:101D3D000D0BEF4E6003EF5480B2E7700D785F7CB2
:101D4D00007D007E347F43120A1490028B120D0B1E
:101D5D00E4F9FAFB783C120278122C61C2AC9001C6
:101D6D0052EDF0A3ECF0785DEDF608ECF608120CF0
:101D7D00CFE4F8F97A207B4112052C1208E0D2ACA1
:101D8D00900152E0FFA3E0FE90000BE025E024540B
:101D9D00F582E43401F583EFF0A3EEF090000BE053
:101DAD0025E0243EF582E43401F583EDF0A3ECF05B
:101DBD0090013CEDF0A3ECF0C2AC900174E4F0A303
:101DCD00F0900172F0A3F0785DF608F6785EE664A7
:101DDD003C700418E66068785EE625E024C4F58260
:101DED00E43400F583E0FDA3E0FC900175E0C39CB5
:101DFD00900174E09D5030E625E0244AF582E434EC
:101E0D0000F583E0FDA3E0900172CDF0A3CDF0E6E7
:101E1D0025E024C4F582E43400F583E0FDA3E090D1
:101E2D000174CDF0A3CDF0E625E024C4F582E434B1
:101E3D0000F583E4F0A3F006E618700106808DD25C
:101E4D00AC90028BE4F0A3F0A3F0A3F0900275F038
:101E5D00A3F0900281F0A3F0785DF6087608785E25
:101E6D00E6640B700718E67003021F1A90000BE072
:101E7D007D00785E26FC18ED36FDE4FB7A0AECF861
:101E8D00EDF9120139E825E02454F582E43401F529
:101E9D0083E0FDA3E0FC7E007F0090028B12048E98
:101EAD0090000BE07D00785E26FC18ED36FDE4FB1E
:101EBD007A0AECF8EDF9120139E825E0243EF582B5
:101ECD00E43401F583E0FDA3E0FCEDE4FEFF12092F
:101EDD002DE4F8F97A207B411206A878337B3C7A01
:101EED008E79FA12052C785F120CAE120F1D90022E
:101EFD0075120ABB785F120CCF120D4D9002811234
:101F0D000ABB785E06E618700106021E6B9002751C
:101F1D00120D0B900281120D171206A8120D2379C6
:101F2D002E7B427A6578E412052C785F120CAE9008
:101F3D000275120D0BEF4E6003EF5480B2E7702265
:101F4D00900281120D0BEF4E6005EF5480B2E7B297
:101F5D00E7700F785F7C007D007EB47F43120A141A
:101F6D008051900275120D0BEF4E6005EF5480B24B
:101F7D00E7B2E7700F900281120D0BEF4E6003EF89
:101F8D0054807022900275120D0BEF4E6003EF54CA
:101F9D0080B2E7701E900281120D0BEF4E6003EFC1
:101FAD005480B2E7700D785F7C007D007E347F43F6
:101FBD00120A14C2AC90028B120D0B120922E4F816
:101FCD00F97440FAFB1206A81208E0900184EDF0B6
:101FDD00A3ECF0785F120CCFE4F8F97A207B411274
:101FED00052C1208E0900182EDF0A3ECF0D2AC903C
:101FFD00028BE4F0A3F0A3F0A3F0900275F0A3F030
:10200D00900281F0A3F02232C0E0C082C083C0D024
:10201D00C2CA75CD0075CC00D3900189E09414909F
:10202D000188E094004004D20D800EC20DA3E0049F
:10203D00F09001887003E004F075CA0075CB00D2F2
:10204D00CAC2CFD0D0D083D082D0E032C0E0C0F0B1
:10205D00C082C083C0D0E8C0E0E9C0E0EAC0E0EBD8
:10206D00C0E0ECC0E0EDC0E0EEC0E0EFC0E09000FD
:10207D000AE0FC04F0ECB4031FE4F0C2AC90000CD9
:10208D00E004F0B43C10E4F090000BE0FF0FEF75AE
:10209D00F00A84E5F0F0D2ACC2B57822E4F608F689
:1020AD00C37823E6940F18E6940050170806E61837
:1020BD0070010608E616187001160806E61870017C
:1020CD000680DD74FF90C000F0E4F608F6C37823B7
:1020DD00E6940A18E6940050170806E618700106F3
:1020ED0008E616187001160806E61870010680DD60
:1020FD00E4F608F630B31A7822E6FD08E6FC06E6AB
:10210D0018700106D3EC9464ED94004002800280B7
:10211D00E3D37823E6946418E694004004D20A8051
:10212D0002C20AC2AC90C001E0C4540F7D00FC8D08
:10213D0082E07F007E0425E0CF33CFDEF9FEEC4E4A
:10214D00FCED4F90000DF0A3CCF0CCD2ACD2B5C2CB
:10215D008CE58C7D007C00FDECED3395E0FEFF9071
:10216D000002120CF3E58AFC7D007E007F009000DA
:10217D00021204C5D28C900006120D0B90000212B3
:10218D000D1774071202D8701EE8FCE9FDC390000C
:10219D0009E0FEEC9EFC900008E0FEED9E90001123
:1021AD00F0A3CCF0CC801CE8FCE9FDC3900009E065
:1021BD00FEEC9EFC900008E0FEED9E900011F0A359
:1021CD00CCF0CC900006120CFF90025DE4F0A3F071
:1021DD00900261F0A3F0C2067822F608F67823E6A5
:1021ED006410700718E670030223309002617C00C2
:1021FD007D007EB47F41120ABB7823E625E0903541
:10220D000FFB93CB049390025FCBF0A3CBF0FA902E
:10221D00000EE0C39A90000DE09B4003022318E0EE
:10222D00FBA3E0FA90025EE0D39A90025DE09B4042
:10223D0003022318D206E4F8F97AB47BC11207E33E
:10224D00EE4F6004EF6480FF900261120D171207CC
:10225D00E390025FE0FBA3E0C390025EF9E0C99951
:10226D00FA90025DE0F9EB99FBEAF8CBF9CBEBE4E0
:10227D00FAFB12097E1206A890000DE0FBA3E0F810
:10228D00CBF9CBEBE4FAFB12097E900265120CF34D
:10229D0012052CEFC0E0EEC0E0EDC0E0ECC0E09028
:1022AD000261120D0BE4F8F97AB47BC11207E3D089
:1022BD00E0F8D0E0F9D0E0FAD0E0FB1207E39002AD
:1022CD005DE0FBA3E0F8CBF9CBEBE4FAFB12097E62
:1022DD00EFC0E0EEC0E0EDC0E0ECC0E090026512B2
:1022ED000D0B12052CD0E0F8D0E0F9D0E0FAD0E0DB
:1022FD00FB1207B8E4F8F97A207B4112052C12087D
:10230D00E0900013EDF0A3ECF0801890025FE0FD7B
:10231D00A3E090025DCDF0A3CDF006E618700106A6
:10232D000221EA200609900013740EF0A304F09028
:10233D000047E0FF0FEF75F00C84E5F0FC90001303
:10234D00E0FFA3E0FEEC900047F025E02417F582B6
:10235D00E43400F583EFF0A3EEF0900011E0FFA35D
:10236D00E0FEEC25E0242FF582E43400F583EFF058
:10237D00A3EEF0D207D0E0FFD0E0FED0E0FDD0E03C
:10238D00FCD0E0FBD0E0FAD0E0F9D0E0F8D0D0D02E
:10239D0083D082D0F0D0E032C0E0C082C083C0D004
:1023AD00E8C0E0E9C0E0EAC0E0EBC0E0ECC0E0ED81
:1023BD00C0E0EEC0E0EFC0E0209803022C02C2980E
:1023CD00D204D2969002577408F0A3E4F0E59990E8
:1023DD0001EEFEE0FDA3E0FCE004F09001EE7003E1
:1023ED00E004F0EC248AF582E43401F583EEF090FC
:1023FD0001EFE014248AF582E43401F583E0B4FEA4
:10240D00028003022BEF9001EFE024FE248AF58277
:10241D00E43401F583E0046003022BEF9001EFE05B
:10242D0024F6248AF582E43401F583E00460030286
:10243D002BEF9001EFE024F5248AF582E43401F5C9
:10244D0083E0046003022BEF782576001876097877
:10245D0024E66403601B9001EFE0C396248AF582A5
:10246D00E43401F583E07925FCE76C08F618168055
:10247D00DE9001EFE024FD248AF582E43401F5833A
:10248D00E008666003022BE89001EFE024F8248A4F
:10249D00F582E43401F583E0FC900256E06C6003B4
:1024AD000228249001EFE024F7248AF582E4340118
:1024BD00F583E0B44D0280030225709001EEE4F047
:1024CD00A3F014900200F09001FFF0744D9001FE06
:1024DD00F0E49001FDF09001FCF0900256E09001C7
:1024ED00FBF0900048E0FDA3E0ED7D009001FAF0D7
:1024FD00900049E09001F9F0ED9001F8F09001F7AE
:10250D00F09001F6F09001F5F090016EE0FDA3E082
:10251D00ED7D009001F4F090016FE09001F3F0ED8E
:10252D009001F2F07825760E7825E664026015E6C6
:10253D0024F0F582E43401F583E09001F2FCE06CC7
:10254D00F01680E474FF9001F1F0149001F0F0901A
:10255D000254E4F0A37410F0D203900200E0F59958
:10256D00022824B44F0280030226499001EEE4F0C4
:10257D00A3F014900200F09001FFF0744F9001FE53
:10258D00F0E49001FDF09001FCF0900256E0900116
:10259D00FBF090013CE0FDA3E0ED7D009001FAF031
:1025AD0090013DE09001F9F0900182E0FDA3E0ED96
:1025BD007D009001F8F0900183E09001F7F0ED902F
:1025CD0001F6F09001F5F0300E1890016EE0FDA3CC
:1025DD00E0ED7D009001F4F090016FE09001F3F0DB
:1025ED008016900172E0FDA3E0ED7D009001F4F006
:1025FD00900173E09001F3F0ED9001F2F078257603
:10260D000E7825E664026015E624F0F582E43401C7
:10261D00F583E09001F2FCE06CF01680E474FF901D
:10262D0001F1F0149001F0F0900254E4F0A3741055
:10263D00F0D203900200E0F599022824B4540280F0
:10264D00030227149001EEE4F0A3F014900200F0C1
:10265D009001FFF074549001FEF0E49001FDF090B4
:10266D0001FCF0900256E09001FBF090016CE0FD52
:10267D00A3E0ED7D009001FAF090016DE09001F97D
:10268D00F0ED9001F8F09001F7F09001F6F0900167
:10269D00F5F0300E1890016EE0FDA3E0ED7D009099
:1026AD0001F4F090016FE09001F3F0801690017647
:1026BD00E0FDA3E0ED7D009001F4F0900177E09056
:1026CD0001F3F0ED9001F2F07825760E7825E664B1
:1026DD00026015E624F0F582E43401F583E0900103
:1026ED00F2FCE06CF01680E474FF9001F1F01490B0
:1026FD0001F0F0900254E4F0A37410F0D2039002B4
:10270D0000E0F599022824B4520280030227DE90DE
:10271D0001EEE4F0A3F014900200F09001FFF074CC
:10272D00529001FEF0E49001FDF09001FCF090025A
:10273D0056E09001FBF090000DE0FDA3E0ED7D0073
:10274D009001FAF090000EE09001F9F0900048E051
:10275D00FDA3E0ED7D009001F8F0900049E09001BF
:10276D00F7F090013CE0FDA3E0ED7D009001F6F067
:10277D0090013DE09001F5F090016EE0FDA3E0EDDC
:10278D007D009001F4F090016FE09001F3F0ED9079
:10279D0001F2F07825760E7825E664026015E624C0
:1027AD00F0F582E43401F583E09001F2FCE06CF089
:1027BD001680E474FF9001F1F0149001F0F0900296
:1027CD0054E4F0A37410F0D203900200E0F5998068
:1027DD0046B440439001EEE0FFA3E0FE24FB248AC3
:1027ED00F582E43401F583E07D007C00CEFACEFD68
:1027FD00EA24FC248AF582E43401F583E07B00FAB7
:10280D00EC4AFCED90016EF0A3CCF0CCEBFEFF900A
:10281D0001EEF0A3F080009001EFE024F8248AF59A
:10282D0082E43401F583E07D00FC900256E07F00E8
:10283D0004FE70010FEC6E7002ED6F6003022BB0A1
:10284D009001EFE024F7248AF582E43401F583E06A
:10285D00B44D02800302290F9001EEE4F0A3F014B1
:10286D00900200F09001FFF0744D9001FEF0E490A5
:10287D0001FDF0049001FCF0900256E0049001FB84
:10288D00F09000C2E0FDA3E0ED7D009001FAF09024
:10289D0000C3E09001F9F0ED9001F8F09001F7F030
:1028AD009001F6F09001F5F0900170E0FDA3E0EDE0
:1028BD007D009001F4F0900171E09001F3F0ED9046
:1028CD0001F2F07825760E7825E664026015E6248F
:1028DD00F0F582E43401F583E09001F2FCE06CF058
:1028ED001680E474FF9001F1F0149001F0F0900265
:1028FD0054E4F0A37410F0D203900200E0F59902B5
:10290D002BAEB44F0280030229EA9001EEE4F0A34E
:10291D00F014900200F09001FFF0744F9001FEF062
:10292D00E49001FDF0049001FCF0900256E004905B
:10293D0001FBF0900152E0FDA3E0ED7D009001FA66
:10294D00F0900153E09001F9F0900184E0FDA3E0D7
:10295D00ED7D009001F8F0900185E09001F7F0ED2C
:10296D009001F6F09001F5F0300E18900170E0FD39
:10297D00A3E0ED7D009001F4F0900171E09001F382
:10298D00F08016900174E0FDA3E0ED7D009001F460
:10299D00F0900175E09001F3F0ED9001F2F07825E3
:1029AD00760E7825E664026015E624F0F582E434AF
:1029BD0001F583E09001F2FCE06CF01680E474FF09
:1029CD009001F1F0149001F0F0900254E4F0A37432
:1029DD0010F0D203900200E0F599022BAEB4540230
:1029ED008003022AB79001EEE4F0A3F014900200E8
:1029FD00F09001FFF074549001FEF0E49001FDF0B1
:102A0D00049001FCF0900256E0049001FBF090015F
:102A1D0068E0FDA3E0ED7D009001FAF0900169E022
:102A2D009001F9F0ED9001F8F09001F7F09001F6BA
:102A3D00F09001F5F0300E18900170E0FDA3E0ED7F
:102A4D007D009001F4F0900171E09001F3F080169B
:102A5D00900178E0FDA3E0ED7D009001F4F0900190
:102A6D0079E09001F3F0ED9001F2F07825760E7893
:102A7D0025E664026015E624F0F582E43401F58361
:102A8D00E09001F2FCE06CF01680E474FF9001F12F
:102A9D00F0149001F0F0900254E4F0A37410F0D211
:102AAD0003900200E0F599022BAEB45202800302AE
:102ABD002B689001EEE4F0A3F014900200F0900169
:102ACD00FFF074529001FEF0E49001FDF0049001CE
:102ADD00FCF0900256E0049001FBF090000FE0FD39
:102AED00A3E0ED7D009001FAF0900010E09001F967
:102AFD00F0ED9001F8F09001F7F09001F6F09001F3
:102B0D00F5F0900170E0FDA3E0ED7D009001F4F093
:102B1D00900171E09001F3F0ED9001F2F0782576DF
:102B2D000E7825E664026015E624F0F582E43401A2
:102B3D00F583E09001F2FCE06CF01680E474FF90F8
:102B4D0001F1F0149001F0F0900254E4F0A3741030
:102B5D00F0D203900200E0F5998046B44043900115
:102B6D00EEE0FFA3E0FE24FB248AF582E43401F5B8
:102B7D0083E07D007C00CEFACEFDEA24FC248AF5AC
:102B8D0082E43401F583E07B00FAEC4AFCED900120
:102B9D0070F0A3CCF0CCEBFEFF9001EEF0A3F08033
:102BAD000080389001EFE024F7248AF582E43401A7
:102BBD00F583E0B449259001EEE4F0A3F0900048D0
:102BCD00E0FDA3E090016ECDF0A3CDF09000C2E04A
:102BDD00FDA3E0900170CDF0A3CDF09001EEE4F0F7
:102BED00A3F0D39001EFE0945A9001EEE0940040F1
:102BFD0004E4F0A3F030993BC299300336900254AF
:102C0D00E0FDA3E0FCE024FFF0900254E034FFF07F
:102C1D00EC4D601DA3E024F0F582E43401F583E072
:102C2D00F599D205D2979002597408F0A3E4F0807B
:102C3D0002C203D0E0FFD0E0FED0E0FDD0E0FCD03A
:102C4D00E0FBD0E0FAD0E0F9D0E0F8D0D0D083D0DE
:102C5D0082D0E0327836EDF608ECF630000CFC123E
:102C6D002C837834EDF608ECF622FC122F807834A4
:102C7D00EDF608ECF6227832EDF608ECF64D700C18
:102C8D00E4FCFD18EDF608ECF6022F69903530E402
:102C9D0093C39C90352FE4939D404EE493FD7401B6
:102CAD0093FCEDE4FEFF12092DE4F8F97440FAFBF4
:102CBD0012069C7832E6FB08E6F8CBF9CBEBE4FA8A
:102CCD00FB12097EC8C0E0782E120CAED0E0C812FF
:102CDD00052CE4F8F97A207B4112052C1208E078D6
:102CED0032EDF608ECF6022F69A3E493C39C903500
:102CFD002FE4939D4003022DE0903532E493C39C65
:102D0D00903531E4939D5003022DE0E493FD740161
:102D1D0093FC90352FE493FF7401937826CDF6CD77
:102D2D0008CCF6CC08CFF6CF08F6FEC3EC9EFCED32
:102D3D009FFDECF8CDF9CDEDE4FAFB12097EE4FC34
:102D4D00FDFE7F401206A87832E6FB08E6F8CBF9C7
:102D5D00CBEBE4FAFB12097EC8C0E0782E120CAE64
:102D6D00D0E0C812052C7828E6FB08E6F8CBF9CBA5
:102D7D00EBE4FAFB12097EEFC0E0EEC0E0EDC0E03F
:102D8D00ECC0E0EBC0E0EAC0E0E9C0E0E8C0E0780C
:102D9D002E120CCFD0E0F8D0E0F9D0E0FAD0E0FB65
:102DAD0012052CD0E0F8D0E0F9D0E0FAD0E0FB121B
:102DBD0007B8E4F8F97440FAFB1207E3E4F8F97A7E
:102DCD00207B4112052C1208E07832EDF608ECF666
:102DDD00022F69903531E493FD7401937828CDF677
:102DED00CD08F6782CE4F6087605782AF6087602F2
:102DFD00782BE66410700718E67003022F69782DA2
:102E0D00E62405F618E63400F618E625E090352F91
:102E1D00FD93CD04937826CDF6CD08F67833D39671
:102E2D00FCED18965003022F52E6FD08E67829C3F3
:102E3D0096FCED18965003022F52782CE6FF08E60B
:102E4D00FEFCCFFDCFEFE4FEFF12092DE4F8F97A79
:102E5D00A07BC01207E3EE4F6004EF6480FF782C77
:102E6D00E6FB08E6F8CBF9CBEBE4FAFB12097E1290
:102E7D0007E3C378297927E796FA1819E796FBEA4D
:102E8D00F8CBF9CBEBE4FAFB12097E1206A87832E7
:102E9D00E6FB08E6F8CBF9CBEBE4FAFB12097EC8AA
:102EAD00C0E0782E120CAED0E0C812052C782CE6BE
:102EBD00FB08E6F8CBF9CBEBE4FAFB12097EEFC089
:102ECD00E0EEC0E0EDC0E0ECC0E0E4FCFD7EA07FF4
:102EDD00C01207E3D0E0F8D0E0F9D0E0FAD0E0FB83
:102EED001207E37828E6FB08E6F8CBF9CBEBE4FA1A
:102EFD00FB12097EEFC0E0EEC0E0EDC0E0ECC0E0FB
:102F0D00EBC0E0EAC0E0E9C0E0E8C0E0782E120CCA
:102F1D00CFD0E0F8D0E0F9D0E0FAD0E0FB12052CEC
:102F2D00D0E0F8D0E0F9D0E0FAD0E0FB1207B8E439
:102F3D00F8F97A207B4112052C1208E07832EDF673
:102F4D0008ECF680177826E6FD08E608CDF6CD08E4
:102F5D00F6080806E618700106022DFDD37833E653
:102F6D00945718E6940240057D027C5822E6FD0830
:102F7D00E6FC227832EDF608ECF64D700CE4FCFD23
:102F8D0018EDF608ECF602326E903530E493C39CE2
:102F9D0090352FE4939D404FE493FD740193FCED28
:102FAD00E4FEFF12092D7B40785279B87ABA1206E9
:102FBD009C7832E6FB08E6F8CBF9CBEBE4FAFB1292
:102FCD00097EC8C0E0782E120CAED0E0C812052CD8
:102FDD00E4F8F97A207B4112052C1208E07832EDE5
:102FED00F608ECF602326EA3E493C39C90352FE401
:102FFD00939D40030230E1903532E493C39C9035AC
:10300D0031E4939D50030230E1E493FD740193FC90
:10301D0090352FE493FF7401937826CDF6CD08CC2F
:10302D00F6CC08CFF6CF08F6FEC3EC9EFCED9FFD67
:10303D00ECF8CDF9CDEDE4FAFB12097E7F407E78F8
:10304D007CC37DF51206A87832E6FB08E6F8CBF9CD
:10305D00CBEBE4FAFB12097EC8C0E0782E120CAE61
:10306D00D0E0C812052C7828E6FB08E6F8CBF9CBA2
:10307D00EBE4FAFB12097EEFC0E0EEC0E0EDC0E03C
:10308D00ECC0E0EBC0E0EAC0E0E9C0E0E8C0E07809
:10309D002E120CCFD0E0F8D0E0F9D0E0FAD0E0FB62
:1030AD0012052CD0E0F8D0E0F9D0E0FAD0E0FB1218
:1030BD0007B87B40785279B87ABA1207E3E4F8F989
:1030CD007A207B4112052C1208E07832EDF608ECDF
:1030DD00F602326E903531E493FD7401937828CD6C
:1030ED00F6CD08F6782CE4F6087609782AF60876F7
:1030FD0002782BE66410700718E6700302326E78C2
:10310D002DE62409F618E63400F618E625E090358C
:10311D002FFD93CD04937826CDF6CD08F67833D3D5
:10312D0096FCED18965003023257E6FD08E6782915
:10313D00C396FCED18965003023257782CE6FF0823
:10314D00E6FEFCCFFDCFEFE4FEFF12092D7A1B74D6
:10315D0099F904F87BC11207E3EE4F6004EF648028
:10316D00FF782CE6FB08E6F8CBF9CBEBE4FAFB1283
:10317D00097E1207E3C378297927E796FA1819E72C
:10318D0096FBEAF8CBF9CBEBE4FAFB12097E1206BB
:10319D00A87832E6FB08E6F8CBF9CBEBE4FAFB12A4
:1031AD00097EC8C0E0782E120CAED0E0C812052CF6
:1031BD00782CE6FB08E6F8CBF9CBEBE4FAFB120929
:1031CD007EEFC0E0EEC0E0EDC0E0ECC0E07E1B7431
:1031DD0099FD04FC7FC11207E3D0E0F8D0E0F9D0EF
:1031ED00E0FAD0E0FB1207E37828E6FB08E6F8CB1F
:1031FD00F9CBEBE4FAFB12097EEFC0E0EEC0E0ED97
:10320D00C0E0ECC0E0EBC0E0EAC0E0E9C0E0E8C03F
:10321D00E0782E120CCFD0E0F8D0E0F9D0E0FAD063
:10322D00E0FB12052CD0E0F8D0E0F9D0E0FAD0E0C8
:10323D00FB1207B8E4F8F97A207B4112052C12082D
:10324D00E07832EDF608ECF680177826E6FD08E614
:10325D0008CDF6CD08F6080806E61870010602300E
:10326D00FED37833E694AF18E6940440057D047CD4
:08327D00B022E6FD08E6FC2288
:103285002F202F2F2F202F2F2F2F2F2F2F2F2F2F67
:103295002F2F2F2F2F2F2F2F2F2F2F2F2F2F2F2F39
:1032A5002F2F2F2F2F2F2F2F2F2F2F2F2F2F2F2F29
:1032B5002F2F2F2F2F202F2F2F202F000000000022
:1032C500002F202F2F2F202F2F2F2F2F2F2F2F2F56
:1032D5002F2F2F2F2F2F2F2F2F2F2F2F2F2F2F2FF9
:1032E5002F2F2F2F2F2F2F2F2F2F2F2F2F2F2F2FE9
:1032F5002F2F2F2F2F2F202F2F2F202F00000000B3
:1033050000002F202F2F2F202F2F2F20202020208F
:1033150020202057696E642053706565642026203F
:10332500446972656374696F6E20426F61726420CF
:10333500202020202F2F2F202F2F2F202F0000007F
:103345000000002F202F2F2F202F2F2F202020206F
:103355002020202020202020202020202020202068
:10336500202020202847656E6572616C2920202069
:1033750020202020202F2F2F202F2F2F202F00001F
:10338500000000002F202F2F2F202F2F2F2020204F
:10339500202020204A494E59414E472020494E447D
:1033A5005553545249414C2E2C434F204C544420E4
:1033B5002020202020202F2F2F202F2F2F202F00BF
:1033C50000000000002F202F2F2F202F2F2F20202F
:1033D500202020202050726F6772616D2042792075
:1033E500204861652D73756B2E204A494E2020209B
:1033F500202020202020202F2F2F202F2F2F202F5F
:103405000000000000002F202F2F2F202F2F2F200E
:10341500202020205374617274203A2020313939DC
:10342500352E31322E20313720202020202020201B
:1034350020202020202020202F2F2F202F2F2F202D
:103445002F0000000000002F202F2F2F202F2F2FBF
:1034550020202020202020456E64203A202031396C
:1034650039362E20342E2020332020566572203305
:103475002E30202020202020202F2F2F202F2F2FCF
:10348500202F0000000000002F202F2F2F202F2F8E
:103495002F2F2F2F2F2F2F2F2F2F2F2F2F2F2F2F37
:1034A5002F2F2F2F2F2F2F2F2F2F2F2F2F2F2F2F27
:1034B5002F2F2F2F2F2F2F2F2F2F2F2F2F202F2F26
:1034C5002F202F0000000000002F202F2F2F202F4E
:1034D5002F2F2F2F2F2F2F2F2F2F2F2F2F2F2F2FF7
:1034E5002F2F2F2F2F2F2F2F2F2F2F2F2F2F2F2FE7
:1034F5002F2F2F2F2F2F2F2F2F2F2F2F2F2F202FE6
:103505002F2F202F00000000000000FE01FD02FB10
:1035150003FA04F805F606F507F308F109F00AEED3
:103525000BED0CEB0DE90EE80FE6002600480098C0
:1035350000E3012F017E01CC0220027302C20311B8
:0A354500036003B003FE044D049D73
:030003000220597F
:03000B00022014BC
:030023000223A510
:03002B000220159B
:00000001FF
:00000001FF
