:0200000080245A
:0200030080215A
:02000B008185ED
:0200130080115A
:02001B0080095A
:100023000204E875A88075816075D00075878074B7
:10003300007808F608B860FBC2B7C297C296C2B38D
:10004300C2B4C2B5C2B27590FF00E590F403547F09
:10005300F525D2B27A0E7B09EB120365E88501041C
:10006300850200F608ECF6088500021BBB00E912C6
:1000730005837013750A04750B007522FA7523FF47
:100083007524E8D201803EE51A540790065F93F584
:1000930024E518F522240250037522FD85122685D6
:1000A3001727E515540F60DFF50A851328851923F3
:1000B300C201E51630E708D202750B000200F2F523
:1000C3000BF52DC202785079077A01C205EAB50B08
:1000D3000674BFD2058011B50A06743FD2058008A5
:1000E300300504743F8001E4F6080AD9E0800E90DD
:1000F30006187805795AE493F7A309D8F9752E06FB
:10010300752F6475892175985085228C85238A857E
:10011300248D85248BD28CD28ED2A9D2ACD2BCD2E0
:10012300AFB2B112027B12012E80F62004012275B8
:100133002E06752F64D206C204E529B40203020118
:100143007BB4070302017B30020CB400030201C03D
:10015300B4040302020AA82AA92B1203BC784FE5B0
:100163000A28F87907C2A9B84F028009E71205D215
:10017300F6181980F0020232AA2AAB2BC2038502B9
:1001830000EBC394E8F9E89403F8500B7400C399A7
:10019300F9740098F8D2031203BC784FE50A28F8E3
:1001A3007907C2A9B84F028009E71205D2F61819D8
:1001B30080F0D2A9300303755040020232A82AA965
:1001C3002B7A007B717C00E9C39BE89A400BEB24FC
:1001D300E1FBEA3400FA0C80EEEC75F003A4900620
:1001E3002C2582F582E5833400F583E493FDA3E4B3
:1001F30093FEA3E493FF7850ED1205D9EE1205D9CF
:10020300EF1205D9020232A82AA92BE44849700843
:100213007D047E057F0580067D067E047F00785081
:10022300ED1205D9EE1205D9EF1205D9020232E516
:100233002C30E705750B008003852D0B547F60047C
:10024300D2018002C20120022C78017950E50BB55E
:1002530000028018E50AB500028011E7B43F06E406
:10026300F7090880E8B44004090880E1744F250BBE
:10027300F8E64480F6D2A922150DE50D7021150C80
:10028300E50C701B750C7F750DFFB200152FE52F64
:10029300700D152EE52E7007300604C2AF41A02263
:1002A300C2B700C29700C29600D2B7C0007800D888
:1002B300FED8FED8FED0001203B6D2961203B6C201
:1002C300961203B61203B6D2961203B61203B6C23F
:1002D300961203B61203B61203B61203B600C2B7E0
:1002E3000000C297C296D2B71203B6D2961203B6D3
:1002F300C2961203B6D2961203B63333C000780601
:100303003392961203B6D8F8D000E979083392965F
:100313001203B6D9F8E878083392961203B6D8F8E0
:1003230000C2B700D2B700D295003095FD00C2B726
:1003330000C297C296D2B71203B6D2961203B6C2C0
:10034300961203B61203B6C2961203B61203B6C2CE
:10035300961203B61203B61203B61203B600C2B75F
:100363000022C2B7C296C29700D2B71203B6D29682
:100373001203B6D2961203B6C2961203B63333787B
:10038300063392961203B6D8F879081203B6D295BB
:1003930000A29533D9F5F978081203B6D29500A2D5
:1003A3009533D8F5F8C2B790FF00A3E5834582B42F
:1003B30000F822D29700C29722E4FFFEFDFCFBFA6D
:1003C300E975F06484FDC5F075F00A84FEAFF0E8CA
:1003D300700281725401600CED2402FDEE2405FECF
:1003E300EF2406FFE85402600CED2405FDEE240122
:1003F300FEEF2402FFE85404600CEC2401FCEE241D
:1004030002FEEF2404FFE85408600CEC2402FCEE27
:100413002404FEEF2408FFE85410600CEC2404FCD1
:10042300EE2409FEEF2406FFE854206010EC2408B4
:10043300FCED2401FDEE2409FEEF2402FFE8544005
:100443006014EB2401FBEC2406FCED2403FDEE24F5
:1004530008FEEF2404FFE854806014EB2403FBEC54
:100463002402FCED2407FDEE2406FEEF2408FF78AA
:10047300077906E675F00A84C5F0F618E625F0D983
:10048300F322C0D0C0E0C00074001205AB0509E53B
:100493000AB50903750900C3A80953000774FF339C
:1004A300B80002800418D380F6F8E50920E30BE8CE
:1004B3001205B874FF1205C58009E81205C574FF5B
:1004C3001205B8E5092450F8E6300105300002545E
:1004D300801205ABC28C85228C85238AD28CD000F6
:1004E300D0E0D0D032C0D0C0E0C000C001C002C054
:1004F30003C0F0109811C299D0F0D003D002D001FC
:10050300D000D0E0D0D032780F7911E618F6080881
:10051300D9F9E59918F612058360DD120555120520
:100523002680D5E511B45029E514B525247A0E7B30
:1005330009850200850301E6FA08E6FB08EAC8FA22
:10054300EBC9FBC2AF51A3D2AF1BBB00E4C2AF8068
:10055300FE22E511B52628B450028023E514B52800
:100563001E85132975F002E5275403A42415F8E624
:10057300FA08E6FB85022A85032B85122CD2042276
:10058300E51FB4FE20E51EB4FF1BE50FB4FF16E51F
:1005930010B4FF11E47811790C6608D9FCF9E6B5BB
:1005A300010374FF22740022300201F4F590D2B3E8
:1005B3000000C2B322300201F4F590D2B40000C2AD
:1005C300B422300201F4F590D2B50000C2B5225432
:1005D3000F9005F4932275F005A49006042582F587
:1005E30082E5833400F5837905E493F608A3D9F90A
:1005F300223F065B4F666D7D077F6F407C395E79D6
:10060300717F0408107F7F494949413F403E403F85
:1006130026494949323E4141413E7F0909090100CA
:1006230000000000000000000006060000000106B4
:100633000001010001060601010301060301030392
:10064300010606030303020603020203020606026F
:1006530002000206000200000206060040A0D0E8E5
:04066300F4FDE8E8D2
:00000001FF
