:040EBC002A61001097
:040EC00028450006BB
:040EC4001B67005058
:040EC8001E45001AA9
:0300000002002ECD
:10002E0075812B782B7600D8FC900D1BAE83AF829A
:10003E0090007412006C6005E4F0A380F69000CA84
:10004E001200759000CE1200759000D2120093909F
:10005E0000D812009375D00012372C0200DEEF6527
:10006E00827003EE658322E493F8740193F97402AF
:10007E0093FE740393F5828E83E869700122E493F4
:10008E00F6A30880F4E493FC740193FD740293FECE
:10009E00740393FF740493F8740593F582888312A6
:1000AE00006C700122E493A3A883A9828C838D82B5
:1000BE00F0A3AC83AD828883898280E32C2C0EB3AF
:1000CE002C2C0EB30D1B0EBC0EB30D240ECC0ECC71
:0200DE0080FEA2
:100ECC00900016120E7DEF4E6005EF5480B2E7B223
:100EDC00E7700412121022EE4F6004EF6480FF12D0
:0B0EEC001210EE4F6004EF6480FF2244
:100EF700900039120E7DEF4E6003EF5480B2E77019
:100F07000EEE4F6004EF6480FF900039120E7D9063
:0B0F17000037E4F0A304F012129C224B
:0637A00001007401084362
:030EB300010074C7
:100F2200900054120E6B900001120B3EEAFDE9C3D1
:100F3200900059FEE0CE9EFC900058E0FEED9ED35C
:100F4200FDEC9404ED648094804038900054120EBD
:100F520089900001120B3E900057120E89900051A9
:100F6200120E74A3120E92900001120D709000578F
:100F7200120E89E4120CED900051120E92900001B3
:100F8200120D7622900063EDF0A3ECF02404FCE451
:100F92003DFD9037A4E493FF740193C3900D1DFAB5
:100FA200E0CA9AFE900D1CE0FAEF9AFFECD39EED98
:100FB2009F505B900D1B120E897401120CED900074
:100FC20064E02404FA900063E03400C0E090006022
:100FD200120E6BD0E0CAFDCAFE900D1DE02DF0FD91
:100FE200900D1CE03EF0FE900D1BE0FF90006012A1
:100FF2000E92900001120D70900D1B120E8990003E
:1010020064E0C3CD9DFD900063E0CE9EFE2290374A
:10101200A0120E5090005A120E6B90005BE0FDA3DE
:10102200E0FC900D1DE0D39C900D1CE09D5003024E
:1010320010CC90005A120E89900060120E6B120AA8
:10104200957072900001120B3EEAFDE9C390005CBC
:10105200FEE0CE9EFC90005BE0FEED9EFDEC24FCEB
:10106200FCED34FFFD900064E0D39C900063E09DB2
:10107200504390005AE0FFA3E0A3E02404FDEE34C5
:1010820000FE900060120E927401120CDF90005D5F
:10109200120E6B900064E02DFD900063E03EFE9026
:1010A2000057120E6BE9FDEAFEEBFF120F229000D1
:1010B2005D120E8922900060120E89900001120BBF
:0F10C2003E90005A120E7402101CE4FDFEFF2235
:1010D100900006120E7D90000E120E7DEF4E600301
:1010E100EF5480B2E77006900006120942900006A4
:1010F100120E9B7A187B4B7880799674031208D86C
:10110100701190000E120E9BA3120E92120DD8E4D4
:10111100FEFF2290000E120E9B1207F4120836A356
:10112100120E92120DD8120BD8EE4F6004EF6480AC
:0B113100FF90000E120EA71206F7221E
:10113C0090000E120E7D120438900006120E7D796E
:10114C003A7B417A8178A812044079367B437876D1
:10115C007A861206F7900006120EA7120440792028
:10116C007B447A9078F01206F7900006120EA712C4
:10117C00044078017B44798D7ADE1206F7900006E4
:10118C00120EA712044079327B44784D7A60120615
:10119C00F7A3120E7D900006120E9B7B427A6B79A0
:1011AC00D378F01206F7900006120EA71204407ABC
:1011BC000679107B4478FC1206F7900006120EA7F5
:1011CC0012044078157B4479597AD01206F79000B6
:1011DC0006120EA71204407A017B45785C79F51251
:1011EC0006F7900006120EA712044079327B447861
:1011FC004D7A601206F7A312093790000E120EA753
:10120C0012044022900012120E7D79137B3E78CD91
:10121C007AD4740B1208D8700412113C227A1A7BFF
:10122C0040787A798274071208D87021E4F8F97B37
:10123C003F7A801205B012113CEE4F6004EF6480CF
:10124C00FF790F7B3F7AC978DB1206F722E4F8F9B5
:10125C007A807BBF1206F7120E2C900012120E9B96
:10126C00E4F8F97B3F7A801206F7120E3E1205B0B5
:0F127C0012113C790F7B3F7A4978DB1206F7227B
:10128B00900039120E7D900037E4F0A3F012129CFF
:01129B002230
:10129C00900021120E7DEF4E6003EF5480B2E77088
:1012AC001CEE4F6004EF6480FF900021120E7D90C5
:1012BC000038E02402F0900037E03400F07A227B12
:1012CC003F788379F9120440900021120E7DE4F8E6
:1012DC007B4679F87AFF74071208D8600302136B07
:1012EC007D157E007F01900012120E6B9000211272
:1012FC000E9B1210D1900025120E7D900037E0FD50
:10130C00A3E0FCED3395E0FEFF12083690001512B9
:10131C0009287D197E007F01900012120E6B90003F
:10132C0015120E9BE4F8F97B3E7A801204401210E1
:10133C00D1900019120E9BE4F8F97B407A801204CC
:10134C0040EE4F6004EF6480FF900015120EA71260
:10135C0006F71207F4900037EDF0A3ECF08047127B
:10136C0007F4900029EDF0A3ECF0ED3395E0FEFFCF
:10137C00120836900021120EA71206CCA3120E7D75
:10138C00900037E0FFA3E0FEEFFDEE90002AFAE0BC
:10139C002AFC900029E03DFDEC5403FE7F009000F8
:1013AC0037EFF0A3EEF030E016900025120E9BE420
:1013BC00F8F97B3F7A801206CC900025120E7DD373
:1013CC00900038E09401900037E0648094804006EF
:1013DC00900025120942900025120E9B12043890A1
:1013EC00001D120E7D78067A117B4379F8120440A9
:1013FC0078177A58795D7BC61206F790001D120E8D
:10140C00A71204407B487AD678E279E41206F7906A
:10141C00001D120EA712044078787A967BCA79D8F0
:10142C001206F790001D120EA712044079327B4B66
:10143C007A4F78591206F7900025120EA712044025
:10144C0090002B120E7D90001D120E9B7A047B4394
:10145C00784B79A71206F790001D120EA7120440C4
:10146C007A137B46786279DC1206F790001D120E17
:10147C00A71204407B48794E78677AC71206F7901A
:10148C00001D120EA71204407A037B4B78CF79E72C
:10149C001206F790002F120E7D90002B120EA71241
:0314AC0005B02266
:1000E000E88BF0A4C98AF0A429F9E88AF0A4F8E51D
:0500F000F029F948228F
:1000F500EBC9FBEAC8FAEB335008E4C39AFAE49B70
:10010500FBD392F0E930E709B2F0C3E498F8E4993B
:10011500F912014830F008C3E498F8E499F9482247
:10012500EBC9FBEAC8FA89F01200FB20F706EAF8EA
:0D013500EBF94822C3E49AF8E49BF9482254
:10014200EBC9FBEAC8FAE94B7010E8C0F08AF08408
:10015200F8AAF0D0F079007B0022ECC0E0EDC0E01C
:10016200EEC0E07D007E007C10C3E833F8E933F98D
:10017200ED33FDEE33FEED9AEE9B4005FEED9AFD6A
:1001820008DCE6EDFAEEFBD0E0FED0E0FDD0E0FCCC
:03019200E8492217
:0F019500EBC9FBEAC8FA120148EAF8EBF9482275
:1001A40030E01B20E30C08E625F0F6F5F018E63CF9
:1001B400F62209E725F0F7F5F019E73CF72230E2DB
:1001C40011C083A3E025F0F5F0F01582D083E03C64
:1001D400F02220E30C08E225F0F2F5F018E23CF2FC
:0D01E4002209E325F0F3F5F019E33CF322C6
:1001F100F5F0EDCCFD120C3F800D7D00900001F576
:0F020100F0EDCCFD120C5C1201A4CDFCE5F02257
:1002100030E02720E31208E6C0E025F0F618E6F506
:10022000F03CF6E5F0D0F02209E7C0E025F0F71940
:10023000E7F5F03CF7E5F0D0F02230E217A3E0C09C
:10024000E0C08325F0F01582D083E0F5F03CF0E5C6
:10025000F0D0F02220E31208E2C0E025F0F218E22C
:10026000F5F03CF2E5F0D0F02209E3C0E025F0F330
:0B02700019E3F5F03CF3E5F0D0F022BC
:10027B00F5F0EBCCFB120C8D8008F5F0EBCCFB1200
:0A028B000CAE120210CBFCE5F022CD
:1002950030E03A30E302E9F8E8C0E0E6F908E6F8CC
:1002A50030F0051200E0801B30F1051200FB8013D1
:1002B50030F205120148800B30F30512012B800343
:1002C50012019BD0E0C9F709C8F7C8F92230E2331B
:1002D500E0F9C083A3E0F830F0051200E0801B30A0
:1002E500F1051200FB801330F205120148800B3036
:1002F500F30512012B800312019BE8F0D0831582D0
:10030500E9F02230E302E9F8E8C0E0E2F908E2F8B2
:1003150030F0051200E0801B30F1051200FB801360
:1003250030F205120148800B30F30512012B8003D2
:0D03350012019BD0E0C9F309C8F3C8F922FA
:1003420075F001801275F002800D75F00480087559
:10035200F008800375F000CACEC0E0EDCBCFC0E05C
:10036200E9FDE8C0E0120C8D802875F0018012755D
:10037200F002800D75F004800875F008800375F0B6
:1003820000CACEC0E0EDCBCFC0E0E9FDE8C0E0128C
:100392000CAE120295D0E0C8FAE9CDF9D0E0CFFB5D
:0503A200D0E0CECA22EC
:1003A70075F001801275F002800D75F004800875F4
:1003B700F008800375F000CACEC0E0EFCBFFE9CDAF
:1003C700C0E0E8C0E0120C8D802875F0018012753E
:1003D700F002800D75F004800875F008800375F051
:1003E70000CACEC0E0EFCBFFE9CDC0E0E8C0E01225
:1003F7000CAE120295D0E0C8FAEDC9CFCBD0E0FD24
:05040700D0E0CECA2286
:10040C00E8FCE9FDEAFEEBFF8008ECF8EDF9EEFA0A
:10041C00EFFBEC28FCED39FDEE3AFEEF3BFF4E4DC9
:02042C004C2260
:10042E00E8FCE9FDEAFEEBFF8008ECF8EDF9EEFAE8
:10043E00EFFBEF4E700122EB4A7005FFFCFDFE2232
:10044E001206A9947F40092B500C7F7F74FF80EC1D
:10045E002B4003E480E5C0E0C0F0E849704EBA805E
:10046E0009D0E0F9D0E0F8020569EC4D7018BE80B5
:10047E0008E8FCE9FDEAFE80E8E4FBFFEA8EF0A462
:10048E00F8E5F0020534EA8CF0A4FFABF0EA8DF04B
:10049E00A42BFBE435F0F8EA8EF0A428F8E435F04E
:1004AE00020534EACEFAE9FDE8FC80DAEC4D70057F
:1004BE00BE80F080BCEAC0E0EC88F0A4FFABF0EDAB
:1004CE0088F0A42BFBE435F0FAEC89F0A42B4FFF57
:1004DE00E5F03AFAE433FB88F0EEA42AFAE5F03BB5
:1004EE00FBED89F0A42AFAE5F03BFBE433F88CF03F
:1004FE00D0E0FCA42AC5F03BFBE438F8EF6002D252
:10050E00F0AFF0ED8CF0A42BFBE5F038F8E433FA05
:10051E00EE89F0A42BFBE5F038F8E43AFAEC8EF015
:10052E00A428F8E5F03AF5F0FEE8FDEBFCD0E0F992
:10053E00D0E0F830F70708B80006020576120582FB
:10054E00EF3350178CF020F00260100CBC000C0D35
:10055E00BD00080EBE000408E8600DE933E813FF85
:10056E00EE2313FE4F4D4C227F7F74FF8002E4FF7B
:10057E00FEFDFC22C3EF33FFEC33FCED33FDEE3317
:10058E00FE22C3EE13FEED13FDEC13FCEF1350022F
:10059E00D2E0FF22C3E49CFCE49DFDE49EFEE49FBA
:0205AE00FF222A
:1005B000EFCBFFEECAFEEDC9FDECC8FCEF4E7003B9
:1005C00002057CEB4A70030205761206A9EB947FC4
:1005D000CF40069F500A02057CC39F400302057668
:1005E000FBE849700CEA94807007EBF8A9F002056B
:1005F00069C0F07F0012069A501EEB6002DB05D046
:10060000F002057CC3120586EF33FFEC28FCED39C0
:10061000FDEE3AFEE43FFFD3EBC0E075F008740353
:10062000C0E07B00501CC3EC98FCED99FDEE9AFEF7
:10063000EF9400FF500CEC28FCED39FDEE3AFEE49F
:100640003FFFEB33FBEC33FCED33FDEE33FEEF33DA
:10065000FFD5F012D0F0EBC0E0E5F0146012C0E07E
:1006600075F0087B00EF20E0BDEED330E7D480B614
:1006700012069A4E4D4CFBD0E0F4FCD0E0F4FDD0D5
:10068000E0F4FED0E0F8D0E0F9EB50030205696039
:1006900003020559EC5401020557C3EC98FCED998F
:0906A000FDEE9AFEEF9400FF222A
:1006A900EAA2E7D2E7FAEB33FB13F5F0EEA2E7D2C1
:1006B900E7FEEF33FFC5F013A2E730E601B313C538
:0306C900F0C32259
:1006CC00EFCBFFEECAFEEDC9FDECC8FCEB4A7003A4
:1006DC00EF4E22EB6480FB8019E8FCE9FDEAFEEBAF
:1006EC00FF8008ECF8EDF9EEFAEFFBEB4A7003EF44
:1006FC004E22EF4E700BEBFFEAFEE9FDE8FC7401B5
:10070C0022C3EC98ED99EE9AEBC2E7F5F0EFC2E755
:10071C0095F0500E600CEBCFFBEACEFAE9CDF9E880
:10072C00CCF81206A9C0E0C0F07F00C39BFB605B55
:10073C009418600C401AD0E023F9D0E0F802056957
:10074C008AF0E9486003D2F0E4AFF0FAF9F8803BA4
:10075C00EB30E40D89F0EA6003D2F0E4AFF0F9CAB3
:10076C00F8EB30E30D88F0EF6002D2F0AFF0E4CAA2
:10077C00C9F8EB54076014FBC3EA13FAE913F9E860
:10078C0013F8EF135002D2E0FFDBEDD0E0C0E03005
:10079C00E734C3E49FFFF5F0EC98FC42F0ED99FDD3
:1007AC0042F0EE9AFE42F0D0E0F9D0E0F8E5F070BD
:1007BC000122E923F9EE30E70302054ED8030205C6
:1007CC007C12058280F0EC28FCED39FDEE3AFED06F
:1007DC00E023F9D0E0F8400302054E12059108B869
:0807EC00000302057602054E30
:1007F400EF4E7003FDFC22EEA2E7D2E7FEE4CF3316
:1008040092D5C3947F500302057CF5F0941F4005F4
:100814006011020576F404F5F0EF54FEFF12059022
:10082400D5F0F6EFCCCDCECF30D5031205A2EE0233
:0208340005724B
:10083600EF30E707D2D51205A28002C2D5EF4E4DA2
:100846004C70012275F096EF700EEE20E71C15F045
:1008560012058230E7F88012EF05F0C313FFEE139E
:10086600FEED13FDEC13FCEF70EFA2D5E5F013FFE0
:07087600EE92E7FE440122AF
:10087D00EB30E711D2D5C3E498F8E499F9E49AFA8C
:10088D00E49BFB8002C2D5EB4A494870012275F00A
:10089D0096EB7018EA20E72615F0C3EB33FBE8332F
:1008AD00F8E933F9EA33FA30E7EE8012EB05F0C3DD
:1008BD0013FBEA13FAE913F9E813F8EB70EFA2D57D
:0B08CD00E5F013FBEA92E7FA44012279
:1008D800F5F0C3EF20E706EB30E7148034EB20E7B0
:1008E80004F4D3802C30F10363F00CEB547FFBEF5E
:1008F8004E7002FCFDEB4A7002F8F9EC98A8F0F58E
:10090800F0ED9942F0EE9A42F0EF547F9B45F08863
:10091800F082F130F2037001D330F301B3E43322F3
:1009280075F004801875F014801375F024800E7526
:10093800F034800975F04CFC800375F054EBC0E08E
:10094800EAC0E0E9C0E0E8C0E0ECF8EDF9EEFAEF63
:10095800FBE0FFA3E0FEA3E0FDA3E0FC30F30CEC1A
:10096800C0E0EDC0E0EEC0E0EFC0E0E58224FDC0ED
:0A097800E0E58334FFC0E002098CC3
:0A098200E8FB7A80E4F9F80206F7BA
:10098C00C0F0E5F0C4540F75F005A475829E758314
:10099C0009731206F7801C1206D8801712044080C7
:1009AC00121205BC800D1209828008EF4E6004EF14
:1009BC00B2E7FFD0F0FB30F010D0E0F8ECF618ED19
:1009CC00F618EEF618EFF6802E30F21DD083D0829A
:1009DC00EFF0A3EEF0A3EDF0A3ECF0E58224FDF52F
:1009EC0082E58334FFF583800ED0E0F8ECF218ED4D
:1009FC00F218EEF218EFF230F30CD0E0FFD0E0FE7C
:100A0C00D0E0FDD0E0FCD0E0F8D0E0F9D0E0FAD0B6
:030A1C00E0CB220A
:100A1F00F5F0E9800DF5F0EB8008F5F0ED8003F5CA
:100A2F00F0EFD083D082C0E0C3E493A3C5F095F07C
:100A3F00D0F0C0E0E493A3C5F095F07003020A650F
:060A4F00A3D0E0020A81C1
:100A5500D083D082F5F0C3E493A3C5F095F0C0E050
:100A6500C3D0F0E493A395F04012A3A3C3E5F033FC
:100A7500500205832582F58250020583740193C0D7
:060A8500E0E493C0E02252
:100A8B00120C3F800D120C5C8008120C8D8003122F
:100A9B000CAE30E00720E302E622E72230E107202C
:0E0AAB00E302E222E32230E202E022E49322A0
:100AB900120C5C8003120C3FADF0120B01CDC5F096
:020AC900CD223C
:100ACB00120C5C8003120C3FAFF0120B01CFC5F080
:020ADB00CF2228
:100ADD00120CAE8003120C8DA9F0120B01C9C5F0DA
:020AED00C9221C
:100AEF00120CAE8003120C8DABF0120B01CBC5F0C4
:020AFF00CB2208
:100B010030E01020E306E6F5F008E622E7F5F0090B
:100B1100E7192230E11020E306E2F5F008E222E3D2
:100B2100F5F009E3192230E206E0F5F0A3E022E452
:070B310093F5F0740193221B
:060B3800120C5C020B8CA4
:060B3E00120CAE020B4494
:100B440030E01520E309E6FB08E6FA08E6F922E7B7
:100B5400FB09E7FA09E7F92230E11520E309E2FB92
:100B640008E2FA08E2F922E3FB09E3FA09E3F922CD
:100B740030E209E0FBA3E0FAA3E0F922E493FB747A
:080B84000193FA740293F922B7
:100B8C0030E01720E309E6FF08E6FE08E6FD22E761
:100B9C00FF09E7FE09E7FD19192230E11720E309E7
:100BAC00E2FF08E2FE08E2FD22E3FF09E3FE09E3AF
:100BBC00FD19192230E209E0FFA3E0FEA3E0FD22BB
:0C0BCC00E493FF740193FE740293FD2279
:060BD800120C3F020BDECF
:100BDE0030E01E20E30CE6FF08E6FE08E6FD08E620
:100BEE00FC22E7FF09E7FE09E7FD09E7FC191919E1
:100BFE002230E11E20E30CE2FF08E2FE08E2FD08CF
:100C0E00E2FC22E3FF09E3FE09E3FD09E3FC191907
:100C1E00192230E20CE0FFA3E0FEA3E0FDA3E0FC0E
:100C2E0022E493FF740193FE740293FD740393FC0C
:010C3E002293
:100C3F00BB0003740922BB010789828A83740422D3
:0D0C4F00BB020789828A83741022740A2276
:100C5C00BB0007E92582F8740122BB010DE925824E
:100C6C00F582EA3583F583740422BB020DE92582F3
:100C7C00F582EA3583F583741022E92582F8740233
:010C8C002245
:100C8D00BF0005EDF8740122BF01078D828E8374BC
:100C9D000422BF02078D828E83741022EDF8740238
:010CAD002224
:100CAE00BF0007ED2582F8740122BF010DED2582EC
:100CBE00F582EE3583F583740422BF020DED258295
:100CCE00F582EE3583F583741022ED2582F87402D9
:010CDE0022F3
:100CDF00C0E0120C3F8013C0E0120C5C800CC0E02F
:100CEF00120C8D8005C0E0120CAE30E00B20E30437
:100CFF00D0E0F622D0E0F72230E10B20E304D0E081
:0A0D0F00F222D0E0F322D0E0F0223F
:0B0D1900C0E0EFC0E0120C5C020D3ADD
:0B0D2400C0E0EBC0E0120C8D020D3AA5
:0B0D2F00C0E0EBC0E0120CAE020D3A79
:100D3A0030E01420E308D0E0F6D0E008F622D0E054
:100D4A00F7D0E009F7192230E11420E308D0E0F2E5
:100D5A00D0E008F222D0E0F3D0E009F31922D0E083
:060D6A00F0D0E0A3F0222E
:060D7000120C5C020D9D57
:060D7600120CAE020D7C20
:100D7C0030E009EBF608EAF608E9F62230E109EB77
:100D8C00F208EAF208E9F222EBF0A3EAF0A3E9F0A8
:010D9C002234
:100D9D0030E01720E309EFF608EEF608EDF622EF46
:100DAD00F709EEF709EDF719192230E11520E309DE
:100DBD00EFF208EEF208EDF222EFF309EEF309ED92
:0B0DCD00F322EFF0A3EEF0A3EDF02204
:060DD800120C3F020DDECB
:100DDE0030E01E20E30CEFF608EEF608EDF608EC18
:100DEE00F622EFF709EEF709EDF709ECF7191919E5
:100DFE002230E11E20E30CEFF208EEF208EDF208CD
:100E0E00ECF222EFF309EEF309EDF309ECF3191905
:0E0E1E001922EFF0A3EEF0A3EDF0A3ECF0220A
:100E2C00D083D082EFC0E0EEC0E0EDC0E0ECC0E0DB
:020E3C00E4735D
:100E3E00D083D082D0E0F8D0E0F9D0E0FAD0E0FB59
:020E4E00E4734B
:0C0E5000E493FF740193FE740293FD22F2
:0D0E5C00740193F5F0E493F58385F0822294
:020E6900E47330
:090E6B00EFF0A3EEF0A3EDF0227C
:090E7400EBF0A3EAF0A3E9F0227F
:0C0E7D00EFF0A3EEF0A3EDF0A3ECF022E8
:090E8900E0FFA3E0FEA3E0FD225E
:090E9200E0FBA3E0FAA3E0F92261
:0C0E9B00E0FFA3E0FEA3E0FDA3E0FC22CA
:0C0EA700E0FBA3E0FAA3E0F9A3E0F822CE
:1014AF00E4A29392E0F40404A2E09293900007EF79
:1014BF00F0A3EEF0EF7F00FDEC900006F0F879005E
:1014CF007A007B00EDC0E0E4FC04FE7D1F12041ED9
:1014DF00EEFFEDFEECFDD0E0120CED900008E0FC0D
:1014EF00900006E0F879007A007B00ECC0E0E4FFA2
:1014FF0004FEFC7D1F12041EEEFFEDFEECFDD0E09E
:10150F00120CED900009E0FDA3E0ED7D00FC9000D2
:10151F0006E0F879007A007B00ECC0E0E4FF04FEFF
:10152F0004FC7D1F12041EEEFFEDFEECFDD0E01259
:10153F000CED90000AE0FC900006E0F879007A00CC
:10154F007B00ECC0E0E4FF04FE7C037D1F12041E51
:10155F00EEFFEDFEECFDD0E0120CED22900051E419
:10156F00F0A3F0A29392E0F40404A2E09293EDA30F
:10157F00A3F0EC900053F0ED7055ECF879007A0081
:10158F007B00E4FCFF04FE7D1F12041EEEFFEDFE48
:10159F00ECFD120A957D007C00900051F0A3CCF079
:1015AF00CCA3E0FC7E007F00E4FB04FAF8791F1265
:1015BF00041EEEFFEDFEECFD120A957D00FC90007F
:1015CF0052E04CF0900051E0F0E0FDA3E0FC22145B
:1015DF007057ECF879007A007B00E4FF04FE04FCFE
:1015EF007D1F12041EEEFFEDFEECFD120A957D002D
:1015FF007C00900051F0A3CCF0CCA3E0FC7E007FE8
:10160F0000E4FB04FA7803791F12041EEEFFEDFECF
:10161F00ECFD120A957D00FC900052E04CF090001A
:10162F0051E0F0E0FDA3E0FC22E4FCFD2290000A73
:10163F00E4F0A3F0A3F0A3F0A29392E0F40404A2C9
:10164F00E09293E4FD7C96123249C290E4FD7C0A4D
:10165F0012324974FF90C000F0E4FD7C0A12324947
:10166F0030922090000AE0FDA3E0FCE004F090002F
:10167F000A7003E004F0D3EC9464ED940040028010
:10168F000280DD90C000E07D007C0425E0CD33CDED
:10169F00DCF990000CCDF0A3CDF090C001E0C45464
:1016AF000F7D00FC90000DE04CF090000CE0F0D2AC
:1016BF0090E0FDA3E0FC22E4A29392E0F40404A2E4
:1016CF00E09293E4900844F0A3F0900006EDF0A3AD
:1016DF00ECF0FCEDE4FEFF120841E4F87B457A598B
:1016EF0079F8740B1208D8701D900006E0FDA3E086
:1016FF00FCEDE4FEFF120841E4F8F97B427AE17455
:10170F000B1208D8700C900844E0547F4480F0020C
:10171F001B54900006E0FDA3E0FCEDE4FEFF120871
:10172F0041E4F8F97B427AE174031208D8702A90E9
:10173F000006E0FDA3E0FCEDE4FEFF120841E4F833
:10174F007B437AA879C0740B1208D8700C900844A8
:10175F00E054BF4440F0021B54900006E0FDA3E0AC
:10176F00FCEDE4FEFF120841E4F87B437AA879C050
:10177F0074031208D8702A900006E0FDA3E0FCED78
:10178F00E4FEFF120841E4F87A0C7B4479A0740B55
:10179F001208D8700C900844E054DF4420F0021B6C
:1017AF0054900006E0FDA3E0FCEDE4FEFF120841BB
:1017BF00E4F87A0C7B4479A074031208D8702A904D
:1017CF000006E0FDA3E0FCEDE4FEFF120841E4F8A3
:1017DF007444FAFB79E0740B1208D8700C9008442B
:1017EF00E054EF4410F0021B54900006E0FDA3E01C
:1017FF00FCEDE4FEFF120841E4F87444FAFB79E0D3
:10180F0074031208D8702A900006E0FDA3E0FCEDE7
:10181F00E4FEFF120841E4F879207B447A7D740BD3
:10182F001208D8700C900844E054F74408F0021BDB
:10183F0054900006E0FDA3E0FCEDE4FEFF1208412A
:10184F00E4F879207B447A7D74031208D8702A90CB
:10185F000006E0FDA3E0FCEDE4FEFF120841E4F812
:10186F007B447A9A79B0740B1208D8700C900844A4
:10187F00E054FB4404F0021B54900006E0FDA3E08B
:10188F00FCEDE4FEFF120841E4F87B447A9A79B04C
:10189F0074031208D8702A900006E0FDA3E0FCED57
:1018AF00E4FEFF120841E4F87B447AB679D0740B5A
:1018BF001208D8700C900844E054FD4402F0021B4B
:1018CF0054900006E0FDA3E0FCEDE4FEFF1208419A
:1018DF00E4F87B447AB679D074031208D8702A9052
:1018EF000006E0FDA3E0FCEDE4FEFF120841E4F882
:1018FF007B447AD279F0740B1208D8700C9008449C
:10190F00E054FE4401F0021B54900006E0FDA3E0FA
:10191F00FCEDE4FEFF120841E4F87B447AD279F043
:10192F0074031208D8702A900006E0FDA3E0FCEDC6
:10193F00E4FEFF120841E4F879107B447AEF740B50
:10194F001208D8700C900845E054FD4402F0021BB9
:10195F0054900006E0FDA3E0FCEDE4FEFF12084109
:10196F00E4F879107B447AEF74031208D8702A9048
:10197F000006E0FDA3E0FCEDE4FEFF120841E4F8F1
:10198F007A057B457998740B1208D8700C9008452E
:10199F00E054FB4404F0021B54900006E0FDA3E06A
:1019AF00FCEDE4FEFF120841E4F87A057B457998D7
:1019BF0074031208D8702A900006E0FDA3E0FCED36
:1019CF00E4FEFF120841E4F87A137B4579A8740B03
:1019DF001208D8700C900845E054F74408F0021B29
:1019EF0054900006E0FDA3E0FCEDE4FEFF12084179
:1019FF00E4F87A137B4579A874031208D8702A90FB
:101A0F000006E0FDA3E0FCEDE4FEFF120841E4F860
:101A1F007A217B4579B8740B1208D8700C90084561
:101A2F00E054EF4410F0021B54900006E0FDA3E0D9
:101A3F00FCEDE4FEFF120841E4F87A217B4579B80A
:101A4F0074031208D8702A900006E0FDA3E0FCEDA5
:101A5F00E4FEFF120841E4F87A2F7B4579C8740B36
:101A6F001208D8700C900845E054DF4420F0021B98
:101A7F0054900006E0FDA3E0FCEDE4FEFF120841E8
:101A8F00E4F87A2F7B4579C874031208D8702A902E
:101A9F000006E0FDA3E0FCEDE4FEFF120841E4F8D0
:101AAF007A3D7B4579D8740B1208D8700C90084595
:101ABF00E054BF4440F0021B54900006E0FDA3E049
:101ACF00FCEDE4FEFF120841E4F87A3D7B4579D83E
:101ADF0074031208D87029900006E0FDA3E0FCED16
:101AEF00E4FEFF120841E4F87B457A4B79E8740B6A
:101AFF001208D8700B900845E0547F4480F0804561
:101B0F00900006E0FDA3E0FCEDE4FEFF120841E4C7
:101B1F00F87B457A4B79E874031208D87027900048
:101B2F0006E0FDA3E0FCEDE4FEFF120841E4F87BC4
:101B3F00457A5979F8740B1208D87009900845E066
:101B4F0054FE4401F0900844E0F490A000F0900897
:101B5F0045E0F490D000F02290003DE4F0A3F0A314
:101B6F00F0A3F0A3F0A3F0A3F0A3F0A3F09000482C
:101B7F00F0A3F090004CF0A3F0A29392E0F40404D1
:101B8F00A2E09293EC900050F06003021E42D295B7
:101B9F00C296C29712163C90085BEDF0A3ECF04D85
:101BAF00700A900859E4F0A3F0021D30900041E450
:101BBF00F0A3F0C3900042E09410900041E0940035
:101BCF004003021D229000487C007D007EB47F41BF
:101BDF00120928900042E025E09037F4FB93CB04E4
:101BEF009390003DCBF0A3CBF0A3E0FBA3E0FA90E2
:101BFF00085CE0D39A90085BE09B5003021D04E061
:101C0F00FBA3E0FA90003EE0C39A90003DE09B50AA
:101C1F0003021D047401900043F0E4F8F97AB47BD9
:101C2F00C11206F7EE4F6004EF6480FF9000481278
:101C3F000EA71206F790003DE0FBA3E0C3A3A3F9A4
:101C4F00E0C999FA90003FE0F9EB99FBEAF8CBF97C
:101C5F00CBEBE4FAFB1208921205BC90085BE0FB99
:101C6F00A3E0F8CBF9CBEBE4FAFB12089290004417
:101C7F00120E7D120440EFC0E0EEC0E0EDC0E0ECCC
:101C8F00C0E0A3120E9BE4F8F97B417AB41206F779
:101C9F00D0E0F8D0E0F9D0E0FAD0E0FB1206F790F0
:101CAF00003FE0FBA3E0F8CBF9CBEBE4FAFB120823
:101CBF0092EFC0E0EEC0E0EDC0E0ECC0E090004479
:101CCF00120E9B120440D0E0F8D0E0F9D0E0FAD029
:101CDF00E0FB1206CCE4F8F97A207B4112044012A3
:101CEF0007F4900859EDF0A3ECF09000417401F067
:101CFF00A3E4F0800D90003DE0FDA3E0A3CDF0A3A1
:101D0F00CDF0900042E004F09000417003E004F049
:101D1F00021BC2A3A3E07009900859740EF0A3042C
:101D2F00F0900859E0FDA3E0FCEDE4FEFF1208413E
:101D3F00E4F8F97A207B411205BC78337B3C7A8E2C
:101D4F0079FA12044090004C120E7D12128B9008FB
:101D5F005D120E7D90004C120E9B120EF7900861D3
:101D6F00120E7D90085D120EA71205B0120ECC79DF
:101D7F002E7B427A6578E412044090004C120E7D5F
:101D8F0090085D120E9BEF4E6003EF5480B2E77028
:101D9F0021A3120E9BEF4E6005EF5480B2E7B2E71E
:101DAF00701090004C7C007D007EB47F4312092898
:101DBF00806090085D120E9BEF4E6005EF5480B26D
:101DCF00E7B2E7701FA3120E9BEF4E6003EF548034
:101DDF00B2E7701090004C7C007D007E347F431280
:101DEF000928802E90085D120E9BEF4E6003EF5472
:101DFF0080B2E7701DA3120E9BEF4E6003EF54806D
:101E0F00B2E7700E90004C7C007D007E347F431251
:101E1F00092890004C120E9BE4F8F97A207B4112AE
:101E2F0004401207F4900859EDF0A3ECF0FC1216E1
:101E3F00C6800280002290000BE4F0A3F0A3F0A371
:101E4F00F0A3F0A3F0A3F0A3F0A3F0A3F004A3F08A
:101E5F00A3E4F0A3F0A29392E0F40404A2E092931F
:101E6F00EC90001AF0600302206AC28CE58C7D00B2
:101E7F007C0090086DF0A3CCF0CCE58AFCE04CF030
:101E8F0090086DE0F08D8C8D8AD28CE0FDA3E04D33
:101E9F00700A900867E4F0A3F0022005900013E4A5
:101EAF00F0A3F0C3900014E09410900013E094009E
:101EBF004003022005900D22E06018900014E025E9
:101ECF00E0903836FD93CD049390000DCDF0A3CD67
:101EDF00F08016900014E025E0903856FD93CD0465
:101EEF009390000DCDF0A3CDF0900014E025E0907D
:101EFF003816FD93CD049390000BCDF0A3CDF0C316
:101F0F00900010FEE0CE9EFC90000FE0FEED9EFDD7
:101F1F00ECEDE4FEFF12084190000DE0FBA3E0C3DF
:101F2F00900012F9E0C999FA900011E0F9EB99FBD2
:101F3F00EAF8CBF9CBEBE4FAFB1208921205BC904E
:101F4F000016120E7D90086DE0FDA3E0FC900012CC
:101F5F00E0D39C900011E09D506890000EE0D39C60
:101F6F0090000DE09D405BC3900012E0FEEC9EFCE4
:101F7F00900011E0FEED9EFDECEDE4FEFF12084136
:101F8F00900016120EA712044090000FE0FBA3E082
:101F9F00F8CBF9CBEBE4FAFB1208921206F7E4F850
:101FAF00F97A207B411204401207F4900867EDF094
:101FBF00A3ECF07401900015F0900013F0A3E4F07F
:101FCF008023E4900015F090000DE0FDA3E0900059
:101FDF0011CDF0A3CDF090000BE0FDA3E090000F2A
:101FEF00CDF0A3CDF0900014E004F0900013700337
:101FFF00E004F0021EB2900015E0605D90086BE007
:10200F00FDA3E0FC900868E0D39C900867E09D403A
:10201F0048E0FDA3E090086BCDF0A3CDF0900859F8
:10202F00E0FDA3E0900857CDF0A3CDF0900009CDCF
:10203F00F0A3CDF0FECDFFCD7C001214AF90086958
:10204F00E0FDA3E0900009CDF0A3CDF090086BE088
:10205F00FFA3E0FE7C041214AF80012222E4900063
:10206F0065F0A3F0A3F0A29392E0F40404A2E0922F
:10207F009390006CE0FBA3E0FA900068EFF0A3EE02
:10208F00F0A3EDF0EA900458120D2FEC90045712C4
:10209F000CF490006BF0900073E0900456120CF467
:1020AF00E4FB900006120D2F900004120D2F9000EC
:1020BF0002120D2F120D24900456120A9A75F00E6B
:1020CF00A4ABF0FCCBFDCB120F86900068E0FBA316
:1020DF00E0FAA3E0F990045A120D707401900454C1
:1020EF00120CE6900457120A90600302218AC2AFC5
:1020FF00900070E06401600274FF04900065FCE0E2
:10210F002CF0900071E0600B438780900065E00435
:10211F00F0800753877F900065E090006EE0FDA38D
:10212F00E0120A29000003217B2140214C215B2171
:10213F006B900065E09037A693F58D802F9000652A
:10214F00E004F0E09037A693F58D8020900065E0D5
:10215F002402F0E09037A693F58D8010900065E093
:10216F002403F0E09037A693F58D800043985043F9
:10217F008920D28ED2ACD2BC022358900070E0647A
:10218F0002600274FF04600474048001E49000652F
:10219F00FCE02CF090006EE0FDA3E0120A29000095
:1021AF0003221521BA21CE21E521FD900065E09093
:1021BF0037AC937D00900066CDF0A3CDF0804790B3
:1021CF000065E004F0E09037AC937D00900066CDA1
:1021DF00F0A3CDF08030900065E02402F0E090375E
:1021EF00AC937D00900066CDF0A3CDF080189000E9
:1021FF0065E02403F0E09037AC937D00900066CD4E
:10220F00F0A3CDF08000900072E04480FC90006855
:10221F00E0FFA3E0FEA3E0FD900458120AEF2403B1
:10222F00FAE43BFBEAF8EBF97A007B00ECC0E0E460
:10223F00FCFDFF04FE12041EEEFFEDFEECFDD0E0F0
:10224F00120CED900067E0FCA3E0FFA3E0FEA3E01B
:10225F00FD900458120AEFFAF8EBF97A007B00ECC4
:10226F00C0E0E4FCFDFF04FE12041EEEFFEDFEECE9
:10227F00FDD0E0120CED900068E0FFA3E0FEA3E0BC
:10228F00FD900458120AEF04FA70010BEAF8EBF90B
:10229F007A007B00E4FCFDFF04FE12041EEEFFED4E
:1022AF00FEECFDE4120CED900072E0547FFC900008
:1022BF0068E0FFA3E0FEA3E0FD900458120AEF24AC
:1022CF0003FAE43BFBEAF8EBF97A007B00ECC0E0A1
:1022DF00E4FCFDFF04FE12041EEEFFEDFEECFDD04C
:1022EF00E0120CED900068E0FFA3E0FEA3E0FD908C
:1022FF000458120AEF04FA70010BEAF8EBF97A00AE
:10230F007B00E4FCFDFF04FE12041EEEFFEDFEEC6D
:10231F00FD7401120CED900068E0FFA3E0FEA3E056
:10232F00FD900458120AEF2404FAE43BFBEAFCEB9D
:10233F00FD7E007F00E4F8F9FB04FA12041EEEFFA5
:10234F00EDFEECFD740B120CED22E4A29392E0F47F
:10235F000404A2E09293900065EFF0A3EEF0A3EDDA
:10236F00F090045A120B3EEC75F00EA4AFF0F5820C
:10237F008F83E4FF120D19900065E0FFA3E0A3E047
:10238F0090045A120B3EEC75F00EA4AFF0F5828F4D
:10239F0083A3A3E4FF120D19900065E0FFA3E0A350
:1023AF00E090045A120B3EEC75F00EA4AFF029F931
:1023BF00EA3FFAE4900006120CE6900069E07F0015
:1023CF00FE900065E0FBA3E0FAA3E0F9EFC0E0EEBA
:1023DF00C0E090045A120B38EC75F00EA4ABF02D40
:1023EF00FDEE3BFED0E0FBD0E0CB900004120D2FB2
:1023FF00EC900068F0900065E0FFA3E0FEA3E0FD25
:10240F0090045A120B3EEC75F00EA4ADF029F9EAC8
:10241F003DFA900004120AB9FC120F86900065E095
:10242F00FBA3E0FAA3E0F9EFC0E0EEC0E0EDC0E0FF
:10243F0090045A120B38900068E075F00EA4ABF0C0
:10244F002DFDEE3BFED0E0F9D0E0FAD0E0FB90009E
:10245F0007120D7690006AE0FDA3E0FECDFFCD9050
:10246F000065E0FBA3E0FAA3E0F9EFC0E0EEC0E007
:10247F0090045A120B38900068E075F00EA4ABF080
:10248F002DFDEE3BFED0E0FBD0E0CB90000A120D0D
:10249F002F90006CE0FDA3E0FECDFFCD900065E036
:1024AF00FBA3E0A3E0EFC0E0EEC0E090045A120BF4
:1024BF0038900068E075F00EA4ABF02DFDEE3BFEFA
:1024CF00D0E0FBD0E0CB90000C120D2F22E4A293B2
:1024DF0092E0F40404A2E09293900055E0FA900089
:1024EF0051EFF0A3EEF0A3EDF0EAC0E090045A1222
:1024FF000B3EEC900054F075F00EA4ADF029F9EA04
:10250F003DFAD0E0900006120CE622E4A29392E08E
:10251F00F40404A2E09293E4900056F0EC90005A79
:10252F00F0900057EFF0A3EEF0A3EDF0900057E01E
:10253F00FFA3E0FEA3E0FD900456120A9AFC900060
:10254F0056E0C39C400302268890045A120B3E901B
:10255F000056E075F00EA4ADF029F9EA3DFA9000AF
:10256F0006120A9014600302267F90005AE0900032
:10257F0055F0900057E0A3E0A3E0FD900056E0FC7B
:10258F00122689900057E0FFA3E0FEA3E0FD900420
:10259F005A120B3E900056E075F00EA4ADF029F9DB
:1025AF00EA3DFAE9FDEAFEEBFFA3E0FBA3E0FAA3A5
:1025BF00E0F9EFC0E0EEC0E0EDC0E090045A120B7E
:1025CF0038900056E075F00EA4ABF02DFDEE3BFEFB
:1025DF0090000A120AEFF5828B83120E5CD0E0FD99
:1025EF00D0E0FED0E0FF120E69EC700302267F9060
:1025FF000057E0FFA3E0FEA3E0FD90045A120B3E4C
:10260F00900056E075F00EA4ADF029F9EA3DFAE915
:10261F00FDEAFEEBFFA3E0FBA3E0FAA3E0F9EFC0B6
:10262F00E0EEC0E0EDC0E090045A120B3890005677
:10263F00E075F00EA4ABF02DFDEE3BFE90000C12FA
:10264F000AEFF5828B83120E5CD0E0FDD0E0FED056
:10265F00E0FF120E69EC6018E4900055F0900057FF
:10266F00E0FFA3E0FEA3E0FD900056E0FC1224DCA7
:10267F00900056E004F002253B22E4A29392E0F48E
:10268F000404A2E09293900051EFF0A3EEF0A3EDBB
:10269F00F090045A120B3EEC75F00EA4AFF029F92E
:1026AF00EA3FFAE92402F9EA3400FA900051E0FF18
:1026BF00A3E0A3E0EBC0E0EAC0E0E9C0E090045A79
:1026CF00120B3EEC75F00EA4AFF029F9EA3FFA9029
:1026DF000004120ACBFED0E0F9D0E0FAD0E0FBEE16
:1026EF001203BBEC900054F0900051E0FFA3E0FE0A
:1026FF00A3E090045A120B3EEC75F00EA4ADF0F56A
:10270F00828D83A3A3120AB9FC900051E0FBA3E0D2
:10271F00FAA3E0F9EDC0E0ECC0E090045A120B38D8
:10272F00900054E075F00EA4ABF0F5828B83120A83
:10273F00EFFAD0E0FCD0E0FDEA6C7002EB6D6003C5
:10274F000227D1900051E0FFA3E0FEA3E0FD90042B
:10275F005A120B3E900054E075F00EA4ADF029F91B
:10276F00EA3DFAE4FD041201F1900051E0A3E0A369
:10277F00E0FD90045A120B3E900054E075F00EA449
:10278F00ADF029F9EA3DFA900051E0A3E0A3E0FD96
:10279F00EBC0E0EAC0E0E9C0E090045A120B3E90B3
:1027AF000054E075F00EA4ADF029F9EA3DFA90005F
:1027BF0004120AB9FCD0E0F9D0E0FAD0E0FBEC1239
:1027CF000356900055E0FC900051E0FFA3E0FEA3FC
:1027DF00E0FD90045A120B3E900054E075F00EA4E9
:1027EF00AFF029F9EA3FFA900007120B3890005129
:1027FF00E0FBA3E0FAA3E0F9EFC0E0EEC0E0EDC02C
:10280F00E090045A120B38900054E075F00EA4AB10
:10281F00F02DFDEE3BFEED2402FDEE3400FEE4FB59
:10282F000412027BF5828B83D0E0FDD0E0FED0E076
:10283F00FFEC120CF422E4A29392E0F40404A2E061
:10284F009293900006EFF0A3EEF0A3EDF090000747
:10285F00120B3EEBC0E0EAC0E0E9C0E090000412CA
:10286F000AEFFA120AE2F8EA28FAEB39FBEA24FF38
:10287F00FAEB34FFFB900004120ADDF81201958881
:10288F00828983D0E0F9D0E0FAD0E0FB120A90649D
:10289F005560037C0022900007120B3EEBC0E0EA6C
:1028AF00C0E0E9C0E0900004120AEFFA120AE2F861
:1028BF00EA28FAEB39FBEA24FEFAEB34FFFB90002F
:1028CF0004120ADDF812019588828983D0E0F9D0CD
:1028DF00E0FAD0E0FB120A90645560037C0022906E
:1028EF000007120B3EEBC0E0EAC0E0E9C0E0900049
:1028FF0004120AEFFA120AE2F8EA28FAEB39FBEAB5
:10290F0024FDFAEB34FFFB900004120ADDF81201EC
:10291F009588828983D0E0F9D0E0FAD0E0FB120AE3
:10292F0090645560037C0022900007120B3EEBC0B1
:10293F00E0EAC0E0E9C0E0900004120AEFFA120AE0
:10294F00E2F8EA28FAEB39FBEA24FCFAEB34FFFB56
:10295F00900004120ADDF812019588828983D0E075
:10296F00F9D0E0FAD0E0FB120A90645560037C00C6
:10297F0022900007120B3EEBC0E0EAC0E0E9C0E096
:10298F00120AF42403FAE43BFB900004120ADDF868
:10299F0012019588828983D0E0F9D0E0FAD0E0FB6C
:1029AF00120A9064AA60037C0022900007120B3E6B
:1029BF00EBC0E0EAC0E0E9C0E0120AF42402FAE456
:1029CF003BFB900004120ADDF8120195888289837F
:1029DF00D0E0F9D0E0FAD0E0FB120A9064AA6003CD
:1029EF007C0022900007120B3EEBC0E0EAC0E0E94A
:1029FF00C0E0120AF404FA70010B900004120ADD11
:102A0F00F812019588828983D0E0F9D0E0FAD0E0FE
:102A1F00FB120A9064AA60037C0022900007120B3D
:102A2F003EEBC0E0EAC0E0E9C0E0120AF4FA900021
:102A3F0004120ADDF812019588828983D0E0F9D05B
:102A4F00E0FAD0E0FB120A9064AA60037C00227CBB
:102A5F000122E490000AF0A3F0A3F0A3F0A3F0A3E7
:102A6F00F0A29392E0F40404A2E09293A3EFF0A3F8
:102A7F00EEF0A3EDF0900007120B3EEBC0E0EAC0C2
:102A8F00E0E9C0E0120AF42404FAE43BFB900004EE
:102A9F00120ADDF812019588828983D0E0F9D0E01F
:102AAF00FAD0E0FB120A90644D60037C0022900084
:102ABF0007120B3EEBC0E0EAC0E0E9C0E0120AF4F7
:102ACF002404FAE43BFB900004120ADDF81201958E
:102ADF0088828983D0E0F9D0E0FAD0E0FB120A9027
:102AEF0090000AFCE06CFC900007120B3EEBC0E07C
:102AFF00EAC0E0E9C0E0120AF42405FAE43BFB90D7
:102B0F000004120ADDF812019588828983D0E0F95A
:102B1F00D0E0FAD0E0FB120A906C90000AF090001F
:102B2F0007120B3EEBC0E0EAC0E0E9C0E0120AF486
:102B3F002406FAE43BFB900004120ADDF81201951B
:102B4F0088828983D0E0F9D0E0FAD0E0FB120A90B6
:102B5F00FC90000AE06C60037C0022900007120BCF
:102B6F003EEBC0E0EAC0E0E9C0E0120AF42405FA47
:102B7F00E43BFB900004120ADDF81201958882896C
:102B8F0083D0E0F9D0E0FAD0E0FB120A90C39407AB
:102B9F0040037C0022900007120B3EEBC0E0EAC01E
:102BAF00E0E9C0E0120AF42405FAE43BFB900004CC
:102BBF00120ADDF812019588828983D0E0F9D0E0FE
:102BCF00FAD0E0FB120A9090000BF070067401F03F
:102BDF007C0022FC122BEF7401900D23F07C00225D
:102BEF00E4A29392E0F40404A2E09293E49008B973
:102BFF00F0EC9008B8F0900009F0900007E4F0A313
:102C0F00F0C3900008E0940B900007E09400504F41
:102C1F00D3A3E09403900007E094004020C3A3E007
:102C2F009406900007E094005013A3E024B3F582BC
:102C3F00E43408F583E09008B9FCE06CF0900008EC
:102C4F00E024B3F582E43408F583E0FC12349D9060
:102C5F000008E004F09000077003E004F080A21277
:102C6F00353922327401900055F0E4A29392E0F4CA
:102C7F000404A2E09293740E90900AF0741EA3F0D5
:102C8F00A3A3E05480900055F0702874619008471A
:102C9F00F0740BA3F023A3F003A3F07432A3F0742A
:102CAF0007A3F07C027D477E087F01122D45EC6063
:102CBF000280F0909009E0900847F0909008E09023
:102CCF000848F0909007E0900849F0909004E09049
:102CDF00084AF0909002E090084BF0909000E0903E
:102CEF00084CF0900847E0C394645023A3E0C394CA
:102CFF000D501CA3E0C394205015A3E0C3941850AB
:102D0F000EA3E0C3943C5007A3E0C3943C40267449
:102D1F0061900847F07403A3F07417A3F07407A32E
:102D2F00F0A3F0A3F07C027D477E087F01122D45B2
:102D3F00EC600280F022E4A29392E0F40404A2E09B
:102D4F009293EC900054F0900051EFF0A3EEF0A3AB
:102D5F00EDF0120A95C394645037900001120A9A4D
:102D6F00C3940D502C900002120A9AC39420502144
:102D7F00900003120A9AC394185016900004120A76
:102D8F009AC3943C500B900005120A9AC3943C408E
:102D9F00037C0122EC6003B4021B120A9590900988
:102DAF00F0900001120A9A909008F0900002120A17
:102DBF009A909007F0EC146004ECB4021E9000039C
:102DCF00120A9A909004F0900004120A9A909002BE
:102DDF00F0900005120A9A909000F0909009E0127E
:102DEF000CED909008E0900001120CF4909007E029
:102DFF00900002120CF4909004E0900003120CF477
:102E0F00909002E0900004120CF4909000E090007B
:102E1F0005120CF4120A95C39464503790000112F6
:102E2F000A9AC3940D502C900002120A9AC3942050
:102E3F005021900003120A9AC39418501690000460
:102E4F00120A9AC3943C500B900005120A9AC3942D
:102E5F003C40037C01227C0022909009E09000000E
:102E6F00F0909008E0900001F0909007E090000241
:102E7F00F0909004E0900003F0909002E090000436
:102E8F00F0909000E0900005F0900001E06004A346
:102E9F00E0700122900000E0C39464500EA3E0C3E1
:102EAF00940D5007A3E0C39420400122A3E0C394E4
:102EBF0018500EA3E0C3943C5007A3E0C3943C40CA
:102ECF000122900000E0900847F0900001E0900888
:102EDF0048F0900002E0900849F0900003E090085D
:102EEF004AF0900004E090084BF0900005E0900845
:102EFF004CF022E4A29392E0F40404A2E09293E453
:102F0F00900051F0900051E0C3940C5024E0FC7DF0
:102F1F00007E007F00E4F8FB04FA791F12041EEE16
:102F2F00FFEDFEECFDE4120CED900051E004F0809B
:102F3F00D3900849E0901F08F07455A3F023A3F035
:102F4F007477A3F07401900D20F022E4A29392E025
:102F5F00F40404A2E092937D007C0012156B90089C
:102F6F0057EDF0A3ECF07D007C0412156B90086B0D
:102F7F00EDF0A3ECF022E4900055F0A29392E0F470
:102F8F000404A2E09293901F08E0900055F0FC908B
:102F9F000849E06C6004122F0222901F09E0900094
:102FAF0055F064556004122F0222901F0AE0900022
:102FBF0055F064AA6004122F0222901F0BE09000BC
:102FCF0055F064776004122F0222122F5A22E490D8
:102FDF000051F0A3F0A3F0A29392E0F40404A2E056
:102FEF00929390B000E0900D22F090B000E090002E
:102FFF0052F0FC900D22E06C7008900051E004F04C
:10300F00800890B000E0900D22F0900051E0C39442
:10301F000B4002800280D3900D22E0B407057401AB
:10302F00F08002E4F074C47D0E900853CDF0A3CD70
:10303F00F074C87D0EA3CDF0A3CDF022E4A293923D
:10304F00E0F40404A2E0929374FFFB120D249000AD
:10305F0051EFF0A3EEF0A3EDF0EC900002120CF4A0
:10306F00900054F0E4900003120CF4900055E0909F
:10307F000004120CF4900056E0900005120CF4E4DA
:10308F000B900006120D2F900008120D2F90000AC2
:10309F00120D2F90000C120D2F90000E120CF41425
:1030AF001B1490000F120D2F22E4A29392E0F40450
:1030BF0004A2E09293E4900D1EF0900D1FF0900D7E
:1030CF0020F0900D22F0900D23F014900846F0128E
:1030DF002FDDD2947D137C88123249C294740190F3
:1030EF000073F014900072F004900071F090007073
:1030FF00F090006EE4F0A37402F090006CE4F0A383
:10310F00F0FC7DBE7E087F0112206C74BC7D0E909A
:10311F00006CCDF0A3CDF074C07D0E90006ACDF0A1
:10312F00A3CDF0740B900069F07C007DBE7E087F0C
:10313F00011223597401900055F07C007DBE7E086A
:10314F007F011224DC7403900056F0E4900055F0D8
:10315F007C4E7D6F7E087F0112304B7404900056B9
:10316F00F0E4900055F07C537D807E087F01123093
:10317F004BE4900056F0900055F07C4D7D917E0809
:10318F007F0112304B7401900056F0900055F07C87
:10319F004D7DA27E087F0112304B900847E09008CA
:1031AF004DF0900848E090084EF0900849E09008E4
:1031BF004FF090084AE0900850F090084BE09008CC
:1031CF0051F090084CE0900852F0900849E0900DB3
:1031DF0021F0438905758C00758A0075C80075CD7F
:1031EF000075CC00D2ADD2CAD28CC2A8C2AAD2AFBF
:1031FF002290085BE4F0A3F0900859F0A3F0900838
:10320F0057F0A3F0900861F0A3F090085DF0A3F0E1
:10321F0022900051EFF0A3EEF0A3EDF0E4FB90004D
:10322F0008120D2F900006120D2F900004120D2F73
:10323F00900002120D2F120D2422900006E4F0A32D
:10324F00F0A3EDF0A3ECF0900006E0FDA3E0FCA3EB
:10325F00A3E0D39C900008E09D40280CEC70010D7A
:10326F00EC24FFFCED34FFFDE4A29392E0F40404A0
:10327F00A2E092930CEC70010D900006EDF0A3EC20
:10328F00F080C422E4A29392E0F40404A2E09293AB
:10329F00900859E0FDA3E0900857CDF0A3CDF09032
:1032AF000867E0FDA3E090086BCDF0A3CDF0900888
:1032BF0067E0FDA3E0A3CDF0A3CDF0900857E0FDAC
:1032CF00A3E0900009CDF0A3CDF0FEEDFF7C00123E
:1032DF0014AF900869E0FDA3E0900009CDF0A3CDF5
:1032EF00F090086BE0FFA3E0FE7C041214AF22E421
:1032FF00A29392E0F40404A2E09293ED900052F0B6
:10330F00EC900051F0ED7013900853E0FFA3E0F53F
:10331F00828F83120E5C120E69803AC394014008AB
:10332F00B40300B34002802DB40318900051E0FCA9
:10333F00900855E0FFA3E0F5828F83120E5C120E0A
:10334F00698012C394044008B40300B3400280059F
:10335F00E4900D1EF022E4A29392E0F40404A2E0A4
:10336F009293900859E0FDA3E0900897CDF0A3CD7C
:10337F00F0900867E0FDA3E09008A8CDF0A3CDF092
:10338F00900857E0FDA3E090089DCDF0A3CDF090FD
:10339F00086BE0FDA3E09008AECDF0A3CDF0900D4B
:1033AF0020E06005E4F01232931233C1E4900D2354
:1033BF00F022900051E4F0A3F0C3900052E0940487
:1033CF00900051E09400400302349CA3E075F0118B
:1033DF00A4247DF582E43408F583E4F0A29392E00F
:1033EF00F40404A2E09293900053E4F0A3F0C3908E
:1033FF000054E09411900053E09400400302348B8A
:10340F00D3A3E09401900053E094004043C3A3E0A2
:10341F00940E900053E094005036900051E0FFA3BB
:10342F00E0FE75F011A4247DF582E43408F583EEF7
:10343F0075F011A4FCAA82AB83900054E02C246F8A
:10344F00F582E43408F583E08A828B83FCE06CF02C
:10345F00900052E075F011A4FCA3A3E02C246FF5AB
:10346F0082E43408F583E0FC12349D900054E004AC
:10347F00F09000537003E004F00233FD900052E02F
:10348F0004F09000517003E004F00233C82290085A
:10349F00C4E0FFA3E0FEE004F09008C47003E00472
:1034AF00F0EE24C6F582EF3408F583ECF0900006B9
:1034BF00F0C39008C5E094E89008C4E0940340047A
:1034CF00E4F0A3F022E4A29392E0F40404A2E092C9
:1034DF00939008BEE0FDA3E0FCA3A3E06C700790FF
:1034EF0008C0E06D6043900D13E0700122ECFEED1B
:1034FF00FFCC2401CCCD3400CD9008BEEDF0A3EC71
:10350F00F0EE24AEF582EF340CF583E0FC7DBE7E49
:10351F00087F0112251AC39008BFE094649008BE7B
:10352F00E094004004E4F0A3F022E4A29392E0F4CC
:10353F000404A2E092939008C2E0FDA3E0FCA3A3D1
:10354F00E06C70079008C4E06D6046900D12E0606B
:10355F003EC2AFECFEEDFFCC2401CCCD3400CD90BC
:10356F0008C2EDF0A3ECF0EE24C6F582EF3408F5B7
:10357F0083E0F599D2AFC3EC94E8ED9403400BE4EC
:10358F00FCFD9008C2EDF0A3ECF0E4900D12F0807A
:10359F00067401900D13F022C0E0C082C083C0D02A
:1035AF00ECC0E0EDC0E0EEC0E0EFC0E0C2AF30989D
:1035BF0039C298E5999008C0FEE0FDA3E0FCE00455
:1035CF00F09008C07003E004F0EC24AEF582ED3407
:1035DF000CF583EEF0C39008C1E094649008C0E04E
:1035EF0094004004E4F0A3F08057309954C29990AE
:1035FF0008C2E0FDA3E0FCA3A3E06C70079008C431
:10360F00E06D6037ECFEEDFFCC2401CCCD3400CD66
:10361F009008C2EDF0A3ECF0EE24C6F582EF34086B
:10362F00F583E0F599C3EC94E8ED9403400BE4FCCB
:10363F00FD9008C2EDF0A3ECF080067401900D121E
:10364F00F0D2AFD0E0FFD0E0FED0E0FDD0E0FCD074
:10365F00D0D083D082D0E032C0E0C0F0C082C0832F
:10366F00C0D0E8C0E0E9C0E0EAC0E0EBC0E0ECC0E9
:10367F00E0EDC0E0EEC0E0EFC0E0C2AFC2CA122E74
:10368F0068900852E0FC90084CE06C60619008472D
:10369F00E090084DF0900848E090084EF0900849EF
:1036AF00E090084FF090084AE0900850F090084BD7
:1036BF00E0900851F090084CE0FC900852F0900D0B
:1036CF001EE01460087401F014900D1FF0EC75F0FB
:1036DF000A84E5F070067401900D23F0900D21E03F
:1036EF00FC900849E06C60067401900D20F075CDD8
:1036FF000075CC00C2CFD2CAD2AFD0E0FFD0E0FE6F
:10370F00D0E0FDD0E0FCD0E0FBD0E0FAD0E0F9D083
:10371F00E0F8D0D0D083D082D0F0D0E032752A003C
:10372F00752B00C294E4A29392E0F40404A2E092F9
:10373F0093E4900844F0A3F0A29392E0F40404A25F
:10374F00E09293122C731232007D657E087F011276
:10375F0032201230B8122F851233C1E4900D23F0AE
:10376F00E4A29392E0F40404A2E09293123539128A
:10377F0034D4900D1EE0600E900D1FE0FC04F0ECB1
:10378F00FD7C001232FE900D23E060031233658042
:01379F00CF5A
:1037A600FDFAF4E8D0A00C183060142850A041B4FB
:1037B6000000423400004287000042B4000042E1AB
:1037C600000043070000431D800043340000434AC5
:1037D60080004361000043778000438700004392E6
:1037E6004000439D800043A8C00043B4000000FE93
:1037F60001FD02FB03FA04F805F606F507F308F1E6
:1038060009F00AEE0BED0CEB0DE90EE80FE60FFFE3
:1038160000030005000A000F00140019001E002313
:103826000028002D00320037003C00410046004BC6
:1038360000260048009800E3012F017E01CC0220FB
:10384600027302C20311036003B003FE044D049D1C
:10385600002D005000A000F8014D01A401FB02510B
:1038660002A802FE035503AC0403045904B005077D
:103876005B2A5D2D2D2D2D2D2D2D2D2D2D2D2D2D17
:103886002D2D2D2D2D2D2D2D2D2D2D2D2D2D2D2D62
:103896002D2D2D2D2D2D2D2D2D2D2D2D2D2D2D2D52
:1038A6002D2D2D2D2D2D2D2D5B2A5D005B2A5D20C6
:1038B600204A494E2D59414E472020494E445553E2
:1038C600545249414C2E2C434F204C544420202026
:1038D60020202020202020202020202020202020E2
:1038E600202020205B2A5D005B2A5D202050726F1D
:1038F6006772616D203A205041524B2E20494E206E
:103906004B5955202020202044617465203A2031EF
:103916003939372E20382E203235202020202020FD
:103926005B2A5D005B2A5D202050726F6772616DB5
:1039360020456E64203A20313939372C2031312C1C
:10394600203230202020202020202020202020204F
:103956002020202020202020202020205B2A5D00FF
:103966005B2A5D2D2D2D2D2D2D2D2D2D2D2D2D2D26
:103976002D2D2D2D2D2D2D2D2D2D2D2D2D2D2D2D71
:103986002D2D2D2D2D2D2D2D2D2D2D2D2D2D2D2D61
:103996002D2D2D2D2D2D2D2D5B2A5D005B2A5D20D5
:1039A6002050726F6A656374204E414D45203A205F
:1039B6004557532020574420262057532054454D21
:1039C600502048554D49205052452054494D4520D8
:1039D600202020205B2A5D005B2A5D2D2D2D2D2DBC
:1039E6002D2D2D2D2D2D2D2D2D2D2D2D2D2D2D2D01
:1039F6002D2D2D2D2D2D2D2D2D2D2D2D2D2D2D2DF1
:103A06002D2D2D2D2D2D2D2D2D2D2D2D2D2D2D2DE0
:103A16005B2A5D005B2A5D202055706772616465D4
:103A26002050726F6772616D203A205041524B2CC4
:103A36004A4F4E472D4B494C2044617465203A202D
:103A4600313939382E20342E20367E205B2A5D000F
:103A56005B2A5D202050726F6772616D20456E642F
:103A6600203A20313939382C20342C203620202099
:103A76002020202020202020202020202020202040
:103A860020202020202020205B2A5D005B2A5D2D3F
:103A96002D2D2D2D2D2D2D2D2D2D2D2D2D2D2D2D50
:103AA6002D2D2D2D2D2D2D2D2D2D2D2D2D2D2D2D40
:103AB6002D2D2D2D2D2D2D2D2D2D2D2D2D2D2D2D30
:103AC6002D2D2D2D5B2A5D005B2A5D20205645524B
:103AD60053494F4E203A20312E30302020202020CE
:103AE60020202020202020202020202020202020D0
:103AF60020202020202020202020202020202020C0
:103B06005B2A5D005B2A5D2D2D2D2D2D2D2D2D2D56
:103B16002D2D2D2D2D2D2D2D2D2D2D2D2D2D2D2DCF
:103B26002D2D2D2D2D2D2D2D2D2D2D2D2D2D2D2DBF
:103B36002D2D2D2D2D2D2D2D2D2D2D2D5B2A5D0081
:103B4600000000000000000000000000000000006F
:103B5600000000000000000000000000000000005F
:103B6600000000000000000000000000000000004F
:103B7600000000000000000000000000000000003F
:103B8600000000000000000000000000000000002F
:103B9600000000000000000000000000000000001F
:103BA600000000000000000000000000000000000F
:103BB60000000000000000000000000000000000FF
:103BC60000000000000000000000000000000000EF
:103BD60000000000000000000000000000000000DF
:103BE60000000000000000000000000000000000CF
:103BF60000000000000000000000000000000000BF
:103C060000000000000000000000000000000000AE
:103C1600000000000000000000000000000000009E
:103C2600000000000000000000000000000000008E
:103C3600000000000000000000000000000000007E
:103C4600000000000000000000000000000000006E
:103C5600000000000000000000000000000000005E
:103C6600000000000000000000000000000000004E
:103C7600000000000000000000000000000000003E
:103C8600000000000000000000000000000000002E
:103C9600000000000000000000000000000000001E
:103CA600000000000000000000000000000000000E
:103CB60000000000000000000000000000000000FE
:103CC60000000000000000000000000000000000EE
:103CD60000000000000000000000000000000000DE
:103CE60000000000000000000000000000000000CE
:103CF60000000000000000000000000000000000BE
:103D060000000000000000000000000000000000AD
:103D1600000000000000000000000000000000009D
:03000B00022C7252
:030023000235A7FC
:03002B0002366733
:060EB60000000100000035
:00000001FF
:00000001FF
