:04084300103A000067
:04084700102C000071
:04084B001DB40000D8
:10087E00E4900018F0A3F0A3F090001FE0FBA3E0BB
:10088E00FA90001BEFF0A3EEF0A3EDF0EA900FAD9F
:10089E00120742EC900FAB12070790001EF090006B
:1008AE0026E0900FAA120707E4FB900006120742FB
:1008BE00900004120742900002120742120737906E
:1008CE000FAA12051A75F00EA4ABF0FCCBFDCB12DD
:1008DE001C6990001BE0FBA3E0FAA3E0F9900FAFB8
:1008EE0012078374019000081206F990000912068F
:1008FE00F9900023E0900FAC1206F9900FAB1205A1
:10090E001060030209A1C2AF900023E064016002EF
:10091E0074FF04900018FCE02CF0900024E0600BB3
:10092E00438780900018E004F0800753877F900083
:10093E0018E0900021E0FDA3E01204A900000309D5
:10094E00920957096309720982900018E0901E0DF2
:10095E0093F58D802F900018E004F0E0901E0D931B
:10096E00F58D8020900018E02402F0E0901E0D938B
:10097E00F58D8010900018E02403F0E0901E0D938A
:10098E00F58D8000759850758920D28ED2ACD2BC70
:10099E00020B6F900023E06402600274FF04600497
:1009AE0074048001E4900018FCE02CF0900021E02B
:1009BE00FDA3E01204A90000030A2C09D109E509E0
:1009CE00FC0A14900018E0901E13937D00900019FD
:1009DE00CDF0A3CDF08047900018E004F0E0901E1B
:1009EE0013937D00900019CDF0A3CDF080309000D0
:1009FE0018E02402F0E0901E13937D00900019CDB4
:100A0E00F0A3CDF08018900018E02403F0E0901EC3
:100A1E0013937D00900019CDF0A3CDF080009000CF
:100A2E0025E04480FC90001BE0FFA3E0FEA3E0FD68
:100A3E00900FAD12055D2403FAE43BFBEAF8EBF9E7
:100A4E007A007B00ECC0E0E4FCFDFF04FE12048F94
:100A5E00EEFFEDFEECFDD0E012070090001AE0FC78
:100A6E00A3E0FFA3E0FEA3E0FD900FAD12055DFA3B
:100A7E00F8EBF97A007B00ECC0E0E4FCFDFF04FE2D
:100A8E0012048FEEFFEDFEECFDD0E0120700900099
:100A9E001BE0FFA3E0FEA3E0FD900FAD12055D0489
:100AAE00FA70010BEAF8EBF97A007B00E4FCFDFF2B
:100ABE0004FE12048FEEFFEDFEECFDE41207009033
:100ACE000025E0547FFC90001BE0FFA3E0FEA3E0B6
:100ADE00FD900FAD12055D2403FAE43BFBEAF8EB43
:100AEE00F97A007B00ECC0E0E4FCFDFF04FE12048A
:100AFE008FEEFFEDFEECFDD0E012070090001BE044
:100B0E00FFA3E0FEA3E0FD900FAD12055D04FA70A9
:100B1E00010BEAF8EBF97A007B00E4FCFDFF04FE22
:100B2E0012048FEEFFEDFEECFD7401120700900033
:100B3E001BE0FFA3E0FEA3E0FD900FAD12055D24C8
:100B4E0004FAE43BFBEAFCEBFD7E007F00E4F8F9DF
:100B5E00FB04FA12048FEEFFEDFEECFD740B120790
:100B6E000022900018EFF0A3EEF0A3EDF0900FAF7F
:100B7E001205B8EC75F00EA4AFF0F5828F83E4FF8A
:100B8E0012072C900018E0FFA3E0A3E0900FAF1225
:100B9E0005B8EC75F00EA4AFF0F5828F83A3A3E435
:100BAE00FF12072C900018E0FFA3E0A3E0900FAF18
:100BBE001205B8EC75F00EA4AFF029F9EA3FFAE48D
:100BCE009000061206F990001CE07F00FE900018BF
:100BDE00E0FBA3E0FAA3E0F9EFC0E0EEC0E0900F77
:100BEE00AF1205ACEC75F00EA4ABF02DFDEE3BFE96
:100BFE00D0E0FBD0E0CB900004120742EC90001B3B
:100C0E00F0900018E0FFA3E0FEA3E0FD900FAF12FE
:100C1E0005B8EC75F00EA4ADF029F9EA3DFA900096
:100C2E0004120539FC121C69900018E0FBA3E0FACF
:100C3E00A3E0F9EFC0E0EEC0E0EDC0E0900FAF1220
:100C4E0005AC90001BE075F00EA4ABF02DFDEE3B55
:100C5E00FED0E0F9D0E0FAD0E0FB90000712078951
:100C6E0090001DE0FDA3E0FECDFFCD900018E0FB4F
:100C7E00A3E0FAA3E0F9EFC0E0EEC0E0900FAF12F0
:100C8E0005AC90001BE075F00EA4ABF02DFDEE3B15
:100C9E00FED0E0FBD0E0CB90000A12074290001F7E
:100CAE00E0FDA3E0FECDFFCD900018E0FBA3E0A396
:100CBE00E0EFC0E0EEC0E0900FAF1205AC90001B6D
:100CCE00E075F00EA4ABF02DFDEE3BFED0E0FBD0B8
:100CDE00E0CB90000C12074222900008E0FA900040
:100CEE0004EFF0A3EEF0A3EDF0EAC0E0900FAF1228
:100CFE0005B8EC900007F075F00EA4ADF029F9EAF6
:100D0E003DFAD0E09000061206F922E4900009F0B8
:100D1E00EC90000DF090000AEFF0A3EEF0A3EDF0D2
:100D2E0090000AE0FFA3E0FEA3E0FD900FAA1205DB
:100D3E001AFC900009E0C39C4003020E7B900FAF9B
:100D4E001205B8900009E075F00EA4ADF029F9EA8D
:100D5E003DFA900006120510146003020E72900008
:100D6E000DE0900008F090000AE0A3E0A3E0FD90F3
:100D7E000009E0FC120E7C90000AE0FFA3E0FEA347
:100D8E00E0FD900FAF1205B8900009E075F00EA4CB
:100D9E00ADF029F9EA3DFAE9FDEAFEEBFFA3E0FB2F
:100DAE00A3E0FAA3E0F9EFC0E0EEC0E0EDC0E09002
:100DBE000FAF1205AC900009E075F00EA4ABF02D4C
:100DCE00FDEE3BFE90000A12055DF5828B83120844
:100DDE000DD0E0FDD0E0FED0E0FF12081AEC70035B
:100DEE00020E7290000AE0FFA3E0FEA3E0FD900F5A
:100DFE00AF1205B8900009E075F00EA4ADF029F918
:100E0E00EA3DFAE9FDEAFEEBFFA3E0FBA3E0FAA35D
:100E1E00E0F9EFC0E0EEC0E0EDC0E0900FAF1205DC
:100E2E00AC900009E075F00EA4ABF02DFDEE3BFE8C
:100E3E0090000C12055DF5828B8312080DD0E0FD3B
:100E4E00D0E0FED0E0FF12081AEC6018E490000823
:100E5E00F090000AE0FFA3E0FEA3E0FD900009E0A1
:100E6E00FC120CE7900009E004F0020D2E22900017
:100E7E0004EFF0A3EEF0A3EDF0900FAF1205B8EC77
:100E8E0075F00EA4AFF029F9EA3FFAE92402F9EA67
:100E9E003400FA900004E0FFA3E0A3E0EBC0E0EA28
:100EAE00C0E0E9C0E0900FAF1205B8EC75F00EA4EB
:100EBE00AFF029F9EA3FFA90000412054BFED0E09C
:100ECE00F9D0E0FAD0E0FBEE12042CEC900007F023
:100EDE00900004E0FFA3E0FEA3E0900FAF1205B870
:100EEE00EC75F00EA4ADF0F5828D83A3A312053937
:100EFE00FC900004E0FBA3E0FAA3E0F9EDC0E0EC07
:100F0E00C0E0900FAF1205AC900007E075F00EA494
:100F1E00ABF0F5828B8312055DFAD0E0FCD0E0FDDC
:100F2E00EA6C7002EB6D6003020FB8900004E0FFF4
:100F3E00A3E0FEA3E0FD900FAF1205B8900007E00E
:100F4E0075F00EA4ADF029F9EA3DFAE4FD041202A3
:100F5E0062900004E0A3E0A3E0FD900FAF1205B88D
:100F6E00900007E075F00EA4ADF029F9EA3DFA9075
:100F7E000004E0A3E0A3E0FDEBC0E0EAC0E0E9C0BE
:100F8E00E0900FAF1205B8900007E075F00EA4AD1B
:100F9E00F029F9EA3DFA900004120539FCD0E0F987
:100FAE00D0E0FAD0E0FBEC1203C7900008E0FC9012
:100FBE000004E0FFA3E0FEA3E0FD900FAF1205B822
:100FCE00900007E075F00EA4AFF029F9EA3FFA9011
:100FDE0000071205AC900004E0FBA3E0FAA3E0F9D1
:100FEE00EFC0E0EEC0E0EDC0E0900FAF1205AC90A8
:100FFE000007E075F00EA4ABF02DFDEE3BFEED24E8
:10100E0002FDEE3400FEE4FB041202ECF5828B834B
:10101E00D0E0FDD0E0FED0E0FFEC120707227C010D
:10102E00900000EFF0A3EEF0A3EDF0227C01900013
:10103E0000EFF0A3EEF0A3EDF022900004E4F0A395
:10104E00F0A3EDF0A3ECF0900004E0FDA3E0FCA310
:10105E00A3E0D39C900006E09D401BE4A29792E093
:10106E00F40404A2E092970CEC70010D900004EDD4
:10107E00F0A3ECF080D122C292D292C292227401DD
:10108E00900004F014A3F0D290A3F0ECA3F0900023
:10109E0006E0C394085024900004E0FC900007E0A2
:1010AE005C6004D2918002C291121085900004E01F
:1010BE00FF25E0F0A3A3E004F080D37401900004B8
:1010CE00F014A3A3F0900006E0C39408502A3091C8
:1010DE000B900004E0A3FCE04CF0800A900004E0CA
:1010EE00F4A3FCE05CF0121085900004E0FF25E014
:1010FE00F0A3A3E004F080CDC290900005E0FC22A6
:10110E007401900004F0D29014A3F0EDA3A3F0ECC0
:10111E00900006F0900005E0C39408502290000461
:10112E00E0FCA3A3E05C6004D2918002C291121095
:10113E0085900004E0FF25E0F0A3E004F080D57474
:10114E0001900004F014A3F0900005E0C394085041
:10115E0023900004E0FC900007E05C6004D29180D4
:10116E0002C291121085900004E0FF25E0F0A3E08A
:10117E0004F080D4C29022E4A29792E0F40404A278
:10118E00E09297E4900083F0E0FD7C8012110E7CDB
:10119E008112108CEC900083F033335401540170A3
:1011AE00012280D3E4A29792E0F40404A2E0929785
:1011BE00900012EFF0A3EEF0A3EDF07C8112108CF4
:1011CE00EC900083F0333354015401600412118506
:1011DE0022ECC4540F540775F00AA4FCE0540F2CF3
:1011EE0090000BF07C8312108CEC900083F0C454B2
:1011FE000F540775F00AA4FDEC540F2D90000CF05F
:10120E007C8512108CEC900083F0C4540F5407753B
:10121E00F00AA4FDEC540F2D90000DF07C8B1210F3
:10122E008CEC900083F0540F900011F07C8712101C
:10123E008CEC900083F0C4540F540775F00AA4FD93
:10124E00EC540F2D90000EF07C8912108CEC900057
:10125E0083F0C4540F540775F00AA4FDEC540F2DFF
:10126E0090000FF07C8D12108CEC900083F03333D5
:10127E00540154016017ECC4540F5407240875F040
:10128E000AA4FCE0540F2C900010F08013ECC45410
:10129E000F540775F00AA4FCE0540F2C900010F0C8
:1012AE00C39464503390000FE0C3940D502AE06055
:1012BE002790000EE0C39420501EE0601B90000D9E
:1012CE00E0C39418501290000CE0C3943C50099067
:1012DE00000BE0C3943C40347462900010F074092B
:1012EE0090000FF0741E90000EF0741390000DF02D
:1012FE00740A90000CF0E490000BF074039000114F
:10130E00F07D847E007F0112136A804F900010E002
:10131E00FCA3A3E0FFA3E0FEA3E0FDEC900005120A
:10132E00070790000FE090000412070790000EE0F0
:10133E0090000312070790000DE0900002120707BD
:10134E0090000CE090000112070790000BE01207CE
:10135E0000900011E090000612070722E4A2979277
:10136E00E0F40404A2E09297E4900083F0120515D5
:10137E0075F00A84FC5407C454F0FC900083E054CA
:10138E008F4CF012051575F00A84E5F0FC540FFC35
:10139E00900083E054F04CF0E0547FF0900008EFA2
:1013AE00F0A3EEF0A3EDF0900083E0FD7C8012112F
:1013BE000EE4A29792E0F40404A2E09297E4900067
:1013CE0083F0900008E0FFA3E0FEA3E0FD90000193
:1013DE0012051A75F00A84FC5407C454F0FC9000F0
:1013EE0083E0548F4CF090000112051A75F00A84B8
:1013FE00E5F0FC540FFC900083E054F04CF0E05408
:10140E007FF0E0FD7C8212110EE4A29792E0F404CC
:10141E0004A2E09297E4900083F0900008E0FFA30E
:10142E00E0FEA3E0FD90000212051A75F00A84FC9E
:10143E005407C454F0FC900083E0548F4CF090009D
:10144E000212051A75F00A84E5F0FC540FFC9000A8
:10145E0083E054F04CF0E0547FF0E0FD7C841211F8
:10146E000EE4A29792E0F40404A2E09297E49000B6
:10147E0083F0900008E0FFA3E0FEA3E0FD900003E0
:10148E0012051A75F00A84FC5407C454F0FC90003F
:10149E0083E0548F4CF090000312051A75F00A8405
:1014AE00E5F0FC540FFC900083E054F04CF0E05457
:1014BE007FF0E0FD7C8612110EE4A29792E0F40418
:1014CE0004A2E09297E4900083F0900008E0FFA35E
:1014DE00E0FEA3E0FD90000612051AFC540FFC90EE
:1014EE000083E054F04CF0E0547FF0E0FD7C8A1273
:1014FE00110EE4A29792E0F40404A2E09297E49015
:10150E000083F0900008E0FFA3E0FEA3E0FD900052
:10151E000412051A75F00A84FC5407C454F0FC90AA
:10152E000083E0548F4CF090000412051A75F00AF7
:10153E0084E5F0FC540FFC900083E054F04CF0E096
:10154E00547FF0E0FD7C8812110EE4A29792E0F435
:10155E000404A2E09297E4900083F0900008E0FF6C
:10156E00A3E0FEA3E0FD90000512051A75F00A84B3
:10157E00FC5407C454F0FC900083E0548F4CF09060
:10158E00000512051A75F00A84E5F0FC540FFC9064
:10159E000083E054F04CF090000512051AC39450ED
:1015AE00400B900083E0547F4480F08007900083CE
:1015BE00E0547FF0E0FD7C8C12110E22740190003D
:1015CE0026F014900025F0900024F004900023F0F3
:1015DE00900021E4F0A3F090001FF0A3F0FC7D8BAF
:1015EE007E007F0112087E74437D0890001FCDF0AF
:1015FE00A3CDF074477D0890001DCDF0A3CDF074FF
:10160E000190001CF07C007D8B7E007F01120B7020
:10161E007401900008F07C007D8B7E007F01120C1F
:10162E00E7D2AF22E4A29792E0F40404A2E09297EC
:10163E0090008FE0FDA3E0FCA3A3E06C7007900088
:10164E0091E06D6046900093E0603EC2AFECFEED1F
:10165E00FFCC2401CCCD3400CD90008FEDF0A3EC67
:10166E00F0EE2495F582EF3400F583E0F599D2AFD4
:10167E00C3EC94D0ED9407400BE4FCFD90008FED8D
:10168E00F0A3ECF0E4900093F080067401900094C7
:10169E00F022E4A29792E0F40404A2E09297900064
:1016AE008BE0FDA3E0FCA3A3E06C700790008DE03F
:1016BE006D6045C295900094E0700122ECFEEDFF46
:1016CE00CC2401CCCD3400CD90008BEDF0A3ECF00A
:1016DE00EE2465F582EF3408F583E0FC7D8B7E0009
:1016EE007F01120D19C390008CE094D090008BE016
:1016FE0094074004E4F0A3F022900034E4F0A3F049
:10170E00C3900035E09446900034E094005029E4F4
:10171E00A29792E0F40404A2E09297A3E02436F597
:10172E0082E43400F583E4F0900035E004F090009C
:10173E00347003E004F080C8E4A29792E0F404044D
:10174E00A2E0929790008AE07D00900032CDF0A347
:10175E00CDF0900084E0900030CDF0A3CDF090005D
:10176E0085E090002ECDF0A3CDF0900086E09000A5
:10177E002CCDF0A3CDF0900087E090002ACDF0A301
:10178E00CDF0900088E0900028CDF0A3CDF0900031
:10179E0089E0900026CDF0A3CDF07D4F7E087F022C
:1017AE00900023EFF0A3EEF0A3EDF07D367E001F48
:1017BE00121DC7900034E4F0A3F0900035E02436FB
:1017CE00F582E43400F583E0605FE4A29792E0F4E2
:1017DE000404A2E09297900034E0FDA3E0FCE00444
:1017EE00F09000347003E004F0EC2436F582E4341B
:1017FE0000F583E0900091FEE0FDA3E0FCE004F034
:10180E009000917003E004F0EC2495F582ED340025
:10181E00F583EEF0C3900092E094D0900091E094A6
:10182E00074004E4F0A3F08091E4900094F022C00D
:10183E00E0C082C083C0D0ECC0E0EDC0E0EEC0E0FE
:10184E00EFC0E0C2AF30983BC298D295E5999000B8
:10185E008DFEE0FDA3E0FCE004F090008D7003E04F
:10186E0004F0EC2465F582ED3408F583EEF0C390B8
:10187E00008EE094D090008DE094074004E4F0A335
:10188E00F0805B309958C29990008FE0FDA3E0FC88
:10189E00A3A3E06C7007900091E06D6039D294ECD8
:1018AE00FEEDFFCC2401CCCD3400CD90008FEDF0B9
:1018BE00A3ECF0EE2495F582EF3400F583E0F59974
:1018CE00C3EC94D0ED9407400BE4FCFD90008FED3B
:1018DE00F0A3ECF080087401900093F0C294D2AFA4
:1018EE00D0E0FFD0E0FED0E0FDD0E0FCD0D0D08341
:1018FE00D082D0E032D2967D137C88121048C296E8
:10190E00C291C292C290C295C2941215CA746290CC
:10191E000081F0740A900080F0740190007FF074E2
:10192E001290007EF0E490007DF0741490007CF034
:10193E007404900082F07D7C7E007F0112136AC2D7
:10194E0096E4A29792E0F40404A2E092977D847E3E
:10195E00007F011211B21217071216321216A07D55
:10196E00137C881210487D137C881210487D137CDE
:0D197E00881210487D137C8812104880C22A
:10084F0044415445203A2025642F25642F256420E8
:10085F002054494D45203A2025642F25642F2564C7
:0F086F002020594F494C203A202564200A0D00C3
:101E0D00FDFAF4E8D0A00C183060142850A05B2A1D
:101E1D005D2D2D2D2D2D2D2D2D2D2D2D2D2D2D2DB5
:101E2D002D2D2D2D2D2D2D2D2D2D2D2D2D2D2D2DD5
:101E3D002D2D2D2D2D2D2D2D2D2D2D2D2D2D2D2DC5
:101E4D002D2D2D2D2D2D5B2A5D005B2A5D20204A29
:101E5D00494E2D59414E472020494E445553545219
:101E6D0049414C2E2C434F204C54442020202020FF
:101E7D002020202020202020202020202020202055
:101E8D0020205B2A5D005B2A5D202050726F6772F7
:101E9D00616D203A205041524B2E204A6F6E674B98
:101EAD00696C20202044617465203A20313939381D
:101EBD002E20342E2030367E20342E2030375B2AD3
:101ECD005D005B2A5D2D2D2D2D2D2D2D2D2D2D2DD7
:101EDD002D2D2D2D2D2D2D2D2D2D2D2D2D2D2D2D25
:101EED002D2D2D2D2D2D2D2D2D2D2D2D2D2D2D2D15
:101EFD002D2D2D2D2D2D2D2D2D2D5B2A5D005B2AAC
:101F0D005D202056455253494F4E203A20312E78B0
:101F1D00782020202020202020202020202020205C
:101F2D0020202020202020202020202020202020A4
:101F3D002020202020205B2A5D005B2A5D2D2D2D89
:101F4D002D2D2D2D2D2D2D2D2D2D2D2D2D2D2D2DB4
:101F5D002D2D2D2D2D2D2D2D2D2D2D2D2D2D2D2DA4
:101F6D002D2D2D2D2D2D2D2D2D2D2D2D2D2D2D2D94
:101F7D002D2D5B2A5D000000000000000000000018
:101F8D000000000000000000000000000000000044
:101F9D000000000000000000000000000000000034
:101FAD000000000000000000000000000000000024
:101FBD000000000000000000000000000000000014
:0300230002183D83
:030000000200807B
:1000800075812F782F7600D8FC90180DAE83AF8243
:100090009000831200BE6005E4F0A380F690011C7E
:1000A0001200C79001201200C79001241200E590B1
:1000B000012A1200E575D000121903020130EF6524
:1000C000827003EE658322E493F8740193F974025D
:1000D00093FE740393F5828E83E869700122E493A2
:1000E000F6A30880F4E493FC740193FD740293FE7C
:1000F000740393FF740493F8740593F58288831254
:1001000000BE700122E493A3A883A9828C838D8210
:10011000F0A3AC83AD828883898280E330300840CD
:1001200030300840180D084308401810087E087E3B
:0201300080FE4F
:10198B00900009E4F0A3F090001012081C900010D6
:10199B001207EB120515900004F064256038E07017
:1019AB0009900009E0FDA3E0FC2290001512082E1F
:1019BB00900004E0FC900013E0FBA3E0F5828B8326
:1019CB0012080D12081A90000AE004F0900009703A
:1019DB0003E004F080B79000101207EB120515908E
:1019EB000004F0B4635090001812082E1205B2E9EF
:1019FB00C0E0740212024DD0E0F9C92401C9CA3407
:101A0B0000CA12050B900004F090001512082E90DE
:101A1B000004E0FC900013E0FBA3E0F5828B831243
:101A2B00080D12081A90000AE004F09000097003E8
:101A3B00E004F0021998B4735B90001812082E1290
:101A4B0005B2E9C0E0740312024DD0E0F91205A60D
:101A5B0090000D12081C90000D1207EB120515904B
:101A6B000004F0602C90001512082E900004E0FC8E
:101A7B00900013E0FBA3E0F5828B8312080D120894
:101A8B001A90000AE004F09000097003E004F08063
:101A9B00C5021998B46F1490000BE4F0A37408F00E
:101AAB009000077480F0A3E4F08030B464159000CC
:101ABB000BE4F0A3740AF09000077427F0A37410E2
:101ACB00F08018B478028003021A1490000BE4F033
:101ADB00A37410F0900007F0A3E4F0900018120824
:101AEB002E1205B2E9C0E0740212024DD0E0F912D9
:101AFB00053E900005CDF0A3CDF0900004E0B4645A
:101B0B00028003021B83ED335037A3A3C3E0FCE435
:101B1B009CF0900005E0FCE49CF090001512082E60
:101B2B00900013E0FCA3E0F5828C8312080D7C2D52
:101B3B0012081A90000AE004F09000097003E00408
:101B4B00F0900007E0FFA3E0FED3EE9401EF9400CA
:101B5B00401E900006E0C39E900005E09F5011E4EC
:101B6B00FB7A0AEEF8EFF912019AE8FEE9FF80D949
:101B7B00900007EFF0A3EEF0900005E0FDA3E0A3CB
:101B8B00FCE0FBA3E0FAECF8EDF912019AE89022E5
:101B9B00CB93FC90001512082E900013E0FBA3E0F2
:101BAB00F5828B8312080D12081A90000AE004F0DC
:101BBB009000097003E004F0900007E0FDA3E0FC47
:101BCB00FAEDFB900005E0F9A3E0F81201ED9000AF
:101BDB0005E9F0A3E8F090000BE0FDA3E0FCFAEDC3
:101BEB00FB900007E0F9A3E0F812019A900007E9D7
:0A1BFB00F0A3E8F049708102199888
:1022CB003031323334353637383941424344454661
:0122DB000002
:0622DC0001103D01180C89
:0308400001103D67
:101C050090000712081C9000011205B8EAFDE9C30F
:101C150090000CFEE0CE9EFC90000BE0FEED9ED306
:101C2500FDEC9404ED648094804038900007120820
:101C35002E9000011205B890000A12082E9000049B
:101C4500120825A312083790000112078390000A95
:101C550012082EE4120700900004120837900001C4
:101C650012078922900016EDF0A3ECF02404FCE4A1
:101C75003DFD9022E0E493FF740193C390180FFAA1
:101C8500E0CA9AFE90180EE0FAEF9AFFECD39EEDAB
:101C95009F505B90180D12082E74011207009000DA
:101CA50017E02404FA900016E03400C0E090001319
:101CB50012081CD0E0CAFDCAFE90180FE02DF0FDF9
:101CC50090180EE03EF0FE90180DE0FF9000131204
:101CD500083790000112078390180D12082E900006
:101CE50017E0C3CD9DFD900016E0CE9EFE2290220A
:101CF500DC12080190000D12081C90000EE0FDA3F7
:101D0500E0FC90180FE0D39C90180EE09D50030264
:101D15001DAF90000D12082E90001312081C12051D
:101D25001570729000011205B8EAFDE9C390000F25
:101D3500FEE0CE9EFC90000EE0FEED9EFDEC24FC48
:101D4500FCED34FFFD900017E0D39C900016E09D5C
:101D5500504390000DE0FFA3E0A3E02404FDEE3422
:101D650000FE90001312083774011206F29000105D
:101D750012081C900017E02DFD900016E03EFE9025
:101D8500000A12081CE9FDEAFEEBFF121C05900093
:101D95001012082E2290001312082E900001120531
:0F1DA500B890000D120825021CFFE4FDFEFF227E
:101DB4001205B2E9C0E0740112024DD0E0F9EC1250
:101DC40006F22290002012081C79267A007B0190EA
:101DD400001B120825791B7A009000181208257937
:101DE400207A00900015120825744B7B089000138C
:101DF400CBF0A3CBF090002312082E12198B900085
:091E040020120837E41206F22254
:10013200E88BF0A4C98AF0A429F9E88AF0A4F8E5CA
:05014200F029F948223C
:10014700EBC9FBEAC8FAEB335008E4C39AFAE49B1D
:10015700FBD392F0E930E709B2F0C3E498F8E499E9
:10016700F912019A30F008C3E498F8E499F94822A3
:10017700EBC9FBEAC8FA89F012014D20F706EAF845
:0D018700EBF94822C3E49AF8E49BF9482202
:10019400EBC9FBEAC8FAE94B7010E8C0F08AF084B6
:1001A400F8AAF0D0F079007B0022ECC0E0EDC0E0CA
:1001B400EEC0E07D007E007C10C3E833F8E933F93B
:1001C400ED33FDEE33FEED9AEE9B4005FEED9AFD18
:1001D40008DCE6EDFAEEFBD0E0FED0E0FDD0E0FC7A
:0301E400E84922C5
:0F01E700EBC9FBEAC8FA12019AEAF8EBF94822D1
:1001F60030E01B20E30C08E625F0F6F5F018E63CA7
:10020600F62209E725F0F7F5F019E73CF72230E288
:1002160011C083A3E025F0F5F0F01582D083E03C11
:10022600F02220E30C08E225F0F2F5F018E23CF2A9
:0D0236002209E325F0F3F5F019E33CF32273
:10024300F5F0E9CCF91206A0800D7900900001F5D4
:0F025300F0E9CCF91206C11201F6C9FCE5F02260
:10026200F5F0EDCCFD120652800D7D00900001F5F7
:0F027200F0EDCCFD12066F1201F6CDFCE5F02287
:1002810030E02720E31208E6C0E025F0F618E6F595
:10029100F03CF6E5F0D0F02209E7C0E025F0F719CF
:1002A100E7F5F03CF7E5F0D0F02230E217A3E0C02B
:1002B100E0C08325F0F01582D083E0F5F03CF0E555
:1002C100F0D0F02220E31208E2C0E025F0F218E2BB
:1002D100F5F03CF2E5F0D0F02209E3C0E025F0F3BF
:0B02E10019E3F5F03CF3E5F0D0F0224B
:1002EC00F5F0EBCCFB1206A08008F5F0EBCCFB1282
:0A02FC0006C1120281CBFCE5F022DE
:1003060030E03A30E302E9F8E8C0E0E6F908E6F85A
:1003160030F005120132801B30F10512014D8013B9
:1003260030F20512019A800B30F30512017D80032D
:100336001201EDD0E0C9F709C8F7C8F92230E23357
:10034600E0F9C083A3E0F830F005120132801B30DB
:10035600F10512014D801330F20512019A800B301F
:10036600F30512017D80031201EDE8F0D0831582BA
:10037600E9F02230E302E9F8E8C0E0E2F908E2F841
:1003860030F005120132801B30F10512014D801349
:1003960030F20512019A800B30F30512017D8003BD
:0D03A6001201EDD0E0C9F309C8F3C8F92237
:1003B30075F001801275F002800D75F004800875E8
:1003C300F008800375F000CACEC0E0EDCBCFC0E0EB
:1003D300E9FDE8C0E01206A0802875F001801275DF
:1003E300F002800D75F004800875F008800375F045
:1003F30000CACEC0E0EDCBCFC0E0E9FDE8C0E0121B
:1004030006C1120306D0E0C8FAE9CDF9D0E0CFFB6C
:05041300D0E0CECA227A
:1004180075F001801275F002800D75F00480087582
:10042800F008800375F000CACEC0E0EFCBFFE9CD3D
:10043800C0E0E8C0E01206A0802875F001801275BF
:10044800F002800D75F004800875F008800375F0DF
:1004580000CACEC0E0EFCBFFE9CDC0E0E8C0E012B3
:1004680006C1120306D0E0C8FAEDC9CFCBD0E0FD33
:05047800D0E0CECA2215
:10047D00E8FCE9FDEAFEEBFF8008ECF8EDF9EEFA99
:10048D00EFFBEC28FCED39FDEE3AFEEF3BFF4E4D58
:02049D004C22EF
:10049F00F5F0E9800DF5F0EB8008F5F0ED8003F550
:1004AF00F0EFD083D082C0E0C3E493A3C5F095F002
:1004BF00D0F0C0E0E493A3C5F095F070030204E51B
:0604CF00A3D0E0020501CC
:1004D500D083D082F5F0C3E493A3C5F095F0C0E0D6
:1004E500C3D0F0E493A395F04012A3A3C3E5F03382
:1004F500500205832582F58250020583740193C05D
:06050500E0E493C0E022D7
:10050B00120652800D12066F80081206A08003128D
:10051B0006C130E00720E302E622E72230E10720A4
:0E052B00E302E222E32230E202E022E4932225
:1005390012066F8003120652ADF012056FCDC5F099
:02054900CD22C1
:10054B0012066F8003120652AFF012056FCFC5F083
:02055B00CF22AD
:10055D001206C180031206A0ABF012056FCBC5F0D9
:02056D00CB229F
:10056F0030E01020E306E6F5F008E622E7F5F009A3
:10057F00E7192230E11020E306E2F5F008E222E36A
:10058F00F5F009E3192230E206E0F5F0A3E022E4EA
:07059F0093F5F074019322B3
:0605A600120652020606D7
:0605AC0012066F020606B4
:0605B2001206A00205BEC6
:0605B8001206C10205BE9F
:1005BE0030E01520E309E6FB08E6FA08E6F922E743
:1005CE00FB09E7FA09E7F92230E11520E309E2FB1E
:1005DE0008E2FA08E2F922E3FB09E3FA09E3F92259
:1005EE0030E209E0FBA3E0FAA3E0F922E493FB7406
:0805FE000193FA740293F92243
:1006060030E01720E309E6FF08E6FE08E6FD22E7EC
:10061600FF09E7FE09E7FD19192230E11720E30972
:10062600E2FF08E2FE08E2FD22E3FF09E3FE09E33A
:10063600FD19192230E209E0FFA3E0FEA3E0FD2246
:0C064600E493FF740193FE740293FD2204
:10065200BB0003740922BB010789828A83740422C6
:0D066200BB020789828A83741022740A2269
:10066F00BB0007E92582F8740122BB010DE9258241
:10067F00F582EA3583F583740422BB020DE92582E6
:10068F00F582EA3583F583741022E92582F8740226
:01069F002238
:1006A000BF0005EDF8740122BF01078D828E8374AF
:1006B0000422BF02078D828E83741022EDF874022B
:0106C0002217
:1006C100BF0007ED2582F8740122BF010DED2582DF
:1006D100F582EE3583F583740422BF020DED258288
:1006E100F582EE3583F583741022ED2582F87402CC
:0106F10022E6
:1006F200C0E01206528013C0E012066F800CC0E008
:100702001206A08005C0E01206C130E00B20E3040F
:10071200D0E0F622D0E0F72230E10B20E304D0E073
:0A072200F222D0E0F322D0E0F02232
:0B072C00C0E0EFC0E012066F02074DB6
:0B073700C0E0EBC0E01206A002074D7E
:0B074200C0E0EBC0E01206C102074D52
:10074D0030E01420E308D0E0F6D0E008F622D0E047
:10075D00F7D0E009F7192230E11420E308D0E0F2D8
:10076D00D0E008F222D0E0F3D0E009F31922D0E076
:06077D00F0D0E0A3F02221
:0607830012066F0207B030
:060789001206C102078FF9
:10078F0030E009EBF608EAF608E9F62230E109EB6A
:10079F00F208EAF208E9F222EBF0A3EAF0A3E9F09B
:0107AF002227
:1007B00030E01720E309EFF608EEF608EDF622EF39
:1007C000F709EEF709EDF719192230E11520E309D1
:1007D000EFF208EEF208EDF222EFF309EEF309ED85
:0B07E000F322EFF0A3EEF0A3EDF022F7
:1007EB00E0FFA3E0FEC083A3E0FD04F01582D083FD
:0607FB007003E004F0228F
:0C080100E493FF740193FE740293FD2247
:0D080D00740193F5F0E493F58385F08222E9
:02081A00E47385
:09081C00EFF0A3EEF0A3EDF022D1
:09082500EBF0A3EAF0A3E9F022D4
:09082E00E0FFA3E0FEA3E0FD22BF
:09083700E0FBA3E0FAA3E0F922C2
:00000001FF
:00000001FF
